:100000000C949A140C94C2140C94C2140C94C21440
:100010000C94C2140C94C2140C94C2140C94C21408
:100020000C94C2140C94C2140C94C2140C94C214F8
:100030000C94C2140C94C2140C94C2140C94C214E8
:100040000C94AC220C94C2140C94AC240C94862412
:100050000C94C2140C94C2140C94C2140C94C214C8
:100060000C94BD1B0C94C2140000000000000000A2
:100070000000000000000000000000000000000080
:100080000000000000000000000000000000000070
:100090000000000000000000000000000000000060
:1000A0000000000000000000000000000000000050
:1000B0000000000000000000000000000000000040
:1000C0000000000000000000000000000000000030
:1000D0000000000000000000000000000000000020
:1000E0000000000000000000000000000000000010
:1000F0000000000000000000000000000000000000
:1001000000000000000000000000000000000000EF
:1001100000000000000000000000000000000000DF
:1001200000000000000000000000000000000000CF
:1001300000000000000000000000000000000000BF
:1001400000000000000000000000000000000000AF
:10015000000000000000000000000000000000009F
:10016000000000000000000000000000000000008F
:10017000000000000000000000000000000000007F
:10018000000000000000000000000000000000006F
:10019000000000000000000000000000000000005F
:1001A000000000000000000000000000000000004F
:1001B000000000000000000000000000000000003F
:1001C0000000000000007FFFF3FFFF9FFFFCFFFF28
:1001D000E7FFFF3FFFF9FFFFCFFFFE7FFFF3FFFFCA
:1001E0009FFFFCFFFFE7FFFF007FFFF3FFFF9FFF85
:1001F000FCFFFFE7FFFF3FFFF9FFFFCFFFFE7FFFA1
:10020000F3FFFF9FFFFCFFFFE7FFFF007FFFF3FF10
:10021000FF9FFFFCFFFFE7FFFF3FFFF9FFFFCFFF5F
:10022000FE7FFFF3FFFF9FFFFCFFFFE7FFFF007F65
:10023000FFF3FFFF9FFFFCFFFFE7FFFF3FFFF9FF1B
:10024000FFCFFFFE7FFFF3FFFF9FFFFCFFFFE7FFF6
:10025000FF007FFFF3FFFF9FFFFCFFFFE7FFFF3F74
:10026000FFF9FFFFCFFFFE7FFFF3FFFF9FFFFCFFC4
:10027000FFE7FFFF007FFFF3FFFF9FFFFCFFFFE7AC
:10028000FFFF3FFFF9FFFFCFFFFE7FFFF3FFFF9F61
:10029000FFFCFFFFE7FFFF007FFFF3FFFF9FFFFC77
:1002A000FFFFE7FFFF3FFFF9FFFFCFFFFE7FFFF3F9
:1002B000FFFF9FFFFCFFFFE7FFFF007FFFF3FFFF54
:1002C0009FFFFCFFFFE7FFFF3FFFF9FFFFCFFFFEB0
:1002D0007FFFF3FFFF9FFFFCFFFFE7FFFF007FFFB4
:1002E000F3FFFF9FFFFCFFFFE7FFFF3FFFF9FFFF6B
:1002F000CFFFFE7FFFF3FFFF9FFFFCFFFFE7FFFF46
:10030000007FFFF3FFFF9FFFFCFFFFE7FFFF3FFFC3
:10031000F9FFFFCFFFFE7FFFF3FFFF9FFFFCFFFF13
:10032000E7FFFF007FFFF3FFFF9FFFFCFFFFE7FFFB
:10033000FF3FFFF9FFFFCFFFFE7FFFF3FFFF9FFFB0
:10034000FCFFFFE7FFFF007FFFF3FFFF9FFFFCFFC6
:10035000FFE7FFFF3FFFF9FFFFCFFFFE7FFFF3FF48
:10036000FF9FFFFCFFFFE7FFFF007FFFF3FFFF9F03
:10037000FFFCFFFFE7FFFF3FFFF9FFFFCFFFFE7F1F
:10038000FFF3FFFF9FFFFCFFFFE7FFFF007FFFF38F
:10039000FFFF9FFFFCFFFFE7FFFF3FFFF9FFFFCFDE
:1003A000FFFE7FFFF3FFFF9FFFFCFFFFE7FFFF0064
:1003B0007FFFF3FFFF9FFFFCFFFFE7FFFF3FFFF91A
:1003C000FFFFCFFFFE7FFFF3FFFF9FFFFCFFFFE775
:1003D000FFFF007FFFF3FFFF9FFFFCFFFFE7FFFF33
:1003E0003FFFF9FFFFCFFFFE7FFFF3FFFF9FFFFC03
:1003F000FFFFE7FFFF007FFFF3FFFF9FFFFCFFFF13
:10040000E7FFFF3FFFF9FFFFCFFFFE7FFFF3FFFF97
:100410009FFFFCFFFFE7FFFF007FFFF3FFFF9FFF52
:10042000FCFFFFE7FFFF3FFFF9FFFFCFFFFE7FFF6E
:10043000F3FFFF9FFFFCFFFFE7FFFF007FFFF3FFDE
:10044000FF9FFFFCFFFFE7FFFF3FFFF9FFFFCFFF2D
:10045000FE7FFFF3FFFF9FFFFCFFFFE7FFFF0000B2
:10046000000000000000000000000000000000008C
:10047000000000000000000000000000000000007C
:10048000000000000000000000000000000000006C
:10049000000000000000000000000000000000005C
:1004A00000000000007FFFF00000000000000000DE
:1004B000000000000000000000000000000000003C
:1004C0000000000007FFFF007FFFF00000000000B9
:1004D000000000000000000000000000000000001C
:1004E0000000000000000007FFFF007FFFF0000099
:1004F00000000000000000000000000000000000FC
:100500000000000000000000000007FFFF007FFF68
:10051000F0000000000000000000000000000000EB
:100520000000000000000000000000000007FFFFC6
:10053000007FFFF00000000000000000000000004D
:1005400000000000000000000000000000000000AB
:1005500007FFFF007FFFF000000000000000000028
:10056000000000000000000000000000000000008B
:1005700000000007FFFF007FFFF000000000000008
:10058000000000000000000000000000000000006B
:1005900000000000000007FFFF007FFFF0000000E8
:1005A000000000000000000000000000000000004B
:1005B00000000000000000000007FFFF007FFFF0C8
:1005C000000000000000000000000000000000002B
:1005D00000000000000000000000000007FFFF0016
:1005E0007FFFF0000000000000000000000000009D
:1005F00000000000000000000000000000000007F4
:10060000FFFF007FFFF0000000000000000000007E
:1006100000000000000000000000000000000000DA
:10062000000007FFFF007FFFF00000000000000057
:1006300000000000000000000000000000000000BA
:10064000000000000007FFFF007FFFF00000000037
:10065000000000000000000000000000000000009A
:10066000000000000000000007FFFF007FFFF00017
:10067000000000000000000000000000000000007A
:10068000000000000000000000000007FFFF007FE6
:10069000FFF000000000000000000000000000006B
:1006A000000000000000000000000000000007FF44
:1006B000FF007FFFF00000000000000000000000CD
:1006C000000000000000000000000000000000002A
:1006D0000007FFFF007FFFF00000000000000000A7
:1006E000000000000000000000000000000000000A
:1006F0000000000007FFFF007FFFF0000000000087
:1007000000000000000000000000000000000000E9
:100710000000000000000007FFFF007FFFF0000066
:1007200000000000000000000000000000000000C9
:100730000000000000000000000007FFFF000000B4
:1007400000000000000000000000000000000000A9
:100750000000000000000000000000000000000099
:100760000000000000000000000000000000000089
:100770000000000000000000000000000000000079
:10078000000000007FFFF000001FFFFC000007FFDB
:10079000FF000001FFFFC000007FFFF000001FFF0F
:1007A000FC000007FFFF007FFFF000001FFFFC00C0
:1007B0000007FFFF000001FFFFC000007FFFF00007
:1007C000001FFFFC000007FFFF007FFFF000001F7D
:1007D000FFFC000007FFFF000001FFFFC000007FDB
:1007E000FFF000001FFFFC000007FFFF007FFFF08D
:1007F00000001FFFFC000007FFFF000001FFFFC01B
:1008000000007FFFF000001FFFFC000007FFFF005B
:100810007FFFF000001FFFFC000007FFFF0000014A
:10082000FFFFC000007FFFF000001FFFFC0000077B
:10083000FFFF007FFFF000001FFFFC000007FFFF2D
:10084000000001FFFFC000007FFFF000001FFFFC61
:10085000000007FFFF007FFFF000001FFFFC00000B
:1008600007FFFF000001FFFFC000007FFFF0000056
:100870001FFFFC000007FFFF007FFFF000001FFFCD
:10088000FC000007FFFF000001FFFFC000007FFF2A
:10089000F000001FFFFC000007FFFF007FFFF000DB
:1008A000001FFFFC000007FFFF000001FFFFC0006A
:1008B000007FFFF000001FFFFC000007FFFF007F2C
:1008C000FFF000001FFFFC000007FFFF000001FF1A
:1008D000FFC000007FFFF000001FFFFC000007FFCB
:1008E000FF007FFFF000001FFFFC000007FFFF007C
:1008F0000001FFFFC000007FFFF000001FFFFC00B1
:100900000007FFFF007FFFF000001FFFFC00000753
:10091000FFFF000001FFFFC000007FFFF000001F8D
:10092000FFFC000007FFFF007FFFF000001FFFFC3F
:10093000000007FFFF000001FFFFC000007FFFF085
:1009400000001FFFFC000007FFFF007FFFF000001A
:100950001FFFFC000007FFFF000001FFFFC00000B9
:100960007FFFF000001FFFFC000007FFFF007FFF7C
:10097000F000001FFFFC000007FFFF000001FFFF69
:10098000C000007FFFF000001FFFFC000007FFFF1A
:10099000007FFFF000001FFFFC000007FFFF0000CA
:1009A00001FFFFC000007FFFF000001FFFFC000000
:1009B00007FFFF007FFFF000001FFFFC000007FFA4
:1009C000FF000001FFFFC000007FFFF000001FFFDD
:1009D000FC000007FFFF007FFFF000001FFFFC008E
:1009E0000007FFFF000001FFFFC000007FFFF000D5
:1009F000001FFFFC000007FFFF007FFFF000001F4B
:100A0000FFFC000007FFFF000001FFFFC000007FA8
:100A1000FFF000001FFFFC000007FFFF00000000C8
:100A200000000000000000000000000000000000C6
:100A300000000000000000000000000000000000B6
:100A400000000000000000000000000000000000A6
:100A50000000000000000000000000000000000096
:100A60000000007FFFF00000000000000000000018
:100A70000000000000000000000000000000000076
:100A8000000007FFFF007FFFF000000000000000F3
:100A90000000000000000000000000000000000056
:100AA000000000000007FFFF007FFFF000000000D3
:100AB0000000000000000000000000000000000036
:100AC000000000000000000007FFFF007FFFF000B3
:100AD0000000000000000000000000000000000016
:100AE000000000000000000000000007FFFF007F82
:100AF000FFF0000000000000000000000000000007
:100B0000000000000000000000000000000007FFDF
:100B1000FF007FFFF0000000000000000000000068
:100B200000000000000000000000000000000000C5
:100B30000007FFFF007FFFF0000000000000000042
:100B400000000000000000000000000000000000A5
:100B50000000000007FFFF007FFFF0000000000022
:100B60000000000000000000000000000000000085
:100B70000000000000000007FFFF007FFFF0000002
:100B80000000000000000000000000000000000065
:100B90000000000000000000000007FFFF007FFFD2
:100BA000F000000000000000000000000000000055
:100BB0000000000000000000000000000007FFFF30
:100BC000007FFFF0000000000000000000000000B7
:100BD0000000000000000000000000000000000015
:100BE00007FFFF007FFFF000000000000000000092
:100BF00000000000000000000000000000000000F5
:100C000000000007FFFF007FFFF000000000000071
:100C100000000000000000000000000000000000D4
:100C200000000000000007FFFF007FFFF000000051
:100C300000000000000000000000000000000000B4
:100C400000000000000000000007FFFF007FFFF031
:100C50000000000000000000000000000000000094
:100C600000000000000000000000000007FFFF007F
:100C70007FFFF00000000000000000000000000006
:100C8000000000000000000000000000000000075D
:100C9000FFFF007FFFF000000000000000000000E8
:100CA0000000000000000000000000000000000044
:100CB000000007FFFF007FFFF000000000000000C1
:100CC0000000000000000000000000000000000024
:100CD000000000000007FFFF007FFFF000000000A1
:100CE0000000000000000000000000000000000004
:100CF000000000000000000007FFFF0000000000EF
:100D000000000000000000000000000000000000E3
:100D100000000000000000000000000000000000D3
:100D200000000000000000000000000000000000C3
:100D300000000000000000000000000000000000B3
:100D400000007FFFF000001FFFFC000007FFFF0016
:100D50000001FFFFC000007FFFF000001FFFFC004C
:100D60000007FFFF007FFFF000001FFFFC000007EF
:100D7000FFFF000001FFFFC000007FFFF000001F29
:100D8000FFFC000007FFFF007FFFF000001FFFFCDB
:100D9000000007FFFF000001FFFFC000007FFFF021
:100DA00000001FFFFC000007FFFF007FFFF00000B6
:100DB0001FFFFC000007FFFF000001FFFFC0000055
:100DC0007FFFF000001FFFFC000007FFFF007FFF18
:100DD000F000001FFFFC000007FFFF000001FFFF05
:100DE000C000007FFFF000001FFFFC000007FFFFB6
:100DF000007FFFF000001FFFFC000007FFFF000066
:100E000001FFFFC000007FFFF000001FFFFC00009B
:100E100007FFFF007FFFF000001FFFFC000007FF3F
:100E2000FF000001FFFFC000007FFFF000001FFF78
:100E3000FC000007FFFF007FFFF000001FFFFC0029
:100E40000007FFFF000001FFFFC000007FFFF00070
:100E5000001FFFFC000007FFFF007FFFF000001FE6
:100E6000FFFC000007FFFF000001FFFFC000007F44
:100E7000FFF000001FFFFC000007FFFF007FFFF0F6
:100E800000001FFFFC000007FFFF000001FFFFC084
:100E900000007FFFF000001FFFFC000007FFFF00C5
:100EA0007FFFF000001FFFFC000007FFFF000001B4
:100EB000FFFFC000007FFFF000001FFFFC000007E5
:100EC000FFFF007FFFF000001FFFFC000007FFFF97
:100ED000000001FFFFC000007FFFF000001FFFFCCB
:100EE000000007FFFF007FFFF000001FFFFC000075
:100EF00007FFFF000001FFFFC000007FFFF00000C0
:100F00001FFFFC000007FFFF007FFFF000001FFF36
:100F1000FC000007FFFF000001FFFFC000007FFF93
:100F2000F000001FFFFC000007FFFF007FFFF00044
:100F3000001FFFFC000007FFFF000001FFFFC000D3
:100F4000007FFFF000001FFFFC000007FFFF007F95
:100F5000FFF000001FFFFC000007FFFF000001FF83
:100F6000FFC000007FFFF000001FFFFC000007FF34
:100F7000FF007FFFF000001FFFFC000007FFFF00E5
:100F80000001FFFFC000007FFFF000001FFFFC001A
:100F90000007FFFF007FFFF000001FFFFC000007BD
:100FA000FFFF000001FFFFC000007FFFF000001FF7
:100FB000FFFC000007FFFF007FFFF000001FFFFCA9
:100FC000000007FFFF000001FFFFC000007FFFF0EF
:100FD00000001FFFFC000007FFFF000000000000F2
:100FE0000000000000000000000000000000000001
:100FF00000000000000000000000000000000000F1
:1010000000000000000000000000000000000000E0
:1010100000000000000000000000000000000000D0
:10102000007FFFF000000000000000000000000052
:1010300000000000000000000000000000000000B0
:1010400007FFFF007FFFF00000000000000000002D
:101050000000000000000000000000000000000090
:1010600000000007FFFF007FFFF00000000000000D
:101070000000000000000000000000000000000070
:1010800000000000000007FFFF007FFFF0000000ED
:101090000000000000000000000000000000000050
:1010A00000000000000000000007FFFF007FFFF0CD
:1010B0000000000000000000000000000000000030
:1010C00000000000000000000000000007FFFF001B
:1010D0007FFFF000000000000000000000000000A2
:1010E00000000000000000000000000000000007F9
:1010F000FFFF007FFFF00000000000000000000084
:1011000000000000000000000000000000000000DF
:10111000000007FFFF007FFFF0000000000000005C
:1011200000000000000000000000000000000000BF
:10113000000000000007FFFF007FFFF0000000003C
:10114000000000000000000000000000000000009F
:10115000000000000000000007FFFF007FFFF0001C
:10116000000000000000000000000000000000007F
:10117000000000000000000000000007FFFF007FEB
:10118000FFF0000000000000000000000000000070
:10119000000000000000000000000000000007FF49
:1011A000FF007FFFF00000000000000000000000D2
:1011B000000000000000000000000000000000002F
:1011C0000007FFFF007FFFF00000000000000000AC
:1011D000000000000000000000000000000000000F
:1011E0000000000007FFFF007FFFF000000000008C
:1011F00000000000000000000000000000000000EF
:101200000000000000000007FFFF007FFFF000006B
:1012100000000000000000000000000000000000CE
:101220000000000000000000000007FFFF007FFF3B
:10123000F0000000000000000000000000000000BE
:101240000000000000000000000000000007FFFF99
:10125000007FFFF000000000000000000000000020
:10126000000000000000000000000000000000007E
:1012700007FFFF007FFFF0000000000000000000FB
:10128000000000000000000000000000000000005E
:1012900000000007FFFF007FFFF0000000000000DB
:1012A000000000000000000000000000000000003E
:1012B00000000000000007FFFF0000000000000029
:1012C000000000000000000000000000000000001E
:1012D000000000000000000000000000000000000E
:1012E00000000000000000000000000000000000FE
:1012F00000000000000000000000000000000000EE
:101300007FFFF000001FFFFC000007FFFF0000014F
:10131000FFFFC000007FFFF000001FFFFC00000780
:10132000FFFF007FFFF000001FFFFC000007FFFF32
:10133000000001FFFFC000007FFFF000001FFFFC66
:10134000000007FFFF007FFFF000001FFFFC000010
:1013500007FFFF000001FFFFC000007FFFF000005B
:101360001FFFFC000007FFFF007FFFF000001FFFD2
:10137000FC000007FFFF000001FFFFC000007FFF2F
:10138000F000001FFFFC000007FFFF007FFFF000E0
:10139000001FFFFC000007FFFF000001FFFFC0006F
:1013A000007FFFF000001FFFFC000007FFFF007F31
:1013B000FFF000001FFFFC000007FFFF000001FF1F
:1013C000FFC000007FFFF000001FFFFC000007FFD0
:1013D000FF007FFFF000001FFFFC000007FFFF0081
:1013E0000001FFFFC000007FFFF000001FFFFC00B6
:1013F0000007FFFF007FFFF000001FFFFC00000759
:10140000FFFF000001FFFFC000007FFFF000001F92
:10141000FFFC000007FFFF007FFFF000001FFFFC44
:10142000000007FFFF000001FFFFC000007FFFF08A
:1014300000001FFFFC000007FFFF007FFFF000001F
:101440001FFFFC000007FFFF000001FFFFC00000BE
:101450007FFFF000001FFFFC000007FFFF007FFF81
:10146000F000001FFFFC000007FFFF000001FFFF6E
:10147000C000007FFFF000001FFFFC000007FFFF1F
:10148000007FFFF000001FFFFC000007FFFF0000CF
:1014900001FFFFC000007FFFF000001FFFFC000005
:1014A00007FFFF007FFFF000001FFFFC000007FFA9
:1014B000FF000001FFFFC000007FFFF000001FFFE2
:1014C000FC000007FFFF007FFFF000001FFFFC0093
:1014D0000007FFFF000001FFFFC000007FFFF000DA
:1014E000001FFFFC000007FFFF007FFFF000001F50
:1014F000FFFC000007FFFF000001FFFFC000007FAE
:10150000FFF000001FFFFC000007FFFF007FFFF05F
:1015100000001FFFFC000007FFFF000001FFFFC0ED
:1015200000007FFFF000001FFFFC000007FFFF002E
:101530007FFFF000001FFFFC000007FFFF0000011D
:10154000FFFFC000007FFFF000001FFFFC0000074E
:10155000FFFF007FFFF000001FFFFC000007FFFF00
:10156000000001FFFFC000007FFFF000001FFFFC34
:10157000000007FFFF007FFFF000001FFFFC0000DE
:1015800007FFFF000001FFFFC000007FFFF0000029
:101590001FFFFC000007FFFF00000000000000002C
:1015A000000000000000000000000000000000003B
:1015B000000000000000000000000000000000002B
:1015C000000000000000000000000000000000001B
:1015D0000000000000000000000000000000007F8C
:1015E000FFF000000000000000000000000000000C
:1015F000000000000000000000000000000007FFE5
:10160000FF007FFFF000000000000000000000006D
:1016100000000000000000000000000000000000CA
:101620000007FFFF007FFFF0000000000000000047
:1016300000000000000000000000000000000000AA
:101640000000000007FFFF007FFFF0000000000027
:10165000000000000000000000000000000000008A
:101660000000000000000007FFFF007FFFF0000007
:10167000000000000000000000000000000000006A
:101680000000000000000000000007FFFF007FFFD7
:10169000F00000000000000000000000000000005A
:1016A0000000000000000000000000000007FFFF35
:1016B000007FFFF0000000000000000000000000BC
:1016C000000000000000000000000000000000001A
:1016D00007FFFF007FFFF000000000000000000097
:1016E00000000000000000000000000000000000FA
:1016F00000000007FFFF007FFFF000000000000077
:1017000000000000000000000000000000000000D9
:1017100000000000000007FFFF007FFFF000000056
:1017200000000000000000000000000000000000B9
:1017300000000000000000000007FFFF007FFFF036
:101740000000000000000000000000000000000099
:1017500000000000000000000000000007FFFF0084
:101760007FFFF0000000000000000000000000000B
:101770000000000000000000000000000000000762
:10178000FFFF007FFFF000000000000000000000ED
:101790000000000000000000000000000000000049
:1017A000000007FFFF007FFFF000000000000000C6
:1017B0000000000000000000000000000000000029
:1017C000000000000007FFFF007FFFF000000000A6
:1017D0000000000000000000000000000000000009
:1017E000000000000000000007FFFF007FFFF00086
:1017F00000000000000000000000000000000000E9
:10180000000000000000000000000007FFFF007F54
:10181000FFF00000000000000000000000000000D9
:10182000000000000000000000000000000007FFB2
:10183000FF007FFFF000000000000000000000003B
:101840000000000000000000000000000000000098
:101850000007FFFF007FFFF0000000000000000015
:101860000000000000000000000000000000000078
:101870000000000007FFFF00000000000000000063
:101880000000000000000000000000000000000058
:101890000000000000000000000000000000000048
:1018A0000000000000000000000000000000000038
:1018B00000000000000000000000000000007FFFAA
:1018C000F000001FFFFC000007FFFF000001FFFF0A
:1018D000C000007FFFF000001FFFFC000007FFFFBB
:1018E000007FFFF000001FFFFC000007FFFF00006B
:1018F00001FFFFC000007FFFF000001FFFFC0000A1
:1019000007FFFF007FFFF000001FFFFC000007FF44
:10191000FF000001FFFFC000007FFFF000001FFF7D
:10192000FC000007FFFF007FFFF000001FFFFC002E
:101930000007FFFF000001FFFFC000007FFFF00075
:10194000001FFFFC000007FFFF007FFFF000001FEB
:10195000FFFC000007FFFF000001FFFFC000007F49
:10196000FFF000001FFFFC000007FFFF007FFFF0FB
:1019700000001FFFFC000007FFFF000001FFFFC089
:1019800000007FFFF000001FFFFC000007FFFF00CA
:101990007FFFF000001FFFFC000007FFFF000001B9
:1019A000FFFFC000007FFFF000001FFFFC000007EA
:1019B000FFFF007FFFF000001FFFFC000007FFFF9C
:1019C000000001FFFFC000007FFFF000001FFFFCD0
:1019D000000007FFFF007FFFF000001FFFFC00007A
:1019E00007FFFF000001FFFFC000007FFFF00000C5
:1019F0001FFFFC000007FFFF007FFFF000001FFF3C
:101A0000FC000007FFFF000001FFFFC000007FFF98
:101A1000F000001FFFFC000007FFFF007FFFF00049
:101A2000001FFFFC000007FFFF000001FFFFC000D8
:101A3000007FFFF000001FFFFC000007FFFF007F9A
:101A4000FFF000001FFFFC000007FFFF000001FF88
:101A5000FFC000007FFFF000001FFFFC000007FF39
:101A6000FF007FFFF000001FFFFC000007FFFF00EA
:101A70000001FFFFC000007FFFF000001FFFFC001F
:101A80000007FFFF007FFFF000001FFFFC000007C2
:101A9000FFFF000001FFFFC000007FFFF000001FFC
:101AA000FFFC000007FFFF007FFFF000001FFFFCAE
:101AB000000007FFFF000001FFFFC000007FFFF0F4
:101AC00000001FFFFC000007FFFF007FFFF0000089
:101AD0001FFFFC000007FFFF000001FFFFC0000028
:101AE0007FFFF000001FFFFC000007FFFF007FFFEB
:101AF000F000001FFFFC000007FFFF000001FFFFD8
:101B0000C000007FFFF000001FFFFC000007FFFF88
:101B1000007FFFF000001FFFFC000007FFFF000038
:101B200001FFFFC000007FFFF000001FFFFC00006E
:101B300007FFFF007FFFF000001FFFFC000007FF12
:101B4000FF000001FFFFC000007FFFF000001FFF4B
:101B5000FC000007FFFF0000000000000000000084
:101B60000000000000000000000000000000000075
:101B70000000000000000000000000000000000065
:101B80000000000000000000000000000000000055
:101B9000000000000000000000000000007FFFF0D7
:101BA0000000000000000000000000000000000035
:101BB00000000000000000000000000007FFFF0020
:101BC0007FFFF000000000000000000000000000A7
:101BD00000000000000000000000000000000007FE
:101BE000FFFF007FFFF00000000000000000000089
:101BF00000000000000000000000000000000000E5
:101C0000000007FFFF007FFFF00000000000000061
:101C100000000000000000000000000000000000C4
:101C2000000000000007FFFF007FFFF00000000041
:101C300000000000000000000000000000000000A4
:101C4000000000000000000007FFFF007FFFF00021
:101C50000000000000000000000000000000000084
:101C6000000000000000000000000007FFFF007FF0
:101C7000FFF0000000000000000000000000000075
:101C8000000000000000000000000000000007FF4E
:101C9000FF007FFFF00000000000000000000000D7
:101CA0000000000000000000000000000000000034
:101CB0000007FFFF007FFFF00000000000000000B1
:101CC0000000000000000000000000000000000014
:101CD0000000000007FFFF007FFFF0000000000091
:101CE00000000000000000000000000000000000F4
:101CF0000000000000000007FFFF007FFFF0000071
:101D000000000000000000000000000000000000D3
:101D10000000000000000000000007FFFF007FFF40
:101D2000F0000000000000000000000000000000C3
:101D30000000000000000000000000000007FFFF9E
:101D4000007FFFF000000000000000000000000025
:101D50000000000000000000000000000000000083
:101D600007FFFF007FFFF000000000000000000000
:101D70000000000000000000000000000000000063
:101D800000000007FFFF007FFFF0000000000000E0
:101D90000000000000000000000000000000000043
:101DA00000000000000007FFFF007FFFF0000000C0
:101DB0000000000000000000000000000000000023
:101DC00000000000000000000007FFFF007FFFF0A0
:101DD0000000000000000000000000000000000003
:101DE00000000000000000000000000007FFFF00EE
:101DF0007FFFF00000000000000000000000000075
:101E000000000000000000000000000000000007CB
:101E1000FFFF007FFFF00000000000000000000056
:101E200000000000000000000000000000000000B2
:101E3000000007FFFF00000000000000000000009D
:101E40000000000000000000000000000000000092
:101E50000000000000000000000000000000000082
:101E60000000000000000000000000000000000072
:101E70000000000000000000000000007FFFF3FFF2
:101E8000FF9FFFFCFFFFE7FFFF3FFFF9FFFFCFFFD3
:101E9000FE7FFFF3FFFF9FFFFCFFFFE7FFFF007FD9
:101EA000FFF3FFFF9FFFFCFFFFE7FFFF3FFFF9FF8F
:101EB000FFCFFFFE7FFFF3FFFF9FFFFCFFFFE7FF6A
:101EC000FF007FFFF3FFFF9FFFFCFFFFE7FFFF3FE8
:101ED000FFF9FFFFCFFFFE7FFFF3FFFF9FFFFCFF38
:101EE000FFE7FFFF007FFFF3FFFF9FFFFCFFFFE720
:101EF000FFFF3FFFF9FFFFCFFFFE7FFFF3FFFF9FD5
:101F0000FFFCFFFFE7FFFF007FFFF3FFFF9FFFFCEA
:101F1000FFFFE7FFFF3FFFF9FFFFCFFFFE7FFFF36C
:101F2000FFFF9FFFFCFFFFE7FFFF007FFFF3FFFFC7
:101F30009FFFFCFFFFE7FFFF3FFFF9FFFFCFFFFE23
:101F40007FFFF3FFFF9FFFFCFFFFE7FFFF007FFF27
:101F5000F3FFFF9FFFFCFFFFE7FFFF3FFFF9FFFFDE
:101F6000CFFFFE7FFFF3FFFF9FFFFCFFFFE7FFFFB9
:101F7000007FFFF3FFFF9FFFFCFFFFE7FFFF3FFF37
:101F8000F9FFFFCFFFFE7FFFF3FFFF9FFFFCFFFF87
:101F9000E7FFFF007FFFF3FFFF9FFFFCFFFFE7FF6F
:101FA000FF3FFFF9FFFFCFFFFE7FFFF3FFFF9FFF24
:101FB000FCFFFFE7FFFF007FFFF3FFFF9FFFFCFF3A
:101FC000FFE7FFFF3FFFF9FFFFCFFFFE7FFFF3FFBC
:101FD000FF9FFFFCFFFFE7FFFF007FFFF3FFFF9F77
:101FE000FFFCFFFFE7FFFF3FFFF9FFFFCFFFFE7F93
:101FF000FFF3FFFF9FFFFCFFFFE7FFFF007FFFF303
:10200000FFFF9FFFFCFFFFE7FFFF3FFFF9FFFFCF51
:10201000FFFE7FFFF3FFFF9FFFFCFFFFE7FFFF00D7
:102020007FFFF3FFFF9FFFFCFFFFE7FFFF3FFFF98D
:10203000FFFFCFFFFE7FFFF3FFFF9FFFFCFFFFE7E8
:10204000FFFF007FFFF3FFFF9FFFFCFFFFE7FFFFA6
:102050003FFFF9FFFFCFFFFE7FFFF3FFFF9FFFFC76
:10206000FFFFE7FFFF007FFFF3FFFF9FFFFCFFFF86
:10207000E7FFFF3FFFF9FFFFCFFFFE7FFFF3FFFF0B
:102080009FFFFCFFFFE7FFFF007FFFF3FFFF9FFFC6
:10209000FCFFFFE7FFFF3FFFF9FFFFCFFFFE7FFFE2
:1020A000F3FFFF9FFFFCFFFFE7FFFF007FFFF3FF52
:1020B000FF9FFFFCFFFFE7FFFF3FFFF9FFFFCFFFA1
:1020C000FE7FFFF3FFFF9FFFFCFFFFE7FFFF007FA7
:1020D000FFF3FFFF9FFFFCFFFFE7FFFF3FFFF9FF5D
:1020E000FFCFFFFE7FFFF3FFFF9FFFFCFFFFE7FF38
:1020F000FF007FFFF3FFFF9FFFFCFFFFE7FFFF3FB6
:10210000FFF9FFFFCFFFFE7FFFF3FFFF9FFFFCFF05
:10211000FFE7FFFF000000000000000000000000DB
:1021200000000000000000000000000000000000AF
:102130000000000000000000FFF9E0FFF9E0FFF9F7
:10214000E0FFF9E0FFF9E0000000000000F3FFE02D
:10215000F3FFE0F3FFE0F3FFE0F3FFE00000000037
:102160000000FFE7E0FFE7E0FFE7E0FFE7E0FFE771
:10217000E0B7FFE0CFFFE087FFE0FFFFE0FFFFE019
:10218000FFFFE0FFFFE0FFFFE0FFFFE0FFFFE0FFFA
:10219000FFE0FFFFE0FFFFE0FFFFE0FFFFE0FFFFEA
:1021A000E0FFFFE0FFFFE0FFFFE0FFFFE0FFFFE0F9
:1021B000FFFFE0FFFFE0FFFFE0FD03E0FD01E0F2D5
:1021C00000E0FC0060F00060F00060F00060F000F3
:1021D00060F00060F800E0FC01E0FE03E0FFFFE0DB
:1021E000FFFFE00000000000000000000000000011
:1021F00000000000000000000000000000000000DF
:1022000000000000000000000000000000000000CE
:1022100000000000000000000000000000000000BE
:1022200000000000000000000000000000000707A0
:102230000007070007070007070000000000000074
:10224000000000000000000000000000000000008E
:10225000000000000000000000000000000000007E
:10226000000000000000001C1C001C1C001C1C00C6
:102270001C1C000000000000000000000000000026
:10228000000000000000000000000000000000004E
:10229000000000000000000000000000000000003E
:1022A0000000000E0E000E0E000E0E000E0E0000BE
:1022B000000000000000000000000000000000001E
:1022C000000000000000000000000000000000000E
:1022D0000000000000000E0E000E0E000E0E000E9C
:1022E0000E000000000000000000000000000000E0
:1022F00000000000000000000000000000000000DE
:102300000000000000000000000000000000000EBF
:102310000E001F1F001F1F001F1F001F1F000E0E9B
:1023200000000000000000000000000000000000AD
:10233000000000000000000000000000000000039A
:10234000F8000FFE001FFF0031F18020E08020E048
:102350008020E08060E0C071F1C07FFFC07FFFC0DF
:102360007FFFC07FFFC07FFFC079F3C030E18000F6
:10237000000000000000003E5B4F5B3E3E6B4F6B79
:102380003E1C3E7C3E1C183C7E3C181C577D571C56
:102390001C5E7F5E1C00183C1800FFE7C3E7FF00CF
:1023A00018241800FFE7DBE7FF30483A060E26291D
:1023B000792926407F050507407F05253F5A3CE7E0
:1023C0003C5A7F3E1C1C08081C1C3E7F14227F22A6
:1023D000145F5F005F5F06097F017F006689956A71
:1023E000606060606094A2FFA29408047E040810FC
:1023F000207E201008082A1C08081C2A08081E1025
:102400001010100C1E0C1E0C30383E3830060E3EDC
:102410000E06000000000000005F0000000700073B
:1024200000147F147F14242A7F2A12231308646265
:1024300036495620500008070300001C22410000C6
:1024400041221C002A1C7F1C2A08083E0808008024
:1024500070300008080808080000606000201008BC
:1024600004023E5149453E00427F400072494949BD
:10247000462141494D331814127F102745454539EF
:102480003C4A4949314121110907364949493646F3
:102490004949291E000014000000403400000008D3
:1024A0001422411414141414004122140802015976
:1024B00009063E415D594E7C1211127C7F49494903
:1024C000363E414141227F4141413E7F4949494198
:1024D0007F090909013E414151737F0808087F00C7
:1024E000417F41002040413F017F081422417F404D
:1024F0004040407F021C027F7F0408107F3E414124
:10250000413E7F090909063E4151215E7F09192993
:1025100046264949493203017F01033F4040403F7D
:102520001F2040201F3F4038403F631408146303BE
:10253000047804036159494D43007F41414102043D
:10254000081020004141417F040201020440404044
:102550004040000307080020545478407F2844443A
:10256000383844444428384444287F385454541854
:1025700000087E090218A4A49C787F08040478004F
:10258000447D40002040403D007F10284400004131
:102590007F40007C047804787C0804047838444444
:1025A0004438FC1824241818242418FC7C0804043B
:1025B00008485454542404043F44243C4040207CA4
:1025C0001C2040201C3C4030403C44281028444CF7
:1025D0009090907C4464544C4400083641000000C4
:1025E000770000004136080002010204023C262365
:1025F000263C1EA1A161123A4040207A385454551D
:1026000059215555794122545478422155547840E6
:1026100020545579400C1E5272123955555559396E
:102620005454545939555454580000457C410002C3
:10263000457D420001457C407D1211127DF0282528
:1026400028F07C545545002054547C547C0A097F62
:102650004932494949323A4444443A324A48483076
:102660003A4141217A3A42402078009DA0A07D3D28
:102670004242423D3D4040403D3C24FF2424487EB0
:102680004943662B2FFC2F2BFF0929F620C0887E9B
:10269000090320545479410000447D413048484AA0
:1026A00032384040227A007A0A0A727D0D19317D53
:1026B0002629292F28262929292630484D40203827
:1026C0000808080808080808382F10C8ACBA2F10E6
:1026D0002834FA00007B000008142A142222142A4D
:1026E00014085500550055AA55AA55AAFF55FF557F
:1026F000FF000000FF00101010FF00141414FF0072
:102700001010FF00FF1010F010F0141414FC00144F
:1027100014F700FF0000FF00FF1414F404FC14146D
:1027200017101F10101F101F1414141F001010106A
:10273000F0000000001F101010101F10101010F0FB
:1027400010000000FF101010101010101010FF10DB
:10275000000000FF140000FF00FF00001F10170022
:1027600000FC04F414141710171414F404F40000FB
:10277000FF00F714141414141414F700F7141414AD
:10278000171410101F101F141414F4141010F0104C
:10279000F000001F101F0000001F14000000FC14B8
:1027A0000000F010F01010FF10FF141414FF1410AC
:1027B00010101F00000000F010FFFFFFFFFFF0F0FF
:1027C000F0F0F0FFFFFF0000000000FFFF0F0F0F11
:1027D0000F0F3844443844FC4A4A4A347E02020609
:1027E00006027E027E0263554941633844443C043C
:1027F000407E201E2006027E020299A5E7A5991CB4
:102800002A492A1C4C7201724C304A4D4D303048D6
:10281000784830BC625A463D3E494949007E010134
:10282000017E2A2A2A2A2A44445F444440514A44C9
:102830004040444A51400000FF0103E080FF000097
:1028400008086B6B083612362436060F090F06008F
:102850000018180000001010003040FF0101001F98
:1028600001011E00191D1712003C3C3C3C000000F9
:102870000000EF03038002CF0300C130ED046403C6
:102880001281E803850078CB05392C003402F7016A
:1028900020EA020000C00123C10110C5023E28C782
:1028A00001863601483701003A0155B1020018B6D9
:1028B00003088227F20100260101E00F0F312B0CE3
:1028C0000E084EF1370710030E0900E10F000E1439
:1028D00003110731C148080F0C31360F11802980D0
:1028E0000000000000240027002A0000000008006B
:1028F00002010000030407000000000000000001C6
:102900000204081020408001020408102001020483
:1029100008102000000000250028002B00040404FB
:102920000404040404020202020202030303030378
:102930000300732A11241FBECFEFD8E0DEBFCDBF46
:1029400012E0A0E0B1E0EEEDF8E502C005900D92D6
:10295000A63DB107D9F725E0A6EDB2E001C01D9272
:10296000A530B207E1F714E1CAE9D4E104C0219728
:10297000FE010E945B2CC939D107C9F70E94DE26EF
:102980000C946D2C0C9400006F927F928F929F920A
:10299000AF92BF92CF92DF92EF92FF920F931F936D
:1029A000CF93DF93EC014B015A0169013801E881B3
:1029B000F9810284F385E02D0995E881F981028887
:1029C000F389E02D87019601A501B401CE01099597
:1029D000E881F981A501460D571D41505109028832
:1029E000F389E02D9601B401CE010995E881F981C2
:1029F0000088F189E02D9301A501B401CE0109956C
:102A0000E881F981C80CD91CB601615071090088B0
:102A1000F189E02D9301A501CE010995E881F981A5
:102A20000688F789E02DCE01DF91CF911F910F919C
:102A3000FF90EF90DF90CF90BF90AF909F908F90DE
:102A40007F906F900994CF92DF92EF92FF920F9355
:102A50001F93CF93DF9300D000D000D0CDB7DEB767
:102A60006C01DC01ED91FC916217730789F4041786
:102A700015072CF4942F852FA801092F182F041B5C
:102A8000150B98012F5F3F4F048CF58DE02D12C080
:102A90004017510709F5261737072CF4962F872F73
:102AA000B901292F382F261B370B2F5F3F4F068C7C
:102AB000F78DE02D8701C601099526960FB6F8948B
:102AC000DEBF0FBECDBFDF91CF911F910F91FF9061
:102AD000EF90DF90CF9008950284F385E02D2D8351
:102AE0003E834B835C8369837A830995D601ED919C
:102AF000FC910488F589E02D2D813E814B815C811C
:102B000069817A81C6010995D601ED91FC9106880B
:102B1000F789E02DC60126960FB6F894DEBF0FBEEA
:102B2000CDBFDF91CF911F910F91FF90EF90DF907C
:102B3000CF900994EF92FF920F931F93DC01ED91D8
:102B4000FC9111971A960D911C911B9718962D9137
:102B50003C91199700A0F1A1E02D7B0140E050E0ED
:102B600060E070E009951F910F91FF90EF9008953C
:102B70004F925F926F927F928F929F92AF92BF928D
:102B8000CF92DF92EF92FF920F931F93CF93DF9339
:102B900000D0CDB7DEB76C015A0139014801DC0124
:102BA000ED91FC910284F385E02D69837A83099588
:102BB0006981462E7A81572E640C751CD601ED91E1
:102BC000FC91461457046CF40088F189E02D8701CC
:102BD0009401A501B201C6010995BFEF4B1A5B0A2A
:102BE000EDCF0688F789E02DC6010F900F90DF9199
:102BF000CF911F910F91FF90EF90DF90CF90BF90FA
:102C0000AF909F908F907F906F905F904F900994BE
:102C1000AF92BF92CF92DF92EF92FF920F931F93EA
:102C2000CF93DF9300D000D0CDB7DEB75C01690150
:102C3000DC01ED91FC910284F385E02D4B835C83F4
:102C400069837A830995D501ED91FC9169817A8137
:102C50009B012C0D3D1D215031090488F589E02D83
:102C600078014B815C818A01C5010995D501ED91FF
:102C7000FC910688F789E02DC5010F900F900F9009
:102C80000F90DF91CF911F910F91FF90EF90DF9008
:102C9000CF90BF90AF900994AF92BF92CF92DF9246
:102CA000EF92FF920F931F93CF93DF9300D000D04A
:102CB000CDB7DEB75C016901DC01ED91FC910284C6
:102CC000F385E02D4B835C8369837A830995D50175
:102CD000ED91FC914B815C81C40ED51EB1E0CB1A05
:102CE000D1080488F589E02D7801860169817A810F
:102CF0009B01C5010995D501ED91FC910688F789E5
:102D0000E02DC5010F900F900F900F90DF91CF91A4
:102D10001F910F91FF90EF90DF90CF90BF90AF90F9
:102D200009940895EF92FF920F931F93DC01ED91A8
:102D3000FC9100A0F1A1E02D09951F910F91FF904A
:102D4000EF9008950F931F93DC01ED91FC91068C99
:102D5000F78DE02D09951F910F9108950F931F9303
:102D6000DC01ED91FC91048CF58DE02D09951F910E
:102D70000F910895DC01ED91FC910084F185E02D27
:102D8000099408952F923F924F925F926F927F9293
:102D90008F929F92AF92BF92CF92DF92EF92FF926B
:102DA0000F931F93CF93DF9300D01F92CDB7DEB761
:102DB0004C017B836A836A01590117019801241B26
:102DC000350B37FF03C0319521953109C5014A8183
:102DD0005B81841B950B97FF03C0919581959109A9
:102DE00051E059838217930714F019820BC09A2D72
:102DF0008B2D5801092F182F9A818B81DB82CA8273
:102E0000C92ED82E8A819B81A816B9065CF49C2D08
:102E10008D2D6801092F182F9A818B81BB82AA8280
:102E2000A92EB82E2501AA81BB814A1A5B0A380156
:102E30006C187D0877FE03C071946194710872016B
:102E400057FE03C0BFEFEB1AFB0AF594E794C016D8
:102E5000D1061CF00FEF1FEF1FC001E010E01CC0F7
:102E6000D401ED91FC91B9810484F585E02D9101A7
:102E7000BB23C1F04A815B81B601C4010995E61804
:102E8000F708F7FE04C0C00ED11EE40CF51CEA8161
:102E9000FB813196FB83EA834A815B81A416B506E8
:102EA000FCF604C0A6016A817B81E7CF0F900F90EA
:102EB0000F90DF91CF911F910F91FF90EF90DF90D6
:102EC000CF90BF90AF909F908F907F906F905F90CA
:102ED0004F903F902F90089585ED8093BC00809196
:102EE000BC0084FDFCCF1092E90308954091720369
:102EF000262F30E0240F311D21323105DCF42091E2
:102F0000E9032430C9F4FC0180E090E0861758F40E
:102F1000309172032191DC01A05BBC4FA30FB11D66
:102F20002C930196F3CF80917203680F6093720324
:102F300080E0089581E0089582E008950895E09189
:102F4000A2038091A103E81730F4F0E0ED55FC4FA7
:102F5000808190E008958FEF9FEF08959091A203F4
:102F60008091A103981750F4E92FF0E0ED55FC4F44
:102F7000208130E09F5F9093A20302C02FEF3FEFCC
:102F8000C90108958091A10390E02091A203821BC2
:102F900091090895CF92DF92EF92FF920F931F93C2
:102FA000CF93DF937C01262F972F8A0180910C0409
:102FB000882391F0C62FD72F6E01C40ED51ECC15D5
:102FC000DD0571F06991D701ED91FC910190F081DF
:102FD000E02DC7010995F3CF642F822F0E94761749
:102FE000C801DF91CF911F910F91FF90EF90DF907B
:102FF000CF900895CF93DF931F92CDB7DEB769834B
:1030000020910C042223D1F020910A04203240F0B8
:1030100021E030E0FC013383228380E090E015C0A2
:1030200080910B04E82FF0E0E651FC4F99819083EA
:103030008F5F80930B0480930A0405C061E0CE018A
:1030400001960E94761781E090E00F90DF91CF917A
:103050000895089580E090E0089580914E03909146
:103060004F0320914C0330914D03E8E2F2E042819E
:103070005381608171818617970719F424173507EA
:1030800041F0349642E0E837F40789F781E090E0B8
:10309000089580E090E0089580914E0390914F0351
:1030A00020914C0330914D03A8EEB2E0ED91FD91DB
:1030B000EE0FFF1FEE0FFF1FEC5FFE4F40815181AF
:1030C0008417950729F4428153812417350739F075
:1030D00043E0AC34B40751F781E090E0089580E01C
:1030E00090E008952F923F924F925F927F928F923D
:1030F0009F92AF92BF92CF92DF92EF92FF920F9387
:103100001F93CF93DF93CDB7DEB728970FB6F89410
:10311000DEBF0FBECDBF1C012B014A0159011C832C
:103120000B83C901079697FD07969C0193E035959F
:1031300027959A95E1F73A832983C12CD12C00E099
:1031400010E0EB81FC810E171F070CF03CC01886C5
:103150001F82F801E40DF51DFE83ED832F81388574
:103160002A153B054CF58F81988587709927892B07
:1031700011F0770C0EC0EF81F885F7FD379683E0EC
:10318000F595E7958A95E1F7EC0DFD1DE80DF91D24
:10319000749077FE0BC097014D815E816F817885B9
:1031A000620D731D88EC94E00E94A01D8F819885AC
:1031B000019698878F83D2CF0F5F1F4F89819A81A5
:1031C000C80ED91EBECF28960FB6F894DEBF0FBE2C
:1031D000CDBFDF91CF911F910F91FF90EF90DF90C6
:1031E000CF90BF90AF909F908F907F905F904F90C7
:1031F0003F902F900895AF92BF92CF92DF92EF92BF
:10320000FF920F931F93CF93DF936C015B01E12C2F
:1032100048EFF42E03E110E023E130E049E353E20C
:103220000E947218EE24EA94FE2C23E130E040E084
:1032300053E2B501C6010E947218C091E402D09118
:10324000E502C130D10541F43FE1E32EF12C23E149
:1032500030E047EC52E231C0CE018D7F892BA1F4E2
:103260002FE1E22EF12C03E110E023E130E04EE803
:1032700052E2B501C6010E94721882E090E090937C
:10328000E7028093E60221C0C330D10551F49FE1EB
:10329000E92EF12C03E110E023E130E045E552E2B4
:1032A0000CC0C430D10589F48FE1E82EF12C03E184
:1032B00010E023E130E04CE152E2B501C6010E948A
:1032C0007218D093E702C093E602DF91CF911F916D
:1032D0000F91FF90EF90DF90CF90BF90AF90089547
:1032E0000F931F93CF93DF93EC018B0149E353E2DC
:1032F0000E943D2440E053E2B801CE010E943D24EB
:103300008091E6029091E7028130910519F447EC33
:1033100052E210C08230910519F44EE852E20AC020
:103320008330910519F445E552E204C0049751F445
:103330004CE152E2B801CE01DF91CF911F910F9184
:103340000C943D24DF91CF911F910F9108952F92FE
:103350003F924F925F926F927F928F929F92AF9225
:10336000BF92CF92DF92EF92FF920F931F93CF9372
:10337000DF93CDB7DEB76C970FB6F894DEBF0FBE04
:10338000CDBF9C8F8B8F5B011A011F830E8337018A
:10339000C982DC0158964D915C91599741155105B0
:1033A00009F0E5C018968D919C91199768177907D7
:1033B0000CF0CAC11A968D919C911B97281639065C
:1033C0000CF0C2C18C2C912CFB0136E0C39EE00DA9
:1033D000F11D1124FB87EA871E161F060CF0B4C1ED
:1033E000C40133E0880F991F3A95E1F79D878C87D8
:1033F000820D931D181619060CF0A6C157968C91D4
:10340000811103C0203B08F02F5FAB8DBC8DED9187
:10341000FC9111970284F385E02DCD012A8F099547
:103420002A8DB5E02B9F90011124F5013596FF8779
:10343000EE87BB82AA822501A9014A195B09598B33
:10344000488BC10108969B8B8A8BE889F989E40D2A
:10345000F51DEE58FC4D9491988761013D822C82B8
:10346000A885A0FF13C0AB8DBC8DED91FC91B981F7
:10347000B13031F40484F585E02D2E813F8116C0F2
:103480000684F785E02DEE80FF801AC0EE81FF8173
:103490006E167F06F1F0AB8DBC8DED91FC91B9817C
:1034A000B13051F40484F585E02D9301A601B201F9
:1034B0008B8D9C8D09950DC00684F785E02D7301D9
:1034C000840194014C815D816A817B818B8D9C8D0F
:1034D0000995E885E695E887FFEFCF1ADF0A2C818A
:1034E0003D81280D391D3D832C834A895B89C41693
:1034F000D50609F0B5CF5FEF451A550A8A819B8141
:10350000880D991D9B838A83AE85BF854A165B060D
:1035100009F09BCFEE81FF816E167F0609F4F2C0A1
:10352000EB8DFC8DA081B181F981F13079F4B50189
:103530006B5F7F4F5096ED91FC915197830128E08E
:1035400030E0A1018B8D9C8D0995DCC06A857B855F
:10355000681979091E96ED91FC911F9773010C85EE
:103560001D859401A1018B8D9C8D0995CBC0FA011D
:1035700034969491329765917491291BCB01B7E0F1
:103580002B9F800D911D1124FA01259134913B8BC5
:103590002A8BFC01459154915B834A83FC0132964E
:1035A000C490319654915E87329614913196D4909E
:1035B0008981823058F0612E012E000C7708AD2DE4
:1035C0000D2C000CBB0BB987A88704C01986188680
:1035D000612C712CAB8DBC8DED91FC911197028407
:1035E000F385E02DCD010995B9818B2E912C689C36
:1035F000C001699C900D789C900D1124FC01EA0D8E
:10360000FB1DFD87EC871C82712C612CE12F110FB3
:10361000FF0B95012E0F3F1F3B872A87AC0CB11C77
:10362000A5014E0F5F1F5F8B4E8BC1018D0D911D4C
:10363000D7FC9A95998F888F4E85641608F062C0E2
:10364000862D90E048855985480F591F489D900167
:10365000499D300D589D300D1124D901A20DB31D87
:10366000B98BA88BAA84BB844C845D84DC80BA852A
:10367000DB1AE88DF98DE80FF91FFD8BEC8B8D2D92
:103680008A0D2E893F89A216B306B9F1877061F4BD
:103690008A819B810196EA89FB89AA81BB81EA0F15
:1036A000FB1F74909B838A8377FE20C0AB8DBC8DFB
:1036B000ED91FC91B981B13061F40484F585E02D80
:1036C0002E813F814C895D89B5018B8D9C8D09953B
:1036D0000DC00684F785E02DEE80FF808401940103
:1036E00048895989B2018B8D9C8D0995770CEFEF34
:1036F000AE1ABE0A480C591CC2CF3C813C0D3C831B
:1037000063949ACFAB8DBC8DED91FC911197068897
:10371000F789E02DCD016C960FB6F894DEBF0FBE91
:10372000CDBFDF91CF911F910F91FF90EF90DF9070
:10373000CF90BF90AF909F908F907F906F905F9051
:103740004F903F902F9009946C960FB6F894DEBF7F
:103750000FBECDBFDF91CF911F910F91FF90EF90E2
:10376000DF90CF90BF90AF909F908F907F906F90A1
:103770005F904F903F902F9008951F920F920FB639
:103780000F9211242F933F934F935F936F937F93E7
:103790008F939F93AF93BF93EF93FF938091B90063
:1037A000887F803609F49CC068F5883209F45BC0D4
:1037B00090F4803109F454C038F4882309F4F6C039
:1037C000883009F44DC0F6C0883109F44CC080320D
:1037D00009F45DC0EFC0803409F468C048F4803358
:1037E00009F455C0883309F0E5C08093E703D8C0D9
:1037F000803509F44FC0883509F45DC0883409F07C
:10380000D9C0D6C0883909F4C7C0A8F4883709F4EC
:1038100067C038F4883609F463C0803709F460C0A3
:10382000C9C0883809F4B8C0803909F45FC080384D
:1038300009F0C0C05BC0803B09F486C038F4803A10
:1038400009F466C0883A09F47FC0B4C0803C09F42A
:10385000A7C0883C09F4A4C0883B09F48AC0AAC068
:103860008091C40310C09091E6038091E5039817FE
:1038700070F5E091E60381E08E0F8093E603F0E0BF
:10388000EB53FC4F80818093BB0085EC86C0809316
:10389000E7038EC0E091E60381E08E0F8093E6039C
:1038A0008091BB00F0E0EB53FC4F80839091E603E6
:1038B0008091E5036EC0E091E60381E08E0F809376
:1038C000E6038091BB00F0E0EB53FC4F80838091D6
:1038D000E80381116DC081E08093C30384EA61C075
:1038E00083E08093E90310929603CFCF80919603F3
:1038F000803208F051C0E091960381E08E0F8093F2
:1039000096038091BB00F0E0EA58FC4F8083BDCF66
:1039100085EC8093BC001092E9038091960380327D
:1039200030F4E0919603F0E0EA58FC4F1082609189
:10393000960370E0E0917403F091750386E793E0DD
:1039400009951092960336C084E08093E9031092A3
:10395000730310927203E0917003F0917103099563
:1039600080917203811105C081E0809372031092EF
:103970005003E091730381E08E0F80937303F0E0B6
:10398000E05BFC4F80818093BB009091730380913A
:103990007203981708F479CF85E88093BC000AC0B9
:1039A00085EC8093BC001092E90304C01092E703F9
:1039B0000E946C17FF91EF91BF91AF919F918F91F2
:1039C0007F916F915F914F913F912F910F900FBE1B
:1039D0000F901F901895CF92DF92EF92FF920F9366
:1039E0001F93CF93DF9300D000D000D0CDB7DEB7C8
:1039F0006C01DC01ED91FC910284F385E02D2D83B7
:103A00003E834B835C8369837A830995D601ED916C
:103A1000FC910684F785E02D2D813E814B815C81F0
:103A200069817A81C6010995D601ED91FC910688DC
:103A3000F789E02DC60126960FB6F894DEBF0FBEBB
:103A4000CDBFDF91CF911F910F91FF90EF90DF904D
:103A5000CF900994EF92FF920F931F93CF93DF9330
:103A600000D000D000D0CDB7DEB77C01DC01ED91F5
:103A7000FC910284F385E02D2D833E834B835C8390
:103A800069837A830995D701ED91FC910288F389C6
:103A9000E02D2D813E814B815C8169817A81C70156
:103AA0000995D701ED91FC910688F789E02DC701B2
:103AB00026960FB6F894DEBF0FBECDBFDF91CF9133
:103AC0001F910F91FF90EF900994EF92FF920F9347
:103AD0001F93CF93DF9300D000D000D0CDB7DEB7D7
:103AE0007C01DC01ED91FC910284F385E02D2D83B6
:103AF0003E834B835C8369837A830995D701ED917B
:103B0000FC910088F189E02D2D813E814B815C8103
:103B100069817A81C7010995D701ED91FC910688E9
:103B2000F789E02DC70126960FB6F894DEBF0FBEC9
:103B3000CDBFDF91CF911F910F91FF90EF9009942E
:103B40000F931F93CF93DF9300D000D000D0CDB759
:103B5000DEB78C01DC01ED91FC910284F385E02D50
:103B60002D833E834B835C8369837A830995D801D7
:103B7000ED91FC910484F585E02D2D813E814B81F2
:103B80005C8169817A81C8010995D801ED91FC9128
:103B90000688F789E02DC80126960FB6F894DEBF97
:103BA0000FBECDBFDF91CF911F910F910994EF927E
:103BB000FF920F931F93DC01ED91FC910684F78532
:103BC000E02D780101E010E009951F910F91FF9021
:103BD000EF900895EF92FF920F931F93DC01ED9108
:103BE000FC910684F785E02D7801890121E030E021
:103BF00009951F910F91FF90EF900895FC0193A9F3
:103C000006A4F7A5E02D8081892B80830895CF93AA
:103C1000DF93FC0183A187FF05C06EBD0DB407FED5
:103C2000FDCF2EC028E030E040E8A6A1B7A1842F48
:103C3000862321F080A99C91892B0AC090A98C91A0
:103C4000C82FD0E0892F90E0809590958C239D23FC
:103C50008C9392A9C2A5D3A58881A82FB0E0892F03
:103C600090E0809590958A239B23888382A9A2A5C2
:103C7000B3A59C91892B8C93469521503109A9F6C7
:103C8000DF91CF9108954F925F926F927F928F92C2
:103C90009F92AF92BF92CF92DF92EF92FF920F93DB
:103CA0001F93CF93DF93EC016B01590148012885E5
:103CB0003985621773070CF067C08A859B854817A2
:103CC00059070CF061C08B010A0D1B1DF8013197DB
:103CD000DA01A80DB91DBD0161507109F7FD54C08D
:103CE00077FD52C0D7FE03C05801C12CD12C57FF1D
:103CF00003C04D0140E050E0E217F3071CF059010A
:103D0000AC18BD08681779071CF04C01841A950A95
:103D10009501D4010E94382C3B01582E492EE88190
:103D2000F98102A4F3A5E02D8401B601CE01099525
:103D30004301A52CB42C8BA187FF13C081149104DF
:103D4000A104B10409F1FEBC0DB407FEFDCFEEBC29
:103D50000DB407FEFDCF81E0881A9108A108B108D3
:103D6000EDCF81149104A104B10471F06F2DCE0147
:103D70000E94071E6E2DCE010E94071E81E0881A48
:103D80009108A108B108EDCFDF91CF911F910F915C
:103D9000FF90EF90DF90CF90BF90AF909F908F906B
:103DA0007F906F905F904F900895EF92FF920F93E6
:103DB0001F93CF93DF93EC0177FD33C088859985FE
:103DC0006817790774F557FD2CC08A859B854817BD
:103DD00059073CF5E32EF22EE881F98102A4F3A500
:103DE000E02D01E010E021E030E0CE0109958BA14B
:103DF00087FF09C0EEBC0DB407FEFDCFFEBC0DB4BD
:103E000007FEFDCF0EC06E2DCE010E94071E6F2D46
:103E1000CE01DF91CF911F910F91FF90EF900C9405
:103E2000071EDF91CF911F910F91FF90EF900895A2
:103E3000CF93DF93EC019CA9ECA5FDA52081422F37
:103E400050E0292F30E0209530952423352320831E
:103E5000CE010E94071E8CA9ECA5FDA59081892B9F
:103E60008083DF91CF9108958F929F92AF92BF92FE
:103E7000CF92DF92EF92FF920F931F93CF93DF9336
:103E8000EC01490181E0881A9108860E971EC40151
:103E9000A0E0B0E04B01A12CB12C5401992488245E
:103EA000882A992AAA2ABB2A680181E0C81AD1085F
:103EB000C40ED51EC601A0E0B0E06A01E12CF12CD1
:103EC0007601DD24CC24C82AD92AEA2AFB2A6AE210
:103ED000CE010E94181F2BA16B2D772788279927C9
:103EE00027FF18C06EBD0DB407FEFDCFC501AA2780
:103EF000BB278EBD0DB407FEFDCFBB27AB2D9A2D82
:103F0000892D8EBD0DB407FEFDCF8EBC0DB407FE0E
:103F1000FDCF14C0CE010E94071EB5018827992746
:103F2000CE010E94071E99278B2D7A2D692DCE0177
:103F30000E94071E682DCE010E94071E6BE2CE0173
:103F40000E94181F2BA16F2D77278827992727FFFD
:103F500018C06EBD0DB407FEFDCFC701AA27BB2751
:103F60008EBD0DB407FEFDCFBB27AF2D9E2D8D2D31
:103F70008EBD0DB407FEFDCFCEBC0DB407FEFDCF48
:103F800014C0CE010E94071EB70188279927CE01D1
:103F90000E94071E99278F2D7E2D6D2DCE010E9428
:103FA000071E6C2DCE010E94071E6CE2CE01DF9130
:103FB000CF911F910F91FF90EF90DF90CF90BF9026
:103FC000AF909F908F900C94181F0F931F93CF93D7
:103FD000DF931F92CDB7DEB78C01DC01ED91FC9130
:103FE0000284F385E02D698309956981611102C01E
:103FF00060E201C061E2C8010E94181FD801ED9182
:10400000FC910688F789E02DC8010F90DF91CF91D0
:104010001F910F9109941F93CF93DF93EC0163706D
:104020006D8B6230C1F0633001F1613051F080EF8F
:1040300090E09987888780E491E09B878A8718E4DD
:104040001DC080E491E09987888780EF90E09B878E
:104050008A8718E213C080EF90E09987888780E410
:1040600091E09B878A8718E809C080E491E09987EE
:10407000888780EF90E09B878A8718EEE881F98136
:104080000284F385E02DCE01099566E3CE010E94FE
:10409000181F612FCE010E94071EE881F981068852
:1040A000F789E02DCE01DF91CF911F9109940F93F5
:1040B0001F93CF93DF931F92CDB7DEB78C01DC0146
:1040C000ED91FC910284F385E02D69830995698166
:1040D000662319F0F80165A903C0D801D6966C9142
:1040E000C8010E94181FD801ED91FC910688F7893C
:1040F000E02DC8010F90DF91CF911F910F9109948E
:104100000895FC016370658B8481958126813781D8
:10411000613039F0633029F09187808733872287B7
:10412000089531872087938782870895BF92CF9221
:10413000DF92EF92FF920F931F93CF93DF93EC01E7
:10414000411551056105710521F440E052E16AE72E
:1041500070E04C8F5D8F6E8F7F8F88A187FD07C0C9
:1041600061E00E942A2561E088A10E94DE2461E0CE
:1041700089A10E942A2560E089A10E94DE248BA1EA
:1041800087FD16C061E08CA10E942A2560E08CA109
:104190000E94DE2461E08BA10E942A2561E08BA1B0
:1041A0000E94DE248DA187FD03C060E00E942A25C5
:1041B0008BA187FF33C01FB7F894809197038111BB
:1041C00027C0E7E2F9E28491E9E0F9E29491E82F6F
:1041D000F0E0EE0FFF1FEF51F74DA591B491EC9178
:1041E000E92321F461E08AE00E94DE2461E08AE0B4
:1041F0000E942A258CB580618CBD8CB580648CBDF5
:1042000061E08DE00E942A2561E08BE00E942A2572
:10421000809197038F5F809397031FBF8AA187FDCB
:1042200021C061E00E942A2561E08AA10E94DE246B
:1042300064E670E080E090E00E94662560E08AA17C
:104240000E94DE2464E670E080E090E00E94662533
:1042500061E08AA10E94DE2468EC70E080E090E0DA
:104260000E946625E881F9810284F385E02DCE0164
:10427000099502E718E27801EFEFEE1AFE0AF8015D
:104280006491662321F1CE010E94181F0E5F1F4F1B
:10429000F701E490FE2DFF77BF2E6801FF2EFA9400
:1042A0008FEFF81649F0F6016491CE010E94071EC7
:1042B000FFEFCF1ADF0AF3CF0B0D111DE7FEDBCFA7
:1042C00068E770E080E090E00E946625D4CFE88146
:1042D000F9810688F789E02DCE01099580EF90E0FD
:1042E0009987888780E491E09B878A87DF91CF91C7
:1042F0001F910F91FF90EF90DF90CF90BF900895A6
:10430000FC0183A187FF1EC0448D558D668D778D7E
:1043100020E080E092E1AAE7B0E0481759076A0779
:104320007B0740F4B695A795979587952F5F263024
:10433000A1F727E091E09227892F806A86959170F6
:104340008CBD9DBD93A906A4F7A5E02D8081282FE3
:1043500030E0892F90E0809590958223932380838D
:104360000895AF92BF92CF92EF92FF920F931F9357
:10437000CF93DF93EC01262F888D998D009709F05C
:1043800040C06A3059F41D861C862C898E859F8515
:1043900038E0239F800D911D112441C06D3009F438
:1043A000AAC08E898823C1F03C898C859D8546E012
:1043B000349F800D911D1124488559854817590750
:1043C0005CF41D861C868E859F8548E0349F800D99
:1043D000911D11249F878E87EA88FB880889198997
:1043E0004E855F856C857D85CC88CE010E94A7199E
:1043F0002C898C859D8536E0239F800D911D11248D
:1044000042C06A3079F41D861C862C89FC013696E0
:10441000E4918E859F852E9F800D911D11249F878D
:104420008E8769C06D3009F466C0FC013496349102
:10443000631708F460C03196E491E61708F45BC096
:10444000FC013296A590B490462F50E0431B5109D1
:1044500037E0349FB001359F700D1124A60EB71EB2
:10446000F501329634913196E491332311F0E11144
:104470000DC0F5013496E4912C898C859D85E29FD1
:10448000800D911D11249D878C8735C0F5013596CF
:1044900044915E89552311F16C89E32FF0E0E40F1C
:1044A000F11D47FDFA956E9FD0016F9FB00D11244D
:1044B0004C855D854A0F5B1FE885F985E417F50794
:1044C0006CF41D861C86FC013696E4918E859F85D2
:1044D0006E9F800D911D11249F878E87EA88FB882F
:1044E000088919894E855F856C857D85CC88CE01CC
:1044F0000E94A719BECF81E090E0DF91CF911F917C
:104500000F91FF90EF90CF90BF90AF9008953FB77D
:10451000F89480919D0390919E03A0919F03B09188
:10452000A00326B5A89B05C02F3F19F00196A11D39
:10453000B11D3FBFBA2FA92F982F8827820F911D39
:10454000A11DB11DBC01CD0142E0660F771F881F80
:10455000991F4A95D1F708951F920F920FB60F92A7
:1045600011242F933F938F939F93AF93BF93809189
:10457000990390919A03A0919B03B0919C03309171
:10458000980323E0230F2D3720F40196A11DB11DC0
:1045900005C026E8230F0296A11DB11D20939803A4
:1045A0008093990390939A03A0939B03B0939C03E9
:1045B00080919D0390919E03A0919F03B091A003D1
:1045C0000196A11DB11D80939D0390939E03A0931E
:1045D0009F03B093A003BF91AF919F918F913F91A3
:1045E0002F910F900FBE0F901F901895CF92DF92D2
:1045F000EF92FF920F931F93CF93DF936C017A0199
:104600008B01C0E0D0E0CE15DF0589F0D8016D91B7
:104610008D01D601ED91FC910190F081E02DC60154
:104620000995892B11F47E0102C02196ECCFC701B8
:10463000DF91CF911F910F91FF90EF90DF90CF907E
:104640000895FC01538D448D252F30E0842F90E098
:10465000821B930B541710F0CF960895019708957D
:10466000FC01918D828D981761F0828DDF01A80F7A
:10467000B11D5D968C91928D9F5F9F73928F90E09C
:1046800008958FEF9FEF0895FC01918D828D98170B
:1046900031F0828DE80FF11D858D90E008958FEF48
:1046A0009FEF0895FC01918D228D892F90E0805C11
:1046B0009F4F821B91098F7399270895FC01848D68
:1046C000DF01A80FB11DA35ABF4F2C91848D90E03C
:1046D00001968F739927848FA689B7892C93A08917
:1046E000B1898C9180648C93938D848D981306C0CE
:1046F0000288F389E02D80818F7D80830895EF9279
:10470000FF920F931F93CF93DF93EC0181E0888F8B
:104710009B8D8C8D981305C0E889F989808185FD72
:1047200024C0F62E0B8D10E00F5F1F4F0F73112763
:10473000E02E8C8DE8120CC00FB607FCFACFE8898A
:10474000F989808185FFF5CFCE010E945E23F1CFEC
:104750008B8DFE01E80FF11DE35AFF4FF0820B8FA6
:10476000EA89FB898081806207C0EE89FF896083C6
:10477000E889F98980818064808381E090E0DF911D
:10478000CF911F910F91FF90EF900895CF93DF93FA
:10479000EC01888D8823C9F0EA89FB89808185FD39
:1047A00005C0A889B9898C9186FD0FC00FB607FC9A
:1047B000F5CF808185FFF2CFA889B9898C9185FFDB
:1047C000EDCFCE010E945E23E7CFDF91CF91089518
:1047D0000E94612C009769F0FC0101900020E9F72C
:1047E0003197AF01481B590BBC018BE194E00C944D
:1047F000F62280E090E008958F929F92AF92BF9250
:104800000F931F93CF93DF93CDB7DEB7A1970FB66A
:10481000F894DEBF0FBECDBF19A2423008F44AE0C3
:104820008E010F5D1F4F842E912CA12CB12CA50160
:1048300094010E94F32BE62FB901CA01015011091E
:10484000EA3014F4E05D01C0E95CD801EC93232B5D
:10485000242B252B61F7C8010E94EA23A1960FB6ED
:10486000F894DEBF0FBECDBFDF91CF911F910F91A6
:10487000BF90AF909F908F9008959F92AF92BF92FC
:10488000CF92DF92EF92FF920F931F93CF93DF931C
:104890006C015A018B01E12CF12CC0E0D0E0CE017B
:1048A00087709927892B11F0990C0BC0FE0183E0CA
:1048B000F595E7958A95E1F7EE0DFF1DEA0DFB1DD5
:1048C000949097FE0AC020E030E0A801BE016C0D74
:1048D0007D1D88EC94E00E94A01D2196C331D10576
:1048E000F1F60F5F1F4F83E0E80EF11C89E3E81635
:1048F000F10499F6DF91CF911F910F91FF90EF9006
:10490000DF90CF90BF90AF909F9008951F920F922D
:104910000FB60F9211242F933F934F935F936F9392
:104920007F938F939F93AF93BF93EF93FF938BE10D
:1049300094E00E945E23FF91EF91BF91AF919F9110
:104940008F917F916F915F914F913F912F910F9038
:104950000FBE0F901F9018951F920F920FB60F92D7
:1049600011242F938F939F93EF93FF93E0912B0448
:10497000F0912C048081E0913104F091320482FDA9
:1049800012C09081809134048F5F8F732091350421
:10499000821751F0E0913404F0E0E55EFB4F958F13
:1049A0008093340401C08081FF91EF919F918F919A
:1049B0002F910F900FBE0F901F90189590E0FC0163
:1049C000E551F74D3491FC01E150F74D2491FC0184
:1049D000E35EF64DE491EE2309F43BC0332339F155
:1049E000333091F038F43130A9F0323001F584B52C
:1049F0008F7D12C0373091F03830A1F03430B9F4E7
:104A0000809180008F7D03C0809180008F7780939C
:104A100080000DC084B58F7784BD09C08091B0003F
:104A20008F7703C08091B0008F7D8093B000F0E05D
:104A3000EE0FFF1FED5EF64DA591B4918FB7F89480
:104A4000EC91611103C020952E2301C02E2B2C93D5
:104A50008FBF0895CF93DF9390E0FC01E150F74DB5
:104A60002491FC01E35EF64D8491882361F190E08E
:104A7000880F991FFC01EF51F74DC591D491FC01AE
:104A8000ED5EF64DA591B491611109C09FB7F89400
:104A90008881209582238883EC912E230BC062307D
:104AA00061F49FB7F8943881822F8095832388839F
:104AB000EC912E2B2C939FBF06C08FB7F894E88102
:104AC0002E2B28838FBFDF91CF9108958F929F92D5
:104AD000AF92BF92CF92DF92EF92FF926B017C0177
:104AE0000E9487224B015C01C114D104E104F1044E
:104AF000F1F00E948722DC01CB0188199909AA09EB
:104B0000BB09883E9340A105B10570F321E0C21AAC
:104B1000D108E108F10888EE880E83E0981EA11CF8
:104B2000B11CC114D104E104F10419F7DDCFFF90E9
:104B3000EF90DF90CF90BF90AF909F908F900895AF
:104B4000CF93C82F81E080930C0482E58093030506
:104B500010920B0410920A0488EB94E00E94FA175A
:104B60006C2F88EB94E00E94FA1780910A0481323E
:104B700008F045C09091E9039111FCCF92E0909329
:104B8000E90391E09093E8039FEF9093E70310927D
:104B9000E6038093E503AAEEB3E025EC33E0F901E8
:104BA0009E2F921B981718F49D919193F9CF109214
:104BB000C4038091C403846A8093C4038091C303B7
:104BC000813061F41092C3038091C4038093BB00D1
:104BD0008091BC0083FDF8CF85EC01C085EE809309
:104BE000BC008091E9038230E1F38091E7038F3FBD
:104BF00031F08091E703803211F08091E703109249
:104C00000B0410920A0410920C046AE070E080E039
:104C100090E0CF910C946625EF92FF921F93CF9373
:104C2000DF93CDB7DEB72C970FB6F894DEBF0FBE7B
:104C3000CDBF8091E9038111FCCF81E08093E9032E
:104C40008093E8039FEF9093E7031092E60395E0CB
:104C50009093E5038093C4038091C403846A809396
:104C6000C4038091C303813061F41092C303809127
:104C7000C4038093BB008091BC0083FDF8CF85EC1A
:104C800001C085EE8093BC008091E9038130E1F39F
:104C90008091E603863018F41091E60301C016E017
:104CA000A5ECB3E023EA33E0F9018E2F821B8117D4
:104CB00018F48D918193F9CF1092A2031093A10360
:104CC000CE0101967C018091A203181749F088EB70
:104CD00094E00E94AE17F701819391937F01F3CF87
:104CE00089819A8190930E0480930D048B819C811D
:104CF0009093100480930F048B859C859C013595BF
:104D0000279535952795A901437055272D813E811B
:104D1000220F331F220F331F242B352B3093120405
:104D2000209311049C0174E0359527957A95E1F75D
:104D3000A901437055272F813885220F331F220F79
:104D4000331F242B352B30931404209313049C0120
:104D5000F6E035952795FA95E1F7A90143705527B7
:104D600029853A85220F331F220F331F242B352B21
:104D700030931604209315049C0121703327F1E031
:104D80002F27309318042093170421E030E081FF8F
:104D900002C020E030E030931A042093190460E050
:104DA00080E02C960FB6F894DEBF0FBECDBFDF912A
:104DB000CF911F91FF90EF900C94A025CF93DF939C
:104DC000CDB7DEB7C259D1090FB6F894DEBF0FBE1A
:104DD000CDBF789484B5826084BD84B5816084BD84
:104DE00085B5826085BD85B5816085BD80916E0089
:104DF000816080936E0010928100809181008260BA
:104E000080938100809181008160809381008091F6
:104E100080008160809380008091B10084608093E5
:104E2000B1008091B00081608093B00080917A00E1
:104E3000846080937A0080917A00826080937A0007
:104E400080917A00816080937A0080917A008068F6
:104E500080937A001092C1001092A2031092A103D5
:104E600010920B0410920A041092E90381E08093DF
:104E7000E8031092C30361E082E10E94DE2461E056
:104E800083E10E94DE248091B9008E7F8093B90077
:104E90008091B9008D7F8093B90088E48093B80039
:104EA00085E48093BC0060EF85E50E94A0256BEF50
:104EB00080E00E94A0250E940C2640E050E0BA014C
:104EC00088EC94E00E94962061E088EC94E00E94D7
:104ED0000B20E0912B04F0912C0482E08083E09180
:104EE0002704F09128041082E0912904F0912A040B
:104EF0008FEC808310923304E0912F04F091300402
:104F000086E08083E0912D04F0912E048081806101
:104F10008083E0912D04F0912E048081886080834D
:104F2000E0912D04F0912E04808180688083E091CF
:104F30002D04F0912E0480818F7D808360E070E0ED
:104F400088EC94E00E949A15AAEBEA2EA6EDFA2EC0
:104F500000EF10E021E131E048E650E060E070E071
:104F600080E090E00E94721880E480937C00809141
:104F70007A00806480937A0080917A0086FDFCCF6D
:104F8000809178002091790090E0922B0E94B62BBE
:104F9000C12CD12CFAE4AF2EB12C4E0125E9820EA2
:104FA000911C0E94B12BB5010E94242CFE01319668
:104FB000219131912817390721F0E815F905C1F73A
:104FC00063C231E0C31AD1083FEFC31AD30A83E3A7
:104FD000C816D10434F342E950E060E370E0CE013A
:104FE00001960E94662C6FE170E086E190E00E94DD
:104FF000FB1868EEA62E62E0B62EF501C190D190A6
:105000005F0126010D2C000C6608770877FE14C09E
:10501000E0911B04F0911C040190F081E02D6DE201
:105020008BE194E0099566277727CB016419750910
:10503000860997094AE003C04AE0C301B2010E9411
:10504000FC2380ED92E00E94EA238601000F111FED
:10505000000F111F0C5F1E4FF8016081718180E00D
:1050600090E04AE00E94FC2383ED92E00E94EA2354
:10507000F8016281738180E090E04AE00E94FC23A5
:1050800080ED92E00E94EA23FEE4AF16F3E0BF0653
:1050900009F0B3CF92E0492E512CCC24C394D12CEB
:1050A00033E0832E912C44E0642E712C0E940C2658
:1050B00080910D0490910E042091DA023091DB0270
:1050C0002817390761F44091D8025091D9022091F4
:1050D0000F04309110044217530709F44DC1209179
:1050E000D6023091D702232B09F046C19093DB0200
:1050F0008093DA0220910F04309110043093D9028A
:105100002093D802893C9105CCF10091C6041091FE
:10511000C704C801459690934F0380934E03A09017
:10512000C404B090C504B0924D03A0924C034697BE
:10513000833D9105F0F40E942D180197D1F40E944F
:105140004C180197B1F4B501C8010E947019609123
:10515000C4047091C50480914E0390914F030E9446
:10516000FB1880914E0390914F039093C704809356
:10517000C6047092E5026092E402B2C08897CCF552
:105180000091C6041091C704C801459790934F033E
:1051900080934E03A090C404B090C504B0924D0318
:1051A000A0924C034697833D9105F0F40E942D1880
:1051B0000197D1F40E944C180197B1F4B501C801D0
:1051C0000E9470196091C4047091C50480914E03CF
:1051D00090914F030E94FB1880914E0390914F03D2
:1051E0009093C7048093C6049092E5028092E402F3
:1051F00077C0293C3105CCF10091C6041091C70459
:1052000010934F0300934E03A090C404B090C504C4
:10521000C501459790934D0380934C034F97893A6E
:105220009105F0F40E942D180197D1F40E944C18BA
:105230000197B1F4B501C8010E94701960914C0347
:1052400070914D038091C6049091C7040E94FB1891
:1052500080914C0390914D039093C5048093C404B6
:10526000D092E502C092E4023BC028323105E4F559
:105270000091C6041091C70410934F0300934E038E
:10528000A090C404B090C504C501459690934D0309
:1052900080934C034F97893A9105F0F40E942D18A2
:1052A0000197D1F40E944C180197B1F4B501C801DF
:1052B0000E94701960914C0370914D038091C60457
:1052C0009091C7040E94FB1880914C0390914D036C
:1052D0009093C5048093C4045092E5024092E40286
:1052E000D092D702C092D6028091E0029091E10262
:1052F000019709F041C06091DC027091DD02EE245B
:10530000EA94FE2C03E110E023E130E043EE51E2A9
:105310008091DE029091DF020E9472186091DC029F
:105320007091DD02BAEBEB2EB6EDFB2E23E130E0FF
:105330004AEA51E28091DE029091DF020E947218E7
:105340006091DC027091DD028AE6E82E8DEFF82E86
:1053500023E130E041E751E28091DE029091DF02EB
:105360000E9472186091C4047091C5048091C604B3
:105370009091C7040E94FB1880910D0490910E0437
:1053800085569109879760F480910F0490911004DD
:105390008F569109879720F41092D7021092D60267
:1053A000A0901704B090180421E0A216B10409F0EF
:1053B0005FC08091E2029091E302892B09F058C00E
:1053C0008091E0029091E102892B09F051C0609137
:1053D000C4047091C504EE24EA94FE2C03E110E0AD
:1053E00023E130E043EE51E28091C6049091C7047E
:1053F0000E9472186091C4047091C504EAEBEE2E0D
:10540000E6EDFE2E23E130E04AEA51E28091C60447
:105410009091C7040E9472186091C4047091C504F1
:10542000FAE6EF2EFDEFFF2E23E130E041E751E2F7
:105430008091C6049091C7040E9472188091C6049E
:105440009091C7049093DF028093DE026091C404C0
:105450007091C5047093DD026093DC020E94FB181A
:10546000B092E302A092E202B092E102A092E002C6
:105470008091170490911804892B09F017CE10928F
:10548000E3021092E20212CEF601EE0FFF1FE85186
:10549000FD4F91838083FC01EE0FFF1F21E030E080
:1054A0002C0F3D1FE20FF31F91838083FC01EE0F51
:1054B000FF1FEE0FFF1FEC5FFE4FA081B1816281E5
:1054C00073818934910509F47FCDE2E2EE2EE2EB9F
:1054D000FE2E03E110E023E130E048E351E2CD018C
:1054E0000E94721871CDEBE1F4E01382128288EE13
:1054F00093E0A0E0B0E084839583A683B7832CE794
:1055000032E03183208325EC30E03587248724EC9A
:1055100030E03787268720EC30E0318B208B21EC80
:1055200030E0338B228B22EC30E0358B248B26EC61
:1055300030E0378B268B118E128E138E148EE8EB93
:10554000F4E01382128284839583A683B7838EE866
:1055500092E091838083A8ECB4E013961C921E9293
:10556000129720EF30E015963C932E93149780E429
:1055700091E017969C938E93169719963C932E93D1
:1055800018971B969C938E931A9755961C92559735
:105590001D961C921E921C971F961C921E921E977F
:1055A00081E054968C9354972FEF3FEF53963C93A2
:1055B0002E93529751963C932E93509756968C93D8
:1055C000569757961C92579759961C921E92589729
:1055D000D5961C92D597D6961C92D697D8961C92A3
:1055E0001E92D797DA961C921E92D9978AE09096CF
:1055F0008C93909789E091968C9391978FEF9296E8
:105600008C93929724E035E05B963C932E935A97C7
:1056100093968C93939794968C93949795968C935A
:1056200095975C961D921D921D921C925F979B967A
:105630001C921E929A97D2961C92D29797961C9281
:105640001E929697D0961C92D09799961C921E9275
:105650009897D1961C92D197E6E2F9E2E491F0E0B6
:10566000EE0FFF1FED5EF64D859194919D969C93F4
:105670008E939C97E8E0F9E2E491D496EC93D4976A
:10568000E7E2F9E2E491F0E0EE0FFF1FED5EF64D88
:10569000859194919F969C938E939E97E9E0F9E271
:1056A000E491D396EC93D39780EA92E08D939C9308
:1056B00086E190E09093C7048093C6048FE190E068
:1056C0009093C5048093C40408958F929F92AF92E3
:1056D000BF92CF92DF92EF92FF92CF93DF93EC01D4
:1056E000688179818A819B816115710581059105A8
:1056F00021F464E279ED8BE597E02DE133EF41E0B1
:1057000050E00E94C12B49015A019B01AC01A7EA5C
:10571000B1E40E94E02B6B017C01ACEEB4EFA5017B
:1057200094010E94EE2BDC01CB018C0D9D1DAE1D62
:10573000BF1DB7FF03C00197A109B04888839983B3
:10574000AA83BB839F77DF91CF91FF90EF90DF908B
:10575000CF90BF90AF909F908F9008950E94652B3F
:10576000089580E091E00E94652B0895A0E0B0E0EC
:105770008093000190930101A0930201B093030173
:105780000895052E97FB1EF400940E94D82B57FD18
:1057900007D00E94F32B07FC03D04EF40C94D82BB7
:1057A00050954095309521953F4F4F4F5F4F08954D
:1057B00090958095709561957F4F8F4F9F4F08957D
:1057C0000E94152CA59F900DB49F900DA49F800D55
:1057D000911D11240895B7FF0C94E02B0E94E02B3B
:1057E000821B930B0895A1E21A2EAA1BBB1BFD017D
:1057F0000DC0AA1FBB1FEE1FFF1FA217B307E407B0
:10580000F50720F0A21BB30BE40BF50B661F771F07
:10581000881F991F1A9469F76095709580959095E7
:105820009B01AC01BD01CF010895A29FB001B39FC0
:10583000C001A39F700D811D1124911DB29F700D99
:10584000811D1124911D089597FB072E16F40094D5
:1058500007D077FD09D00E94472C07FC05D03EF405
:10586000909581959F4F0895709561957F4F08950C
:105870000E94152C332312F48A1B9B0B0C94422C90
:105880000E94152CB7FF0895821B930B0895AA1B45
:10589000BB1B51E107C0AA1FBB1FA617B70710F01B
:1058A000A61BB70B881F991F5A95A9F7809590954D
:1058B000BC01CD010895EE0FFF1F0590F491E02D7E
:1058C000099481E090E0F8940C946D2CDC0101C007
:0E58D0006D9341505040E0F70895F894FFCFDB
:1058DE00010000001600490016005E00160073005D
:1058EE001600880016009D001600B2001600C700B4
:1058FE002B0049002B0073002B009D002B00C700CE
:10590E0040001F00400034004000490040005E008F
:10591E00400073004000880040009D004000B2002F
:10592E004000C70055001F00550049005500730088
:10593E0055009D005500C7006A001F006A00340024
:10594E006A0049006A005E006A0073006A008800FF
:10595E006A009D006A00B2006A00C7007F001F0047
:10596E007F0049007F0073007F009D007F00C7000D
:10597E0094001F00940034009400490094005E00CF
:10598E00940073009400880094009D009400B2006F
:10599E009400C700A9001F00A9004900A9007300C8
:1059AE00A9009D00A900C700BE001F00BE00340064
:1059BE00BE004900BE005E00BE007300BE0088003F
:1059CE00BE009D00BE00B200BE00C700D3001F0087
:1059DE00D3004900D3007300D3009D00E8001F00E0
:1059EE00E8003400E8004900E8005E00E8007300BB
:1059FE00E8008800E8009D002B00340055003400BC
:105A0E007F003400A9003400D30034002B005E0068
:105A1E0055005E007F005E00A9005E00D3005E00B0
:105A2E002B008800550088007F008800A9008800A0
:105A3E00D30088002B00B2005500B2007F00B200E8
:105A4E00A900B200D300B200000000007F23F622AE
:105A5E002123C62352233023442300000000FA17CB
:105A6E00CA172A189E17C217AE179F1700000000FC
:105A7E00B121F6222A182918A01D8021D51E431EF9
:105A8E00EA1DD71DC216FE1D0B20E51F651D2A1D22
:105A9E00EB1C9A152315C4149620341F1F001600F4
:065AAE000D0A002C0000AF
:107E0000112484B714BE81FFF0D085E080938100F7
:107E100082E08093C00088E18093C10086E0809377
:107E2000C20080E18093C4008EE0C9D0259A86E02C
