:100000000C94EF140C9417150C9417150C941715E9
:100010000C9417150C9417150C9417150C941715B0
:100020000C9417150C9417150C9417150C941715A0
:100030000C9417150C94E2180C9417150C941715C2
:100040000C943C200C9417150C94D41E0C94AE1EEA
:100050000C9417150C9417150C9417150C94171570
:100060000C94B4170C941715000000000000000059
:100070000000000000000000000000000000000080
:100080000000000000000000000000000000000070
:100090000000000000000000000000000000000060
:1000A0000000000000000000000000000000000050
:1000B0000000000000000000000000000000000040
:1000C0000000000000000000000000000000000030
:1000D0000000000000000000000000000000000020
:1000E0000000000000000000000000000000000010
:1000F0000000000000000000000000000000000000
:1001000000000000000000000000000000000000EF
:1001100000000000000000000000000000000000DF
:1001200000000000000000000000000000000000CF
:1001300000000000000000000000000000000000BF
:1001400000000000000000000000000000000000AF
:10015000000000000000000000000000000000009F
:10016000000000000000000000000000000000008F
:10017000000000000000000000000000000000007F
:10018000000000000000000000000000000000006F
:10019000000000000000000000000000000000005F
:1001A000000000000000000000000000000000004F
:1001B000000000000000000000000000000000003F
:1001C0000000000000007FFFF3FFFF9FFFFCFFFF28
:1001D000E7FFFF3FFFF9FFFFCFFFFE7FFFF3FFFFCA
:1001E0009FFFFCFFFFE7FFFF007FFFF3FFFF9FFF85
:1001F000FCFFFFE7FFFF3FFFF9FFFFCFFFFE7FFFA1
:10020000F3FFFF9FFFFCFFFFE7FFFF007FFFF3FF10
:10021000FF9FFFFCFFFFE7FFFF3FFFF9FFFFCFFF5F
:10022000FE7FFFF3FFFF9FFFFCFFFFE7FFFF007F65
:10023000FFF3FFFF9FFFFCFFFFE7FFFF3FFFF9FF1B
:10024000FFCFFFFE7FFFF3FFFF9FFFFCFFFFE7FFF6
:10025000FF007FFFF3FFFF9FFFFCFFFFE7FFFF3F74
:10026000FFF9FFFFCFFFFE7FFFF3FFFF9FFFFCFFC4
:10027000FFE7FFFF007FFFF3FFFF9FFFFCFFFFE7AC
:10028000FFFF3FFFF9FFFFCFFFFE7FFFF3FFFF9F61
:10029000FFFCFFFFE7FFFF007FFFF3FFFF9FFFFC77
:1002A000FFFFE7FFFF3FFFF9FFFFCFFFFE7FFFF3F9
:1002B000FFFF9FFFFCFFFFE7FFFF007FFFF3FFFF54
:1002C0009FFFFCFFFFE7FFFF3FFFF9FFFFCFFFFEB0
:1002D0007FFFF3FFFF9FFFFCFFFFE7FFFF007FFFB4
:1002E000F3FFFF9FFFFCFFFFE7FFFF3FFFF9FFFF6B
:1002F000CFFFFE7FFFF3FFFF9FFFFCFFFFE7FFFF46
:10030000007FFFF3FFFF9FFFFCFFFFE7FFFF3FFFC3
:10031000F9FFFFCFFFFE7FFFF3FFFF9FFFFCFFFF13
:10032000E7FFFF007FFFF3FFFF9FFFFCFFFFE7FFFB
:10033000FF3FFFF9FFFFCFFFFE7FFFF3FFFF9FFFB0
:10034000FCFFFFE7FFFF007FFFF3FFFF9FFFFCFFC6
:10035000FFE7FFFF3FFFF9FFFFCFFFFE7FFFF3FF48
:10036000FF9FFFFCFFFFE7FFFF007FFFF3FFFF9F03
:10037000FFFCFFFFE7FFFF3FFFF9FFFFCFFFFE7F1F
:10038000FFF3FFFF9FFFFCFFFFE7FFFF007FFFF38F
:10039000FFFF9FFFFCFFFFE7FFFF3FFFF9FFFFCFDE
:1003A000FFFE7FFFF3FFFF9FFFFCFFFFE7FFFF0064
:1003B0007FFFF3FFFF9FFFFCFFFFE7FFFF3FFFF91A
:1003C000FFFFCFFFFE7FFFF3FFFF9FFFFCFFFFE775
:1003D000FFFF007FFFF3FFFF9FFFFCFFFFE7FFFF33
:1003E0003FFFF9FFFFCFFFFE7FFFF3FFFF9FFFFC03
:1003F000FFFFE7FFFF007FFFF3FFFF9FFFFCFFFF13
:10040000E7FFFF3FFFF9FFFFCFFFFE7FFFF3FFFF97
:100410009FFFFCFFFFE7FFFF007FFFF3FFFF9FFF52
:10042000FCFFFFE7FFFF3FFFF9FFFFCFFFFE7FFF6E
:10043000F3FFFF9FFFFCFFFFE7FFFF007FFFF3FFDE
:10044000FF9FFFFCFFFFE7FFFF3FFFF9FFFFCFFF2D
:10045000FE7FFFF3FFFF9FFFFCFFFFE7FFFF0000B2
:10046000000000000000000000000000000000008C
:10047000000000000000000000000000000000007C
:10048000000000000000000000000000000000006C
:10049000000000000000000000000000000000005C
:1004A00000000000007FFFF00000000000000000DE
:1004B000000000000000000000000000000000003C
:1004C0000000000007FFFF007FFFF00000000000B9
:1004D000000000000000000000000000000000001C
:1004E0000000000000000007FFFF007FFFF0000099
:1004F00000000000000000000000000000000000FC
:100500000000000000000000000007FFFF007FFF68
:10051000F0000000000000000000000000000000EB
:100520000000000000000000000000000007FFFFC6
:10053000007FFFF00000000000000000000000004D
:1005400000000000000000000000000000000000AB
:1005500007FFFF007FFFF000000000000000000028
:10056000000000000000000000000000000000008B
:1005700000000007FFFF007FFFF000000000000008
:10058000000000000000000000000000000000006B
:1005900000000000000007FFFF007FFFF0000000E8
:1005A000000000000000000000000000000000004B
:1005B00000000000000000000007FFFF007FFFF0C8
:1005C000000000000000000000000000000000002B
:1005D00000000000000000000000000007FFFF0016
:1005E0007FFFF0000000000000000000000000009D
:1005F00000000000000000000000000000000007F4
:10060000FFFF007FFFF0000000000000000000007E
:1006100000000000000000000000000000000000DA
:10062000000007FFFF007FFFF00000000000000057
:1006300000000000000000000000000000000000BA
:10064000000000000007FFFF007FFFF00000000037
:10065000000000000000000000000000000000009A
:10066000000000000000000007FFFF007FFFF00017
:10067000000000000000000000000000000000007A
:10068000000000000000000000000007FFFF007FE6
:10069000FFF000000000000000000000000000006B
:1006A000000000000000000000000000000007FF44
:1006B000FF007FFFF00000000000000000000000CD
:1006C000000000000000000000000000000000002A
:1006D0000007FFFF007FFFF00000000000000000A7
:1006E000000000000000000000000000000000000A
:1006F0000000000007FFFF007FFFF0000000000087
:1007000000000000000000000000000000000000E9
:100710000000000000000007FFFF007FFFF0000066
:1007200000000000000000000000000000000000C9
:100730000000000000000000000007FFFF000000B4
:1007400000000000000000000000000000000000A9
:100750000000000000000000000000000000000099
:100760000000000000000000000000000000000089
:100770000000000000000000000000000000000079
:10078000000000007FFFF000001FFFFC000007FFDB
:10079000FF000001FFFFC000007FFFF000001FFF0F
:1007A000FC000007FFFF007FFFF000001FFFFC00C0
:1007B0000007FFFF000001FFFFC000007FFFF00007
:1007C000001FFFFC000007FFFF007FFFF000001F7D
:1007D000FFFC000007FFFF000001FFFFC000007FDB
:1007E000FFF000001FFFFC000007FFFF007FFFF08D
:1007F00000001FFFFC000007FFFF000001FFFFC01B
:1008000000007FFFF000001FFFFC000007FFFF005B
:100810007FFFF000001FFFFC000007FFFF0000014A
:10082000FFFFC000007FFFF000001FFFFC0000077B
:10083000FFFF007FFFF000001FFFFC000007FFFF2D
:10084000000001FFFFC000007FFFF000001FFFFC61
:10085000000007FFFF007FFFF000001FFFFC00000B
:1008600007FFFF000001FFFFC000007FFFF0000056
:100870001FFFFC000007FFFF007FFFF000001FFFCD
:10088000FC000007FFFF000001FFFFC000007FFF2A
:10089000F000001FFFFC000007FFFF007FFFF000DB
:1008A000001FFFFC000007FFFF000001FFFFC0006A
:1008B000007FFFF000001FFFFC000007FFFF007F2C
:1008C000FFF000001FFFFC000007FFFF000001FF1A
:1008D000FFC000007FFFF000001FFFFC000007FFCB
:1008E000FF007FFFF000001FFFFC000007FFFF007C
:1008F0000001FFFFC000007FFFF000001FFFFC00B1
:100900000007FFFF007FFFF000001FFFFC00000753
:10091000FFFF000001FFFFC000007FFFF000001F8D
:10092000FFFC000007FFFF007FFFF000001FFFFC3F
:10093000000007FFFF000001FFFFC000007FFFF085
:1009400000001FFFFC000007FFFF007FFFF000001A
:100950001FFFFC000007FFFF000001FFFFC00000B9
:100960007FFFF000001FFFFC000007FFFF007FFF7C
:10097000F000001FFFFC000007FFFF000001FFFF69
:10098000C000007FFFF000001FFFFC000007FFFF1A
:10099000007FFFF000001FFFFC000007FFFF0000CA
:1009A00001FFFFC000007FFFF000001FFFFC000000
:1009B00007FFFF007FFFF000001FFFFC000007FFA4
:1009C000FF000001FFFFC000007FFFF000001FFFDD
:1009D000FC000007FFFF007FFFF000001FFFFC008E
:1009E0000007FFFF000001FFFFC000007FFFF000D5
:1009F000001FFFFC000007FFFF007FFFF000001F4B
:100A0000FFFC000007FFFF000001FFFFC000007FA8
:100A1000FFF000001FFFFC000007FFFF00000000C8
:100A200000000000000000000000000000000000C6
:100A300000000000000000000000000000000000B6
:100A400000000000000000000000000000000000A6
:100A50000000000000000000000000000000000096
:100A60000000007FFFF00000000000000000000018
:100A70000000000000000000000000000000000076
:100A8000000007FFFF007FFFF000000000000000F3
:100A90000000000000000000000000000000000056
:100AA000000000000007FFFF007FFFF000000000D3
:100AB0000000000000000000000000000000000036
:100AC000000000000000000007FFFF007FFFF000B3
:100AD0000000000000000000000000000000000016
:100AE000000000000000000000000007FFFF007F82
:100AF000FFF0000000000000000000000000000007
:100B0000000000000000000000000000000007FFDF
:100B1000FF007FFFF0000000000000000000000068
:100B200000000000000000000000000000000000C5
:100B30000007FFFF007FFFF0000000000000000042
:100B400000000000000000000000000000000000A5
:100B50000000000007FFFF007FFFF0000000000022
:100B60000000000000000000000000000000000085
:100B70000000000000000007FFFF007FFFF0000002
:100B80000000000000000000000000000000000065
:100B90000000000000000000000007FFFF007FFFD2
:100BA000F000000000000000000000000000000055
:100BB0000000000000000000000000000007FFFF30
:100BC000007FFFF0000000000000000000000000B7
:100BD0000000000000000000000000000000000015
:100BE00007FFFF007FFFF000000000000000000092
:100BF00000000000000000000000000000000000F5
:100C000000000007FFFF007FFFF000000000000071
:100C100000000000000000000000000000000000D4
:100C200000000000000007FFFF007FFFF000000051
:100C300000000000000000000000000000000000B4
:100C400000000000000000000007FFFF007FFFF031
:100C50000000000000000000000000000000000094
:100C600000000000000000000000000007FFFF007F
:100C70007FFFF00000000000000000000000000006
:100C8000000000000000000000000000000000075D
:100C9000FFFF007FFFF000000000000000000000E8
:100CA0000000000000000000000000000000000044
:100CB000000007FFFF007FFFF000000000000000C1
:100CC0000000000000000000000000000000000024
:100CD000000000000007FFFF007FFFF000000000A1
:100CE0000000000000000000000000000000000004
:100CF000000000000000000007FFFF0000000000EF
:100D000000000000000000000000000000000000E3
:100D100000000000000000000000000000000000D3
:100D200000000000000000000000000000000000C3
:100D300000000000000000000000000000000000B3
:100D400000007FFFF000001FFFFC000007FFFF0016
:100D50000001FFFFC000007FFFF000001FFFFC004C
:100D60000007FFFF007FFFF000001FFFFC000007EF
:100D7000FFFF000001FFFFC000007FFFF000001F29
:100D8000FFFC000007FFFF007FFFF000001FFFFCDB
:100D9000000007FFFF000001FFFFC000007FFFF021
:100DA00000001FFFFC000007FFFF007FFFF00000B6
:100DB0001FFFFC000007FFFF000001FFFFC0000055
:100DC0007FFFF000001FFFFC000007FFFF007FFF18
:100DD000F000001FFFFC000007FFFF000001FFFF05
:100DE000C000007FFFF000001FFFFC000007FFFFB6
:100DF000007FFFF000001FFFFC000007FFFF000066
:100E000001FFFFC000007FFFF000001FFFFC00009B
:100E100007FFFF007FFFF000001FFFFC000007FF3F
:100E2000FF000001FFFFC000007FFFF000001FFF78
:100E3000FC000007FFFF007FFFF000001FFFFC0029
:100E40000007FFFF000001FFFFC000007FFFF00070
:100E5000001FFFFC000007FFFF007FFFF000001FE6
:100E6000FFFC000007FFFF000001FFFFC000007F44
:100E7000FFF000001FFFFC000007FFFF007FFFF0F6
:100E800000001FFFFC000007FFFF000001FFFFC084
:100E900000007FFFF000001FFFFC000007FFFF00C5
:100EA0007FFFF000001FFFFC000007FFFF000001B4
:100EB000FFFFC000007FFFF000001FFFFC000007E5
:100EC000FFFF007FFFF000001FFFFC000007FFFF97
:100ED000000001FFFFC000007FFFF000001FFFFCCB
:100EE000000007FFFF007FFFF000001FFFFC000075
:100EF00007FFFF000001FFFFC000007FFFF00000C0
:100F00001FFFFC000007FFFF007FFFF000001FFF36
:100F1000FC000007FFFF000001FFFFC000007FFF93
:100F2000F000001FFFFC000007FFFF007FFFF00044
:100F3000001FFFFC000007FFFF000001FFFFC000D3
:100F4000007FFFF000001FFFFC000007FFFF007F95
:100F5000FFF000001FFFFC000007FFFF000001FF83
:100F6000FFC000007FFFF000001FFFFC000007FF34
:100F7000FF007FFFF000001FFFFC000007FFFF00E5
:100F80000001FFFFC000007FFFF000001FFFFC001A
:100F90000007FFFF007FFFF000001FFFFC000007BD
:100FA000FFFF000001FFFFC000007FFFF000001FF7
:100FB000FFFC000007FFFF007FFFF000001FFFFCA9
:100FC000000007FFFF000001FFFFC000007FFFF0EF
:100FD00000001FFFFC000007FFFF000000000000F2
:100FE0000000000000000000000000000000000001
:100FF00000000000000000000000000000000000F1
:1010000000000000000000000000000000000000E0
:1010100000000000000000000000000000000000D0
:10102000007FFFF000000000000000000000000052
:1010300000000000000000000000000000000000B0
:1010400007FFFF007FFFF00000000000000000002D
:101050000000000000000000000000000000000090
:1010600000000007FFFF007FFFF00000000000000D
:101070000000000000000000000000000000000070
:1010800000000000000007FFFF007FFFF0000000ED
:101090000000000000000000000000000000000050
:1010A00000000000000000000007FFFF007FFFF0CD
:1010B0000000000000000000000000000000000030
:1010C00000000000000000000000000007FFFF001B
:1010D0007FFFF000000000000000000000000000A2
:1010E00000000000000000000000000000000007F9
:1010F000FFFF007FFFF00000000000000000000084
:1011000000000000000000000000000000000000DF
:10111000000007FFFF007FFFF0000000000000005C
:1011200000000000000000000000000000000000BF
:10113000000000000007FFFF007FFFF0000000003C
:10114000000000000000000000000000000000009F
:10115000000000000000000007FFFF007FFFF0001C
:10116000000000000000000000000000000000007F
:10117000000000000000000000000007FFFF007FEB
:10118000FFF0000000000000000000000000000070
:10119000000000000000000000000000000007FF49
:1011A000FF007FFFF00000000000000000000000D2
:1011B000000000000000000000000000000000002F
:1011C0000007FFFF007FFFF00000000000000000AC
:1011D000000000000000000000000000000000000F
:1011E0000000000007FFFF007FFFF000000000008C
:1011F00000000000000000000000000000000000EF
:101200000000000000000007FFFF007FFFF000006B
:1012100000000000000000000000000000000000CE
:101220000000000000000000000007FFFF007FFF3B
:10123000F0000000000000000000000000000000BE
:101240000000000000000000000000000007FFFF99
:10125000007FFFF000000000000000000000000020
:10126000000000000000000000000000000000007E
:1012700007FFFF007FFFF0000000000000000000FB
:10128000000000000000000000000000000000005E
:1012900000000007FFFF007FFFF0000000000000DB
:1012A000000000000000000000000000000000003E
:1012B00000000000000007FFFF0000000000000029
:1012C000000000000000000000000000000000001E
:1012D000000000000000000000000000000000000E
:1012E00000000000000000000000000000000000FE
:1012F00000000000000000000000000000000000EE
:101300007FFFF000001FFFFC000007FFFF0000014F
:10131000FFFFC000007FFFF000001FFFFC00000780
:10132000FFFF007FFFF000001FFFFC000007FFFF32
:10133000000001FFFFC000007FFFF000001FFFFC66
:10134000000007FFFF007FFFF000001FFFFC000010
:1013500007FFFF000001FFFFC000007FFFF000005B
:101360001FFFFC000007FFFF007FFFF000001FFFD2
:10137000FC000007FFFF000001FFFFC000007FFF2F
:10138000F000001FFFFC000007FFFF007FFFF000E0
:10139000001FFFFC000007FFFF000001FFFFC0006F
:1013A000007FFFF000001FFFFC000007FFFF007F31
:1013B000FFF000001FFFFC000007FFFF000001FF1F
:1013C000FFC000007FFFF000001FFFFC000007FFD0
:1013D000FF007FFFF000001FFFFC000007FFFF0081
:1013E0000001FFFFC000007FFFF000001FFFFC00B6
:1013F0000007FFFF007FFFF000001FFFFC00000759
:10140000FFFF000001FFFFC000007FFFF000001F92
:10141000FFFC000007FFFF007FFFF000001FFFFC44
:10142000000007FFFF000001FFFFC000007FFFF08A
:1014300000001FFFFC000007FFFF007FFFF000001F
:101440001FFFFC000007FFFF000001FFFFC00000BE
:101450007FFFF000001FFFFC000007FFFF007FFF81
:10146000F000001FFFFC000007FFFF000001FFFF6E
:10147000C000007FFFF000001FFFFC000007FFFF1F
:10148000007FFFF000001FFFFC000007FFFF0000CF
:1014900001FFFFC000007FFFF000001FFFFC000005
:1014A00007FFFF007FFFF000001FFFFC000007FFA9
:1014B000FF000001FFFFC000007FFFF000001FFFE2
:1014C000FC000007FFFF007FFFF000001FFFFC0093
:1014D0000007FFFF000001FFFFC000007FFFF000DA
:1014E000001FFFFC000007FFFF007FFFF000001F50
:1014F000FFFC000007FFFF000001FFFFC000007FAE
:10150000FFF000001FFFFC000007FFFF007FFFF05F
:1015100000001FFFFC000007FFFF000001FFFFC0ED
:1015200000007FFFF000001FFFFC000007FFFF002E
:101530007FFFF000001FFFFC000007FFFF0000011D
:10154000FFFFC000007FFFF000001FFFFC0000074E
:10155000FFFF007FFFF000001FFFFC000007FFFF00
:10156000000001FFFFC000007FFFF000001FFFFC34
:10157000000007FFFF007FFFF000001FFFFC0000DE
:1015800007FFFF000001FFFFC000007FFFF0000029
:101590001FFFFC000007FFFF00000000000000002C
:1015A000000000000000000000000000000000003B
:1015B000000000000000000000000000000000002B
:1015C000000000000000000000000000000000001B
:1015D0000000000000000000000000000000007F8C
:1015E000FFF000000000000000000000000000000C
:1015F000000000000000000000000000000007FFE5
:10160000FF007FFFF000000000000000000000006D
:1016100000000000000000000000000000000000CA
:101620000007FFFF007FFFF0000000000000000047
:1016300000000000000000000000000000000000AA
:101640000000000007FFFF007FFFF0000000000027
:10165000000000000000000000000000000000008A
:101660000000000000000007FFFF007FFFF0000007
:10167000000000000000000000000000000000006A
:101680000000000000000000000007FFFF007FFFD7
:10169000F00000000000000000000000000000005A
:1016A0000000000000000000000000000007FFFF35
:1016B000007FFFF0000000000000000000000000BC
:1016C000000000000000000000000000000000001A
:1016D00007FFFF007FFFF000000000000000000097
:1016E00000000000000000000000000000000000FA
:1016F00000000007FFFF007FFFF000000000000077
:1017000000000000000000000000000000000000D9
:1017100000000000000007FFFF007FFFF000000056
:1017200000000000000000000000000000000000B9
:1017300000000000000000000007FFFF007FFFF036
:101740000000000000000000000000000000000099
:1017500000000000000000000000000007FFFF0084
:101760007FFFF0000000000000000000000000000B
:101770000000000000000000000000000000000762
:10178000FFFF007FFFF000000000000000000000ED
:101790000000000000000000000000000000000049
:1017A000000007FFFF007FFFF000000000000000C6
:1017B0000000000000000000000000000000000029
:1017C000000000000007FFFF007FFFF000000000A6
:1017D0000000000000000000000000000000000009
:1017E000000000000000000007FFFF007FFFF00086
:1017F00000000000000000000000000000000000E9
:10180000000000000000000000000007FFFF007F54
:10181000FFF00000000000000000000000000000D9
:10182000000000000000000000000000000007FFB2
:10183000FF007FFFF000000000000000000000003B
:101840000000000000000000000000000000000098
:101850000007FFFF007FFFF0000000000000000015
:101860000000000000000000000000000000000078
:101870000000000007FFFF00000000000000000063
:101880000000000000000000000000000000000058
:101890000000000000000000000000000000000048
:1018A0000000000000000000000000000000000038
:1018B00000000000000000000000000000007FFFAA
:1018C000F000001FFFFC000007FFFF000001FFFF0A
:1018D000C000007FFFF000001FFFFC000007FFFFBB
:1018E000007FFFF000001FFFFC000007FFFF00006B
:1018F00001FFFFC000007FFFF000001FFFFC0000A1
:1019000007FFFF007FFFF000001FFFFC000007FF44
:10191000FF000001FFFFC000007FFFF000001FFF7D
:10192000FC000007FFFF007FFFF000001FFFFC002E
:101930000007FFFF000001FFFFC000007FFFF00075
:10194000001FFFFC000007FFFF007FFFF000001FEB
:10195000FFFC000007FFFF000001FFFFC000007F49
:10196000FFF000001FFFFC000007FFFF007FFFF0FB
:1019700000001FFFFC000007FFFF000001FFFFC089
:1019800000007FFFF000001FFFFC000007FFFF00CA
:101990007FFFF000001FFFFC000007FFFF000001B9
:1019A000FFFFC000007FFFF000001FFFFC000007EA
:1019B000FFFF007FFFF000001FFFFC000007FFFF9C
:1019C000000001FFFFC000007FFFF000001FFFFCD0
:1019D000000007FFFF007FFFF000001FFFFC00007A
:1019E00007FFFF000001FFFFC000007FFFF00000C5
:1019F0001FFFFC000007FFFF007FFFF000001FFF3C
:101A0000FC000007FFFF000001FFFFC000007FFF98
:101A1000F000001FFFFC000007FFFF007FFFF00049
:101A2000001FFFFC000007FFFF000001FFFFC000D8
:101A3000007FFFF000001FFFFC000007FFFF007F9A
:101A4000FFF000001FFFFC000007FFFF000001FF88
:101A5000FFC000007FFFF000001FFFFC000007FF39
:101A6000FF007FFFF000001FFFFC000007FFFF00EA
:101A70000001FFFFC000007FFFF000001FFFFC001F
:101A80000007FFFF007FFFF000001FFFFC000007C2
:101A9000FFFF000001FFFFC000007FFFF000001FFC
:101AA000FFFC000007FFFF007FFFF000001FFFFCAE
:101AB000000007FFFF000001FFFFC000007FFFF0F4
:101AC00000001FFFFC000007FFFF007FFFF0000089
:101AD0001FFFFC000007FFFF000001FFFFC0000028
:101AE0007FFFF000001FFFFC000007FFFF007FFFEB
:101AF000F000001FFFFC000007FFFF000001FFFFD8
:101B0000C000007FFFF000001FFFFC000007FFFF88
:101B1000007FFFF000001FFFFC000007FFFF000038
:101B200001FFFFC000007FFFF000001FFFFC00006E
:101B300007FFFF007FFFF000001FFFFC000007FF12
:101B4000FF000001FFFFC000007FFFF000001FFF4B
:101B5000FC000007FFFF0000000000000000000084
:101B60000000000000000000000000000000000075
:101B70000000000000000000000000000000000065
:101B80000000000000000000000000000000000055
:101B9000000000000000000000000000007FFFF0D7
:101BA0000000000000000000000000000000000035
:101BB00000000000000000000000000007FFFF0020
:101BC0007FFFF000000000000000000000000000A7
:101BD00000000000000000000000000000000007FE
:101BE000FFFF007FFFF00000000000000000000089
:101BF00000000000000000000000000000000000E5
:101C0000000007FFFF007FFFF00000000000000061
:101C100000000000000000000000000000000000C4
:101C2000000000000007FFFF007FFFF00000000041
:101C300000000000000000000000000000000000A4
:101C4000000000000000000007FFFF007FFFF00021
:101C50000000000000000000000000000000000084
:101C6000000000000000000000000007FFFF007FF0
:101C7000FFF0000000000000000000000000000075
:101C8000000000000000000000000000000007FF4E
:101C9000FF007FFFF00000000000000000000000D7
:101CA0000000000000000000000000000000000034
:101CB0000007FFFF007FFFF00000000000000000B1
:101CC0000000000000000000000000000000000014
:101CD0000000000007FFFF007FFFF0000000000091
:101CE00000000000000000000000000000000000F4
:101CF0000000000000000007FFFF007FFFF0000071
:101D000000000000000000000000000000000000D3
:101D10000000000000000000000007FFFF007FFF40
:101D2000F0000000000000000000000000000000C3
:101D30000000000000000000000000000007FFFF9E
:101D4000007FFFF000000000000000000000000025
:101D50000000000000000000000000000000000083
:101D600007FFFF007FFFF000000000000000000000
:101D70000000000000000000000000000000000063
:101D800000000007FFFF007FFFF0000000000000E0
:101D90000000000000000000000000000000000043
:101DA00000000000000007FFFF007FFFF0000000C0
:101DB0000000000000000000000000000000000023
:101DC00000000000000000000007FFFF007FFFF0A0
:101DD0000000000000000000000000000000000003
:101DE00000000000000000000000000007FFFF00EE
:101DF0007FFFF00000000000000000000000000075
:101E000000000000000000000000000000000007CB
:101E1000FFFF007FFFF00000000000000000000056
:101E200000000000000000000000000000000000B2
:101E3000000007FFFF00000000000000000000009D
:101E40000000000000000000000000000000000092
:101E50000000000000000000000000000000000082
:101E60000000000000000000000000000000000072
:101E70000000000000000000000000007FFFF3FFF2
:101E8000FF9FFFFCFFFFE7FFFF3FFFF9FFFFCFFFD3
:101E9000FE7FFFF3FFFF9FFFFCFFFFE7FFFF007FD9
:101EA000FFF3FFFF9FFFFCFFFFE7FFFF3FFFF9FF8F
:101EB000FFCFFFFE7FFFF3FFFF9FFFFCFFFFE7FF6A
:101EC000FF007FFFF3FFFF9FFFFCFFFFE7FFFF3FE8
:101ED000FFF9FFFFCFFFFE7FFFF3FFFF9FFFFCFF38
:101EE000FFE7FFFF007FFFF3FFFF9FFFFCFFFFE720
:101EF000FFFF3FFFF9FFFFCFFFFE7FFFF3FFFF9FD5
:101F0000FFFCFFFFE7FFFF007FFFF3FFFF9FFFFCEA
:101F1000FFFFE7FFFF3FFFF9FFFFCFFFFE7FFFF36C
:101F2000FFFF9FFFFCFFFFE7FFFF007FFFF3FFFFC7
:101F30009FFFFCFFFFE7FFFF3FFFF9FFFFCFFFFE23
:101F40007FFFF3FFFF9FFFFCFFFFE7FFFF007FFF27
:101F5000F3FFFF9FFFFCFFFFE7FFFF3FFFF9FFFFDE
:101F6000CFFFFE7FFFF3FFFF9FFFFCFFFFE7FFFFB9
:101F7000007FFFF3FFFF9FFFFCFFFFE7FFFF3FFF37
:101F8000F9FFFFCFFFFE7FFFF3FFFF9FFFFCFFFF87
:101F9000E7FFFF007FFFF3FFFF9FFFFCFFFFE7FF6F
:101FA000FF3FFFF9FFFFCFFFFE7FFFF3FFFF9FFF24
:101FB000FCFFFFE7FFFF007FFFF3FFFF9FFFFCFF3A
:101FC000FFE7FFFF3FFFF9FFFFCFFFFE7FFFF3FFBC
:101FD000FF9FFFFCFFFFE7FFFF007FFFF3FFFF9F77
:101FE000FFFCFFFFE7FFFF3FFFF9FFFFCFFFFE7F93
:101FF000FFF3FFFF9FFFFCFFFFE7FFFF007FFFF303
:10200000FFFF9FFFFCFFFFE7FFFF3FFFF9FFFFCF51
:10201000FFFE7FFFF3FFFF9FFFFCFFFFE7FFFF00D7
:102020007FFFF3FFFF9FFFFCFFFFE7FFFF3FFFF98D
:10203000FFFFCFFFFE7FFFF3FFFF9FFFFCFFFFE7E8
:10204000FFFF007FFFF3FFFF9FFFFCFFFFE7FFFFA6
:102050003FFFF9FFFFCFFFFE7FFFF3FFFF9FFFFC76
:10206000FFFFE7FFFF007FFFF3FFFF9FFFFCFFFF86
:10207000E7FFFF3FFFF9FFFFCFFFFE7FFFF3FFFF0B
:102080009FFFFCFFFFE7FFFF007FFFF3FFFF9FFFC6
:10209000FCFFFFE7FFFF3FFFF9FFFFCFFFFE7FFFE2
:1020A000F3FFFF9FFFFCFFFFE7FFFF007FFFF3FF52
:1020B000FF9FFFFCFFFFE7FFFF3FFFF9FFFFCFFFA1
:1020C000FE7FFFF3FFFF9FFFFCFFFFE7FFFF007FA7
:1020D000FFF3FFFF9FFFFCFFFFE7FFFF3FFFF9FF5D
:1020E000FFCFFFFE7FFFF3FFFF9FFFFCFFFFE7FF38
:1020F000FF007FFFF3FFFF9FFFFCFFFFE7FFFF3FB6
:10210000FFF9FFFFCFFFFE7FFFF3FFFF9FFFFCFF05
:10211000FFE7FFFF000000000000000000000000DB
:1021200000000000000000000000000000000000AF
:102130000000000000000000FFF9E0FFF9E0FFF9F7
:10214000E0FFF9E0FFF9E0000000000000F3FFE02D
:10215000F3FFE0F3FFE0F3FFE0F3FFE00000000037
:102160000000FFE7E0FFE7E0FFE7E0FFE7E0FFE771
:10217000E00000000000000000000000000000007F
:102180000000000707000707000707000707000017
:10219000000000000000000000000000000000003F
:1021A000000000000000000000000000000000002F
:1021B0000000000000000000000000001C1C001CCB
:1021C0001C001C1C001C1C00000000000000000083
:1021D00000000000000000000000000000000000FF
:1021E00000000000000000000000000000000000EF
:1021F00000000000000000000E0E000E0E000E0E8B
:10220000000E0E00000000000000000000000000B2
:1022100000000000000000000000000000000000BE
:1022200000000000000000000000000E0E000E0E76
:10223000000E0E000E0E0000000000000000000066
:10224000000000000000000000000000000000008E
:10225000000000000000000000000000000000007E
:10226000000000000E0E001F1F001F1F001F1F0098
:102270001F1F000E0E000000000000000000000004
:10228000000000000000000000000000000000004E
:102290000000000003F8000FFE001FFF0031F18076
:1022A00020E08020E08020E08060E0C071F1C07F0D
:1022B000FFC07FFFC07FFFC07FFFC07FFFC079F3FB
:1022C000C030E1800000000030000163000D6E00AE
:1022D0000CF700076E0006EC000E4E006F4C007904
:1022E0003C00093E007E0F403E07400E03802C0359
:1022F000803C03000E030006060003FC0000000003
:102300000000000000000000000108000090000133
:10231000100001B00000B00006C00006C00001F0CF
:102320000001D80001CC0003C40003840001840034
:1023300001C80000000000000000000000000000D4
:10234000000000000000000000000000000000008D
:10235000000000000000000000000020000030002D
:102360000038000078000078000030000000000015
:10237000000048000030000078000000000000006D
:10238000000000000000000000000000000000004D
:10239000000000000000000000000000000000003D
:1023A000000000000000000000000000000000002D
:1023B0000000000000000000000002FC0002FE001F
:1023C0000DFF0003FF800FFF800FFF800FFF800FC6
:1023D000FF800FFF8007FF0003FE0001FC000000EC
:1023E000000000000000003000003000003000005D
:1023F0003BFC001D02000D01001200801C0040107B
:102400000040100040100040100040100040080044
:102410008004010002020001FC00000000EF030341
:102420008002CF0300C130ED0464031281E803850C
:102430000078CB05392C003402F70120EA020000B5
:10244000C00123C10110C5023E28C70186360148DC
:102450003701003A0155B1020018B603088227F28D
:102460000100260101E00F0F312B0C0E084EF13751
:102470000710030E0900E10F000E1403110731C10C
:1024800048080F0C31360F11802980000000000031
:10249000240027002A0000000008000201000003B9
:1024A00004070000000000000000010204081020E2
:1024B00040800102040810200102040810200000DE
:1024C0000000250028002B00040404040404040474
:1024D00002020202020203030303030300000000DE
:1024E000003E5B4F5B3E3E6B4F6B3E1C3E7C3E1C9A
:1024F000183C7E3C181C577D571C1C5E7F5E1C00E0
:10250000183C1800FFE7C3E7FF0018241800FFE796
:10251000DBE7FF30483A060E2629792926407F0559
:102520000507407F05253F5A3CE73C5A7F3E1C1C6F
:1025300008081C1C3E7F14227F22145F5F005F5F2F
:1025400006097F017F006689956A6060606060941B
:10255000A2FFA29408047E040810207E2010080820
:102560002A1C08081C2A08081E101010100C1E0C2B
:102570001E0C30383E3830060E3E0E0600000000BD
:102580000000005F00000007000700147F147F14A4
:10259000242A7F2A122313086462364956205000E9
:1025A00008070300001C2241000041221C002A1CD5
:1025B0007F1C2A08083E08080080703000080808C0
:1025C0000808000060600020100804023E514945E0
:1025D0003E00427F400072494949462141494D33FE
:1025E0001814127F1027454545393C4A4949314165
:1025F000211109073649494936464949291E000033
:102600001400000040340000000814224114141487
:102610001414004122140802015909063E415D5973
:102620004E7C1211127C7F494949363E414141227C
:102630007F4141413E7F494949417F090909013EA6
:10264000414151737F0808087F00417F41002040CD
:10265000413F017F081422417F404040407F021CDF
:10266000027F7F0408107F3E4141413E7F090909F6
:10267000063E4151215E7F091929462649494932C2
:1026800003017F01033F4040403F1F2040201F3F88
:102690004038403F6314081463030478040361590D
:1026A000494D43007F41414102040810200041414F
:1026B000417F0402010204404040404000030708FB
:1026C0000020545478407F284444383844444428F7
:1026D000384444287F385454541800087E0902189E
:1026E000A4A49C787F0804047800447D4000204026
:1026F000403D007F1028440000417F40007C04786A
:1027000004787C080404783844444438FC182424B1
:102710001818242418FC7C08040408485454542431
:1027200004043F44243C4040207C1C2040201C3CAE
:102730004030403C44281028444C9090907C4464A5
:10274000544C440008364100000077000000413638
:10275000080002010204023C2623263C1EA1A161BE
:10276000123A4040207A38545455592155557941F0
:102770002254547842215554784020545579400CC5
:102780001E527212395555555939545454593955A8
:102790005454580000457C410002457D42000145EB
:1027A0007C407D1211127DF0282528F07C5455457F
:1027B000002054547C547C0A097F493249494932EB
:1027C0003A4444443A324A4848303A4141217A3AFC
:1027D00042402078009DA0A07D3D4242423D3D40C8
:1027E00040403D3C24FF2424487E4943662B2FFC77
:1027F0002F2BFF0929F620C0887E09032054547925
:10280000410000447D413048484A32384040227AF5
:10281000007A0A0A727D0D19317D2629292F282672
:102820002929292630484D4020380808080808087A
:102830000808382F10C8ACBA2F102834FA00007BD3
:10284000000008142A142222142A140855005500E6
:1028500055AA55AA55AAFF55FF55FF000000FF00D5
:10286000101010FF00141414FF001010FF00FF10D0
:1028700010F010F0141414FC001414F700FF000002
:10288000FF00FF1414F404FC141417101F10101F81
:10289000101F1414141F00101010F0000000001F6F
:1028A000101010101F10101010F010000000FF107A
:1028B0001010101010101010FF10000000FF140076
:1028C00000FF00FF00001F10170000FC04F41414A8
:1028D0001710171414F404F40000FF00F714141474
:1028E00014141414F700F7141414171410101F10F4
:1028F0001F141414F4141010F010F000001F101F17
:102900000000001F14000000FC140000F010F01084
:1029100010FF10FF141414FF141010101F000000FB
:1029200000F010FFFFFFFFFFF0F0F0F0F0FFFFFFFF
:102930000000000000FFFF0F0F0F0F0F3844443856
:1029400044FC4A4A4A347E02020606027E027E02A5
:1029500063554941633844443C04407E201E2006B0
:10296000027E020299A5E7A5991C2A492A1C4C72ED
:1029700001724C304A4D4D303048784830BC625A74
:10298000463D3E494949007E0101017E2A2A2A2A04
:102990002A44445F444440514A444040444A5140E0
:1029A0000000FF0103E080FF000008086B6B0836A1
:1029B00012362436060F090F060000181800000012
:1029C0001010003040FF0101001F01011E00191D01
:1029D0001712003C3C3C3C0000000000352C112448
:1029E0001FBECFEFD8E0DEBFCDBF12E0A0E0B1E068
:1029F000E2E7FCE502C005900D92A63DB107D9F7CC
:102A000025E0A6EDB2E001C01D92A332B207E1F7C6
:102A100014E1CFEED4E104C02197FE010E94252EDF
:102A2000CE3ED107C9F70E94D3280C94372E0C94C0
:102A3000000085ED8093BC008091BC0084FDFCCF3C
:102A40001092F903089540918C03262F30E0240F53
:102A5000311D21323105DCF42091F9032430C9F411
:102A6000FC0180E090E0861758F430918C032191AE
:102A7000DC01A659BC4FA30FB11D2C930196F3CFD7
:102A800080918C03680F60938C0380E0089581E04F
:102A9000089582E008950895E091B2038091B10312
:102AA000E81730F4F0E0ED54FC4F808190E0089599
:102AB0008FEF9FEF08959091B2038091B103981723
:102AC00050F4E92FF0E0ED54FC4F208130E09F5F9F
:102AD0009093B20302C02FEF3FEFC9010895809198
:102AE000B10390E02091B203821B91090895CF9227
:102AF000DF92EF92FF920F931F93CF93DF937C01AE
:102B0000262F972F8A0180911C04882391F0C62FCD
:102B1000D72F6E01C40ED51ECC15DD0571F069915D
:102B2000D701ED91FC910190F081E02DC70109954D
:102B3000F3CF642F822F0E942315C801DF91CF911C
:102B40001F910F91FF90EF90DF90CF900895CF935A
:102B5000DF931F92CDB7DEB7698320911C04222337
:102B6000D1F020911A04203240F021E030E0FC0145
:102B70003383228380E090E015C080911B04E82F0E
:102B8000F0E0E650FC4F998190838F5F80931B04A7
:102B900080931A0405C061E0CE0101960E942315BE
:102BA00081E090E00F90DF91CF910895089580E04B
:102BB00090E008958091460390914703209144034B
:102BC00030914503E8E2F2E04281538160817181F6
:102BD0008617970719F42417350741F0349642E019
:102BE000E837F40789F781E090E0089580E090E00D
:102BF00008958091460390914703209144033091BA
:102C00004503A0EEB2E0ED91FD91EE0FFF1FEE0F38
:102C1000FF1FEC5FFE4F408151818417950729F417
:102C2000428153812417350739F043E0A434B407B7
:102C300051F781E090E0089580E090E008950F93CF
:102C40001F93CF93DF93EC018B0120E030E04EE83F
:102C500052E20E94231D20E030E045E552E2B80137
:102C6000CE010E94231D8091DE029091DF0281300F
:102C7000910529F420E030E04CE152E216C08230A8
:102C8000910529F420E030E043EE51E20EC083309C
:102C9000910529F420E030E04AEA51E206C00497A9
:102CA00061F420E030E041E751E2B801CE01DF916C
:102CB000CF911F910F910C94231DDF91CF911F9104
:102CC0000F9108952F923F924F925F927F928F9231
:102CD0009F92AF92BF92CF92DF92EF92FF920F93AB
:102CE0001F93CF93DF93CDB7DEB728970FB6F89435
:102CF000DEBF0FBECDBF1C012B014A0159011C8351
:102D00000B83C901079697FD07969C0193E03595C3
:102D100027959A95E1F73A832983C12CD12C00E0BD
:102D200010E0EB81FC810E171F070CF03CC01886E9
:102D30001F82F801E40DF51DFE83ED832F81388598
:102D40002A153B054CF58F81988587709927892B2B
:102D500011F0770C0EC0EF81F885F7FD379683E010
:102D6000F595E7958A95E1F7EC0DFD1DE80DF91D48
:102D7000749077FE0BC097014D815E816F817885DD
:102D8000620D731D88ED94E00E943B218F81988530
:102D9000019698878F83D2CF0F5F1F4F89819A81C9
:102DA000C80ED91EBECF28960FB6F894DEBF0FBE50
:102DB000CDBFDF91CF911F910F91FF90EF90DF90EA
:102DC000CF90BF90AF909F908F907F905F904F90EB
:102DD0003F902F900895AF92BF92CF92DF92EF92E3
:102DE000FF920F931F93CF93DF936C015B01E12C54
:102DF00048EFF42E03E110E023E130E04EE852E228
:102E00000E946216EE24EA94FE2C23E130E045E5B0
:102E100052E2B501C6010E946216C091DC02D09157
:102E2000DD02C130D10541F43FE1E32EF12C23E175
:102E300030E04CE152E231C0CE018D7F892BA1F40C
:102E40002FE1E22EF12C03E110E023E130E043EE2C
:102E500051E2B501C6010E94621682E090E09093B3
:102E6000DF028093DE0221C0C330D10551F49FE11F
:102E7000E92EF12C03E110E023E130E04AEA51E2CF
:102E80000CC0C430D10589F48FE1E82EF12C03E1A8
:102E900010E023E130E041E751E2B501C6010E94B4
:102EA0006216D093DF02C093DE02DF91CF911F91B3
:102EB0000F91FF90EF90DF90CF90BF90AF9008956B
:102EC000EF92FF920F931F93809166039091670397
:102ED000019709F044C060916203709163038AEB2B
:102EE000E82E86EDF82E03E110E023E130E044EE19
:102EF00053E280916003909161030E946216609199
:102F0000620370916303E12CF12C23E130E04BEA82
:102F100053E280916003909161030E946216609178
:102F20006203709163039AE6E92E9DEFF92E23E187
:102F300030E042E753E280916003909161030E9488
:102F400062166091D4047091D5048091D60490915A
:102F5000D7041F910F91FF90EF900C94EB161F91E7
:102F60000F91FF90EF9008951F920F920FB60F925E
:102F700011242F933F934F935F936F937F938F937E
:102F80009F93AF93BF93EF93FF938091B900887F96
:102F9000803609F49CC068F5883209F45BC090F46F
:102FA000803109F454C038F4882309F4F6C088301D
:102FB00009F44DC0F6C0883109F44CC0803209F4E0
:102FC0005DC0EFC0803409F468C048F4803309F470
:102FD00055C0883309F0E5C08093F703D8C0803529
:102FE00009F44FC0883509F45DC0883409F0D9C0B0
:102FF000D6C0883909F4C7C0A8F4883709F467C077
:1030000038F4883609F463C0803709F460C0C9C059
:10301000883809F4B8C0803909F45FC0803809F0F5
:10302000C0C05BC0803B09F486C038F4803A09F424
:1030300066C0883A09F47FC0B4C0803C09F4A7C0D8
:10304000883C09F4A4C0883B09F48AC0AAC08091D6
:10305000D40310C09091F6038091F503981770F592
:10306000E091F60381E08E0F8093F603F0E0EB52DF
:10307000FC4F80818093BB0085EC86C08093F70372
:103080008EC0E091F60381E08E0F8093F60380916D
:10309000BB00F0E0EB52FC4F80839091F6038091EF
:1030A000F5036EC0E091F60381E08E0F8093F60386
:1030B0008091BB00F0E0EB52FC4F80838091F803DD
:1030C00081116DC081E08093D30384EA61C083E005
:1030D0008093F9031092B003CFCF8091B003803278
:1030E00008F051C0E091B00381E08E0F8093B003EF
:1030F0008091BB00F0E0E057FC4F8083BDCF85ECB2
:103100008093BC001092F9038091B003803230F4B8
:10311000E091B003F0E0E057FC4F10826091B00303
:1031200070E0E0918E03F0918F0380E993E00995C0
:103130001092B00336C084E08093F90310928D039F
:1031400010928C03E0918A03F0918B030995809192
:103150008C03811105C081E080938C0310926A0377
:10316000E0918D0381E08E0F80938D03F0E0E659AE
:10317000FC4F80818093BB0090918D0380918C03E4
:10318000981708F479CF85E88093BC000AC085ECD5
:103190008093BC001092F90304C01092F7030E94C0
:1031A0001915FF91EF91BF91AF919F918F917F91F1
:1031B0006F915F914F913F912F910F900FBE0F90A4
:1031C0001F9018951F920F920FB60F921124EF9235
:1031D000FF920F931F932F933F934F935F936F93A0
:1031E0007F938F939F93AF93BF93CF93DF93EF938F
:1031F000FF9380916803909169030196909369030E
:10320000809368038091660390916703019709F0AA
:10321000C4C0809164039091650301968E3E22E0C4
:1032200092072CF49093650380936403B6C01092C8
:103230006503109264031092690310926803609111
:1032400062037091630320E030E044EE53E280912A
:103250006003909161030E94231D6091620370914D
:10326000630320E030E04BEA53E2809160039091E9
:1032700061030E94231D609162037091630320E04B
:1032800030E042E753E280916003909161030E9435
:10329000231D6091D4047091D5048091D60490913F
:1032A000D7040E94EB1620916003309161033093A4
:1032B0004D0320934C03809162039091630390939C
:1032C0004F0380934E03A9014B5E5F4F5093510310
:1032D00040935003909353038093520330935503CC
:1032E00020935403AC014B5E5F4F509357034093C0
:1032F0005603A9014551510950935903409358036E
:1033000090935B0380935A0330935D0320935C0397
:10331000459790935F0380935E03CCE4D3E06A818A
:103320007B8180EEE82EFF24FA9403E110E023E194
:1033300030E049E353E2888199810E9462166A81F4
:103340007B819AE6E92E9DEFF92E23E130E040E003
:1033500053E2888199810E9462166A817B81E12C07
:1033600028EFF22E23E130E047EC52E28881998188
:103370000E946216249683E0C436D80781F681E065
:1033800090E090934B0380934A031092490310926C
:103390004803109267031092660380914A0390914C
:1033A0004B030197A1F58091680390916903843FD5
:1033B00091406CF11092690310926803CCE4D3E061
:1033C0006A817B8120EE3FEF49E353E28881998156
:1033D0000E94231D6A817B812AE63DEF40E053E293
:1033E000888199810E94231D6A817B8120E038EFCA
:1033F00047EC52E2888199810E94231D249683E044
:10340000C436D807E9F610924B0310924A03FF9195
:10341000EF91DF91CF91BF91AF919F918F917F916C
:103420006F915F914F913F912F911F910F91FF905D
:10343000EF900F900FBE0F901F901895CF92DF92D4
:10344000EF92FF920F931F93CF93DF936C017A015A
:103450008B01C0E0D0E0CE15DF0589F0D8016D9179
:103460008D01D601ED91FC910190F081E02DC60116
:103470000995892B11F47E0102C02196ECCFC7017A
:10348000DF91CF911F910F91FF90EF90DF90CF9040
:103490000895FC01538D448D252F30E0842F90E05A
:1034A000821B930B541710F0CF960895019708953F
:1034B000FC01918D828D981761F0828DDF01A80F3C
:1034C000B11D5D968C91928D9F5F9F73928F90E05E
:1034D00008958FEF9FEF0895FC01918D828D9817CD
:1034E00031F0828DE80FF11D858D90E008958FEF0A
:1034F0009FEF0895FC01918D228D892F90E0805CD3
:103500009F4F821B91098F7399270895FC01848D29
:10351000DF01A80FB11DA35ABF4F2C91848D90E0FD
:1035200001968F739927848FA689B7892C93A089D8
:10353000B1898C9180648C93938D848D981306C08F
:103540000288F389E02D80818F7D80830895EF923A
:10355000FF920F931F93CF93DF93EC0181E0888F4D
:103560009B8D8C8D981305C0E889F989808185FD34
:1035700024C0F62E0B8D10E00F5F1F4F0F73112725
:10358000E02E8C8DE8120CC00FB607FCFACFE8894C
:10359000F989808185FFF5CFCE010E94861AF1CF8F
:1035A0008B8DFE01E80FF11DE35AFF4FF0820B8F68
:1035B000EA89FB898081806207C0EE89FF89608388
:1035C000E889F98980818064808381E090E0DF91DF
:1035D000CF911F910F91FF90EF900895CF93DF93BC
:1035E000EC01888D8823C9F0EA89FB89808185FDFB
:1035F00005C0A889B9898C9186FD0FC00FB607FC5C
:10360000F5CF808185FFF2CFA889B9898C9185FF9C
:10361000EDCFCE010E94861AE7CFDF91CF910895BA
:10362000CF93DF9390E0FC01E655FB4D2491FC0124
:10363000E853FB4D8491882361F190E0880F991F36
:10364000FC01E457FB4DC591D491FC01E254FB4DC4
:10365000A591B491611109C09FB7F8948881209514
:1036600082238883EC912E230BC0623061F49FB7D4
:10367000F8943881822F809583238883EC912E2BB8
:103680002C939FBF06C08FB7F894E8812E2B288318
:103690008FBFDF91CF9108953FB7F89480911905BE
:1036A00090911A05A0911B05B0911C0526B5A89B09
:1036B00005C02F3F19F00196A11DB11D3FBFBA2FC4
:1036C000A92F982F8827820F911DA11DB11DBC0124
:1036D000CD0142E0660F771F881F991F4A95D1F7E9
:1036E00008958F929F92AF92BF92CF92DF92EF9206
:1036F000FF926B017C010E944C1B4B015C01C114C9
:10370000D104E104F104F1F00E944C1BDC01CB0177
:1037100088199909AA09BB09883E9340A105B105FA
:1037200070F321E0C21AD108E108F10888EE880E92
:1037300083E0981EA11CB11CC114D104E104F10462
:1037400019F7DDCFFF90EF90DF90CF90BF90AF9053
:103750009F908F9008950E942B2E0F931F93CF93CD
:10376000DF931F92CDB7DEB78C01DC01ED91FC91A8
:103770000284F385E02D698309956981611102C096
:1037800060E201C061E2C8010E948E28D801ED917B
:10379000FC910688F789E02DC8010F90DF91CF9149
:1037A0001F910F9109948F929F92AF92BF92CF92E7
:1037B000DF92EF92FF920F931F93CF93DF93EC0171
:1037C000490181E0881A9108860E971EC401A0E085
:1037D000B0E04B01A12CB12C540199248824882AF3
:1037E000992AAA2ABB2A680181E0C81AD108C40E06
:1037F000D51EC601A0E0B0E06A01E12CF12C7601F3
:10380000DD24CC24C82AD92AEA2AFB2A6AE2CE017E
:103810000E948E282BA16B2D77278827992727FFB9
:1038200018C06EBD0DB407FEFDCFC501AA27BB278A
:103830008EBD0DB407FEFDCFBB27AB2D9A2D892D74
:103840008EBD0DB407FEFDCF8EBC0DB407FEFDCFBF
:1038500014C0CE010E947D27B50188279927CE018B
:103860000E947D2799278B2D7A2D692DCE010E94EC
:103870007D27682DCE010E947D276BE2CE010E943C
:103880008E282BA16F2D77278827992727FF18C00F
:103890006EBD0DB407FEFDCFC701AA27BB278EBDA5
:1038A0000DB407FEFDCFBB27AF2D9E2D8D2D8EBDF8
:1038B0000DB407FEFDCFCEBC0DB407FEFDCF14C086
:1038C000CE010E947D27B70188279927CE010E944B
:1038D0007D2799278F2D7E2D6D2DCE010E947D276E
:1038E0006C2DCE010E947D276CE2CE01DF91CF913D
:1038F0001F910F91FF90EF90DF90CF90BF90AF900E
:103900009F908F900C948E281F93CF93DF93EC01A0
:1039100063706D8B6230C1F0633001F1613051F042
:1039200080EF90E09987888780E491E09B878A8781
:1039300018E41DC080E491E09987888780EF90E0CB
:103940009B878A8718E213C080EF90E09987888769
:1039500080E491E09B878A8718E809C080E491E0C1
:103960009987888780EF90E09B878A8718EEE881A7
:10397000F9810284F385E02DCE01099566E3CE013D
:103980000E948E28612FCE010E947D27E881F98157
:103990000688F789E02DCE01DF91CF911F91099420
:1039A000009769F0FC0101900020E9F73197AF0121
:1039B000481B590BBC018BE294E00C941E1A80E06A
:1039C00090E008958F929F92AF92BF920F931F93B2
:1039D000CF93DF93CDB7DEB7A1970FB6F894DEBFD4
:1039E0000FBECDBF19A2423008F44AE08E010F5D30
:1039F0001F4F842E912CA12CB12CA50194010E9463
:103A0000BD2DE62FB901CA0101501109EA3014F4A5
:103A1000E05D01C0E95CD801EC93232B242B252B1E
:103A200061F7C8010E94D01CA1960FB6F894DEBFC2
:103A30000FBECDBFDF91CF911F910F91BF90AF907F
:103A40009F908F9008957F928F929F92AF92BF9296
:103A5000CF92DF92EF92FF920F931F93CF93DF935A
:103A60006C015A0149018B01E12CF12CC0E0D0E03E
:103A7000CE0187709927892B11F0770C0BC0FE01BE
:103A800083E0F595E7958A95E1F7EE0DFF1DEA0DC8
:103A9000FB1D749077FE09C09401A801BE016C0D56
:103AA0007D1D88ED94E00E943B212196C331D10514
:103AB000F9F60F5F1F4F83E0E80EF11C89E3E8166B
:103AC000F104A1F6DF91CF911F910F91FF90EF903C
:103AD000DF90CF90BF90AF909F908F907F90089590
:103AE000CF93C82F81E080931C0482E580931D054D
:103AF00010921B0410921A0488EC94E00E94A715FF
:103B00006C2F88EC94E00E94A71580911A048132F2
:103B100008F045C09091F9039111FCCF92E0909389
:103B2000F90391E09093F8039FEF9093F7031092BD
:103B3000F6038093F503AAEFB3E025ED33E0F90136
:103B40009E2F921B981718F49D919193F9CF109284
:103B5000D4038091D403846A8093D4038091D303E7
:103B6000813061F41092D3038091D4038093BB0021
:103B70008091BC0083FDF8CF85EC01C085EE809379
:103B8000BC008091F9038230E1F38091F7038F3F0D
:103B900031F08091F703803211F08091F703109299
:103BA0001B0410921A0410921C046AE070E080E07A
:103BB00090E0CF910C94711BEF92FF921F93CF93E3
:103BC000DF93CDB7DEB72C970FB6F894DEBF0FBEEC
:103BD000CDBF8091F9038111FCCF81E08093F9037F
:103BE0008093F8039FEF9093F7031092F60395E00C
:103BF0009093F5038093D4038091D403846A8093D7
:103C0000D4038091D303813061F41092D303809167
:103C1000D4038093BB008091BC0083FDF8CF85EC7A
:103C200001C085EE8093BC008091F9038130E1F3FF
:103C30008091F603863018F41091F60301C016E067
:103C4000A5EDB3E023EB33E0F9018E2F821B811742
:103C500018F48D918193F9CF1092B2031093B103B0
:103C6000CE0101967C018091B203181749F088ECCF
:103C700094E00E945B15F701819391937F01F3CF4C
:103C800089819A8190931E0480931D048B819C816D
:103C90009093200480931F048B859C859C0135950F
:103CA000279535952795A901437055272D813E818C
:103CB000220F331F220F331F242B352B3093220466
:103CC000209321049C0174E0359527957A95E1F7BE
:103CD000A901437055272F813885220F331F220FEA
:103CE000331F242B352B30932404209323049C0171
:103CF000F6E035952795FA95E1F7A9014370552728
:103D000029853A85220F331F220F331F242B352B91
:103D100030932604209325049C0121703327F1E081
:103D20002F27309328042093270421E030E081FFDF
:103D300002C020E030E030932A042093290460E0A0
:103D400080E02C960FB6F894DEBF0FBECDBFDF919A
:103D5000CF911F91FF90EF900C94701D1F920F92C6
:103D60000FB60F9211242F933F934F935F936F934E
:103D70007F938F939F93AF93BF93EF93FF938BE2C8
:103D800094E00E94861AFF91EF91BF91AF919F91AD
:103D90008F917F916F915F914F913F912F910F90F4
:103DA0000FBE0F901F9018951F920F920FB60F9293
:103DB00011242F938F939F93EF93FF93E0913B04F4
:103DC000F0913C048081E0914104F091420482FD35
:103DD00012C09081809144048F5F8F7320914504BD
:103DE000821751F0E0914404F0E0E55DFB4F958FC0
:103DF0008093440401C08081FF91EF919F918F9146
:103E00002F910F900FBE0F901F90189590E0FC011E
:103E1000EA56FB4D3491FC01E655FB4D2491FC0123
:103E2000E853FB4DE491EE2309F43BC0332339F111
:103E3000333091F038F43130A9F0323001F584B5E7
:103E40008F7D12C0373091F03830A1F03430B9F4A2
:103E5000809180008F7D03C0809180008F77809358
:103E600080000DC084B58F7784BD09C08091B000FB
:103E70008F7703C08091B0008F7D8093B000F0E019
:103E8000EE0FFF1FE254FB4DA591B4918FB7F8944C
:103E9000EC91611103C020952E2301C02E2B2C9391
:103EA0008FBF0895BF92CF92DF92EF92FF920F9350
:103EB0001F93CF93DF93EC01411551056105710507
:103EC00021F440E052E16AE770E04C8F5D8F6E8F25
:103ED0007F8F88A187FD07C061E00E94101B61E011
:103EE00088A10E94061F61E089A10E94101B60E06A
:103EF00089A10E94061F8BA187FD16C061E08CA1DD
:103F00000E94101B60E08CA10E94061F61E08BA143
:103F10000E94101B61E08BA10E94061F8DA187FDEE
:103F200003C060E00E94101B8BA187FF33C01FB746
:103F3000F89480911305811127C0E2EDF4E2849199
:103F4000E4EBF4E29491E82FF0E0EE0FFF1FE4576A
:103F5000FB4DA591B491EC91E92321F461E08AE055
:103F60000E94061F61E08AE00E94101B8CB58061F0
:103F70008CBD8CB580648CBD61E08DE00E94101B0F
:103F800061E08BE00E94101B809113058F5F80938E
:103F900013051FBF8AA187FD21C061E00E94101B8D
:103FA00061E08AA10E94061F64E670E080E090E074
:103FB0000E94711B60E08AA10E94061F64E670E007
:103FC00080E090E00E94711B61E08AA10E94061FC0
:103FD00068EC70E080E090E00E94711BE881F9815C
:103FE0000284F385E02DCE0109950DE114E27801FC
:103FF000EFEFEE1AFE0AF8016491662321F1CE017B
:104000000E948E280E5F1F4FF701E490FE2DFF7770
:10401000BF2E6801FF2EFA948FEFF81649F0F601D3
:104020006491CE010E947D27FFEFCF1ADF0AF3CF04
:104030000B0D111DE7FEDBCF68E770E080E090E03C
:104040000E94711BD4CFE881F9810688F789E02DA1
:10405000CE01099580EF90E09987888780E491E010
:104060009B878A87DF91CF911F910F91FF90EF90EF
:10407000DF90CF90BF9008951F920F920FB60F92CE
:1040800011242F933F938F939F93AF93BF9380916E
:10409000150590911605A0911705B091180530915E
:1040A000140523E0230F2D3720F40196A11DB11D27
:1040B00005C026E8230F0296A11DB11D209314050B
:1040C0008093150590931605A0931705B0931805D6
:1040D0008091190590911A05A0911B05B0911C05BE
:1040E0000196A11DB11D8093190590931A05A09307
:1040F0001B05B0931C05BF91AF919F918F913F918C
:104100002F910F900FBE0F901F901895CF92DF92B6
:10411000EF92FF920F931F93CF93DF9300D000D0C5
:1041200000D0CDB7DEB76C01DC01ED91FC910284CB
:10413000F385E02D2D833E834B835C8369837A83F3
:104140000995D601ED91FC910684F785E02D2D812E
:104150003E814B815C8169817A81C6010995D601D6
:10416000ED91FC910688F789E02DC60126960FB6E1
:10417000F894DEBF0FBECDBFDF91CF911F910F919D
:10418000FF90EF90DF90CF900994EF92FF920F9302
:104190001F93CF93DF9300D000D000D0CDB7DEB710
:1041A0007C01DC01ED91FC910284F385E02D2D83EF
:1041B0003E834B835C8369837A830995D701ED91B4
:1041C000FC910288F389E02D2D813E814B815C8139
:1041D00069817A81C7010995D701ED91FC91068823
:1041E000F789E02DC70126960FB6F894DEBF0FBE03
:1041F000CDBFDF91CF911F910F91FF90EF90099468
:10420000EF92FF920F931F93CF93DF9300D000D0D4
:1042100000D0CDB7DEB77C01DC01ED91FC910284CA
:10422000F385E02D2D833E834B835C8369837A8302
:104230000995D701ED91FC910088F189E02D2D8140
:104240003E814B815C8169817A81C7010995D701E3
:10425000ED91FC910688F789E02DC70126960FB6EF
:10426000F894DEBF0FBECDBFDF91CF911F910F91AC
:10427000FF90EF9009940F931F93CF93DF9300D09B
:1042800000D000D0CDB7DEB78C01DC01ED91FC9100
:104290000284F385E02D2D833E834B835C83698309
:1042A0007A830995D801ED91FC910484F585E02D80
:1042B0002D813E814B815C8169817A81C80109959C
:1042C000D801ED91FC910688F789E02DC80126966A
:1042D0000FB6F894DEBF0FBECDBFDF91CF911F9117
:1042E0000F910994EF92FF920F931F93DC01ED91D0
:1042F000FC910684F785E02D780101E010E0099536
:104300001F910F91FF90EF900895EF92FF920F93FE
:104310001F93DC01ED91FC910684F785E02D780177
:10432000890121E030E009951F910F91FF90EF90F6
:104330000895FC0193A906A4F7A5E02D8081892B9F
:10434000808308950895FC016370658B8481958155
:1043500026813781613039F0633029F09187808779
:10436000338722870895318720879387828708952E
:104370002F923F924F925F926F927F928F929F9275
:10438000AF92BF92CF92DF92EF92FF920F931F9363
:10439000CF93DF93CDB7DEB76C970FB6F894DEBF3F
:1043A0000FBECDBF9C8F8B8F5B011A011F830E83C5
:1043B0003701C982DC0158964D915C91599741159E
:1043C000510509F0E5C018968D919C9119976817D1
:1043D00079070CF0CAC11A968D919C911B972816EB
:1043E00039060CF0C2C18C2C912CFB0136E0C39E27
:1043F000E00DF11D1124FB87EA871E161F060CF045
:10440000B4C1C40133E0880F991F3A95E1F79D8745
:104410008C87820D931D181619060CF0A6C15796AD
:104420008C91811103C0203B08F02F5FAB8DBC8DB8
:10443000ED91FC9111970284F385E02DCD012A8F37
:1044400009952A8DB5E02B9F90011124F501359631
:10445000FF87EE87BB82AA822501A9014A195B0961
:10446000598B488BC10108969B8B8A8BE889F98907
:10447000E40DF51DE452FB4D9491988761013D8256
:104480002C82A885A0FF13C0AB8DBC8DED91FC9153
:10449000B981B13031F40484F585E02D2E813F815E
:1044A00016C00684F785E02DEE80FF801AC0EE81ED
:1044B000FF816E167F06F1F0AB8DBC8DED91FC9106
:1044C000B981B13051F40484F585E02D9301A60142
:1044D000B2018B8D9C8D09950DC00684F785E02D6A
:1044E0007301840194014C815D816A817B818B8D94
:1044F0009C8D0995E885E695E887FFEFCF1ADF0ADE
:104500002C813D81280D391D3D832C834A895B898F
:10451000C416D50609F0B5CF5FEF451A550A8A8152
:104520009B81880D991D9B838A83AE85BF854A1622
:104530005B0609F09BCFEE81FF816E167F0609F4C2
:10454000F2C0EB8DFC8DA081B181F981F13079F45D
:10455000B5016B5F7F4F5096ED91FC9151978301B0
:1045600028E030E0A1018B8D9C8D0995DCC06A8527
:104570007B85681979091E96ED91FC911F9773014F
:104580000C851D859401A1018B8D9C8D0995CBC057
:10459000FA0134969491329765917491291BCB015D
:1045A000B7E02B9F800D911D1124FA0125913491C4
:1045B0003B8B2A8BFC01459154915B834A83FC0120
:1045C0003296C490319654915E873296149131960A
:1045D000D4908981823058F0612E012E000C77082A
:1045E000AD2D0D2C000CBB0BB987A88704C0198614
:1045F0001886612C712CAB8DBC8DED91FC911197BF
:104600000284F385E02DCD010995B9818B2E912C83
:10461000689CC001699C900D789C900D1124FC0150
:10462000EA0DFB1DFD87EC871C82712C612CE12FAC
:10463000110FFF0B95012E0F3F1F3B872A87AC0CF4
:10464000B11CA5014E0F5F1F5F8B4E8BC1018D0DFD
:10465000911DD7FC9A95998F888F4E85641608F026
:1046600062C0862D90E048855985480F591F489DA6
:104670009001499D300D589D300D1124D901A20D96
:10468000B31DB98BA88BAA84BB844C845D84DC8069
:10469000BA85DB1AE88DF98DE80FF91FFD8BEC8BDD
:1046A0008D2D8A0D2E893F89A216B306B9F1877028
:1046B00061F48A819B810196EA89FB89AA81BB8189
:1046C000EA0FFB1F74909B838A8377FE20C0AB8D1B
:1046D000BC8DED91FC91B981B13061F40484F58514
:1046E000E02D2E813F814C895D89B5018B8D9C8D9C
:1046F00009950DC00684F785E02DEE80FF808401CA
:10470000940148895989B2018B8D9C8D0995770C4C
:10471000EFEFAE1ABE0A480C591CC2CF3C813C0DCB
:104720003C8363949ACFAB8DBC8DED91FC91119736
:104730000688F789E02DCD016C960FB6F894DEBFA0
:104740000FBECDBFDF91CF911F910F91FF90EF90E2
:10475000DF90CF90BF90AF909F908F907F906F90A1
:104760005F904F903F902F9009946C960FB6F894FD
:10477000DEBF0FBECDBFDF91CF911F910F91FF9094
:10478000EF90DF90CF90BF90AF909F908F907F90F1
:104790006F905F904F903F902F900895AF92BF928F
:1047A000CF92EF92FF920F931F93CF93DF93EC0181
:1047B000262F888D998D009709F040C06A3059F4F2
:1047C0001D861C862C898E859F8538E0239F800D51
:1047D000911D112441C06D3009F4AAC08E8988232F
:1047E000C1F03C898C859D8546E0349F800D911DEC
:1047F000112448855985481759075CF41D861C8685
:104800008E859F8548E0349F800D911D11249F87E0
:104810008E87EA88FB88088919894E855F856C85B3
:104820007D85CC88CE010E94B8212C898C859D8500
:1048300036E0239F800D911D112442C06A3079F427
:104840001D861C862C89FC013696E4918E859F85F9
:104850002E9F800D911D11249F878E8769C06D301A
:1048600009F466C0FC0134963491631708F460C003
:104870003196E491E61708F45BC0FC013296A590EE
:10488000B490462F50E0431B510937E0349FB001EC
:10489000359F700D1124A60EB71EF5013296349186
:1048A0003196E491332311F0E1110DC0F5013496F6
:1048B000E4912C898C859D85E29F800D911D1124AA
:1048C0009D878C8735C0F501359644915E895523C7
:1048D00011F16C89E32FF0E0E40FF11D47FDFA952B
:1048E0006E9FD0016F9FB00D11244C855D854A0FDE
:1048F0005B1FE885F985E417F5076CF41D861C86B7
:10490000FC013696E4918E859F856E9F800D911DEA
:1049100011249F878E87EA88FB88088919894E852C
:104920005F856C857D85CC88CE010E94B821BECF85
:1049300081E090E0DF91CF911F910F91FF90EF9078
:10494000CF90BF90AF9008956F927F928F929F9279
:10495000AF92BF92CF92DF92EF92FF920F931F938D
:10496000CF93DF93EC014B015A0169013801E881D3
:10497000F9810284F385E02D0995E881F9810288A7
:10498000F389E02D87019601A501B401CE010995B7
:10499000E881F981A501460D571D41505109028852
:1049A000F389E02D9601B401CE010995E881F981E2
:1049B0000088F189E02D9301A501B401CE0109958C
:1049C000E881F981C80CD91CB601615071090088D1
:1049D000F189E02D9301A501CE010995E881F981C6
:1049E0000688F789E02DCE01DF91CF911F910F91BD
:1049F000FF90EF90DF90CF90BF90AF909F908F90FF
:104A00007F906F900994CF92DF92EF92FF920F9375
:104A10001F93CF93DF9300D000D000D0CDB7DEB787
:104A20006C01DC01ED91FC916217730789F40417A6
:104A300015072CF4942F852FA801092F182F041B7C
:104A4000150B98012F5F3F4F048CF58DE02D12C0A0
:104A50004017510709F5261737072CF4962F872F93
:104A6000B901292F382F261B370B2F5F3F4F068C9C
:104A7000F78DE02D8701C601099526960FB6F894AB
:104A8000DEBF0FBECDBFDF91CF911F910F91FF9081
:104A9000EF90DF90CF9008950284F385E02D2D8371
:104AA0003E834B835C8369837A830995D601ED91BC
:104AB000FC910488F589E02D2D813E814B815C813C
:104AC00069817A81C6010995D601ED91FC9106882C
:104AD000F789E02DC60126960FB6F894DEBF0FBE0B
:104AE000CDBFDF91CF911F910F91FF90EF90DF909D
:104AF000CF900994EF92FF920F931F93DC01ED91F9
:104B0000FC9111971A960D911C911B9718962D9157
:104B10003C91199700A0F1A1E02D7B0140E050E00D
:104B200060E070E009951F910F91FF90EF9008955C
:104B30004F925F926F927F928F929F92AF92BF92AD
:104B4000CF92DF92EF92FF920F931F93CF93DF9359
:104B500000D0CDB7DEB76C015A0139014801DC0144
:104B6000ED91FC910284F385E02D69837A830995A8
:104B70006981462E7A81572E640C751CD601ED9101
:104B8000FC91461457046CF40088F189E02D8701EC
:104B90009401A501B201C6010995BFEF4B1A5B0A4A
:104BA000EDCF0688F789E02DC6010F900F90DF91B9
:104BB000CF911F910F91FF90EF90DF90CF90BF901A
:104BC000AF909F908F907F906F905F904F900994DF
:104BD000AF92BF92CF92DF92EF92FF920F931F930B
:104BE000CF93DF9300D000D0CDB7DEB75C01690171
:104BF000DC01ED91FC910284F385E02D4B835C8315
:104C000069837A830995D501ED91FC9169817A8157
:104C10009B012C0D3D1D215031090488F589E02DA3
:104C200078014B815C818A01C5010995D501ED911F
:104C3000FC910688F789E02DC5010F900F900F9029
:104C40000F90DF91CF911F910F91FF90EF90DF9028
:104C5000CF90BF90AF900994AF92BF92CF92DF9266
:104C6000EF92FF920F931F93CF93DF9300D000D06A
:104C7000CDB7DEB75C016901DC01ED91FC910284E6
:104C8000F385E02D4B835C8369837A830995D50195
:104C9000ED91FC914B815C81C40ED51EB1E0CB1A25
:104CA000D1080488F589E02D7801860169817A812F
:104CB0009B01C5010995D501ED91FC910688F78905
:104CC000E02DC5010F900F900F900F90DF91CF91C5
:104CD0001F910F91FF90EF90DF90CF90BF90AF901A
:104CE00009940895EF92FF920F931F93DC01ED91C9
:104CF000FC9100A0F1A1E02D09951F910F91FF906B
:104D0000EF9008950F931F93DC01ED91FC91068CB9
:104D1000F78DE02D09951F910F9108950F931F9323
:104D2000DC01ED91FC91048CF58DE02D09951F912E
:104D30000F910895DC01ED91FC910084F185E02D47
:104D4000099408952F923F924F925F926F927F92B3
:104D50008F929F92AF92BF92CF92DF92EF92FF928B
:104D60000F931F93CF93DF9300D01F92CDB7DEB781
:104D70004C017B836A836A01590117019801241B46
:104D8000350B37FF03C0319521953109C5014A81A3
:104D90005B81841B950B97FF03C0919581959109C9
:104DA00051E059838217930714F019820BC09A2D92
:104DB0008B2D5801092F182F9A818B81DB82CA8293
:104DC000C92ED82E8A819B81A816B9065CF49C2D29
:104DD0008D2D6801092F182F9A818B81BB82AA82A1
:104DE000A92EB82E2501AA81BB814A1A5B0A380177
:104DF0006C187D0877FE03C071946194710872018C
:104E000057FE03C0BFEFEB1AFB0AF594E794C016F8
:104E1000D1061CF00FEF1FEF1FC001E010E01CC017
:104E2000D401ED91FC91B9810484F585E02D9101C7
:104E3000BB23C1F04A815B81B601C4010995E61824
:104E4000F708F7FE04C0C00ED11EE40CF51CEA8181
:104E5000FB813196FB83EA834A815B81A416B50608
:104E6000FCF604C0A6016A817B81E7CF0F900F900A
:104E70000F90DF91CF911F910F91FF90EF90DF90F6
:104E8000CF90BF90AF909F908F907F906F905F90EA
:104E90004F903F902F900895FC0183A187FF1EC083
:104EA000448D558D668D778D20E080E092E1AAE7F4
:104EB000B0E0481759076A077B0740F4B695A795F5
:104EC000979587952F5F2630A1F727E091E09227ED
:104ED000892F806A869591708CBD9DBD93A906A48B
:104EE000F7A5E02D8081282F30E0892F90E0809574
:104EF00090958223932380830895CF93DF93FC01C1
:104F000083A187FF05C06EBD0DB407FEFDCF2EC087
:104F100028E030E040E8A6A1B7A1842F862321F045
:104F200080A99C91892B0AC090A98C91C82FD0E0B0
:104F3000892F90E0809590958C239D238C9392A946
:104F4000C2A5D3A58881A82FB0E0892F90E08095D5
:104F500090958A239B23888382A9A2A5B3A59C91BF
:104F6000892B8C93469521503109A9F6DF91CF9179
:104F700008954F925F926F927F928F929F92AF921D
:104F8000BF92CF92DF92EF92FF920F931F93CF9336
:104F9000DF93EC016B0159014801288539856217BF
:104FA00073070CF067C08A859B85481759070CF07A
:104FB00061C08B010A0D1B1DF8013197DA01A80DA4
:104FC000B91DBD0161507109F7FD54C077FD52C094
:104FD000D7FE03C05801C12CD12C57FF03C04D018F
:104FE00040E050E0E217F3071CF05901AC18BD088F
:104FF000681779071CF04C01841A950A9501D401B1
:105000000E94022E3B01582E492EE881F98102A40C
:10501000F3A5E02D8401B601CE0109954301A52C2D
:10502000B42C8BA187FF13C081149104A104B10497
:1050300009F1FEBC0DB407FEFDCFEEBC0DB407FEBA
:10504000FDCF81E0881A9108A108B108EDCF811445
:105050009104A104B10471F06F2DCE010E947D274F
:105060006E2DCE010E947D2781E0881A9108A1084B
:10507000B108EDCFDF91CF911F910F91FF90EF908D
:10508000DF90CF90BF90AF909F908F907F906F9068
:105090005F904F900895EF92FF920F931F93CF93DD
:1050A000DF93EC0177FD33C0888599856817790710
:1050B00074F557FD2CC08A859B85481759073CF528
:1050C000E32EF22EE881F98102A4F3A5E02D01E0A0
:1050D00010E021E030E0CE0109958BA187FF09C0E7
:1050E000EEBC0DB407FEFDCFFEBC0DB407FEFDCF38
:1050F0000EC06E2DCE010E947D276F2DCE01DF9157
:10510000CF911F910F91FF90EF900C947D27DF912D
:10511000CF911F910F91FF90EF900895CF93DF9360
:10512000EC019CA9ECA5FDA52081422F50E0292F80
:1051300030E020953095242335232083CE010E9432
:105140007D278CA9ECA5FDA59081892B8083DF911B
:10515000CF9108950F931F93CF93DF931F92CDB7F5
:10516000DEB78C01DC01ED91FC910284F385E02D2A
:10517000698309956981662319F0F80165A903C05F
:10518000D801D6966C91C8010E948E28D801ED9165
:10519000FC910688F789E02DC8010F90DF91CF912F
:1051A0001F910F910994CF93DF93CDB7DEB7C2590A
:1051B000D1090FB6F894DEBF0FBECDBF789484B589
:1051C000826084BD84B5816084BD85B5826085BD03
:1051D00085B5816085BD80916E00816080936E0091
:1051E0001092810080918100826080938100809183
:1051F0008100816080938100809180008160809334
:1052000080008091B10084608093B1008091B000F3
:1052100081608093B00080917A00846080937A00EE
:1052200080917A00826080937A0080917A00816018
:1052300080937A0080917A00806880937A0010923F
:10524000C1001092B2031092B10310921B0410928D
:105250001A041092F90311E01093F8031092D3038B
:1052600061E082E10E94061F61E083E10E94061F67
:105270008091B9008E7F8093B9008091B9008D7FB5
:105280008093B90088E48093B80085E48093BC00E3
:1052900060EF85E50E94701D6BEF80E00E94701D3D
:1052A0000E94DC1D40E050E0BA0188ED94E00E94CD
:1052B000521F61E088ED94E00E94841C10928000EF
:1052C0001092810010936F00809181008160809323
:1052D000810080916F00816080936F001092850043
:1052E00010928400E0913B04F0913C0482E08083C2
:1052F000E0913704F09138041082E0913904F09184
:105300003A048FEC808310924304E0913F04F091C3
:10531000400486E08083E0913D04F0913E0480816A
:1053200080618083E0913D04F0913E04808188603B
:105330008083E0913D04F0913E0480818068808309
:10534000E0913D04F0913E0480818F7D808360E098
:1053500070E088ED94E00E947A254AEBE42E46ED59
:10536000F42E00EF10E021E131E048E650E060E08B
:1053700070E080E090E00E94621680E480937C0000
:1053800080917A00806480937A0080917A0086FD13
:10539000FCCF809178002091790090E0922B0E94C0
:1053A000802DC12CD12C3AE4A32EB12C4E0125E93D
:1053B000820E911C0E947B2DB5010E94EE2DFE01F4
:1053C0003196219131912817390721F0E815F90517
:1053D000C1F71CC231E0C31AD1083FEFC31AD30A88
:1053E00083E3C816D10434F342E950E060E370E08F
:1053F000CE0101960E94302E6FE170E086E190E0D0
:105400000E94EB1690EEA92E92E0B92EF501C19004
:10541000D1905F0126010D2C000C6608770877FEFD
:1054200014C0E0912B04F0912C040190F081E02D48
:105430006DE28BE294E0099566277727CB0164192A
:105440007509860997094AE003C04AE0C301B20121
:105450000E94E21C80ED92E00E94D01C8601000FA9
:10546000111F000F111F0C5F1E4FF8016081718129
:1054700080E090E04AE00E94E21C83ED92E00E940E
:10548000D01CF8016281738180E090E04AE00E94C4
:10549000E21C80ED92E00E94D01CF6E4AF16F3E02F
:1054A000BF0609F0B3CFF2E04F2E512CCC24C394A9
:1054B000D12CB3E08B2E912C14E0612E712C0E9424
:1054C000DC1D80911D0490911E042091DA02309120
:1054D000DB022817390761F44091D8025091D902B4
:1054E00020911F04309120044217530709F407C18B
:1054F0002091D6023091D702232B09F000C190935E
:10550000DB028093DA0220911F0430912004309353
:10551000D9022093D802893C9105CCF10091D604A0
:105520001091D704C8014596909347038093460392
:10553000A090D404B090D504B0924503A092440347
:105540004697833D9105F0F40E94DA150197D1F456
:105550000E94F9150197B1F4B501C8010E941F1608
:105560006091D4047091D5048091460390914703D3
:105570000E94EB1680914603909147039093D704C5
:105580008093D6047092DD026092DC02B2C08897EC
:10559000CCF50091D6041091D704C801459790939B
:1055A000470380934603A090D404B090D504B092F2
:1055B0004503A09244034697833D9105F0F40E9471
:1055C000DA150197D1F40E94F9150197B1F4B501EC
:1055D000C8010E941F166091D4047091D504809177
:1055E0004603909147030E94EB16809146039091E9
:1055F00047039093D7048093D6049092DD02809263
:10560000DC0277C0293C3105CCF10091D604109121
:10561000D7041093470300934603A090D404B0909E
:10562000D504C501459790934503809344034F9754
:10563000893A9105F0F40E94DA150197D1F40E949D
:10564000F9150197B1F4B501C8010E941F166091C8
:105650004403709145038091D6049091D7040E9431
:10566000EB1680914403909145039093D504809369
:10567000D404D092DD02C092DC023BC02832310556
:10568000F4F50091D6041091D704109347030093CA
:105690004603A090D404B090D504C50145969093DC
:1056A0004503809344034F97893A9105F0F40E9493
:1056B000DA150197D1F40E94F9150197B1F4B501FB
:1056C000C8010E941F1660914403709145038091A8
:1056D000D6049091D7040E94EB16809144039091D8
:1056E00045039093D5048093D4045092DD024092F8
:1056F000DC02D092D702C092D6020E94601780913D
:105700001D0490911E0485569109879760F480913D
:105710001F04909120048F569109879720F41092CE
:10572000D7021092D602A0902704B090280421E05E
:10573000A216B10409F05EC080914803909149031C
:10574000892B09F057C08091660390916703892BDC
:1057500009F050C06091D4047091D5045AEBE52E45
:1057600056EDF52E03E110E023E130E044EE53E284
:105770008091D6049091D7040E9462166091D4045F
:105780007091D504E12CF12C23E130E04BEA53E297
:105790008091D6049091D7040E9462166091D4043F
:1057A0007091D504EAE6EE2EEDEFFE2E23E130E017
:1057B00042E753E28091D6049091D7040E9462168A
:1057C0008091D6049091D7049093610380936003F5
:1057D0006091D4047091D504709363036093620365
:1057E0000E94EB16B0924903A0924803B09267035F
:1057F000A09266038091270490912804892B09F0D8
:105800005ECE109249031092480359CEF601EE0F76
:10581000FF1FE052FD4F91838083FC01EE0FFF1FBD
:1058200021E030E02C0F3D1FE20FF31F91838083B6
:10583000FC01EE0FFF1FEE0FFF1FEC5FFE4FA0817C
:10584000B181628173818934910509F4C6CD22E268
:10585000E22E22EBF22E03E110E023E130E048E3F8
:1058600051E2CD010E946216B8CDEBE2F4E0138262
:10587000128288EE93E0A0E0B0E084839583A68353
:10588000B7832CE732E03183208325EC30E0358785
:10589000248724EC30E03787268720EC30E0318BFA
:1058A000208B21EC30E0338B228B22EC30E0358BE7
:1058B000248B26EC30E0378B268B118E128E138EC4
:1058C000148EE8ECF4E01382128284839583A6831D
:1058D000B7838EE892E091838083A8EDB4E01396BD
:1058E0001C921E92129720EF30E015963C932E9357
:1058F000149780E491E017969C938E9316971996CF
:105900003C932E9318971B969C938E931A975596BB
:105910001C9255971D961C921E921C971F961C92C6
:105920001E921E9781E054968C9354972FEF3FEF71
:1059300053963C932E93529751963C932E935097A7
:1059400056968C93569757961C92579759961C9239
:105950001E925897D5961C92D597D6961C92D6979C
:10596000D8961C921E92D797DA961C921E92D997BF
:105970008AE090968C93909789E091968C9391977A
:105980008FEF92968C9392972EE135E05B963C9345
:105990002E935A9793968C93939794968C9394976F
:1059A00095968C9395975C961D921D921D921C92D4
:1059B0005F979B961C921E929A97D2961C92D297B2
:1059C00097961C921E929697D0961C92D097999675
:1059D0001C921E929897D1961C92D197E1EDF4E219
:1059E000E491F0E0EE0FFF1FE254FB4D859194919E
:1059F0009D969C938E939C97E3EBF4E2E491D4966E
:105A0000EC93D497E2EDF4E2E491F0E0EE0FFF1FA7
:105A1000E254FB4D859194919F969C938E939E9713
:105A2000E4EBF4E2E491D396EC93D39780EA92E02E
:105A30008D939C9386E190E09093D7048093D60455
:105A40008FE190E09093D5048093D40410922205C6
:105A5000109221051092200510921F0508958F9233
:105A60009F92AF92BF92CF92DF92EF92FF92CF932D
:105A7000DF93EC01688179818A819B8161157105D1
:105A80008105910521F464E279ED8BE597E02DE144
:105A900033EF41E050E00E948B2D49015A019B01F8
:105AA000AC01A7EAB1E40E94AA2D6B017C01ACEE27
:105AB000B4EFA50194010E94B82DDC01CB018C0D3F
:105AC0009D1DAE1DBF1DB7FF03C00197A109B048C2
:105AD00088839983AA83BB839F77DF91CF91FF90BF
