:100000000C9428150C9450150C9450150C94501504
:100010000C9450150C9450150C9450150C945015CC
:100020000C9450150C9450150C9450150C945015BC
:100030000C9450150C94C3230C9450150C9450152B
:100040000C946D2B0C9450150C94B22D0C948C2D9B
:100050000C9450150C9450150C9450150C9450158C
:100060000C9495220C945015000000000000000034
:100070000000000000000000000007070007070064
:100080000707000707000000000000000000000054
:100090000000000000000000000000000000000060
:1000A0000000000000000000000000000000000050
:1000B0000000001C1C001C1C001C1C001C1C000060
:1000C0000000000000000000000000000000000030
:1000D0000000000000000000000000000000000020
:1000E0000000000000000000000000000000000E02
:1000F0000E000E0E000E0E000E0E0000000000009E
:1001000000000000000000000000000000000000EF
:1001100000000000000000000000000000000000DF
:1001200000000E0E000E0E000E0E000E0E0000005F
:1001300000000000000000000000000000000000BF
:1001400000000000000000000000000000000000AF
:1001500000000000000000000000000E0E001F1F45
:10016000001F1F001F1F001F1F000E0E00000000B9
:10017000000000000000000000000000000000007F
:10018000000000000000000000000003F8000FFE67
:10019000001FFF0031F18020E08020E08020E0801F
:1001A00060E0C071F1C07FFFC07FFFC07FFFC07FF4
:1001B000FFC07FFFC079F3C030E180000000000085
:1001C00000000000071C0008A20010410020008071
:1001D000400040400040400040400040200080106F
:1001E000010008020004040002080001100000A041
:1001F00000004000000000000000000000000000BF
:10020000071C000FBE001FFF003FFF803FFF803F25
:10021000FF803FFF801FFF000FFE0007FC0003F878
:100220000001F00000E000004000000000000000BD
:1002300000000000000000000000000000000000BE
:1002400000000000000000000000000000000000AE
:10025000000000000000000000000000000000009E
:10026000000000000000000000000000000000008E
:10027000000000000000000000000000000000007E
:10028000000000000000000000000000000000006E
:10029000000000000000000000000000000000005E
:1002A000000000000000000000000000000000004E
:1002B000000000000000000000000000000000003E
:1002C000000000000000000000000000000000002E
:1002D000000000000000000000000000000000001E
:1002E000000000000000000000000000000000000E
:1002F00000000000000000000000000000000000FE
:1003000000000000000000000000000000000000ED
:1003100000000000000000000000000000000000DD
:1003200000000000000000000000000000000000CD
:1003300000000000000000000000000000000000BD
:1003400000000000000000000000000000000000AD
:10035000000000000000000000000000000000009D
:10036000000000000000000000000000000000008D
:10037000000000000000000000000000000000007D
:1003800000000000000000000000000000007FFFEF
:10039000F3FFFF9FFFFCFFFFE7FFFF3FFFF9FFFFBA
:1003A000CFFFFE7FFFF3FFFF9FFFFCFFFFE7FFFF95
:1003B000007FFFF3FFFF9FFFFCFFFFE7FFFF3FFF13
:1003C000F9FFFFCFFFFE7FFFF3FFFF9FFFFCFFFF63
:1003D000E7FFFF007FFFF3FFFF9FFFFCFFFFE7FF4B
:1003E000FF3FFFF9FFFFCFFFFE7FFFF3FFFF9FFF00
:1003F000FCFFFFE7FFFF007FFFF3FFFF9FFFFCFF16
:10040000FFE7FFFF3FFFF9FFFFCFFFFE7FFFF3FF97
:10041000FF9FFFFCFFFFE7FFFF007FFFF3FFFF9F52
:10042000FFFCFFFFE7FFFF3FFFF9FFFFCFFFFE7F6E
:10043000FFF3FFFF9FFFFCFFFFE7FFFF007FFFF3DE
:10044000FFFF9FFFFCFFFFE7FFFF3FFFF9FFFFCF2D
:10045000FFFE7FFFF3FFFF9FFFFCFFFFE7FFFF00B3
:100460007FFFF3FFFF9FFFFCFFFFE7FFFF3FFFF969
:10047000FFFFCFFFFE7FFFF3FFFF9FFFFCFFFFE7C4
:10048000FFFF007FFFF3FFFF9FFFFCFFFFE7FFFF82
:100490003FFFF9FFFFCFFFFE7FFFF3FFFF9FFFFC52
:1004A000FFFFE7FFFF007FFFF3FFFF9FFFFCFFFF62
:1004B000E7FFFF3FFFF9FFFFCFFFFE7FFFF3FFFFE7
:1004C0009FFFFCFFFFE7FFFF007FFFF3FFFF9FFFA2
:1004D000FCFFFFE7FFFF3FFFF9FFFFCFFFFE7FFFBE
:1004E000F3FFFF9FFFFCFFFFE7FFFF007FFFF3FF2E
:1004F000FF9FFFFCFFFFE7FFFF3FFFF9FFFFCFFF7D
:10050000FE7FFFF3FFFF9FFFFCFFFFE7FFFF007F82
:10051000FFF3FFFF9FFFFCFFFFE7FFFF3FFFF9FF38
:10052000FFCFFFFE7FFFF3FFFF9FFFFCFFFFE7FF13
:10053000FF007FFFF3FFFF9FFFFCFFFFE7FFFF3F91
:10054000FFF9FFFFCFFFFE7FFFF3FFFF9FFFFCFFE1
:10055000FFE7FFFF007FFFF3FFFF9FFFFCFFFFE7C9
:10056000FFFF3FFFF9FFFFCFFFFE7FFFF3FFFF9F7E
:10057000FFFCFFFFE7FFFF007FFFF3FFFF9FFFFC94
:10058000FFFFE7FFFF3FFFF9FFFFCFFFFE7FFFF316
:10059000FFFF9FFFFCFFFFE7FFFF007FFFF3FFFF71
:1005A0009FFFFCFFFFE7FFFF3FFFF9FFFFCFFFFECD
:1005B0007FFFF3FFFF9FFFFCFFFFE7FFFF007FFFD1
:1005C000F3FFFF9FFFFCFFFFE7FFFF3FFFF9FFFF88
:1005D000CFFFFE7FFFF3FFFF9FFFFCFFFFE7FFFF63
:1005E000007FFFF3FFFF9FFFFCFFFFE7FFFF3FFFE1
:1005F000F9FFFFCFFFFE7FFFF3FFFF9FFFFCFFFF31
:10060000E7FFFF007FFFF3FFFF9FFFFCFFFFE7FF18
:10061000FF3FFFF9FFFFCFFFFE7FFFF3FFFF9FFFCD
:10062000FCFFFFE7FFFF00000000000000000000EB
:1006300000000000000000000000000000000000BA
:1006400000000000000000000000000000000000AA
:10065000000000000000000000000000000000009A
:10066000000000000000000000000000007FFFF01C
:10067000000000000000000000000000000000007A
:1006800000000000000000000000000007FFFF0065
:100690007FFFF000000000000000000000000000EC
:1006A0000000000000000000000000000000000743
:1006B000FFFF007FFFF000000000000000000000CE
:1006C000000000000000000000000000000000002A
:1006D000000007FFFF007FFFF000000000000000A7
:1006E000000000000000000000000000000000000A
:1006F000000000000007FFFF007FFFF00000000087
:1007000000000000000000000000000000000000E9
:10071000000000000000000007FFFF007FFFF00066
:1007200000000000000000000000000000000000C9
:10073000000000000000000000000007FFFF007F35
:10074000FFF00000000000000000000000000000BA
:10075000000000000000000000000000000007FF93
:10076000FF007FFFF000000000000000000000001C
:100770000000000000000000000000000000000079
:100780000007FFFF007FFFF00000000000000000F6
:100790000000000000000000000000000000000059
:1007A0000000000007FFFF007FFFF00000000000D6
:1007B0000000000000000000000000000000000039
:1007C0000000000000000007FFFF007FFFF00000B6
:1007D0000000000000000000000000000000000019
:1007E0000000000000000000000007FFFF007FFF86
:1007F000F000000000000000000000000000000009
:100800000000000000000000000000000007FFFFE3
:10081000007FFFF00000000000000000000000006A
:1008200000000000000000000000000000000000C8
:1008300007FFFF007FFFF000000000000000000045
:1008400000000000000000000000000000000000A8
:1008500000000007FFFF007FFFF000000000000025
:100860000000000000000000000000000000000088
:1008700000000000000007FFFF007FFFF000000005
:100880000000000000000000000000000000000068
:1008900000000000000000000007FFFF007FFFF0E5
:1008A0000000000000000000000000000000000048
:1008B00000000000000000000000000007FFFF0033
:1008C0007FFFF000000000000000000000000000BA
:1008D0000000000000000000000000000000000711
:1008E000FFFF007FFFF0000000000000000000009C
:1008F00000000000000000000000000000000000F8
:10090000000007FFFF0000000000000000000000E2
:1009100000000000000000000000000000000000D7
:1009200000000000000000000000000000000000C7
:1009300000000000000000000000000000000000B7
:100940000000000000000000000000007FFFF00039
:10095000001FFFFC000007FFFF000001FFFFC000B9
:10096000007FFFF000001FFFFC000007FFFF007F7B
:10097000FFF000001FFFFC000007FFFF000001FF69
:10098000FFC000007FFFF000001FFFFC000007FF1A
:10099000FF007FFFF000001FFFFC000007FFFF00CB
:1009A0000001FFFFC000007FFFF000001FFFFC0000
:1009B0000007FFFF007FFFF000001FFFFC000007A3
:1009C000FFFF000001FFFFC000007FFFF000001FDD
:1009D000FFFC000007FFFF007FFFF000001FFFFC8F
:1009E000000007FFFF000001FFFFC000007FFFF0D5
:1009F00000001FFFFC000007FFFF007FFFF000006A
:100A00001FFFFC000007FFFF000001FFFFC0000008
:100A10007FFFF000001FFFFC000007FFFF007FFFCB
:100A2000F000001FFFFC000007FFFF000001FFFFB8
:100A3000C000007FFFF000001FFFFC000007FFFF69
:100A4000007FFFF000001FFFFC000007FFFF000019
:100A500001FFFFC000007FFFF000001FFFFC00004F
:100A600007FFFF007FFFF000001FFFFC000007FFF3
:100A7000FF000001FFFFC000007FFFF000001FFF2C
:100A8000FC000007FFFF007FFFF000001FFFFC00DD
:100A90000007FFFF000001FFFFC000007FFFF00024
:100AA000001FFFFC000007FFFF007FFFF000001F9A
:100AB000FFFC000007FFFF000001FFFFC000007FF8
:100AC000FFF000001FFFFC000007FFFF007FFFF0AA
:100AD00000001FFFFC000007FFFF000001FFFFC038
:100AE00000007FFFF000001FFFFC000007FFFF0079
:100AF0007FFFF000001FFFFC000007FFFF00000168
:100B0000FFFFC000007FFFF000001FFFFC00000798
:100B1000FFFF007FFFF000001FFFFC000007FFFF4A
:100B2000000001FFFFC000007FFFF000001FFFFC7E
:100B3000000007FFFF007FFFF000001FFFFC000028
:100B400007FFFF000001FFFFC000007FFFF0000073
:100B50001FFFFC000007FFFF007FFFF000001FFFEA
:100B6000FC000007FFFF000001FFFFC000007FFF47
:100B7000F000001FFFFC000007FFFF007FFFF000F8
:100B8000001FFFFC000007FFFF000001FFFFC00087
:100B9000007FFFF000001FFFFC000007FFFF007F49
:100BA000FFF000001FFFFC000007FFFF000001FF37
:100BB000FFC000007FFFF000001FFFFC000007FFE8
:100BC000FF007FFFF000001FFFFC000007FFFF0099
:100BD0000001FFFFC000007FFFF000001FFFFC00CE
:100BE0000007FFFF00000000000000000000000000
:100BF00000000000000000000000000000000000F5
:100C000000000000000000000000000000000000E4
:100C100000000000000000000000000000000000D4
:100C200000000000000000000000007FFFF0000056
:100C300000000000000000000000000000000000B4
:100C40000000000000000000000007FFFF007FFF21
:100C5000F0000000000000000000000000000000A4
:100C60000000000000000000000000000007FFFF7F
:100C7000007FFFF000000000000000000000000006
:100C80000000000000000000000000000000000064
:100C900007FFFF007FFFF0000000000000000000E1
:100CA0000000000000000000000000000000000044
:100CB00000000007FFFF007FFFF0000000000000C1
:100CC0000000000000000000000000000000000024
:100CD00000000000000007FFFF007FFFF0000000A1
:100CE0000000000000000000000000000000000004
:100CF00000000000000000000007FFFF007FFFF081
:100D000000000000000000000000000000000000E3
:100D100000000000000000000000000007FFFF00CE
:100D20007FFFF00000000000000000000000000055
:100D300000000000000000000000000000000007AC
:100D4000FFFF007FFFF00000000000000000000037
:100D50000000000000000000000000000000000093
:100D6000000007FFFF007FFFF00000000000000010
:100D70000000000000000000000000000000000073
:100D8000000000000007FFFF007FFFF000000000F0
:100D90000000000000000000000000000000000053
:100DA000000000000000000007FFFF007FFFF000D0
:100DB0000000000000000000000000000000000033
:100DC000000000000000000000000007FFFF007F9F
:100DD000FFF0000000000000000000000000000024
:100DE000000000000000000000000000000007FFFD
:100DF000FF007FFFF0000000000000000000000086
:100E000000000000000000000000000000000000E2
:100E10000007FFFF007FFFF000000000000000005F
:100E200000000000000000000000000000000000C2
:100E30000000000007FFFF007FFFF000000000003F
:100E400000000000000000000000000000000000A2
:100E50000000000000000007FFFF007FFFF000001F
:100E60000000000000000000000000000000000082
:100E70000000000000000000000007FFFF007FFFEF
:100E8000F000000000000000000000000000000072
:100E90000000000000000000000000000007FFFF4D
:100EA000007FFFF0000000000000000000000000D4
:100EB0000000000000000000000000000000000032
:100EC00007FFFF000000000000000000000000001D
:100ED0000000000000000000000000000000000012
:100EE0000000000000000000000000000000000002
:100EF00000000000000000000000000000000000F2
:100F0000000000000000000000007FFFF000001F54
:100F1000FFFC000007FFFF000001FFFFC000007F93
:100F2000FFF000001FFFFC000007FFFF007FFFF045
:100F300000001FFFFC000007FFFF000001FFFFC0D3
:100F400000007FFFF000001FFFFC000007FFFF0014
:100F50007FFFF000001FFFFC000007FFFF00000103
:100F6000FFFFC000007FFFF000001FFFFC00000734
:100F7000FFFF007FFFF000001FFFFC000007FFFFE6
:100F8000000001FFFFC000007FFFF000001FFFFC1A
:100F9000000007FFFF007FFFF000001FFFFC0000C4
:100FA00007FFFF000001FFFFC000007FFFF000000F
:100FB0001FFFFC000007FFFF007FFFF000001FFF86
:100FC000FC000007FFFF000001FFFFC000007FFFE3
:100FD000F000001FFFFC000007FFFF007FFFF00094
:100FE000001FFFFC000007FFFF000001FFFFC00023
:100FF000007FFFF000001FFFFC000007FFFF007FE5
:10100000FFF000001FFFFC000007FFFF000001FFD2
:10101000FFC000007FFFF000001FFFFC000007FF83
:10102000FF007FFFF000001FFFFC000007FFFF0034
:101030000001FFFFC000007FFFF000001FFFFC0069
:101040000007FFFF007FFFF000001FFFFC0000070C
:10105000FFFF000001FFFFC000007FFFF000001F46
:10106000FFFC000007FFFF007FFFF000001FFFFCF8
:10107000000007FFFF000001FFFFC000007FFFF03E
:1010800000001FFFFC000007FFFF007FFFF00000D3
:101090001FFFFC000007FFFF000001FFFFC0000072
:1010A0007FFFF000001FFFFC000007FFFF007FFF35
:1010B000F000001FFFFC000007FFFF000001FFFF22
:1010C000C000007FFFF000001FFFFC000007FFFFD3
:1010D000007FFFF000001FFFFC000007FFFF000083
:1010E00001FFFFC000007FFFF000001FFFFC0000B9
:1010F00007FFFF007FFFF000001FFFFC000007FF5D
:10110000FF000001FFFFC000007FFFF000001FFF95
:10111000FC000007FFFF007FFFF000001FFFFC0046
:101120000007FFFF000001FFFFC000007FFFF0008D
:10113000001FFFFC000007FFFF007FFFF000001F03
:10114000FFFC000007FFFF000001FFFFC000007F61
:10115000FFF000001FFFFC000007FFFF007FFFF013
:1011600000001FFFFC000007FFFF000001FFFFC0A1
:1011700000007FFFF000001FFFFC000007FFFF00E2
:101180007FFFF000001FFFFC000007FFFF000001D1
:10119000FFFFC000007FFFF000001FFFFC00000702
:1011A000FFFF000000000000000000000000000041
:1011B000000000000000000000000000000000002F
:1011C000000000000000000000000000000000001F
:1011D000000000000000000000000000000000000F
:1011E0000000000000000000007FFFF00000000091
:1011F00000000000000000000000000000000000EF
:10120000000000000000000007FFFF007FFFF0006B
:1012100000000000000000000000000000000000CE
:10122000000000000000000000000007FFFF007F3A
:10123000FFF00000000000000000000000000000BF
:10124000000000000000000000000000000007FF98
:10125000FF007FFFF0000000000000000000000021
:10126000000000000000000000000000000000007E
:101270000007FFFF007FFFF00000000000000000FB
:10128000000000000000000000000000000000005E
:101290000000000007FFFF007FFFF00000000000DB
:1012A000000000000000000000000000000000003E
:1012B0000000000000000007FFFF007FFFF00000BB
:1012C000000000000000000000000000000000001E
:1012D0000000000000000000000007FFFF007FFF8B
:1012E000F00000000000000000000000000000000E
:1012F0000000000000000000000000000007FFFFE9
:10130000007FFFF00000000000000000000000006F
:1013100000000000000000000000000000000000CD
:1013200007FFFF007FFFF00000000000000000004A
:1013300000000000000000000000000000000000AD
:1013400000000007FFFF007FFFF00000000000002A
:10135000000000000000000000000000000000008D
:1013600000000000000007FFFF007FFFF00000000A
:10137000000000000000000000000000000000006D
:1013800000000000000000000007FFFF007FFFF0EA
:10139000000000000000000000000000000000004D
:1013A00000000000000000000000000007FFFF0038
:1013B0007FFFF000000000000000000000000000BF
:1013C0000000000000000000000000000000000716
:1013D000FFFF007FFFF000000000000000000000A1
:1013E00000000000000000000000000000000000FD
:1013F000000007FFFF007FFFF0000000000000007A
:1014000000000000000000000000000000000000DC
:10141000000000000007FFFF007FFFF00000000059
:1014200000000000000000000000000000000000BC
:10143000000000000000000007FFFF007FFFF00039
:10144000000000000000000000000000000000009C
:10145000000000000000000000000007FFFF007F08
:10146000FFF000000000000000000000000000008D
:10147000000000000000000000000000000007FF66
:10148000FF0000000000000000000000000000005D
:10149000000000000000000000000000000000004C
:1014A000000000000000000000000000000000003C
:1014B000000000000000000000000000000000002C
:1014C00000000000000000007FFFF000001FFFFC94
:1014D000000007FFFF000001FFFFC000007FFFF0DA
:1014E00000001FFFFC000007FFFF007FFFF000006F
:1014F0001FFFFC000007FFFF000001FFFFC000000E
:101500007FFFF000001FFFFC000007FFFF007FFFD0
:10151000F000001FFFFC000007FFFF000001FFFFBD
:10152000C000007FFFF000001FFFFC000007FFFF6E
:10153000007FFFF000001FFFFC000007FFFF00001E
:1015400001FFFFC000007FFFF000001FFFFC000054
:1015500007FFFF007FFFF000001FFFFC000007FFF8
:10156000FF000001FFFFC000007FFFF000001FFF31
:10157000FC000007FFFF007FFFF000001FFFFC00E2
:101580000007FFFF000001FFFFC000007FFFF00029
:10159000001FFFFC000007FFFF007FFFF000001F9F
:1015A000FFFC000007FFFF000001FFFFC000007FFD
:1015B000FFF000001FFFFC000007FFFF007FFFF0AF
:1015C00000001FFFFC000007FFFF000001FFFFC03D
:1015D00000007FFFF000001FFFFC000007FFFF007E
:1015E0007FFFF000001FFFFC000007FFFF0000016D
:1015F000FFFFC000007FFFF000001FFFFC0000079E
:10160000FFFF007FFFF000001FFFFC000007FFFF4F
:10161000000001FFFFC000007FFFF000001FFFFC83
:10162000000007FFFF007FFFF000001FFFFC00002D
:1016300007FFFF000001FFFFC000007FFFF0000078
:101640001FFFFC000007FFFF007FFFF000001FFFEF
:10165000FC000007FFFF000001FFFFC000007FFF4C
:10166000F000001FFFFC000007FFFF007FFFF000FD
:10167000001FFFFC000007FFFF000001FFFFC0008C
:10168000007FFFF000001FFFFC000007FFFF007F4E
:10169000FFF000001FFFFC000007FFFF000001FF3C
:1016A000FFC000007FFFF000001FFFFC000007FFED
:1016B000FF007FFFF000001FFFFC000007FFFF009E
:1016C0000001FFFFC000007FFFF000001FFFFC00D3
:1016D0000007FFFF007FFFF000001FFFFC00000776
:1016E000FFFF000001FFFFC000007FFFF000001FB0
:1016F000FFFC000007FFFF007FFFF000001FFFFC62
:10170000000007FFFF000001FFFFC000007FFFF0A7
:1017100000001FFFFC000007FFFF007FFFF000003C
:101720001FFFFC000007FFFF000001FFFFC00000DB
:101730007FFFF000001FFFFC000007FFFF007FFF9E
:10174000F000001FFFFC000007FFFF000001FFFF8B
:10175000C000007FFFF000001FFFFC000007FFFF3C
:101760000000000000000000000000000000000079
:101770000000000000000000000000000000000069
:101780000000000000000000000000000000000059
:101790000000000000000000000000000000000049
:1017A000000000000000007FFFF0000000000000CB
:1017B0000000000000000000000000000000000029
:1017C00000000000000007FFFF007FFFF0000000A6
:1017D0000000000000000000000000000000000009
:1017E00000000000000000000007FFFF007FFFF086
:1017F00000000000000000000000000000000000E9
:1018000000000000000000000000000007FFFF00D3
:101810007FFFF0000000000000000000000000005A
:1018200000000000000000000000000000000007B1
:10183000FFFF007FFFF0000000000000000000003C
:101840000000000000000000000000000000000098
:10185000000007FFFF007FFFF00000000000000015
:101860000000000000000000000000000000000078
:10187000000000000007FFFF007FFFF000000000F5
:101880000000000000000000000000000000000058
:10189000000000000000000007FFFF007FFFF000D5
:1018A0000000000000000000000000000000000038
:1018B000000000000000000000000007FFFF007FA4
:1018C000FFF0000000000000000000000000000029
:1018D000000000000000000000000000000007FF02
:1018E000FF007FFFF000000000000000000000008B
:1018F00000000000000000000000000000000000E8
:101900000007FFFF007FFFF0000000000000000064
:1019100000000000000000000000000000000000C7
:101920000000000007FFFF007FFFF0000000000044
:1019300000000000000000000000000000000000A7
:101940000000000000000007FFFF007FFFF0000024
:101950000000000000000000000000000000000087
:101960000000000000000000000007FFFF007FFFF4
:10197000F000000000000000000000000000000077
:101980000000000000000000000000000007FFFF52
:10199000007FFFF0000000000000000000000000D9
:1019A0000000000000000000000000000000000037
:1019B00007FFFF007FFFF0000000000000000000B4
:1019C0000000000000000000000000000000000017
:1019D00000000007FFFF007FFFF000000000000094
:1019E00000000000000000000000000000000000F7
:1019F00000000000000007FFFF007FFFF000000074
:101A000000000000000000000000000000000000D6
:101A100000000000000000000007FFFF007FFFF053
:101A200000000000000000000000000000000000B6
:101A300000000000000000000000000007FFFF00A1
:101A40000000000000000000000000000000000096
:101A50000000000000000000000000000000000086
:101A60000000000000000000000000000000000076
:101A70000000000000000000000000000000000066
:101A80000000000000007FFFF000001FFFFC0000CE
:101A900007FFFF000001FFFFC000007FFFF0000014
:101AA0001FFFFC000007FFFF007FFFF000001FFF8B
:101AB000FC000007FFFF000001FFFFC000007FFFE8
:101AC000F000001FFFFC000007FFFF007FFFF00099
:101AD000001FFFFC000007FFFF000001FFFFC00028
:101AE000007FFFF000001FFFFC000007FFFF007FEA
:101AF000FFF000001FFFFC000007FFFF000001FFD8
:101B0000FFC000007FFFF000001FFFFC000007FF88
:101B1000FF007FFFF000001FFFFC000007FFFF0039
:101B20000001FFFFC000007FFFF000001FFFFC006E
:101B30000007FFFF007FFFF000001FFFFC00000711
:101B4000FFFF000001FFFFC000007FFFF000001F4B
:101B5000FFFC000007FFFF007FFFF000001FFFFCFD
:101B6000000007FFFF000001FFFFC000007FFFF043
:101B700000001FFFFC000007FFFF007FFFF00000D8
:101B80001FFFFC000007FFFF000001FFFFC0000077
:101B90007FFFF000001FFFFC000007FFFF007FFF3A
:101BA000F000001FFFFC000007FFFF000001FFFF27
:101BB000C000007FFFF000001FFFFC000007FFFFD8
:101BC000007FFFF000001FFFFC000007FFFF000088
:101BD00001FFFFC000007FFFF000001FFFFC0000BE
:101BE00007FFFF007FFFF000001FFFFC000007FF62
:101BF000FF000001FFFFC000007FFFF000001FFF9B
:101C0000FC000007FFFF007FFFF000001FFFFC004B
:101C10000007FFFF000001FFFFC000007FFFF00092
:101C2000001FFFFC000007FFFF007FFFF000001F08
:101C3000FFFC000007FFFF000001FFFFC000007F66
:101C4000FFF000001FFFFC000007FFFF007FFFF018
:101C500000001FFFFC000007FFFF000001FFFFC0A6
:101C600000007FFFF000001FFFFC000007FFFF00E7
:101C70007FFFF000001FFFFC000007FFFF000001D6
:101C8000FFFFC000007FFFF000001FFFFC00000707
:101C9000FFFF007FFFF000001FFFFC000007FFFFB9
:101CA000000001FFFFC000007FFFF000001FFFFCED
:101CB000000007FFFF007FFFF000001FFFFC000097
:101CC00007FFFF000001FFFFC000007FFFF00000E2
:101CD0001FFFFC000007FFFF007FFFF000001FFF59
:101CE000FC000007FFFF000001FFFFC000007FFFB6
:101CF000F000001FFFFC000007FFFF007FFFF00067
:101D0000001FFFFC000007FFFF000001FFFFC000F5
:101D1000007FFFF000001FFFFC000007FFFF000036
:101D200000000000000000000000000000000000B3
:101D300000000000000000000000000000000000A3
:101D40000000000000000000000000000000000093
:101D50000000000000000000000000000000000083
:101D600000000000007FFFF0000000000000000005
:101D70000000000000000000000000000000000063
:101D80000000000007FFFF007FFFF00000000000E0
:101D90000000000000000000000000000000000043
:101DA0000000000000000007FFFF007FFFF00000C0
:101DB0000000000000000000000000000000000023
:101DC0000000000000000000000007FFFF007FFF90
:101DD000F000000000000000000000000000000013
:101DE0000000000000000000000000000007FFFFEE
:101DF000007FFFF000000000000000000000000075
:101E000000000000000000000000000000000000D2
:101E100007FFFF007FFFF00000000000000000004F
:101E200000000000000000000000000000000000B2
:101E300000000007FFFF007FFFF00000000000002F
:101E40000000000000000000000000000000000092
:101E500000000000000007FFFF007FFFF00000000F
:101E60000000000000000000000000000000000072
:101E700000000000000000000007FFFF007FFFF0EF
:101E80000000000000000000000000000000000052
:101E900000000000000000000000000007FFFF003D
:101EA0007FFFF000000000000000000000000000C4
:101EB000000000000000000000000000000000071B
:101EC000FFFF007FFFF000000000000000000000A6
:101ED0000000000000000000000000000000000002
:101EE000000007FFFF007FFFF0000000000000007F
:101EF00000000000000000000000000000000000E2
:101F0000000000000007FFFF007FFFF0000000005E
:101F100000000000000000000000000000000000C1
:101F2000000000000000000007FFFF007FFFF0003E
:101F300000000000000000000000000000000000A1
:101F4000000000000000000000000007FFFF007F0D
:101F5000FFF0000000000000000000000000000092
:101F6000000000000000000000000000000007FF6B
:101F7000FF007FFFF00000000000000000000000F4
:101F80000000000000000000000000000000000051
:101F90000007FFFF007FFFF00000000000000000CE
:101FA0000000000000000000000000000000000031
:101FB0000000000007FFFF007FFFF00000000000AE
:101FC0000000000000000000000000000000000011
:101FD0000000000000000007FFFF007FFFF000008E
:101FE00000000000000000000000000000000000F1
:101FF0000000000000000000000007FFFF000000DC
:1020000000000000000000000000000000000000D0
:1020100000000000000000000000000000000000C0
:1020200000000000000000000000000000000000B0
:1020300000000000000000000000000000000000A0
:10204000000000007FFFF3FFFF9FFFFCFFFFE7FFA3
:10205000FF3FFFF9FFFFCFFFFE7FFFF3FFFF9FFF73
:10206000FCFFFFE7FFFF007FFFF3FFFF9FFFFCFF89
:10207000FFE7FFFF3FFFF9FFFFCFFFFE7FFFF3FF0B
:10208000FF9FFFFCFFFFE7FFFF007FFFF3FFFF9FC6
:10209000FFFCFFFFE7FFFF3FFFF9FFFFCFFFFE7FE2
:1020A000FFF3FFFF9FFFFCFFFFE7FFFF007FFFF352
:1020B000FFFF9FFFFCFFFFE7FFFF3FFFF9FFFFCFA1
:1020C000FFFE7FFFF3FFFF9FFFFCFFFFE7FFFF0027
:1020D0007FFFF3FFFF9FFFFCFFFFE7FFFF3FFFF9DD
:1020E000FFFFCFFFFE7FFFF3FFFF9FFFFCFFFFE738
:1020F000FFFF007FFFF3FFFF9FFFFCFFFFE7FFFFF6
:102100003FFFF9FFFFCFFFFE7FFFF3FFFF9FFFFCC5
:10211000FFFFE7FFFF007FFFF3FFFF9FFFFCFFFFD5
:10212000E7FFFF3FFFF9FFFFCFFFFE7FFFF3FFFF5A
:102130009FFFFCFFFFE7FFFF007FFFF3FFFF9FFF15
:10214000FCFFFFE7FFFF3FFFF9FFFFCFFFFE7FFF31
:10215000F3FFFF9FFFFCFFFFE7FFFF007FFFF3FFA1
:10216000FF9FFFFCFFFFE7FFFF3FFFF9FFFFCFFFF0
:10217000FE7FFFF3FFFF9FFFFCFFFFE7FFFF007FF6
:10218000FFF3FFFF9FFFFCFFFFE7FFFF3FFFF9FFAC
:10219000FFCFFFFE7FFFF3FFFF9FFFFCFFFFE7FF87
:1021A000FF007FFFF3FFFF9FFFFCFFFFE7FFFF3F05
:1021B000FFF9FFFFCFFFFE7FFFF3FFFF9FFFFCFF55
:1021C000FFE7FFFF007FFFF3FFFF9FFFFCFFFFE73D
:1021D000FFFF3FFFF9FFFFCFFFFE7FFFF3FFFF9FF2
:1021E000FFFCFFFFE7FFFF007FFFF3FFFF9FFFFC08
:1021F000FFFFE7FFFF3FFFF9FFFFCFFFFE7FFFF38A
:10220000FFFF9FFFFCFFFFE7FFFF007FFFF3FFFFE4
:102210009FFFFCFFFFE7FFFF3FFFF9FFFFCFFFFE40
:102220007FFFF3FFFF9FFFFCFFFFE7FFFF007FFF44
:10223000F3FFFF9FFFFCFFFFE7FFFF3FFFF9FFFFFB
:10224000CFFFFE7FFFF3FFFF9FFFFCFFFFE7FFFFD6
:10225000007FFFF3FFFF9FFFFCFFFFE7FFFF3FFF54
:10226000F9FFFFCFFFFE7FFFF3FFFF9FFFFCFFFFA4
:10227000E7FFFF007FFFF3FFFF9FFFFCFFFFE7FF8C
:10228000FF3FFFF9FFFFCFFFFE7FFFF3FFFF9FFF41
:10229000FCFFFFE7FFFF007FFFF3FFFF9FFFFCFF57
:1022A000FFE7FFFF3FFFF9FFFFCFFFFE7FFFF3FFD9
:1022B000FF9FFFFCFFFFE7FFFF007FFFF3FFFF9F94
:1022C000FFFCFFFFE7FFFF3FFFF9FFFFCFFFFE7FB0
:1022D000FFF3FFFF9FFFFCFFFFE7FFFF0000000091
:1022E00000000000000000000000000000000000EE
:1022F00000000000000000000000000000000000DE
:102300000030000163000D6E000CF700076E000640
:10231000EC000E4E006F4C00793C00093E007E0F31
:10232000403E07400E03802C03803C03000E030058
:1023300006060003FC000000000000000000000092
:10234000000001080000900001100001B00000B082
:102350000006C00006C00001F00001D80001CC005A
:1023600003C40003840001840001C80000000000D1
:10237000000000000000000000000000000000005D
:10238000000000000000000000000000000000004D
:10239000000000002000003000003800007800003D
:1023A0007800003000000000000000FFF9E0FFF9B5
:1023B000E0FFF9E0FFF9E0FFF9E0000000000000B5
:1023C000F3FFE0F3FFE0F3FFE0F3FFE0F3FFE000F3
:1023D0000000000000FFE7E0FFE7E0FFE7E0FFE7C5
:1023E000E0FFE7E048000030000078000000000057
:1023F00000000000000000000000000000000000DD
:1024000000000000000000000000000000000000CC
:1024100000000000000000000000000000000000BC
:1024200000000000000000000000000002FC0002AC
:10243000FE000DFF0003FF800FFF800FFF800FFFE6
:10244000800FFF800FFF8007FF0003FE0001FC00EC
:1024500000000000000000000030000030000030EC
:1024600000003BFC001D02000D01001200801C005A
:10247000401000401000401000401000401000408C
:1024800008008004010002020001FC0000000000BE
:10249000000000003E5B4F5B3E3E6B4F6B3E1C3EC0
:1024A0007C3E1C183C7E3C181C577D571C1C5E7FD4
:1024B0005E1C00183C1800FFE7C3E7FF0018241853
:1024C00000FFE7DBE7FF30483A060E262979292688
:1024D000407F050507407F05253F5A3CE73C5A7F72
:1024E0003E1C1C08081C1C3E7F14227F22145F5FC8
:1024F000005F5F06097F017F006689956A60606002
:10250000606094A2FFA29408047E040810207E203C
:102510001008082A1C08081C2A08081E1010101091
:102520000C1E0C1E0C30383E3830060E3E0E0600D7
:102530000000000000005F00000007000700147F9B
:10254000147F14242A7F2A12231308646236495602
:1025500020500008070300001C2241000041221CFB
:10256000002A1C7F1C2A08083E08080080703000E2
:102570000808080808000060600020100804023EF7
:102580005149453E00427F40007249494946214138
:10259000494D331814127F1027454545393C4A49A7
:1025A00049314121110907364949493646494929E6
:1025B0001E000014000000403400000008142241F6
:1025C0001414141414004122140802015909063E7F
:1025D000415D594E7C1211127C7F494949363E417A
:1025E0004141227F4141413E7F494949417F09099B
:1025F00009013E414151737F0808087F00417F4136
:10260000002040413F017F081422417F404040406C
:102610007F021C027F7F0408107F3E4141413E7FC4
:10262000090909063E4151215E7F091929462649BB
:1026300049493203017F01033F4040403F1F204092
:10264000201F3F4038403F6314081463030478049C
:10265000036159494D43007F414141020408102064
:10266000004141417F0402010204404040404000DB
:102670000307080020545478407F284444383844E5
:10268000444428384444287F385454541800087E61
:10269000090218A4A49C787F0804047800447D40B3
:1026A000002040403D007F1028440000417F400052
:1026B0007C047804787C080404783844444438FC6A
:1026C0001824241818242418FC7C080404084854EE
:1026D00054542404043F44243C4040207C1C2040AB
:1026E000201C3C4030403C44281028444C909090A2
:1026F0007C4464544C4400083641000000770000DC
:10270000004136080002010204023C2623263C1E3A
:10271000A1A161123A4040207A38545455592155AC
:1027200055794122545478422155547840205455CB
:1027300079400C1E5272123955555559395454541A
:102740005939555454580000457C410002457D429A
:102750000001457C407D1211127DF0282528F07C77
:10276000545545002054547C547C0A097F49324911
:102770004949323A4444443A324A4848303A41415D
:10278000217A3A42402078009DA0A07D3D424242FD
:102790003D3D4040403D3C24FF2424487E49436663
:1027A0002B2FFC2F2BFF0929F620C0887E09032040
:1027B000545479410000447D413048484A32384001
:1027C00040227A007A0A0A727D0D19317D26292964
:1027D0002F28262929292630484D40203808080866
:1027E0000808080808382F10C8ACBA2F102834FA87
:1027F00000007B000008142A142222142A14085511
:1028000000550055AA55AA55AAFF55FF55FF0000CF
:1028100000FF00101010FF00141414FF001010FF30
:1028200000FF1010F010F0141414FC001414F70042
:10283000FF0000FF00FF1414F404FC141417101F11
:1028400010101F101F1414141F00101010F000009F
:1028500000001F101010101F10101010F0100000BA
:1028600000FF101010101010101010FF10000000CA
:10287000FF140000FF00FF00001F10170000FC0401
:10288000F414141710171414F404F40000FF00F7E4
:1028900014141414141414F700F714141417141047
:1028A000101F101F141414F4141010F010F0000076
:1028B0001F101F0000001F14000000FC140000F097
:1028C00010F01010FF10FF141414FF141010101F3C
:1028D00000000000F010FFFFFFFFFFF0F0F0F0F04D
:1028E000FFFFFF0000000000FFFF0F0F0F0F0F386A
:1028F00044443844FC4A4A4A347E02020606027EB8
:10290000027E0263554941633844443C04407E20C2
:102910001E2006027E020299A5E7A5991C2A492AD3
:102920001C4C7201724C304A4D4D30304878483062
:10293000BC625A463D3E494949007E0101017E2A5A
:102940002A2A2A2A44445F444440514A444040448D
:102950004A51400000FF0103E080FF000008086BBF
:102960006B083612362436060F090F0600001818B9
:102970000000001010003040FF0101001F01011E87
:1029800000191D1712003C3C3C3C0000000000EF09
:1029900003038002CF0300C130ED0464031281E819
:1029A00003850078CB05392C003402F70120EA02B8
:1029B0000000C00123C10110C5023E28C7018636B0
:1029C00001483701003A0155B1020018B6030882E8
:1029D00027F20100260101E00F0F312B0C0E084EEB
:1029E000F1370710030E0900E10F000E1403110761
:1029F00031C148080F0C31360F11802980000000CA
:102A00000000240027002A00000000080002010046
:102A10000003040700000000000000000102040899
:102A20001020408001020408102001020408102038
:102A300000000000250028002B0004040404040406
:102A4000040402020202020203030303030396309A
:102A500011241FBECFEFD8E0DEBFCDBF13E0A0E052
:102A6000B1E0E6E2F5E602C005900D92AA34B107A6
:102A7000D9F725E0AAE4B3E001C01D92A53AB20758
:102A8000E1F715E1C8E2D5E104C02197FE010E94FB
:102A90008632C732D107C9F70E94E42F0C949132D5
:102AA0000C94000080915A0390915B03209158038D
:102AB00030915903ECE2F2E04281538160817181EF
:102AC0008617970719F42417350741F0349642E02A
:102AD000EC37F40789F781E090E0089580E090E01A
:102AE000089580915A0390915B032091580330918F
:102AF0005903A4E6B3E0ED91FD91EE0FFF1FEE0F39
:102B0000FF1FEC5FFE4F408151818417950729F428
:102B1000428153812417350739F043E0A83CB407BC
:102B200051F781E090E0089580E090E008950F93E0
:102B30001F93CF93DF93EC018B0145E851E00E9496
:102B4000AB2C4CE451E0B801CE010E94AB2C80913B
:102B50004A0390914B038130910519F443E151E010
:102B600010C08230910519F44AED50E00AC083305C
:102B7000910519F441EA50E004C0049751F448E685
:102B800050E0B801CE01DF91CF911F910F910C94CD
:102B9000AB2CDF91CF911F910F9108958F929F924F
:102BA000BF92CF92DF92EF92FF920F931F93CF933A
:102BB000DF93E12CF12C0EE010E026E130E045E55A
:102BC00050E06DE171E088E695E00E94AC25C8E632
:102BD000D5E08DE1882E992493949D868C8685E599
:102BE00090E09F878E87CC24CA94DC2CDB8ACA8A2B
:102BF000D98AC88A22E0B22EBC8A1E8A80916203DA
:102C0000909163030E947B2D26E130E049E950E07A
:102C10006DE171E0CE010E94AC259D868C8689E92C
:102C200090E09F878E87DB8ACA8AD98AC88ABC8A45
:102C30001E8A80915C0390915D03DF91CF911F917B
:102C40000F91FF90EF90DF90CF90BF909F908F906B
:102C50000C947B2DECE2F2E02281338140815181A2
:102C60008417950719F46217730741F0349622E030
:102C7000EC37F20789F781E090E0089580E090E07A
:102C800008952F923F924F925F927F928F929F92E0
:102C9000AF92BF92CF92DF92EF92FF920F931F936A
:102CA000CF93DF93CDB7DEB728970FB6F894DEBF8A
:102CB0000FBECDBF1C012B014A0159011C830B83A0
:102CC000C901079697FD07969C0193E035952795D6
:102CD0009A95E1F73A832983C12CD12C00E010E0CA
:102CE000EB81FC810E171F070CF03CC018861F8279
:102CF000F801E40DF51DFE83ED832F8138852A153B
:102D00003B054CF58F81988587709927892B11F0A9
:102D1000770C0EC0EF81F885F7FD379683E0F595C7
:102D2000E7958A95E1F7EC0DFD1DE80DF91D74900E
:102D300077FE0BC097014D815E816F817885620DB2
:102D4000731D88E695E00E9461268F819885019623
:102D500098878F83D2CF0F5F1F4F89819A81C80ECA
:102D6000D91EBECF28960FB6F894DEBF0FBECDBFDA
:102D7000DF91CF911F910F91FF90EF90DF90CF9057
:102D8000BF90AF909F908F907F905F904F903F90BB
:102D90002F900895EF92FF920F931F93809102015D
:102DA00090910301039719F5E12C58EFF52E03E1FB
:102DB00010E023E130E047EF51E06FE070E08AE19E
:102DC00091E00E94411623E130E047EF51E063E2D9
:102DD00070E08AE191E00E94411623E130E047EF84
:102DE00051E067E370E08AE191E00E944116809132
:102DF000020190910301029759F5E12C48EFF42E5E
:102E000003E110E023E130E047EF51E06FE070E0D4
:102E10008AE191E00E94411623E130E047EF51E062
:102E200063E270E08AE191E00E94411647EF51E0D1
:102E300067E370E08AE191E00E94AB2C23E130E08F
:102E40004EEB51E067E370E08AE191E00E944116A9
:102E50008091020190910301019799F5E12C38EFDF
:102E6000F32E03E110E023E130E047EF51E06FE0A3
:102E700070E08AE191E00E94411647EF51E063E281
:102E800070E08AE191E00E94AB2C23E130E04EEB50
:102E900051E063E270E08AE191E00E94411647EF61
:102EA00051E067E370E08AE191E00E94AB2C23E1FE
:102EB00030E04EEB51E067E370E08AE191E00E9480
:102EC00041168091000190910101039719F5E12CC1
:102ED00028EFF22E03E110E023E130E047EF51E06C
:102EE0006FEA70E08AE191E00E94411623E130E050
:102EF00047EF51E063EC70E08AE191E00E944116F7
:102F000023E130E047EF51E067ED70E08AE191E0C6
:102F10000E9441168091000190910101029719F5DC
:102F2000E12C98EFF92E03E110E023E130E047EFC8
:102F300051E06FEA70E08AE191E00E94411623E1DE
:102F400030E047EF51E063EC70E08AE191E00E94ED
:102F5000411623E130E04EEB51E067ED70E08AE18D
:102F600091E00E944116809100019091010101972A
:102F700019F5E12C88EFF82E03E110E023E130E0B1
:102F800047EF51E06FEA70E08AE191E00E9441165C
:102F900023E130E04EEB51E063EC70E08AE191E038
:102FA0000E94411623E130E04EEB51E067ED70E006
:102FB0008AE191E00E9441161F910F91FF90EF90DE
:102FC0000895CF93DF9380916003909161030197FF
:102FD00021F5CAECD3E020915A0330915B0388813C
:102FE000998128173907A1F420915803309159038A
:102FF0008A819B812817390759F4809102019091A9
:103000000301019790930301809302010E94CA1665
:10301000249683E0CE3DD807F1F6DF91CF91089555
:10302000AF92BF92CF92DF92EF92FF920F931F93D6
:10303000CF93DF936C015B01E12C48EFF42E03E1A9
:1030400010E023E130E045E851E00E944116EE2413
:10305000EA94FE2C23E130E04CE451E0B501C601D6
:103060000E944116C0914C03D0914D03C130D1054F
:1030700041F43FE1E32EF12C23E130E043E151E064
:1030800031C0CE018D7F892BA1F42FE1E22EF12CEE
:1030900003E110E023E130E04AED50E0B501C60164
:1030A0000E94411682E090E090934B0380934A0384
:1030B00021C0C330D10551F49FE1E92EF12C03E189
:1030C00010E023E130E041EA50E00CC0C430D1050B
:1030D00089F48FE1E82EF12C03E110E023E130E0E8
:1030E00048E650E0B501C6010E944116D0934B035B
:1030F000C0934A03DF91CF911F910F91FF90EF9002
:10310000DF90CF90BF90AF900895EF92FF920F9312
:103110001F938091E2039091E303019709F044C06B
:103120006091E0037091E1038AEBE82E86EDF82EC2
:1031300003E110E023E130E046E554E28091DE0354
:103140009091DF030E9441166091E0037091E103CA
:10315000E12CF12C23E130E04DE154E28091DE03DB
:103160009091DF030E9441166091E0037091E103AA
:103170009AE6E92E9DEFF92E23E130E044EE53E28A
:103180008091DE039091DF030E94411660916405F7
:103190007091650580916605909167051F910F916B
:1031A000FF90EF900C9410181F910F91FF90EF90EB
:1031B0000895CF93DF93CDB7DEB7C259D1090FB6CB
:1031C000F894DEBF0FBECDBFE12CF12C00EF10E074
:1031D00020E431E040E050E060E070E088E695E017
:1031E0000E94AC2564E1C62ED12CD0927505C09208
:1031F00074058AE090E090937705809376050FEF51
:103200001FEF10937B0500937A05109379050093C7
:10321000780584E080937C0510927E0564ED72E071
:1032200088E695E00E948A2DD0927505C0927405BB
:1032300076E4C72ED12CD0927705C092760580E037
:1032400098EF90937B0580937A059093790580930E
:103250007805BB24B394B0927C0510927E0561EE94
:1032600072E088E695E00E948A2D6AE570E08CE1C4
:1032700090E00E9410188AEF90E09093750580937B
:103280007405D0927705C09276058FE190E0909317
:103290007B0580937A059093790580937805B092A9
:1032A0007C0510927E056AEE72E088E695E00E9449
:1032B0008A2D6AE570E084E091E00E941018E4E64F
:1032C000AE2EB12CB0927505A0927405D092770500
:1032D000C092760510937B0500937A0510937905CB
:1032E00000937805F2E0DF2ED0927C0510927E05E7
:1032F00063EF72E088E695E00E948A2DB092750532
:10330000A09274058AE590E0909377058093760506
:1033100010937B0500937A05109379050093780547
:10332000D0927C0510927E056EEF72E088E695E003
:103330000E948A2D80E590E0909375058093740536
:10334000A0EAAA2EB12CB0927705A0927605109330
:103350007B0500937A051093790500937805D09248
:103360007C0510927E0569E073E088E695E00E9496
:103370008A2D85ED90E09093750580937405B09249
:103380007705A092760510937B0500937A0510933C
:10339000790500937805D0927C0510927E0580E037
:1033A00090E00E947B2D0E94122F8091B104909199
:1033B000B2040197C1F760E070E088E695E00E94F2
:1033C000EC1D5AEBE52E56EDF52E00EF10E021E155
:1033D00031E040E352E060E070E080E090E00E9485
:1033E000411680E480937C0080917A008064809311
:1033F0007A0080917A0086FDFCCF80917800209140
:10340000790090E0922B0E94E131C12CD12C4AE44A
:10341000842E912C9E012F5F3F4F59013E0135E9CB
:10342000630E711C0E94DC31B4010E944F32F50121
:10343000219131912817390721F0E615F705C1F7D9
:1034400085C231E0C31AD1088FEFC81AD80A93E3B6
:10345000C916D1043CF382E9D5011D928A95E9F79A
:103460000E94CE156FE170E086E190E00E94101896
:103470000E94CA169DE1C92EDD24D394D092750511
:10348000C09274058BE690E0909377058093760563
:1034900080E098EF90937B0580937A05909379056F
:1034A0008093780512E010937C0510927E0565E10B
:1034B00073E088E695E00E948A2DD0927505C0924F
:1034C000740582E890E090937705809376058FE10C
:1034D00090E090937B0580937A0590937905809393
:1034E000780510937C0510927E0568E173E088E60C
:1034F00095E00E948A2D24E6C22E23E0D22EF6010A
:10350000019111916F01A801012E000C660B770B40
:1035100077FF05C083EB94E00E94522D05C02AE09E
:1035200083EB94E00E94092D6BE173E083EB94E060
:103530000E94F42C000F111F000F111F0C5F1E4F73
:10354000D8014D915C9160E070E02AE083EB94E05B
:103550000E94092D6EE173E083EB94E00E948A2DB6
:10356000F8014281538160E070E02AE083EB94E04F
:103570000E94092D6BE173E083EB94E00E94F42C30
:10358000FAECCF16F3E0DF0609F0B9CF6BE173E098
:1035900083EB94E00E94F42CF2E04F2E512CAA24ED
:1035A000A394B12CB3E08B2E912C14E0612E712CDE
:1035B0000E94122F8091A5049091A604209152039D
:1035C000309153032817390761F44091500350910B
:1035D00051032091A7043091A8044217530709F41E
:1035E0007CC020914E0330914F03232B09F075C00E
:1035F00090935303809352032091A7043091A80421
:103600003093510320935003893C91055CF07092F4
:103610004D0360924C030091660510916705C80147
:1036200045960CC0C29724F590924D0380924C03AE
:103630000091660510916705C801459790935B035B
:1036400080935A03C0906405D0906505D0925903C9
:10365000C09258034697833D910508F4A5C1B092E6
:103660004F03A0924E030E9485180E94E11735C0B7
:10367000293C31059CF0B0924D03A0924C0300917F
:1036800066051091670510935B0300935A03C09081
:103690006405D0906505C601459715C028323105EF
:1036A000E4F450924D0340924C0300916605109152
:1036B000670510935B0300935A03C0906405D09094
:1036C0006505C601459690935903809358034F971B
:1036D000893A910508F489C1C2CF8091A5049091DF
:1036E000A60485569109879760F48091A70490916C
:1036F000A8048F569109879720F410924F031092D7
:103700004E03C090AF04D090B00421E0C216D104A3
:1037100009F05EC080915E0390915F03892B09F0F0
:1037200057C08091E2039091E303892B09F050C0C8
:1037300060916405709165055AEBE52E56EDF52E06
:1037400003E110E023E130E046E554E280916605B4
:10375000909167050E94411660916405709165051E
:10376000E12CF12C23E130E04DE154E2809166053B
:10377000909167050E9441166091640570916505FE
:10378000EAE6EE2EEDEFFE2E23E130E044EE53E2CA
:1037900080916605909167050E94411680916605AB
:1037A000909167059093DF038093DE036091640539
:1037B000709165057093E1036093E0030E94101817
:1037C000D0925F03C0925E03D092E303C092E20303
:1037D0008091AF049091B004892B21F410925F0383
:1037E00010925E038091020190910301892B09F0F0
:1037F000DFCE1092610310926003E12CF12C00EFF8
:1038000010E020E431E040E050E060E070E088E665
:1038100095E00E94AC2581E490E09093750580933B
:10382000740580E590E0909377058093760580E0BD
:1038300098EF90937B0580937A0590937905809318
:10384000780584E080937C0510927E0560E273E049
:1038500088E695E00E948A2D8DE490E090937505AE
:103860008093740582E890E09093770580937605C5
:103870008FEF9FEF90937B0580937A059093790566
:103880008093780581E080937C0580937E056AE2D1
:1038900073E088E695E00E948A2D0E94122F8091A5
:1038A000B1049091B2040197C1F786E6E8ECF3E029
:1038B000DF011D928A95E9F784E291E0ECE2F2E003
:1038C000DF019C011D9221503040E1F7109263030B
:1038D0001092620310925D0310925C0386E190E007
:1038E00090936705809366058FE190E0909365055E
:1038F00080936405809162059091630590936105C2
:103900008093600580915E0590915F0590935D05C1
:1039100080935C0510925B0310925A031092590336
:1039200010925803109257031092560310925503A9
:103930001092540383E090E090930301809302017E
:1039400090930101809300010E94D918F601EE0FB7
:10395000FF1FEC59FC4F91838083FC01EE0FFF1F8A
:10396000EA0DFB1D91838083DC01AA0FBB1FAA0F08
:10397000BB1FAC5FBE4FED91FC91119712966D91FC
:103980007C9113978934910509F45ECD32E2E32EE0
:1039900032EBF32E03E110E023E130E04BEA53E297
:1039A000CF010E94411650CD0E945215019709F097
:1039B00056CE0E947115019709F051CEB601C8018B
:1039C0000E949715609164057091650580915A0376
:1039D00090915B030E94101880915A0390915B03B1
:1039E00090936705809366053ACE0E945215019721
:1039F00009F035CE0E947115019709F030CEB6015D
:103A0000C8010E94971560915803709159038091E5
:103A10006605909167050E94101880915803909157
:103A20005903909365058093640519CE6F927F9238
:103A30008F929F92AF92BF92CF92DF92EF92FF92BE
:103A40000F931F93CF93DF93EC014B015A01690150
:103A50003801E881F9810284F385E02D0995E88138
:103A6000F9810288F389E02D87019601A501B4014F
:103A7000CE010995E881F981A501460D571D4150F8
:103A800051090288F389E02D9601B401CE01099510
:103A9000E881F9810088F189E02D9301A501B40145
:103AA000CE010995E881F981C80CD91CB601615095
:103AB00071090088F189E02D9301A501CE010995D6
:103AC000E881F9810688F789E02DCE01DF91CF9159
:103AD0001F910F91FF90EF90DF90CF90BF90AF902C
:103AE0009F908F907F906F900994CF92DF92EF928A
:103AF000FF920F931F93CF93DF9300D000D000D09D
:103B0000CDB7DEB76C01DC01ED91FC916217730754
:103B100089F4041715072CF4942F852FA801092F79
:103B2000182F041B150B98012F5F3F4F048CF58D48
:103B3000E02D12C04017510709F5261737072CF45E
:103B4000962F872FB901292F382F261B370B2F5F70
:103B50003F4F068CF78DE02D8701C601099526960B
:103B60000FB6F894DEBF0FBECDBFDF91CF911F918E
:103B70000F91FF90EF90DF90CF9008950284F3852E
:103B8000E02D2D833E834B835C8369837A83099583
:103B9000D601ED91FC910488F589E02D2D813E81BF
:103BA0004B815C8169817A81C6010995D601ED91CD
:103BB000FC910688F789E02DC60126960FB6F89489
:103BC000DEBF0FBECDBFDF91CF911F910F91FF9050
:103BD000EF90DF90CF900994EF92FF920F931F9395
:103BE000DC01ED91FC9111971A960D911C911B9798
:103BF00018962D913C91199700A0F1A1E02D7B0121
:103C000040E050E060E070E009951F910F91FF9057
:103C1000EF9008954F925F926F927F928F929F9252
:103C2000AF92BF92CF92DF92EF92FF920F931F93CA
:103C3000CF93DF9300D0CDB7DEB76C015A013901C5
:103C40004801DC01ED91FC910284F385E02D69834C
:103C50007A8309956981462E7A81572E640C751CEA
:103C6000D601ED91FC91461457046CF40088F1895B
:103C7000E02D87019401A501B201C6010995BFEFAE
:103C80004B1A5B0AEDCF0688F789E02DC6010F902D
:103C90000F90DF91CF911F910F91FF90EF90DF90E8
:103CA000CF90BF90AF909F908F907F906F905F90DC
:103CB0004F900994AF92BF92CF92DF92EF92FF9212
:103CC0000F931F93CF93DF9300D000D0CDB7DEB713
:103CD0005C016901DC01ED91FC910284F385E02D2A
:103CE0004B835C8369837A830995D501ED91FC91BF
:103CF00069817A819B012C0D3D1D21503109048879
:103D0000F589E02D78014B815C818A01C501099517
:103D1000D501ED91FC910688F789E02DC5010F9042
:103D20000F900F900F90DF91CF911F910F91FF9007
:103D3000EF90DF90CF90BF90AF900994AF92BF9279
:103D4000CF92DF92EF92FF920F931F93CF93DF9367
:103D500000D000D0CDB7DEB75C016901DC01ED9188
:103D6000FC910284F385E02D4B835C8369837A8325
:103D70000995D501ED91FC914B815C81C40ED51E56
:103D8000B1E0CB1AD1080488F589E02D78018601CD
:103D900069817A819B01C5010995D501ED91FC915D
:103DA0000688F789E02DC5010F900F900F900F90B6
:103DB000DF91CF911F910F91FF90EF90DF90CF9007
:103DC000BF90AF9009940895EF92FF920F931F93C5
:103DD000DC01ED91FC9100A0F1A1E02D09951F916E
:103DE0000F91FF90EF9008950F931F93DC01ED91D9
:103DF000FC91068CF78DE02D09951F910F91089588
:103E00000F931F93DC01ED91FC91048CF58DE02D57
:103E100009951F910F910895DC01ED91FC910084AB
:103E2000F185E02D099408952F923F924F925F9271
:103E30006F927F928F929F92AF92BF92CF92DF92BA
:103E4000EF92FF920F931F93CF93DF9300D01F92B7
:103E5000CDB7DEB74C017B836A836A015901170134
:103E60009801241B350B37FF03C03195219531098B
:103E7000C5014A815B81841B950B97FF03C0919517
:103E80008195910951E059838217930714F01982A3
:103E90000BC09A2D8B2D5801092F182F9A818B81D9
:103EA000DB82CA82C92ED82E8A819B81A816B906C8
:103EB0005CF49C2D8D2D6801092F182F9A818B8120
:103EC000BB82AA82A92EB82E2501AA81BB814A1ADB
:103ED0005B0A38016C187D0877FE03C07194619409
:103EE0007108720157FE03C0BFEFEB1AFB0AF5948D
:103EF000E794C016D1061CF00FEF1FEF1FC001E0C2
:103F000010E01CC0D401ED91FC91B9810484F585C9
:103F1000E02D9101BB23C1F04A815B81B601C40150
:103F20000995E618F708F7FE04C0C00ED11EE40C90
:103F3000F51CEA81FB813196FB83EA834A815B8130
:103F4000A416B506FCF604C0A6016A817B81E7CF02
:103F50000F900F900F90DF91CF911F910F91FF90D5
:103F6000EF90DF90CF90BF90AF909F908F907F9019
:103F70006F905F904F903F902F90089585ED8093C4
:103F8000BC008091BC0084FDFCCF10928104089598
:103F900040910A04262F30E0240F311D21323105D3
:103FA000DCF4209181042430C9F4FC0180E090E02D
:103FB000861758F430910A042191DC01A851BC4FB6
:103FC000A30FB11D2C930196F3CF80910A04680FC3
:103FD00060930A0480E0089581E0089582E00895E6
:103FE0000895E0913A0480913904E81730F4F0E044
:103FF000E55CFB4F808190E008958FEF9FEF08957F
:1040000090913A0480913904981750F4E92FF0E028
:10401000E55CFB4F208130E09F5F90933A0402C043
:104020002FEF3FEFC90108958091390490E020916E
:104030003A04821B91090895CF92DF92EF92FF928A
:104040000F931F93CF93DF937C01262F972F8A0125
:104050008091A404882391F0C62FD72F6E01C40E3F
:10406000D51ECC15DD0571F06991D701ED91FC915C
:104070000190F081E02DC7010995F3CF642F822FC5
:104080000E94C81FC801DF91CF911F910F91FF902F
:10409000EF90DF90CF900895CF93DF931F92CDB72D
:1040A000DEB769832091A4042223D1F02091A204D9
:1040B000203240F021E030E0FC013383228380E0B5
:1040C00090E015C08091A304E82FF0E0EE57FB4F7D
:1040D000998190838F5F8093A3048093A20405C08D
:1040E00061E0CE0101960E94C81F81E090E00F9030
:1040F000DF91CF910895089580E090E008952F9288
:104100003F924F925F926F927F928F929F92AF9267
:10411000BF92CF92DF92EF92FF920F931F93CF93B4
:10412000DF93CDB7DEB76C970FB6F894DEBF0FBE46
:10413000CDBF9C8F8B8F5B011A011F830E833701CC
:10414000C982DC0158964D915C91599741155105F2
:1041500009F0E5C018968D919C9119976817790719
:104160000CF0CAC11A968D919C911B97281639069E
:104170000CF0C2C18C2C912CFB0136E0C39EE00DEB
:10418000F11D1124FB87EA871E161F060CF0B4C12F
:10419000C40133E0880F991F3A95E1F79D878C871A
:1041A000820D931D181619060CF0A6C157968C9116
:1041B000811103C0203B08F02F5FAB8DBC8DED91CA
:1041C000FC9111970284F385E02DCD012A8F09958A
:1041D0002A8DB5E02B9F90011124F5013596FF87BC
:1041E000EE87BB82AA822501A9014A195B09598B76
:1041F000488BC10108969B8B8A8BE889F989E40D6D
:10420000F51DE157FB4D9491988761013D822C8209
:10421000A885A0FF13C0AB8DBC8DED91FC91B98139
:10422000B13031F40484F585E02D2E813F8116C034
:104230000684F785E02DEE80FF801AC0EE81FF81B5
:104240006E167F06F1F0AB8DBC8DED91FC91B981BE
:10425000B13051F40484F585E02D9301A601B2013B
:104260008B8D9C8D09950DC00684F785E02D73011B
:10427000840194014C815D816A817B818B8D9C8D51
:104280000995E885E695E887FFEFCF1ADF0A2C81CC
:104290003D81280D391D3D832C834A895B89C416D5
:1042A000D50609F0B5CF5FEF451A550A8A819B8183
:1042B000880D991D9B838A83AE85BF854A165B0650
:1042C00009F09BCFEE81FF816E167F0609F4F2C0E4
:1042D000EB8DFC8DA081B181F981F13079F4B501CC
:1042E0006B5F7F4F5096ED91FC915197830128E0D1
:1042F00030E0A1018B8D9C8D0995DCC06A857B85A2
:10430000681979091E96ED91FC911F9773010C8530
:104310001D859401A1018B8D9C8D0995CBC0FA015F
:1043200034969491329765917491291BCB01B7E033
:104330002B9F800D911D1124FA01259134913B8B07
:104340002A8BFC01459154915B834A83FC01329690
:10435000C490319654915E87329614913196D490E0
:104360008981823058F0612E012E000C7708AD2D26
:104370000D2C000CBB0BB987A88704C019861886C2
:10438000612C712CAB8DBC8DED91FC911197028449
:10439000F385E02DCD010995B9818B2E912C689C78
:1043A000C001699C900D789C900D1124FC01EA0DD0
:1043B000FB1DFD87EC871C82712C612CE12F110FF6
:1043C000FF0B95012E0F3F1F3B872A87AC0CB11CBA
:1043D000A5014E0F5F1F5F8B4E8BC1018D0D911D8F
:1043E000D7FC9A95998F888F4E85641608F062C025
:1043F000862D90E048855985480F591F489D9001AA
:10440000499D300D589D300D1124D901A20DB31DC9
:10441000B98BA88BAA84BB844C845D84DC80BA856C
:10442000DB1AE88DF98DE80FF91FFD8BEC8B8D2DD4
:104430008A0D2E893F89A216B306B9F1877061F4FF
:104440008A819B810196EA89FB89AA81BB81EA0F57
:10445000FB1F74909B838A8377FE20C0AB8DBC8D3D
:10446000ED91FC91B981B13061F40484F585E02DC2
:104470002E813F814C895D89B5018B8D9C8D09957D
:104480000DC00684F785E02DEE80FF808401940145
:1044900048895989B2018B8D9C8D0995770CEFEF76
:1044A000AE1ABE0A480C591CC2CF3C813C0D3C835D
:1044B00063949ACFAB8DBC8DED91FC9111970688DA
:1044C000F789E02DCD016C960FB6F894DEBF0FBED4
:1044D000CDBFDF91CF911F910F91FF90EF90DF90B3
:1044E000CF90BF90AF909F908F907F906F905F9094
:1044F0004F903F902F9009946C960FB6F894DEBFC2
:104500000FBECDBFDF91CF911F910F91FF90EF9024
:10451000DF90CF90BF90AF909F908F907F906F90E3
:104520005F904F903F902F9008951F920F920FB67B
:104530000F9211242F933F934F935F936F937F9329
:104540008F939F93AF93BF93EF93FF938091B900A5
:10455000887F803609F49CC068F5883209F45BC016
:1045600090F4803109F454C038F4882309F4F6C07B
:10457000883009F44DC0F6C0883109F44CC080324F
:1045800009F45DC0EFC0803409F468C048F480339A
:1045900009F455C0883309F0E5C080937F04D8C082
:1045A000803509F44FC0883509F45DC0883409F0BE
:1045B000D9C0D6C0883909F4C7C0A8F4883709F42F
:1045C00067C038F4883609F463C0803709F460C0E6
:1045D000C9C0883809F4B8C0803909F45FC0803890
:1045E00009F0C0C05BC0803B09F486C038F4803A53
:1045F00009F466C0883A09F47FC0B4C0803C09F46D
:10460000A7C0883C09F4A4C0883B09F48AC0AAC0AA
:1046100080915C0410C090917E0480917D04981775
:1046200070F5E0917E0481E08E0F80937E04F0E0CF
:10463000E35AFB4F80818093BB0085EC86C080935A
:104640007F048EC0E0917E0481E08E0F80937E0413
:104650008091BB00F0E0E35AFB4F808390917E0491
:1046600080917D046EC0E0917E0481E08E0F809386
:104670007E048091BB00F0E0E35AFB4F8083809181
:10468000800481116DC081E080935B0484EA61C085
:1046900083E08093810410922E04CFCF80912E046A
:1046A000803208F051C0E0912E0481E08E0F80939B
:1046B0002E048091BB00F0E0E25FFB4F8083BDCF12
:1046C00085EC8093BC001092810480912E0480328E
:1046D00030F4E0912E04F0E0E25FFB4F1082609135
:1046E0002E0470E0E0910C04F0910D048EE094E053
:1046F000099510922E0436C084E0809381041092B4
:104700000B0410920A04E0910804F0910904099541
:1047100080910A04811105C081E080930A041092FF
:10472000E803E0910B0481E08E0F80930B04F0E02E
:10473000E851FC4F80818093BB0090910B048091E5
:104740000A04981708F479CF85E88093BC000AC062
:1047500085EC8093BC001092810404C010927F0409
:104760000E94BE1FFF91EF91BF91AF919F918F91DA
:104770007F916F915F914F913F912F910F900FBE5D
:104780000F901F9018951F920F920FB60F92112441
:104790008F929F92AF92BF92CF92DF92EF92FF9251
:1047A0000F931F932F933F934F935F936F937F9339
:1047B0008F939F93AF93BF93CF93DF93EF93FF9329
:1047C0008091E6039091E70301969093E70380932D
:1047D000E6038091E2039091E303019709F032C16F
:1047E0008091E4039091E5030196843F21E09207D4
:1047F0002CF49093E5038093E40324C11092E50325
:104800001092E4031092E7031092E6036091E00334
:104810007091E10346E554E28091DE039091DF035D
:104820000E94AB2C6091E0037091E1034DE154E2F2
:104830008091DE039091DF030E94AB2C6091E00336
:104840007091E10344EE53E28091DE039091DF0327
:104850000E94AB2C6091640570916505809166059E
:10486000909167050E9410182091DE033091DF03BC
:104870003093CB032093CA038091E0039091E1032E
:104880009093CD038093CC03A9014B5E5F4F50936F
:10489000CF034093CE039093D1038093D003309302
:1048A000D3032093D203AC014B5E5F4F5093D503EB
:1048B0004093D403A901455151095093D703409324
:1048C000D6039093D9038093D8033093DB032093CE
:1048D000DA0345979093DD038093DC03CAECD3E0C1
:1048E0007E0134E6A32E33E0B32EF5010191119140
:1048F0005F01F70180809180000F111F000F111FD1
:104900000C5F1E4FF801808191818816990679F518
:10491000F701C280D380F80182819381C816D9063D
:1049200031F5C4014697833D910508F5C6014F97BF
:10493000893A9105E0F4B601C4010E942A16892B38
:10494000B1F04BEA53E2B601C4010E94AB2CF8016E
:10495000118210821382128280916203909163030C
:10496000019690936303809362030E94CE15FCEC42
:10497000AF16F3E0BF0609F0B8CF24E0E20EF11C59
:104980008EEDE81683E0F80609F0ABCFC880D98039
:10499000C6014697833D910508F040C0AA80BB80C0
:1049A000C5014F97893A9105C8F5B501C6010E9426
:1049B0002A16892B99F180EEE82EFF24FA9403E160
:1049C00010E023E130E042E753E2B501C6010E9466
:1049D00041166A817B819AE6E92E9DEFF92E23E14B
:1049E00030E049E353E2888199810E9441166A814F
:1049F0007B81E12C28EFF22E23E130E040E053E20E
:104A0000888199810E9441162881398180916605AB
:104A1000909167052817390709F46BC02496E3E0E5
:104A2000CE3DDE0709F0B2CF81E090E090936103C4
:104A30008093600310925F0310925E031092E30371
:104A40001092E2038091600390916103019709F055
:104A500066C08091E6039091E703843F91400CF497
:104A60005EC01092E7031092E603CAECD3E008811F
:104A70001981C8014697833D910588F5EA80FB803E
:104A8000C7014F97893A910550F5B701C8010E94B7
:104A90002A16892B21F142E753E2B701C8010E948F
:104AA000AB2C6A817B8149E353E2888199810E9422
:104AB000AB2C6A817B8140E053E2888199810E941E
:104AC000AB2C6091640570916505809166059091AD
:104AD00067050E941018198218821B821A82249678
:104AE00023E0CE3DD20719F61092610310926003C5
:104AF00016C02A813B818091640590916505281735
:104B0000390709F08BCF8091020190910301019741
:104B100090930301809302010E94CA167FCFFF91F8
:104B2000EF91DF91CF91BF91AF919F918F917F9145
:104B30006F915F914F913F912F911F910F91FF9036
:104B4000EF90DF90CF90BF90AF909F908F900F909D
:104B50000FBE0F901F901895CF92DF92EF92FF92A9
:104B60000F931F93CF93DF9300D000D000D0CDB729
:104B7000DEB76C01DC01ED91FC910284F385E02D40
:104B80002D833E834B835C8369837A830995D601A9
:104B9000ED91FC910684F785E02D2D813E814B81BE
:104BA0005C8169817A81C6010995D601ED91FC91FC
:104BB0000688F789E02DC60126960FB6F894DEBF69
:104BC0000FBECDBFDF91CF911F910F91FF90EF905E
:104BD000DF90CF900994EF92FF920F931F93CF93A2
:104BE000DF9300D000D000D0CDB7DEB77C01DC0170
:104BF000ED91FC910284F385E02D2D833E834B8360
:104C00005C8369837A830995D701ED91FC910288D1
:104C1000F389E02D2D813E814B815C8169817A8110
:104C2000C7010995D701ED91FC910688F789E02D20
:104C3000C70126960FB6F894DEBF0FBECDBFDF9139
:104C4000CF911F910F91FF90EF900994EF92FF92F7
:104C50000F931F93CF93DF9300D000D000D0CDB738
:104C6000DEB77C01DC01ED91FC910284F385E02D3F
:104C70002D833E834B835C8369837A830995D701B7
:104C8000ED91FC910088F189E02D2D813E814B81D1
:104C90005C8169817A81C7010995D701ED91FC9109
:104CA0000688F789E02DC70126960FB6F894DEBF77
:104CB0000FBECDBFDF91CF911F910F91FF90EF906D
:104CC00009940F931F93CF93DF9300D000D000D0AF
:104CD000CDB7DEB78C01DC01ED91FC910284F38548
:104CE000E02D2D833E834B835C8369837A83099512
:104CF000D801ED91FC910484F585E02D2D813E8154
:104D00004B815C8169817A81C8010995D801ED9157
:104D1000FC910688F789E02DC80126960FB6F89415
:104D2000DEBF0FBECDBFDF91CF911F910F910994D0
:104D3000EF92FF920F931F93DC01ED91FC9106849B
:104D4000F785E02D780101E010E009951F910F91A2
:104D5000FF90EF900895EF92FF920F931F93DC0165
:104D6000ED91FC910684F785E02D7801890121E021
:104D700030E009951F910F91FF90EF900895FC018D
:104D800093A906A4F7A5E02D8081892B808308953F
:104D9000CF93DF93FC0183A187FF05C06EBD0DB4E7
:104DA00007FEFDCF2EC028E030E040E8A6A1B7A165
:104DB000842F862321F080A99C91892B0AC090A979
:104DC0008C91C82FD0E0892F90E0809590958C230E
:104DD0009D238C9392A9C2A5D3A58881A82FB0E06A
:104DE000892F90E0809590958A239B23888382A9C0
:104DF000A2A5B3A59C91892B8C934695215031098E
:104E0000A9F6DF91CF9108954F925F926F927F92B2
:104E10008F929F92AF92BF92CF92DF92EF92FF92CA
:104E20000F931F93CF93DF93EC016B01590148015E
:104E300028853985621773070CF067C08A859B85C2
:104E4000481759070CF061C08B010A0D1B1DF801B2
:104E50003197DA01A80DB91DBD0161507109F7FD47
:104E600054C077FD52C0D7FE03C05801C12CD12CCD
:104E700057FF03C04D0140E050E0E217F3071CF07C
:104E80005901AC18BD08681779071CF04C01841A49
:104E9000950A9501D4010E9463323B01582E492E98
:104EA000E881F98102A4F3A5E02D8401B601CE01C9
:104EB00009954301A52CB42C8BA187FF13C0811445
:104EC0009104A104B10409F1FEBC0DB407FEFDCFAD
:104ED000EEBC0DB407FEFDCF81E0881A9108A10851
:104EE000B108EDCF81149104A104B10471F06F2DCC
:104EF000CE010E94C8266E2DCE010E94C82681E0F8
:104F0000881A9108A108B108EDCFDF91CF911F91C8
:104F10000F91FF90EF90DF90CF90BF90AF909F9058
:104F20008F907F906F905F904F900895EF92FF92D7
:104F30000F931F93CF93DF93EC0177FD33C08885E8
:104F400099856817790774F557FD2CC08A859B856C
:104F5000481759073CF5E32EF22EE881F98102A4A7
:104F6000F3A5E02D01E010E021E030E0CE0109954D
:104F70008BA187FF09C0EEBC0DB407FEFDCFFEBCC0
:104F80000DB407FEFDCF0EC06E2DCE010E94C826C7
:104F90006F2DCE01DF91CF911F910F91FF90EF9078
:104FA0000C94C826DF91CF911F910F91FF90EF9045
:104FB0000895CF93DF93EC019CA9ECA5FDA520817A
:104FC000422F50E0292F30E02095309524233523BF
:104FD0002083CE010E94C8268CA9ECA5FDA5908156
:104FE000892B8083DF91CF9108958F929F92AF920A
:104FF000BF92CF92DF92EF92FF920F931F93CF93C6
:10500000DF93EC01490181E0881A9108860E971E12
:10501000C401A0E0B0E04B01A12CB12C54019924B3
:105020008824882A992AAA2ABB2A680181E0C81AFA
:10503000D108C40ED51EC601A0E0B0E06A01E12C83
:10504000F12C7601DD24CC24C82AD92AEA2AFB2AAD
:105050006AE2CE010E94D9272BA16B2D77278827E2
:10506000992727FF18C06EBD0DB407FEFDCFC501FF
:10507000AA27BB278EBD0DB407FEFDCFBB27AB2DE6
:105080009A2D892D8EBD0DB407FEFDCF8EBC0DB4BB
:1050900007FEFDCF14C0CE010E94C826B5018827A7
:1050A0009927CE010E94C82699278B2D7A2D692D2C
:1050B000CE010E94C826682DCE010E94C8266BE250
:1050C000CE010E94D9272BA16F2D772788279927FA
:1050D00027FF18C06EBD0DB407FEFDCFC701AA277C
:1050E000BB278EBD0DB407FEFDCFBB27AF2D9E2D78
:1050F0008D2D8EBD0DB407FEFDCFCEBC0DB407FEC9
:10510000FDCF14C0CE010E94C826B7018827992779
:10511000CE010E94C82699278F2D7E2D6D2DCE01A0
:105120000E94C8266C2DCE010E94C8266CE2CE01DA
:10513000DF91CF911F910F91FF90EF90DF90CF9073
:10514000BF90AF909F908F900C94D9270F931F938F
:10515000CF93DF931F92CDB7DEB78C01DC01ED91C9
:10516000FC910284F385E02D6983099569816111C1
:1051700002C060E201C061E2C8010E94D927D801E3
:10518000ED91FC910688F789E02DC8010F90DF9121
:10519000CF911F910F9109941F93CF93DF93EC014F
:1051A00063706D8B6230C1F0633001F1613051F09A
:1051B00080EF90E09987888780E491E09B878A87D9
:1051C00018E41DC080E491E09987888780EF90E023
:1051D0009B878A8718E213C080EF90E099878887C1
:1051E00080E491E09B878A8718E809C080E491E019
:1051F0009987888780EF90E09B878A8718EEE881FF
:10520000F9810284F385E02DCE01099566E3CE0194
:105210000E94D927612FCE010E94C826E881F9811A
:105220000688F789E02DCE01DF91CF911F91099477
:105230000F931F93CF93DF931F92CDB7DEB78C01EF
:10524000DC01ED91FC910284F385E02D69830995E1
:105250006981662319F0F80165A903C0D801D696C3
:105260006C91C8010E94D927D801ED91FC91068864
:10527000F789E02DC8010F90DF91CF911F910F9119
:1052800009940895FC016370658B84819581268162
:105290003781613039F0633029F091878087338717
:1052A0002287089531872087938782870895BF9248
:1052B000CF92DF92EF92FF920F931F93CF93DF93E2
:1052C000EC01411551056105710521F440E052E101
:1052D0006AE770E04C8F5D8F6E8F7F8F88A187FDAE
:1052E00007C061E00E94302E61E088A10E94E42D99
:1052F00061E089A10E94302E60E089A10E94E42D26
:105300008BA187FD16C061E08CA10E94302E60E069
:105310008CA10E94E42D61E08BA10E94302E61E0FF
:105320008BA10E94E42D8DA187FD03C060E00E9447
:10533000302E8BA187FF33C01FB7F89480912F04C4
:10534000811127C0E4E4FAE28491E6E2FAE2949162
:10535000E82FF0E0EE0FFF1FE250F64DA591B4915B
:10536000EC91E92321F461E08AE00E94E42D61E000
:105370008AE00E94302E8CB580618CBD8CB5806433
:105380008CBD61E08DE00E94302E61E08BE00E94D8
:10539000302E80912F048F5F80932F041FBF8AA12E
:1053A00087FD21C061E00E94302E61E08AA10E9449
:1053B000E42D64E670E080E090E00E946C2E60E0F6
:1053C0008AA10E94E42D64E670E080E090E00E94F3
:1053D0006C2E61E08AA10E94E42D68EC70E080E010
:1053E00090E00E946C2EE881F9810284F385E02D23
:1053F000CE0109950FE819E27801EFEFEE1AFE0AE7
:10540000F8016491662321F1CE010E94D9270E5F35
:105410001F4FF701E490FE2DFF77BF2E6801FF2E8E
:10542000FA948FEFF81649F0F6016491CE010E94CC
:10543000C826FFEFCF1ADF0AF3CF0B0D111DE7FED1
:10544000DBCF68E770E080E090E00E946C2ED4CF64
:10545000E881F9810688F789E02DCE01099580EF72
:1054600090E09987888780E491E09B878A87DF9125
:10547000CF911F910F91FF90EF90DF90CF90BF9051
:105480000895FC0183A187FF1EC0448D558D668D54
:10549000778D20E080E092E1AAE7B0E04817590755
:1054A0006A077B0740F4B695A795979587952F5F78
:1054B0002630A1F727E091E09227892F806A869510
:1054C00091708CBD9DBD93A906A4F7A5E02D8081A8
:1054D000282F30E0892F90E08095909582239323A8
:1054E00080830895AF92BF92CF92EF92FF920F9375
:1054F0001F93CF93DF93EC01262F888D998D009712
:1055000009F040C06A3059F41D861C862C898E85AE
:105510009F8538E0239F800D911D112441C06D307F
:1055200009F4AAC08E898823C1F03C898C859D85A9
:1055300046E0349F800D911D1124488559854817F8
:1055400059075CF41D861C868E859F8548E0349F34
:10555000800D911D11249F878E87EA88FB8808891A
:1055600019894E855F856C857D85CC88CE010E942A
:105570007F202C898C859D8536E0239F800D911D91
:10558000112442C06A3079F41D861C862C89FC01E6
:105590003696E4918E859F852E9F800D911D112456
:1055A0009F878E8769C06D3009F466C0FC01349610
:1055B0003491631708F460C03196E491E61708F45B
:1055C0005BC0FC013296A590B490462F50E0431B7F
:1055D000510937E0349FB001359F700D1124A60E9C
:1055E000B71EF501329634913196E491332311F0D0
:1055F000E1110DC0F5013496E4912C898C859D85CF
:10560000E29F800D911D11249D878C8735C0F50187
:10561000359644915E89552311F16C89E32FF0E0B2
:10562000E40FF11D47FDFA956E9FD0016F9FB00DFD
:1056300011244C855D854A0F5B1FE885F985E417C9
:10564000F5076CF41D861C86FC013696E4918E8568
:105650009F856E9F800D911D11249F878E87EA88FC
:10566000FB88088919894E855F856C857D85CC8886
:10567000CE010E947F20BECF81E090E0DF91CF91EC
:105680001F910F91FF90EF90CF90BF90AF90089532
:105690003FB7F8948091350490913604A091370477
:1056A000B091380426B5A89B05C02F3F19F001968C
:1056B000A11DB11D3FBFBA2FA92F982F8827820F98
:1056C000911DA11DB11DBC01CD0142E0660F771FE8
:1056D000881F991F4A95D1F708951F920F920FB610
:1056E0000F9211242F933F938F939F93AF93BF9368
:1056F0008091310490913204A0913304B09134042C
:105700003091300423E0230F2D3720F40196A11DA2
:10571000B11D05C026E8230F0296A11DB11D2093DF
:1057200030048093310490933204A0933304B093F7
:1057300034048091350490913604A0913704B091DF
:1057400038040196A11DB11D809335049093360451
:10575000A0933704B0933804BF91AF919F918F917C
:105760003F912F910F900FBE0F901F901895CF92E1
:10577000DF92EF92FF920F931F93CF93DF936C0111
:105780007A018B01C0E0D0E0CE15DF0589F0D801A9
:105790006D918D01D601ED91FC910190F081E02D8C
:1057A000C6010995892B11F47E0102C02196ECCF28
:1057B000C701DF91CF911F910F91FF90EF90DF9084
:1057C000CF900895FC01538D448D252F30E0842F18
:1057D00090E0821B930B541710F0CF960895019719
:1057E0000895FC01918D828D981761F0828DDF0103
:1057F000A80FB11D5D968C91928D9F5F9F73928FC4
:1058000090E008958FEF9FEF0895FC01918D828DB8
:10581000981731F0828DE80FF11D858D90E0089585
:105820008FEF9FEF0895FC01918D228D892F90E0DD
:10583000805C9F4F821B91098F7399270895FC010B
:10584000848DDF01A80FB11DA35ABF4F2C91848D09
:1058500090E001968F739927848FA689B7892C933E
:10586000A089B1898C9180648C93938D848D9813D9
:1058700006C00288F389E02D80818F7D80830895A2
:10588000EF92FF920F931F93CF93DF93EC0181E090
:10589000888F9B8D8C8D981305C0E889F98980814C
:1058A00085FD24C0F62E0B8D10E00F5F1F4F0F7388
:1058B0001127E02E8C8DE8120CC00FB607FCFACF32
:1058C000E889F989808185FFF5CFCE010E941F2CE0
:1058D000F1CF8B8DFE01E80FF11DE35AFF4FF082EF
:1058E0000B8FEA89FB898081806207C0EE89FF897E
:1058F0006083E889F98980818064808381E090E019
:10590000DF91CF911F910F91FF90EF900895CF936A
:10591000DF93EC01888D8823C9F0EA89FB898081B7
:1059200085FD05C0A889B9898C9186FD0FC00FB689
:1059300007FCF5CF808185FFF2CFA889B9898C91CA
:1059400085FFEDCFCE010E941F2CE7CFDF91CF91D5
:1059500008950E948C329F92AF92BF92CF92DF92B5
:10596000EF92FF920F931F93CF93DF936C015A0135
:105970008B01E12CF12CC0E0D0E0CE01877099279B
:10598000892B11F0990C0BC0FE0183E0F595E7958A
:105990008A95E1F7EE0DFF1DEA0DFB1D949097FE31
:1059A0000AC020E030E0A801BE016C0D7D1D88E634
:1059B00095E00E9461262196C331D105F1F60F5F73
:1059C0001F4F83E0E80EF11C89E3E816F10499F615
:1059D000DF91CF911F910F91FF90EF90DF90CF90CB
:1059E000BF90AF909F9008956115710579F0FB010C
:1059F00001900020E9F73197AF01461B570BDC01FE
:105A0000ED91FC910280F381E02D099480E090E01B
:105A100008954F925F926F927F92EF92FF920F9351
:105A20001F93CF93DF93CDB7DEB7A1970FB6F8944E
:105A3000DEBF0FBECDBF7C01FA01CB0119A222301F
:105A400008F42AE08E010F5D1F4F422E512C612C6D
:105A5000712CBF01A30192010E941E32F901CA01FB
:105A6000015011096A3014F4605D01C0695CD8010D
:105A70006C93232B242B252B61F7B801C7010E94BF
:105A8000F42CA1960FB6F894DEBF0FBECDBFDF9108
:105A9000CF911F910F91FF90EF907F906F905F904B
:105AA0004F900895CF92DF92EF92FF920F931F9342
:105AB000CF93DF93EC016A017B01E881F9810190CA
:105AC000F081E02D6DE209958C0144275527BA013C
:105AD0004C195D096E097F092AE0CE010E94092D4B
