:100000000C9444140C946C140C946C140C946C1498
:100010000C946C140C946C140C946C140C946C1460
:100020000C946C140C946C140C946C140C946C1450
:100030000C946C140C946C140C946C140C946C1440
:100040000C9456220C946C140C9456240C9430246A
:100050000C946C140C946C140C946C140C946C1420
:100060000C94671B0C946C1400000000000000004E
:100070000000000000000000000000000000000080
:100080000000000000000000000000000000000070
:100090000000000000000000000000000000000060
:1000A0000000000000000000000000000000000050
:1000B0000000000000000000000000000000000040
:1000C0000000000000000000000000000000000030
:1000D0000000000000000000000000000000000020
:1000E0000000000000000000000000000000000010
:1000F0000000000000000000000000000000000000
:1001000000000000000000000000000000000000EF
:1001100000000000000000000000000000000000DF
:1001200000000000000000000000000000000000CF
:1001300000000000000000000000000000000000BF
:1001400000000000000000000000000000000000AF
:10015000000000000000000000000000000000009F
:10016000000000000000000000000000000000008F
:10017000000000000000000000000000000000007F
:10018000000000000000000000000000000000006F
:10019000000000000000000000000000000000005F
:1001A000000000000000000000000000000000004F
:1001B000000000000000000000000000000000003F
:1001C0000000000000007FFFF3FFFF9FFFFCFFFF28
:1001D000E7FFFF3FFFF9FFFFCFFFFE7FFFF3FFFFCA
:1001E0009FFFFCFFFFE7FFFF007FFFF3FFFF9FFF85
:1001F000FCFFFFE7FFFF3FFFF9FFFFCFFFFE7FFFA1
:10020000F3FFFF9FFFFCFFFFE7FFFF007FFFF3FF10
:10021000FF9FFFFCFFFFE7FFFF3FFFF9FFFFCFFF5F
:10022000FE7FFFF3FFFF9FFFFCFFFFE7FFFF007F65
:10023000FFF3FFFF9FFFFCFFFFE7FFFF3FFFF9FF1B
:10024000FFCFFFFE7FFFF3FFFF9FFFFCFFFFE7FFF6
:10025000FF007FFFF3FFFF9FFFFCFFFFE7FFFF3F74
:10026000FFF9FFFFCFFFFE7FFFF3FFFF9FFFFCFFC4
:10027000FFE7FFFF007FFFF3FFFF9FFFFCFFFFE7AC
:10028000FFFF3FFFF9FFFFCFFFFE7FFFF3FFFF9F61
:10029000FFFCFFFFE7FFFF007FFFF3FFFF9FFFFC77
:1002A000FFFFE7FFFF3FFFF9FFFFCFFFFE7FFFF3F9
:1002B000FFFF9FFFFCFFFFE7FFFF007FFFF3FFFF54
:1002C0009FFFFCFFFFE7FFFF3FFFF9FFFFCFFFFEB0
:1002D0007FFFF3FFFF9FFFFCFFFFE7FFFF007FFFB4
:1002E000F3FFFF9FFFFCFFFFE7FFFF3FFFF9FFFF6B
:1002F000CFFFFE7FFFF3FFFF9FFFFCFFFFE7FFFF46
:10030000007FFFF3FFFF9FFFFCFFFFE7FFFF3FFFC3
:10031000F9FFFFCFFFFE7FFFF3FFFF9FFFFCFFFF13
:10032000E7FFFF007FFFF3FFFF9FFFFCFFFFE7FFFB
:10033000FF3FFFF9FFFFCFFFFE7FFFF3FFFF9FFFB0
:10034000FCFFFFE7FFFF007FFFF3FFFF9FFFFCFFC6
:10035000FFE7FFFF3FFFF9FFFFCFFFFE7FFFF3FF48
:10036000FF9FFFFCFFFFE7FFFF007FFFF3FFFF9F03
:10037000FFFCFFFFE7FFFF3FFFF9FFFFCFFFFE7F1F
:10038000FFF3FFFF9FFFFCFFFFE7FFFF007FFFF38F
:10039000FFFF9FFFFCFFFFE7FFFF3FFFF9FFFFCFDE
:1003A000FFFE7FFFF3FFFF9FFFFCFFFFE7FFFF0064
:1003B0007FFFF3FFFF9FFFFCFFFFE7FFFF3FFFF91A
:1003C000FFFFCFFFFE7FFFF3FFFF9FFFFCFFFFE775
:1003D000FFFF007FFFF3FFFF9FFFFCFFFFE7FFFF33
:1003E0003FFFF9FFFFCFFFFE7FFFF3FFFF9FFFFC03
:1003F000FFFFE7FFFF007FFFF3FFFF9FFFFCFFFF13
:10040000E7FFFF3FFFF9FFFFCFFFFE7FFFF3FFFF97
:100410009FFFFCFFFFE7FFFF007FFFF3FFFF9FFF52
:10042000FCFFFFE7FFFF3FFFF9FFFFCFFFFE7FFF6E
:10043000F3FFFF9FFFFCFFFFE7FFFF007FFFF3FFDE
:10044000FF9FFFFCFFFFE7FFFF3FFFF9FFFFCFFF2D
:10045000FE7FFFF3FFFF9FFFFCFFFFE7FFFF0000B2
:10046000000000000000000000000000000000008C
:10047000000000000000000000000000000000007C
:10048000000000000000000000000000000000006C
:10049000000000000000000000000000000000005C
:1004A00000000000007FFFF00000000000000000DE
:1004B000000000000000000000000000000000003C
:1004C0000000000007FFFF007FFFF00000000000B9
:1004D000000000000000000000000000000000001C
:1004E0000000000000000007FFFF007FFFF0000099
:1004F00000000000000000000000000000000000FC
:100500000000000000000000000007FFFF007FFF68
:10051000F0000000000000000000000000000000EB
:100520000000000000000000000000000007FFFFC6
:10053000007FFFF00000000000000000000000004D
:1005400000000000000000000000000000000000AB
:1005500007FFFF007FFFF000000000000000000028
:10056000000000000000000000000000000000008B
:1005700000000007FFFF007FFFF000000000000008
:10058000000000000000000000000000000000006B
:1005900000000000000007FFFF007FFFF0000000E8
:1005A000000000000000000000000000000000004B
:1005B00000000000000000000007FFFF007FFFF0C8
:1005C000000000000000000000000000000000002B
:1005D00000000000000000000000000007FFFF0016
:1005E0007FFFF0000000000000000000000000009D
:1005F00000000000000000000000000000000007F4
:10060000FFFF007FFFF0000000000000000000007E
:1006100000000000000000000000000000000000DA
:10062000000007FFFF007FFFF00000000000000057
:1006300000000000000000000000000000000000BA
:10064000000000000007FFFF007FFFF00000000037
:10065000000000000000000000000000000000009A
:10066000000000000000000007FFFF007FFFF00017
:10067000000000000000000000000000000000007A
:10068000000000000000000000000007FFFF007FE6
:10069000FFF000000000000000000000000000006B
:1006A000000000000000000000000000000007FF44
:1006B000FF007FFFF00000000000000000000000CD
:1006C000000000000000000000000000000000002A
:1006D0000007FFFF007FFFF00000000000000000A7
:1006E000000000000000000000000000000000000A
:1006F0000000000007FFFF007FFFF0000000000087
:1007000000000000000000000000000000000000E9
:100710000000000000000007FFFF007FFFF0000066
:1007200000000000000000000000000000000000C9
:100730000000000000000000000007FFFF000000B4
:1007400000000000000000000000000000000000A9
:100750000000000000000000000000000000000099
:100760000000000000000000000000000000000089
:100770000000000000000000000000000000000079
:10078000000000007FFFF000001FFFFC000007FFDB
:10079000FF000001FFFFC000007FFFF000001FFF0F
:1007A000FC000007FFFF007FFFF000001FFFFC00C0
:1007B0000007FFFF000001FFFFC000007FFFF00007
:1007C000001FFFFC000007FFFF007FFFF000001F7D
:1007D000FFFC000007FFFF000001FFFFC000007FDB
:1007E000FFF000001FFFFC000007FFFF007FFFF08D
:1007F00000001FFFFC000007FFFF000001FFFFC01B
:1008000000007FFFF000001FFFFC000007FFFF005B
:100810007FFFF000001FFFFC000007FFFF0000014A
:10082000FFFFC000007FFFF000001FFFFC0000077B
:10083000FFFF007FFFF000001FFFFC000007FFFF2D
:10084000000001FFFFC000007FFFF000001FFFFC61
:10085000000007FFFF007FFFF000001FFFFC00000B
:1008600007FFFF000001FFFFC000007FFFF0000056
:100870001FFFFC000007FFFF007FFFF000001FFFCD
:10088000FC000007FFFF000001FFFFC000007FFF2A
:10089000F000001FFFFC000007FFFF007FFFF000DB
:1008A000001FFFFC000007FFFF000001FFFFC0006A
:1008B000007FFFF000001FFFFC000007FFFF007F2C
:1008C000FFF000001FFFFC000007FFFF000001FF1A
:1008D000FFC000007FFFF000001FFFFC000007FFCB
:1008E000FF007FFFF000001FFFFC000007FFFF007C
:1008F0000001FFFFC000007FFFF000001FFFFC00B1
:100900000007FFFF007FFFF000001FFFFC00000753
:10091000FFFF000001FFFFC000007FFFF000001F8D
:10092000FFFC000007FFFF007FFFF000001FFFFC3F
:10093000000007FFFF000001FFFFC000007FFFF085
:1009400000001FFFFC000007FFFF007FFFF000001A
:100950001FFFFC000007FFFF000001FFFFC00000B9
:100960007FFFF000001FFFFC000007FFFF007FFF7C
:10097000F000001FFFFC000007FFFF000001FFFF69
:10098000C000007FFFF000001FFFFC000007FFFF1A
:10099000007FFFF000001FFFFC000007FFFF0000CA
:1009A00001FFFFC000007FFFF000001FFFFC000000
:1009B00007FFFF007FFFF000001FFFFC000007FFA4
:1009C000FF000001FFFFC000007FFFF000001FFFDD
:1009D000FC000007FFFF007FFFF000001FFFFC008E
:1009E0000007FFFF000001FFFFC000007FFFF000D5
:1009F000001FFFFC000007FFFF007FFFF000001F4B
:100A0000FFFC000007FFFF000001FFFFC000007FA8
:100A1000FFF000001FFFFC000007FFFF00000000C8
:100A200000000000000000000000000000000000C6
:100A300000000000000000000000000000000000B6
:100A400000000000000000000000000000000000A6
:100A50000000000000000000000000000000000096
:100A60000000007FFFF00000000000000000000018
:100A70000000000000000000000000000000000076
:100A8000000007FFFF007FFFF000000000000000F3
:100A90000000000000000000000000000000000056
:100AA000000000000007FFFF007FFFF000000000D3
:100AB0000000000000000000000000000000000036
:100AC000000000000000000007FFFF007FFFF000B3
:100AD0000000000000000000000000000000000016
:100AE000000000000000000000000007FFFF007F82
:100AF000FFF0000000000000000000000000000007
:100B0000000000000000000000000000000007FFDF
:100B1000FF007FFFF0000000000000000000000068
:100B200000000000000000000000000000000000C5
:100B30000007FFFF007FFFF0000000000000000042
:100B400000000000000000000000000000000000A5
:100B50000000000007FFFF007FFFF0000000000022
:100B60000000000000000000000000000000000085
:100B70000000000000000007FFFF007FFFF0000002
:100B80000000000000000000000000000000000065
:100B90000000000000000000000007FFFF007FFFD2
:100BA000F000000000000000000000000000000055
:100BB0000000000000000000000000000007FFFF30
:100BC000007FFFF0000000000000000000000000B7
:100BD0000000000000000000000000000000000015
:100BE00007FFFF007FFFF000000000000000000092
:100BF00000000000000000000000000000000000F5
:100C000000000007FFFF007FFFF000000000000071
:100C100000000000000000000000000000000000D4
:100C200000000000000007FFFF007FFFF000000051
:100C300000000000000000000000000000000000B4
:100C400000000000000000000007FFFF007FFFF031
:100C50000000000000000000000000000000000094
:100C600000000000000000000000000007FFFF007F
:100C70007FFFF00000000000000000000000000006
:100C8000000000000000000000000000000000075D
:100C9000FFFF007FFFF000000000000000000000E8
:100CA0000000000000000000000000000000000044
:100CB000000007FFFF007FFFF000000000000000C1
:100CC0000000000000000000000000000000000024
:100CD000000000000007FFFF007FFFF000000000A1
:100CE0000000000000000000000000000000000004
:100CF000000000000000000007FFFF0000000000EF
:100D000000000000000000000000000000000000E3
:100D100000000000000000000000000000000000D3
:100D200000000000000000000000000000000000C3
:100D300000000000000000000000000000000000B3
:100D400000007FFFF000001FFFFC000007FFFF0016
:100D50000001FFFFC000007FFFF000001FFFFC004C
:100D60000007FFFF007FFFF000001FFFFC000007EF
:100D7000FFFF000001FFFFC000007FFFF000001F29
:100D8000FFFC000007FFFF007FFFF000001FFFFCDB
:100D9000000007FFFF000001FFFFC000007FFFF021
:100DA00000001FFFFC000007FFFF007FFFF00000B6
:100DB0001FFFFC000007FFFF000001FFFFC0000055
:100DC0007FFFF000001FFFFC000007FFFF007FFF18
:100DD000F000001FFFFC000007FFFF000001FFFF05
:100DE000C000007FFFF000001FFFFC000007FFFFB6
:100DF000007FFFF000001FFFFC000007FFFF000066
:100E000001FFFFC000007FFFF000001FFFFC00009B
:100E100007FFFF007FFFF000001FFFFC000007FF3F
:100E2000FF000001FFFFC000007FFFF000001FFF78
:100E3000FC000007FFFF007FFFF000001FFFFC0029
:100E40000007FFFF000001FFFFC000007FFFF00070
:100E5000001FFFFC000007FFFF007FFFF000001FE6
:100E6000FFFC000007FFFF000001FFFFC000007F44
:100E7000FFF000001FFFFC000007FFFF007FFFF0F6
:100E800000001FFFFC000007FFFF000001FFFFC084
:100E900000007FFFF000001FFFFC000007FFFF00C5
:100EA0007FFFF000001FFFFC000007FFFF000001B4
:100EB000FFFFC000007FFFF000001FFFFC000007E5
:100EC000FFFF007FFFF000001FFFFC000007FFFF97
:100ED000000001FFFFC000007FFFF000001FFFFCCB
:100EE000000007FFFF007FFFF000001FFFFC000075
:100EF00007FFFF000001FFFFC000007FFFF00000C0
:100F00001FFFFC000007FFFF007FFFF000001FFF36
:100F1000FC000007FFFF000001FFFFC000007FFF93
:100F2000F000001FFFFC000007FFFF007FFFF00044
:100F3000001FFFFC000007FFFF000001FFFFC000D3
:100F4000007FFFF000001FFFFC000007FFFF007F95
:100F5000FFF000001FFFFC000007FFFF000001FF83
:100F6000FFC000007FFFF000001FFFFC000007FF34
:100F7000FF007FFFF000001FFFFC000007FFFF00E5
:100F80000001FFFFC000007FFFF000001FFFFC001A
:100F90000007FFFF007FFFF000001FFFFC000007BD
:100FA000FFFF000001FFFFC000007FFFF000001FF7
:100FB000FFFC000007FFFF007FFFF000001FFFFCA9
:100FC000000007FFFF000001FFFFC000007FFFF0EF
:100FD00000001FFFFC000007FFFF000000000000F2
:100FE0000000000000000000000000000000000001
:100FF00000000000000000000000000000000000F1
:1010000000000000000000000000000000000000E0
:1010100000000000000000000000000000000000D0
:10102000007FFFF000000000000000000000000052
:1010300000000000000000000000000000000000B0
:1010400007FFFF007FFFF00000000000000000002D
:101050000000000000000000000000000000000090
:1010600000000007FFFF007FFFF00000000000000D
:101070000000000000000000000000000000000070
:1010800000000000000007FFFF007FFFF0000000ED
:101090000000000000000000000000000000000050
:1010A00000000000000000000007FFFF007FFFF0CD
:1010B0000000000000000000000000000000000030
:1010C00000000000000000000000000007FFFF001B
:1010D0007FFFF000000000000000000000000000A2
:1010E00000000000000000000000000000000007F9
:1010F000FFFF007FFFF00000000000000000000084
:1011000000000000000000000000000000000000DF
:10111000000007FFFF007FFFF0000000000000005C
:1011200000000000000000000000000000000000BF
:10113000000000000007FFFF007FFFF0000000003C
:10114000000000000000000000000000000000009F
:10115000000000000000000007FFFF007FFFF0001C
:10116000000000000000000000000000000000007F
:10117000000000000000000000000007FFFF007FEB
:10118000FFF0000000000000000000000000000070
:10119000000000000000000000000000000007FF49
:1011A000FF007FFFF00000000000000000000000D2
:1011B000000000000000000000000000000000002F
:1011C0000007FFFF007FFFF00000000000000000AC
:1011D000000000000000000000000000000000000F
:1011E0000000000007FFFF007FFFF000000000008C
:1011F00000000000000000000000000000000000EF
:101200000000000000000007FFFF007FFFF000006B
:1012100000000000000000000000000000000000CE
:101220000000000000000000000007FFFF007FFF3B
:10123000F0000000000000000000000000000000BE
:101240000000000000000000000000000007FFFF99
:10125000007FFFF000000000000000000000000020
:10126000000000000000000000000000000000007E
:1012700007FFFF007FFFF0000000000000000000FB
:10128000000000000000000000000000000000005E
:1012900000000007FFFF007FFFF0000000000000DB
:1012A000000000000000000000000000000000003E
:1012B00000000000000007FFFF0000000000000029
:1012C000000000000000000000000000000000001E
:1012D000000000000000000000000000000000000E
:1012E00000000000000000000000000000000000FE
:1012F00000000000000000000000000000000000EE
:101300007FFFF000001FFFFC000007FFFF0000014F
:10131000FFFFC000007FFFF000001FFFFC00000780
:10132000FFFF007FFFF000001FFFFC000007FFFF32
:10133000000001FFFFC000007FFFF000001FFFFC66
:10134000000007FFFF007FFFF000001FFFFC000010
:1013500007FFFF000001FFFFC000007FFFF000005B
:101360001FFFFC000007FFFF007FFFF000001FFFD2
:10137000FC000007FFFF000001FFFFC000007FFF2F
:10138000F000001FFFFC000007FFFF007FFFF000E0
:10139000001FFFFC000007FFFF000001FFFFC0006F
:1013A000007FFFF000001FFFFC000007FFFF007F31
:1013B000FFF000001FFFFC000007FFFF000001FF1F
:1013C000FFC000007FFFF000001FFFFC000007FFD0
:1013D000FF007FFFF000001FFFFC000007FFFF0081
:1013E0000001FFFFC000007FFFF000001FFFFC00B6
:1013F0000007FFFF007FFFF000001FFFFC00000759
:10140000FFFF000001FFFFC000007FFFF000001F92
:10141000FFFC000007FFFF007FFFF000001FFFFC44
:10142000000007FFFF000001FFFFC000007FFFF08A
:1014300000001FFFFC000007FFFF007FFFF000001F
:101440001FFFFC000007FFFF000001FFFFC00000BE
:101450007FFFF000001FFFFC000007FFFF007FFF81
:10146000F000001FFFFC000007FFFF000001FFFF6E
:10147000C000007FFFF000001FFFFC000007FFFF1F
:10148000007FFFF000001FFFFC000007FFFF0000CF
:1014900001FFFFC000007FFFF000001FFFFC000005
:1014A00007FFFF007FFFF000001FFFFC000007FFA9
:1014B000FF000001FFFFC000007FFFF000001FFFE2
:1014C000FC000007FFFF007FFFF000001FFFFC0093
:1014D0000007FFFF000001FFFFC000007FFFF000DA
:1014E000001FFFFC000007FFFF007FFFF000001F50
:1014F000FFFC000007FFFF000001FFFFC000007FAE
:10150000FFF000001FFFFC000007FFFF007FFFF05F
:1015100000001FFFFC000007FFFF000001FFFFC0ED
:1015200000007FFFF000001FFFFC000007FFFF002E
:101530007FFFF000001FFFFC000007FFFF0000011D
:10154000FFFFC000007FFFF000001FFFFC0000074E
:10155000FFFF007FFFF000001FFFFC000007FFFF00
:10156000000001FFFFC000007FFFF000001FFFFC34
:10157000000007FFFF007FFFF000001FFFFC0000DE
:1015800007FFFF000001FFFFC000007FFFF0000029
:101590001FFFFC000007FFFF00000000000000002C
:1015A000000000000000000000000000000000003B
:1015B000000000000000000000000000000000002B
:1015C000000000000000000000000000000000001B
:1015D0000000000000000000000000000000007F8C
:1015E000FFF000000000000000000000000000000C
:1015F000000000000000000000000000000007FFE5
:10160000FF007FFFF000000000000000000000006D
:1016100000000000000000000000000000000000CA
:101620000007FFFF007FFFF0000000000000000047
:1016300000000000000000000000000000000000AA
:101640000000000007FFFF007FFFF0000000000027
:10165000000000000000000000000000000000008A
:101660000000000000000007FFFF007FFFF0000007
:10167000000000000000000000000000000000006A
:101680000000000000000000000007FFFF007FFFD7
:10169000F00000000000000000000000000000005A
:1016A0000000000000000000000000000007FFFF35
:1016B000007FFFF0000000000000000000000000BC
:1016C000000000000000000000000000000000001A
:1016D00007FFFF007FFFF000000000000000000097
:1016E00000000000000000000000000000000000FA
:1016F00000000007FFFF007FFFF000000000000077
:1017000000000000000000000000000000000000D9
:1017100000000000000007FFFF007FFFF000000056
:1017200000000000000000000000000000000000B9
:1017300000000000000000000007FFFF007FFFF036
:101740000000000000000000000000000000000099
:1017500000000000000000000000000007FFFF0084
:101760007FFFF0000000000000000000000000000B
:101770000000000000000000000000000000000762
:10178000FFFF007FFFF000000000000000000000ED
:101790000000000000000000000000000000000049
:1017A000000007FFFF007FFFF000000000000000C6
:1017B0000000000000000000000000000000000029
:1017C000000000000007FFFF007FFFF000000000A6
:1017D0000000000000000000000000000000000009
:1017E000000000000000000007FFFF007FFFF00086
:1017F00000000000000000000000000000000000E9
:10180000000000000000000000000007FFFF007F54
:10181000FFF00000000000000000000000000000D9
:10182000000000000000000000000000000007FFB2
:10183000FF007FFFF000000000000000000000003B
:101840000000000000000000000000000000000098
:101850000007FFFF007FFFF0000000000000000015
:101860000000000000000000000000000000000078
:101870000000000007FFFF00000000000000000063
:101880000000000000000000000000000000000058
:101890000000000000000000000000000000000048
:1018A0000000000000000000000000000000000038
:1018B00000000000000000000000000000007FFFAA
:1018C000F000001FFFFC000007FFFF000001FFFF0A
:1018D000C000007FFFF000001FFFFC000007FFFFBB
:1018E000007FFFF000001FFFFC000007FFFF00006B
:1018F00001FFFFC000007FFFF000001FFFFC0000A1
:1019000007FFFF007FFFF000001FFFFC000007FF44
:10191000FF000001FFFFC000007FFFF000001FFF7D
:10192000FC000007FFFF007FFFF000001FFFFC002E
:101930000007FFFF000001FFFFC000007FFFF00075
:10194000001FFFFC000007FFFF007FFFF000001FEB
:10195000FFFC000007FFFF000001FFFFC000007F49
:10196000FFF000001FFFFC000007FFFF007FFFF0FB
:1019700000001FFFFC000007FFFF000001FFFFC089
:1019800000007FFFF000001FFFFC000007FFFF00CA
:101990007FFFF000001FFFFC000007FFFF000001B9
:1019A000FFFFC000007FFFF000001FFFFC000007EA
:1019B000FFFF007FFFF000001FFFFC000007FFFF9C
:1019C000000001FFFFC000007FFFF000001FFFFCD0
:1019D000000007FFFF007FFFF000001FFFFC00007A
:1019E00007FFFF000001FFFFC000007FFFF00000C5
:1019F0001FFFFC000007FFFF007FFFF000001FFF3C
:101A0000FC000007FFFF000001FFFFC000007FFF98
:101A1000F000001FFFFC000007FFFF007FFFF00049
:101A2000001FFFFC000007FFFF000001FFFFC000D8
:101A3000007FFFF000001FFFFC000007FFFF007F9A
:101A4000FFF000001FFFFC000007FFFF000001FF88
:101A5000FFC000007FFFF000001FFFFC000007FF39
:101A6000FF007FFFF000001FFFFC000007FFFF00EA
:101A70000001FFFFC000007FFFF000001FFFFC001F
:101A80000007FFFF007FFFF000001FFFFC000007C2
:101A9000FFFF000001FFFFC000007FFFF000001FFC
:101AA000FFFC000007FFFF007FFFF000001FFFFCAE
:101AB000000007FFFF000001FFFFC000007FFFF0F4
:101AC00000001FFFFC000007FFFF007FFFF0000089
:101AD0001FFFFC000007FFFF000001FFFFC0000028
:101AE0007FFFF000001FFFFC000007FFFF007FFFEB
:101AF000F000001FFFFC000007FFFF000001FFFFD8
:101B0000C000007FFFF000001FFFFC000007FFFF88
:101B1000007FFFF000001FFFFC000007FFFF000038
:101B200001FFFFC000007FFFF000001FFFFC00006E
:101B300007FFFF007FFFF000001FFFFC000007FF12
:101B4000FF000001FFFFC000007FFFF000001FFF4B
:101B5000FC000007FFFF0000000000000000000084
:101B60000000000000000000000000000000000075
:101B70000000000000000000000000000000000065
:101B80000000000000000000000000000000000055
:101B9000000000000000000000000000007FFFF0D7
:101BA0000000000000000000000000000000000035
:101BB00000000000000000000000000007FFFF0020
:101BC0007FFFF000000000000000000000000000A7
:101BD00000000000000000000000000000000007FE
:101BE000FFFF007FFFF00000000000000000000089
:101BF00000000000000000000000000000000000E5
:101C0000000007FFFF007FFFF00000000000000061
:101C100000000000000000000000000000000000C4
:101C2000000000000007FFFF007FFFF00000000041
:101C300000000000000000000000000000000000A4
:101C4000000000000000000007FFFF007FFFF00021
:101C50000000000000000000000000000000000084
:101C6000000000000000000000000007FFFF007FF0
:101C7000FFF0000000000000000000000000000075
:101C8000000000000000000000000000000007FF4E
:101C9000FF007FFFF00000000000000000000000D7
:101CA0000000000000000000000000000000000034
:101CB0000007FFFF007FFFF00000000000000000B1
:101CC0000000000000000000000000000000000014
:101CD0000000000007FFFF007FFFF0000000000091
:101CE00000000000000000000000000000000000F4
:101CF0000000000000000007FFFF007FFFF0000071
:101D000000000000000000000000000000000000D3
:101D10000000000000000000000007FFFF007FFF40
:101D2000F0000000000000000000000000000000C3
:101D30000000000000000000000000000007FFFF9E
:101D4000007FFFF000000000000000000000000025
:101D50000000000000000000000000000000000083
:101D600007FFFF007FFFF000000000000000000000
:101D70000000000000000000000000000000000063
:101D800000000007FFFF007FFFF0000000000000E0
:101D90000000000000000000000000000000000043
:101DA00000000000000007FFFF007FFFF0000000C0
:101DB0000000000000000000000000000000000023
:101DC00000000000000000000007FFFF007FFFF0A0
:101DD0000000000000000000000000000000000003
:101DE00000000000000000000000000007FFFF00EE
:101DF0007FFFF00000000000000000000000000075
:101E000000000000000000000000000000000007CB
:101E1000FFFF007FFFF00000000000000000000056
:101E200000000000000000000000000000000000B2
:101E3000000007FFFF00000000000000000000009D
:101E40000000000000000000000000000000000092
:101E50000000000000000000000000000000000082
:101E60000000000000000000000000000000000072
:101E70000000000000000000000000007FFFF3FFF2
:101E8000FF9FFFFCFFFFE7FFFF3FFFF9FFFFCFFFD3
:101E9000FE7FFFF3FFFF9FFFFCFFFFE7FFFF007FD9
:101EA000FFF3FFFF9FFFFCFFFFE7FFFF3FFFF9FF8F
:101EB000FFCFFFFE7FFFF3FFFF9FFFFCFFFFE7FF6A
:101EC000FF007FFFF3FFFF9FFFFCFFFFE7FFFF3FE8
:101ED000FFF9FFFFCFFFFE7FFFF3FFFF9FFFFCFF38
:101EE000FFE7FFFF007FFFF3FFFF9FFFFCFFFFE720
:101EF000FFFF3FFFF9FFFFCFFFFE7FFFF3FFFF9FD5
:101F0000FFFCFFFFE7FFFF007FFFF3FFFF9FFFFCEA
:101F1000FFFFE7FFFF3FFFF9FFFFCFFFFE7FFFF36C
:101F2000FFFF9FFFFCFFFFE7FFFF007FFFF3FFFFC7
:101F30009FFFFCFFFFE7FFFF3FFFF9FFFFCFFFFE23
:101F40007FFFF3FFFF9FFFFCFFFFE7FFFF007FFF27
:101F5000F3FFFF9FFFFCFFFFE7FFFF3FFFF9FFFFDE
:101F6000CFFFFE7FFFF3FFFF9FFFFCFFFFE7FFFFB9
:101F7000007FFFF3FFFF9FFFFCFFFFE7FFFF3FFF37
:101F8000F9FFFFCFFFFE7FFFF3FFFF9FFFFCFFFF87
:101F9000E7FFFF007FFFF3FFFF9FFFFCFFFFE7FF6F
:101FA000FF3FFFF9FFFFCFFFFE7FFFF3FFFF9FFF24
:101FB000FCFFFFE7FFFF007FFFF3FFFF9FFFFCFF3A
:101FC000FFE7FFFF3FFFF9FFFFCFFFFE7FFFF3FFBC
:101FD000FF9FFFFCFFFFE7FFFF007FFFF3FFFF9F77
:101FE000FFFCFFFFE7FFFF3FFFF9FFFFCFFFFE7F93
:101FF000FFF3FFFF9FFFFCFFFFE7FFFF007FFFF303
:10200000FFFF9FFFFCFFFFE7FFFF3FFFF9FFFFCF51
:10201000FFFE7FFFF3FFFF9FFFFCFFFFE7FFFF00D7
:102020007FFFF3FFFF9FFFFCFFFFE7FFFF3FFFF98D
:10203000FFFFCFFFFE7FFFF3FFFF9FFFFCFFFFE7E8
:10204000FFFF007FFFF3FFFF9FFFFCFFFFE7FFFFA6
:102050003FFFF9FFFFCFFFFE7FFFF3FFFF9FFFFC76
:10206000FFFFE7FFFF007FFFF3FFFF9FFFFCFFFF86
:10207000E7FFFF3FFFF9FFFFCFFFFE7FFFF3FFFF0B
:102080009FFFFCFFFFE7FFFF007FFFF3FFFF9FFFC6
:10209000FCFFFFE7FFFF3FFFF9FFFFCFFFFE7FFFE2
:1020A000F3FFFF9FFFFCFFFFE7FFFF007FFFF3FF52
:1020B000FF9FFFFCFFFFE7FFFF3FFFF9FFFFCFFFA1
:1020C000FE7FFFF3FFFF9FFFFCFFFFE7FFFF007FA7
:1020D000FFF3FFFF9FFFFCFFFFE7FFFF3FFFF9FF5D
:1020E000FFCFFFFE7FFFF3FFFF9FFFFCFFFFE7FF38
:1020F000FF007FFFF3FFFF9FFFFCFFFFE7FFFF3FB6
:10210000FFF9FFFFCFFFFE7FFFF3FFFF9FFFFCFF05
:10211000FFE7FFFF000000000000000000000000DB
:1021200000000000000000000000000000000000AF
:102130000000000000000000FFF9E0FFF9E0FFF9F7
:10214000E0FFF9E0FFF9E0000000000000F3FFE02D
:10215000F3FFE0F3FFE0F3FFE0F3FFE00000000037
:102160000000FFE7E0FFE7E0FFE7E0FFE7E0FFE771
:10217000E00000000000000000000000000000007F
:102180000000000707000707000707000707000017
:10219000000000000000000000000000000000003F
:1021A000000000000000000000000000000000002F
:1021B0000000000000000000000000001C1C001CCB
:1021C0001C001C1C001C1C00000000000000000083
:1021D00000000000000000000000000000000000FF
:1021E00000000000000000000000000000000000EF
:1021F00000000000000000000E0E000E0E000E0E8B
:10220000000E0E00000000000000000000000000B2
:1022100000000000000000000000000000000000BE
:1022200000000000000000000000000E0E000E0E76
:10223000000E0E000E0E0000000000000000000066
:10224000000000000000000000000000000000008E
:10225000000000000000000000000000000000007E
:10226000000000000E0E001F1F001F1F001F1F0098
:102270001F1F000E0E000000000000000000000004
:10228000000000000000000000000000000000004E
:102290000000000003F8000FFE001FFF0031F18076
:1022A00020E08020E08020E08060E0C071F1C07F0D
:1022B000FFC07FFFC07FFFC07FFFC07FFFC079F3FB
:1022C000C030E18000000000000000003E5B4F5B7A
:1022D0003E3E6B4F6B3E1C3E7C3E1C183C7E3C18C9
:1022E0001C577D571C1C5E7F5E1C00183C1800FFAD
:1022F000E7C3E7FF0018241800FFE7DBE7FF3048DB
:102300003A060E2629792926407F050507407F05D4
:10231000253F5A3CE73C5A7F3E1C1C08081C1C3ECB
:102320007F14227F22145F5F005F5F06097F017FB9
:10233000006689956A606060606094A2FFA294085C
:10234000047E040810207E201008082A1C08081C9F
:102350002A08081E101010100C1E0C1E0C30383EDF
:102360003830060E3E0E06000000000000005F0040
:10237000000007000700147F147F14242A7F2A120C
:1023800023130864623649562050000807030000F2
:102390001C2241000041221C002A1C7F1C2A080824
:1023A0003E08080080703000080808080800006037
:1023B000600020100804023E5149453E00427F4023
:1023C0000072494949462141494D331814127F1082
:1023D00027454545393C4A494931412111090736CC
:1023E00049494936464949291E0000140000004069
:1023F0003400000008142241141414141400412263
:10240000140802015909063E415D594E7C12111211
:102410007C7F494949363E414141227F4141413E0D
:102420007F494949417F090909013E414151737F73
:102430000808087F00417F41002040413F017F089C
:102440001422417F404040407F021C027F7F0408ED
:10245000107F3E4141413E7F090909063E4151211D
:102460005E7F09192946264949493203017F010344
:102470003F4040403F1F2040201F3F4038403F63C7
:102480001408146303047804036159494D43007F21
:102490004141410204081020004141417F040201F2
:1024A0000204404040404000030708002054547894
:1024B000407F284444383844444428384444287FE2
:1024C000385454541800087E090218A4A49C787F3C
:1024D0000804047800447D40002040403D007F1007
:1024E00028440000417F40007C047804787C080484
:1024F00004783844444438FC182424181824241838
:10250000FC7C08040408485454542404043F442424
:102510003C4040207C1C2040201C3C4030403C443F
:10252000281028444C9090907C4464544C440008FB
:102530003641000000770000004136080002010229
:1025400004023C2623263C1EA1A161123A404020F1
:102550007A3854545559215555794122545478426A
:10256000215554784020545579400C1E527212392E
:1025700055555559395454545939555454580000E7
:10258000457C410002457D420001457C407D1211A1
:10259000127DF0282528F07C545545002054547CA9
:1025A000547C0A097F4932494949323A4444443A01
:1025B000324A4848303A4141217A3A424020780034
:1025C0009DA0A07D3D4242423D3D4040403D3C24D7
:1025D000FF2424487E4943662B2FFC2F2BFF09291B
:1025E000F620C0887E090320545479410000447DC0
:1025F000413048484A32384040227A007A0A0A720A
:102600007D0D19317D2629292F28262929292630B3
:10261000484D4020380808080808080808382F10D6
:10262000C8ACBA2F102834FA00007B000008142A26
:10263000142222142A14085500550055AA55AA55EB
:10264000AAFF55FF55FF000000FF00101010FF000B
:10265000141414FF001010FF00FF1010F010F014FD
:102660001414FC001414F700FF0000FF00FF141402
:10267000F404FC141417101F10101F101F1414144E
:102680001F00101010F0000000001F101010101F8D
:1026900010101010F010000000FF1010101010109B
:1026A000101010FF10000000FF140000FF00FF00DA
:1026B000001F10170000FC04F41414171017141452
:1026C000F404F40000FF00F714141414141414F7A5
:1026D00000F7141414171410101F101F141414F4FE
:1026E000141010F010F000001F101F0000001F1445
:1026F000000000FC140000F010F01010FF10FF1498
:102700001414FF141010101F00000000F010FFFF41
:10271000FFFFFFF0F0F0F0F0FFFFFF00000000000F
:10272000FFFF0F0F0F0F0F3844443844FC4A4A4A4A
:10273000347E02020606027E027E02635549416330
:102740003844443C04407E201E2006027E0202994A
:10275000A5E7A5991C2A492A1C4C7201724C304AE3
:102760004D4D303048784830BC625A463D3E49496C
:1027700049007E0101017E2A2A2A2A2A44445F4414
:102780004440514A444040444A51400000FF010344
:10279000E080FF000008086B6B083612362436060E
:1027A0000F090F060000181800000010100030403C
:1027B000FF0101001F01011E00191D1712003C3C02
:1027C0003C3C0000000000EF03038002CF0300C187
:1027D00030ED0464031281E803850078CB05392CC1
:1027E000003402F70120EA020000C00123C10110F9
:1027F000C5023E28C701863601483701003A015517
:10280000B1020018B603088227F20100260101E098
:102810000F0F312B0C0E084EF1370710030E090075
:10282000E10F000E1403110731C148080F0C3136B7
:102830000F118029800000000000240027002A00DA
:10284000000000080002010000030407000000006F
:10285000000000000102040810204080010204086A
:1028600010200102040810200000000025002800AC
:102870002B00040404040404040402020202020201
:10288000030303030303622911241FBECFEFD8E023
:10289000DEBFCDBF12E0A0E0B1E0ECEBF6E502C098
:1028A00005900D92A63DB107D9F724E0A6EDB2E060
:1028B00001C01D92AD3FB207E1F714E1C4E4D4E1D9
:1028C00004C02197FE010E944A2BC334D107C9F7E7
:1028D0000E9488260C945C2B0C9400006F927F92CF
:1028E0008F929F92AF92BF92CF92DF92EF92FF9220
:1028F0000F931F93CF93DF93EC014B015A016901B2
:102900003801E881F9810284F385E02D0995E88199
:10291000F9810288F389E02D87019601A501B401B0
:10292000CE010995E881F981A501460D571D415059
:1029300051090288F389E02D9601B401CE01099571
:10294000E881F9810088F189E02D9301A501B401A6
:10295000CE010995E881F981C80CD91CB6016150F6
:1029600071090088F189E02D9301A501CE01099537
:10297000E881F9810688F789E02DCE01DF91CF91BA
:102980001F910F91FF90EF90DF90CF90BF90AF908D
:102990009F908F907F906F900994CF92DF92EF92EB
:1029A000FF920F931F93CF93DF9300D000D000D0FE
:1029B000CDB7DEB76C01DC01ED91FC9162177307B6
:1029C00089F4041715072CF4942F852FA801092FDB
:1029D000182F041B150B98012F5F3F4F048CF58DAA
:1029E000E02D12C04017510709F5261737072CF4C0
:1029F000962F872FB901292F382F261B370B2F5FD2
:102A00003F4F068CF78DE02D8701C601099526966C
:102A10000FB6F894DEBF0FBECDBFDF91CF911F91EF
:102A20000F91FF90EF90DF90CF9008950284F3858F
:102A3000E02D2D833E834B835C8369837A830995E4
:102A4000D601ED91FC910488F589E02D2D813E8120
:102A50004B815C8169817A81C6010995D601ED912E
:102A6000FC910688F789E02DC60126960FB6F894EA
:102A7000DEBF0FBECDBFDF91CF911F910F91FF90B1
:102A8000EF90DF90CF900994EF92FF920F931F93F6
:102A9000DC01ED91FC9111971A960D911C911B97F9
:102AA00018962D913C91199700A0F1A1E02D7B0182
:102AB00040E050E060E070E009951F910F91FF90B9
:102AC000EF9008954F925F926F927F928F929F92B4
:102AD000AF92BF92CF92DF92EF92FF920F931F932C
:102AE000CF93DF9300D0CDB7DEB76C015A01390127
:102AF0004801DC01ED91FC910284F385E02D6983AE
:102B00007A8309956981462E7A81572E640C751C4B
:102B1000D601ED91FC91461457046CF40088F189BC
:102B2000E02D87019401A501B201C6010995BFEF0F
:102B30004B1A5B0AEDCF0688F789E02DC6010F908E
:102B40000F90DF91CF911F910F91FF90EF90DF9049
:102B5000CF90BF90AF909F908F907F906F905F903D
:102B60004F900994AF92BF92CF92DF92EF92FF9273
:102B70000F931F93CF93DF9300D000D0CDB7DEB774
:102B80005C016901DC01ED91FC910284F385E02D8B
:102B90004B835C8369837A830995D501ED91FC9120
:102BA00069817A819B012C0D3D1D215031090488DA
:102BB000F589E02D78014B815C818A01C501099579
:102BC000D501ED91FC910688F789E02DC5010F90A4
:102BD0000F900F900F90DF91CF911F910F91FF9069
:102BE000EF90DF90CF90BF90AF900994AF92BF92DB
:102BF000CF92DF92EF92FF920F931F93CF93DF93C9
:102C000000D000D0CDB7DEB75C016901DC01ED91E9
:102C1000FC910284F385E02D4B835C8369837A8386
:102C20000995D501ED91FC914B815C81C40ED51EB7
:102C3000B1E0CB1AD1080488F589E02D780186012E
:102C400069817A819B01C5010995D501ED91FC91BE
:102C50000688F789E02DC5010F900F900F900F9017
:102C6000DF91CF911F910F91FF90EF90DF90CF9068
:102C7000BF90AF9009940895EF92FF920F931F9326
:102C8000DC01ED91FC9100A0F1A1E02D09951F91CF
:102C90000F91FF90EF9008950F931F93DC01ED913A
:102CA000FC91068CF78DE02D09951F910F910895E9
:102CB0000F931F93DC01ED91FC91048CF58DE02DB9
:102CC00009951F910F910895DC01ED91FC9100840D
:102CD000F185E02D099408952F923F924F925F92D3
:102CE0006F927F928F929F92AF92BF92CF92DF921C
:102CF000EF92FF920F931F93CF93DF9300D01F9219
:102D0000CDB7DEB74C017B836A836A015901170195
:102D10009801241B350B37FF03C0319521953109EC
:102D2000C5014A815B81841B950B97FF03C0919578
:102D30008195910951E059838217930714F0198204
:102D40000BC09A2D8B2D5801092F182F9A818B813A
:102D5000DB82CA82C92ED82E8A819B81A816B90629
:102D60005CF49C2D8D2D6801092F182F9A818B8181
:102D7000BB82AA82A92EB82E2501AA81BB814A1A3C
:102D80005B0A38016C187D0877FE03C0719461946A
:102D90007108720157FE03C0BFEFEB1AFB0AF594EE
:102DA000E794C016D1061CF00FEF1FEF1FC001E023
:102DB00010E01CC0D401ED91FC91B9810484F5852B
:102DC000E02D9101BB23C1F04A815B81B601C401B2
:102DD0000995E618F708F7FE04C0C00ED11EE40CF2
:102DE000F51CEA81FB813196FB83EA834A815B8192
:102DF000A416B506FCF604C0A6016A817B81E7CF64
:102E00000F900F900F90DF91CF911F910F91FF9036
:102E1000EF90DF90CF90BF90AF909F908F907F907A
:102E20006F905F904F903F902F90089585ED809325
:102E3000BC008091BC0084FDFCCF1092E10308959A
:102E400040916A03262F30E0240F311D21323105D5
:102E5000DCF42091E1032430C9F4FC0180E090E02F
:102E6000861758F430916A032191DC01A85BBC4FAE
:102E7000A30FB11D2C930196F3CF80916A03680FC5
:102E800060936A0380E0089581E0089582E00895E8
:102E90000895E0919A0380919903E81730F4F0E0E7
:102EA000E556FC4F808190E008958FEF9FEF0895E5
:102EB00090919A0380919903981750F4E92FF0E0CC
:102EC000E556FC4F208130E09F5F90939A0302C04B
:102ED0002FEF3FEFC90108958091990390E0209171
:102EE0009A03821B91090895CF92DF92EF92FF928D
:102EF0000F931F93CF93DF937C01262F972F8A0187
:102F000080910404882391F0C62FD72F6E01C40E40
:102F1000D51ECC15DD0571F06991D701ED91FC91BD
:102F20000190F081E02DC7010995F3CF642F822F26
:102F30000E942017C801DF91CF911F910F91FF9040
:102F4000EF90DF90CF900895CF93DF931F92CDB78E
:102F5000DEB76983209104042223D1F0209102047A
:102F6000203240F021E030E0FC013383228380E016
:102F700090E015C080910304E82FF0E0EE51FC4F83
:102F8000998190838F5F809303048093020405C02E
:102F900061E0CE0101960E94201781E090E00F9041
:102FA000DF91CF910895089580E090E00895809199
:102FB0004603909147032091440330914503E8E292
:102FC000F2E042815381608171818617970719F47D
:102FD0002417350741F0349642E0E837F40789F7C3
:102FE00081E090E0089580E090E0089580914603AC
:102FF000909147032091440330914503A0EEB2E045
:10300000ED91FD91EE0FFF1FEE0FFF1FEC5FFE4FE6
:10301000408151818417950729F4428153812417F7
:10302000350739F043E0A434B40751F781E090E06C
:10303000089580E090E008952F923F924F925F9222
:103040007F928F929F92AF92BF92CF92DF92EF9238
:10305000FF920F931F93CF93DF93CDB7DEB72897DF
:103060000FB6F894DEBF0FBECDBF1C012B014A0185
:1030700059011C830B83C901079697FD07969C0194
:1030800093E0359527959A95E1F73A832983C12CEA
:10309000D12C00E010E0EB81FC810E171F070CF033
:1030A0003CC018861F82F801E40DF51DFE83ED83F8
:1030B0002F8138852A153B054CF58F8198858770BF
:1030C0009927892B11F0770C0EC0EF81F885F7FD59
:1030D000379683E0F595E7958A95E1F7EC0DFD1DB0
:1030E000E80DF91D749077FE0BC097014D815E814C
:1030F0006F817885620D731D80EC94E00E944A1DFB
:103100008F819885019698878F83D2CF0F5F1F4F4D
:1031100089819A81C80ED91EBECF28960FB6F89421
:10312000DEBF0FBECDBFDF91CF911F910F91FF90FA
:10313000EF90DF90CF90BF90AF909F908F907F9057
:103140005F904F903F902F900895AF92BF92CF9293
:10315000DF92EF92FF920F931F93CF93DF936C0157
:103160005B01E12C48EFF42E03E110E023E130E0B5
:103170004EE852E20E941C18EE24EA94FE2C23E151
:1031800030E045E552E2B501C6010E941C18C0912D
:10319000DC02D091DD02C130D10541F43FE1E32EE4
:1031A000F12C23E130E04CE152E231C0CE018D7FC1
:1031B000892BA1F42FE1E22EF12C03E110E023E1B1
:1031C00030E043EE51E2B501C6010E941C1882E0D6
:1031D00090E09093DF028093DE0221C0C330D105DE
:1031E00051F49FE1E92EF12C03E110E023E130E0FE
:1031F0004AEA51E20CC0C430D10589F48FE1E82ECF
:10320000F12C03E110E023E130E041E751E2B501A8
:10321000C6010E941C18D093DF02C093DE02DF912A
:10322000CF911F910F91FF90EF90DF90CF90BF90C3
:10323000AF9008950F931F93CF93DF93EC018B0111
:103240004EE852E20E94942345E552E2B801CE01D5
:103250000E9494238091DE029091DF0281309105DB
:1032600019F44CE152E210C08230910519F443EE9A
:1032700051E20AC08330910519F44AEA51E204C0D0
:10328000049751F441E751E2B801CE01DF91CF91AB
:103290001F910F910C949423DF91CF911F910F9167
:1032A00008952F923F924F925F926F927F928F92EA
:1032B0009F92AF92BF92CF92DF92EF92FF920F93C5
:1032C0001F93CF93DF93CDB7DEB76C970FB6F8940B
:1032D000DEBF0FBECDBF9C8F8B8F5B011A011F839A
:1032E0000E833701C982DC0158964D915C91599744
:1032F0004115510509F0E5C018968D919C911997DB
:10330000681779070CF0CAC11A968D919C911B978A
:10331000281639060CF0C2C18C2C912CFB0136E02A
:10332000C39EE00DF11D1124FB87EA871E161F06C0
:103330000CF0B4C1C40133E0880F991F3A95E1F74E
:103340009D878C87820D931D181619060CF0A6C157
:1033500057968C91811103C0203B08F02F5FAB8DF5
:10336000BC8DED91FC9111970284F385E02DCD0188
:103370002A8F09952A8DB5E02B9F90011124F50124
:103380003596FF87EE87BB82AA822501A9014A19DB
:103390005B09598B488BC10108969B8B8A8BE88906
:1033A000F989E40DF51DE953FD4D9491988761016C
:1033B0003D822C82A885A0FF13C0AB8DBC8DED9102
:1033C000FC91B981B13031F40484F585E02D2E8172
:1033D0003F8116C00684F785E02DEE80FF801AC07D
:1033E000EE81FF816E167F06F1F0AB8DBC8DED9105
:1033F000FC91B981B13051F40484F585E02D93013D
:10340000A601B2018B8D9C8D09950DC00684F785B0
:10341000E02D7301840194014C815D816A817B817F
:103420008B8D9C8D0995E885E695E887FFEFCF1A8F
:10343000DF0A2C813D81280D391D3D832C834A896B
:103440005B89C416D50609F0B5CF5FEF451A550A5A
:103450008A819B81880D991D9B838A83AE85BF8558
:103460004A165B0609F09BCFEE81FF816E167F0640
:1034700009F4F2C0EB8DFC8DA081B181F981F130AE
:1034800079F4B5016B5F7F4F5096ED91FC915197A8
:10349000830128E030E0A1018B8D9C8D0995DCC073
:1034A0006A857B85681979091E96ED91FC911F97B5
:1034B00073010C851D859401A1018B8D9C8D09954F
:1034C000CBC0FA0134969491329765917491291B7F
:1034D000CB01B7E02B9F800D911D1124FA0125919E
:1034E00034913B8B2A8BFC01459154915B834A8339
:1034F000FC013296C490319654915E8732961491B5
:103500003196D4908981823058F0612E012E000CC2
:103510007708AD2D0D2C000CBB0BB987A88704C014
:1035200019861886612C712CAB8DBC8DED91FC91A8
:1035300011970284F385E02DCD010995B9818B2E79
:10354000912C689CC001699C900D789C900D112471
:10355000FC01EA0DFB1DFD87EC871C82712C612CA0
:10356000E12F110FFF0B95012E0F3F1F3B872A877D
:10357000AC0CB11CA5014E0F5F1F5F8B4E8BC101C0
:103580008D0D911DD7FC9A95998F888F4E85641665
:1035900008F062C0862D90E048855985480F591F74
:1035A000489D9001499D300D589D300D1124D90141
:1035B000A20DB31DB98BA88BAA84BB844C845D84F7
:1035C000DC80BA85DB1AE88DF98DE80FF91FFD8BD9
:1035D000EC8B8D2D8A0D2E893F89A216B306B9F189
:1035E000877061F48A819B810196EA89FB89AA81AF
:1035F000BB81EA0FFB1F74909B838A8377FE20C0F8
:10360000AB8DBC8DED91FC91B981B13061F4048436
:10361000F585E02D2E813F814C895D89B5018B8D2B
:103620009C8D09950DC00684F785E02DEE80FF8006
:103630008401940148895989B2018B8D9C8D09952B
:10364000770CEFEFAE1ABE0A480C591CC2CF3C8172
:103650003C0D3C8363949ACFAB8DBC8DED91FC9176
:1036600011970688F789E02DCD016C960FB6F89476
:10367000DEBF0FBECDBFDF91CF911F910F91FF90A5
:10368000EF90DF90CF90BF90AF909F908F907F9002
:103690006F905F904F903F902F9009946C960FB66B
:1036A000F894DEBF0FBECDBFDF91CF911F910F9178
:1036B000FF90EF90DF90CF90BF90AF909F908F9052
:1036C0007F906F905F904F903F902F9008951F9242
:1036D0000F920FB60F9211242F933F934F935F9346
:1036E0006F937F938F939F93AF93BF93EF93FF93CA
:1036F0008091B900887F803609F49CC068F58832D3
:1037000009F45BC090F4803109F454C038F4882384
:1037100009F4F6C0883009F44DC0F6C0883109F4C8
:103720004CC0803209F45DC0EFC0803409F468C039
:1037300048F4803309F455C0883309F0E5C080931C
:10374000DF03D8C0803509F44FC0883509F45DC067
:10375000883409F0D9C0D6C0883909F4C7C0A8F4A4
:10376000883709F467C038F4883609F463C08037B5
:1037700009F460C0C9C0883809F4B8C0803909F4B8
:103780005FC0803809F0C0C05BC0803B09F486C0D0
:1037900038F4803A09F466C0883A09F47FC0B4C0AE
:1037A000803C09F4A7C0883C09F4A4C0883B09F414
:1037B0008AC0AAC08091BC0310C09091DE038091A2
:1037C000DD03981770F5E091DE0381E08E0F8093A2
:1037D000DE03F0E0E354FC4F80818093BB0085EC76
:1037E00086C08093DF038EC0E091DE0381E08E0F00
:1037F0008093DE038091BB00F0E0E354FC4F8083B4
:103800009091DE038091DD036EC0E091DE0381E0E4
:103810008E0F8093DE038091BB00F0E0E354FC4FF9
:1038200080838091E00381116DC081E08093BB03B0
:1038300084EA61C083E08093E10310928E03CFCFCE
:1038400080918E03803208F051C0E0918E0381E0B8
:103850008E0F80938E038091BB00F0E0E259FC4F05
:103860008083BDCF85EC8093BC001092E1038091F2
:103870008E03803230F4E0918E03F0E0E259FC4F89
:10388000108260918E0370E0E0916C03F0916D0303
:103890008EE693E0099510928E0336C084E0809303
:1038A000E10310926B0310926A03E0916803F091B8
:1038B0006903099580916A03811105C081E08093B5
:1038C0006A0310924803E0916B0381E08E0F8093AE
:1038D0006B03F0E0E85BFC4F80818093BB0090912C
:1038E0006B0380916A03981708F479CF85E8809379
:1038F000BC000AC085EC8093BC001092E10304C0B8
:103900001092DF030E941617FF91EF91BF91AF91C4
:103910009F918F917F916F915F914F913F912F91E7
:103920000F900FBE0F901F901895CF92DF92EF92DD
:10393000FF920F931F93CF93DF9300D000D000D05E
:10394000CDB7DEB76C01DC01ED91FC910284F3850B
:10395000E02D2D833E834B835C8369837A830995B5
:10396000D601ED91FC910684F785E02D2D813E81F5
:103970004B815C8169817A81C6010995D601ED91FF
:10398000FC910688F789E02DC60126960FB6F894BB
:10399000DEBF0FBECDBFDF91CF911F910F91FF9082
:1039A000EF90DF90CF900994EF92FF920F931F93C7
:1039B000CF93DF9300D000D000D0CDB7DEB77C012D
:1039C000DC01ED91FC910284F385E02D2D833E8393
:1039D0004B835C8369837A830995D701ED91FC91D0
:1039E0000288F389E02D2D813E814B815C816981C4
:1039F0007A81C7010995D701ED91FC910688F78975
:103A0000E02DC70126960FB6F894DEBF0FBECDBFDE
:103A1000DF91CF911F910F91FF90EF900994EF925A
:103A2000FF920F931F93CF93DF9300D000D000D06D
:103A3000CDB7DEB77C01DC01ED91FC910284F3850A
:103A4000E02D2D833E834B835C8369837A830995C4
:103A5000D701ED91FC910088F189E02D2D813E8107
:103A60004B815C8169817A81C7010995D701ED910C
:103A7000FC910688F789E02DC70126960FB6F894C9
:103A8000DEBF0FBECDBFDF91CF911F910F91FF9091
:103A9000EF9009940F931F93CF93DF9300D000D042
:103AA00000D0CDB7DEB78C01DC01ED91FC91028432
:103AB000F385E02D2D833E834B835C8369837A837A
:103AC0000995D801ED91FC910484F585E02D2D81B7
:103AD0003E814B815C8169817A81C8010995D80159
:103AE000ED91FC910688F789E02DC80126960FB666
:103AF000F894DEBF0FBECDBFDF91CF911F910F9124
:103B00000994EF92FF920F931F93DC01ED91FC91CA
:103B10000684F785E02D780101E010E009951F91FA
:103B20000F91FF90EF900895EF92FF920F931F93E4
:103B3000DC01ED91FC910684F785E02D7801890187
:103B400021E030E009951F910F91FF90EF900895CB
:103B5000FC0193A906A4F7A5E02D8081892B808321
:103B60000895CF93DF93FC0183A187FF05C06EBD4D
:103B70000DB407FEFDCF2EC028E030E040E8A6A13E
:103B8000B7A1842F862321F080A99C91892B0AC09C
:103B900090A98C91C82FD0E0892F90E080959095C6
:103BA0008C239D238C9392A9C2A5D3A58881A82F8D
:103BB000B0E0892F90E0809590958A239B2388839D
:103BC00082A9A2A5B3A59C91892B8C9346952150DF
:103BD0003109A9F6DF91CF9108954F925F926F92CC
:103BE0007F928F929F92AF92BF92CF92DF92EF928D
:103BF000FF920F931F93CF93DF93EC016B01590159
:103C0000480128853985621773070CF067C08A85DB
:103C10009B85481759070CF061C08B010A0D1B1DCD
:103C2000F8013197DA01A80DB91DBD016150710984
:103C3000F7FD54C077FD52C0D7FE03C05801C12C18
:103C4000D12C57FF03C04D0140E050E0E217F307CD
:103C50001CF05901AC18BD08681779071CF04C011D
:103C6000841A950A9501D4010E94272B3B01582EF6
:103C7000492EE881F98102A4F3A5E02D8401B60163
:103C8000CE0109954301A52CB42C8BA187FF13C04D
:103C900081149104A104B10409F1FEBC0DB407FE26
:103CA000FDCFEEBC0DB407FEFDCF81E0881A910870
:103CB000A108B108EDCF81149104A104B10471F001
:103CC0006F2DCE010E94B11D6E2DCE010E94B11D3F
:103CD00081E0881A9108A108B108EDCFDF91CF915A
:103CE0001F910F91FF90EF90DF90CF90BF90AF901A
:103CF0009F908F907F906F905F904F900895EF927C
:103D0000FF920F931F93CF93DF93EC0177FD33C0A6
:103D1000888599856817790774F557FD2CC08A85C1
:103D20009B85481759073CF5E32EF22EE881F9816F
:103D300002A4F3A5E02D01E010E021E030E0CE0187
:103D400009958BA187FF09C0EEBC0DB407FEFDCF1E
:103D5000FEBC0DB407FEFDCF0EC06E2DCE010E943D
:103D6000B11D6F2DCE01DF91CF911F910F91FF906B
:103D7000EF900C94B11DDF91CF911F910F91FF90A7
:103D8000EF900895CF93DF93EC019CA9ECA5FDA5DE
:103D90002081422F50E0292F30E0209530952423B8
:103DA00035232083CE010E94B11D8CA9ECA5FDA571
:103DB0009081892B8083DF91CF9108958F929F927C
:103DC000AF92BF92CF92DF92EF92FF920F931F9329
:103DD000CF93DF93EC01490181E0881A9108860EA8
:103DE000971EC401A0E0B0E04B01A12CB12C5401FE
:103DF00099248824882A992AAA2ABB2A680181E062
:103E0000C81AD108C40ED51EC601A0E0B0E06A01F0
:103E1000E12CF12C7601DD24CC24C82AD92AEA2A07
:103E2000FB2A6AE2CE010E94C21E2BA16B2D7727CE
:103E30008827992727FF18C06EBD0DB407FEFDCF58
:103E4000C501AA27BB278EBD0DB407FEFDCFBB273A
:103E5000AB2D9A2D892D8EBD0DB407FEFDCF8EBCE6
:103E60000DB407FEFDCF14C0CE010E94B11DB501F7
:103E700088279927CE010E94B11D99278B2D7A2D75
:103E8000692DCE010E94B11D682DCE010E94B11D89
:103E90006BE2CE010E94C21E2BA16F2D77278827CF
:103EA000992727FF18C06EBD0DB407FEFDCFC701CF
:103EB000AA27BB278EBD0DB407FEFDCFBB27AF2DB4
:103EC0009E2D8D2D8EBD0DB407FEFDCFCEBC0DB445
:103ED00007FEFDCF14C0CE010E94B11DB701882797
:103EE0009927CE010E94B11D99278F2D7E2D6D2D12
:103EF000CE010E94B11D6C2DCE010E94B11D6CE25D
:103F0000CE01DF91CF911F910F91FF90EF90DF9045
:103F1000CF90BF90AF909F908F900C94C21E0F9344
:103F20001F93CF93DF931F92CDB7DEB78C01DC01D7
:103F3000ED91FC910284F385E02D698309956981F7
:103F4000611102C060E201C061E2C8010E94C21EAC
:103F5000D801ED91FC910688F789E02DC8010F90FA
:103F6000DF91CF911F910F9109941F93CF93DF930E
:103F7000EC0163706D8B6230C1F0633001F1613030
:103F800051F080EF90E09987888780E491E09B87EB
:103F90008A8718E41DC080E491E09987888780EFC4
:103FA00090E09B878A8718E213C080EF90E09987A2
:103FB000888780E491E09B878A8718E809C080E4BD
:103FC00091E09987888780EF90E09B878A8718EE39
:103FD000E881F9810284F385E02DCE01099566E33D
:103FE000CE010E94C21E612FCE010E94B11DE88148
:103FF000F9810688F789E02DCE01DF91CF911F91DD
:1040000009940F931F93CF93DF931F92CDB7DEB721
:104010008C01DC01ED91FC910284F385E02D698334
:1040200009956981662319F0F80165A903C0D801D3
:10403000D6966C91C8010E94C21ED801ED91FC91E8
:104040000688F789E02DC8010F90DF91CF911F916D
:104050000F9109940895FC016370658B84819581AB
:1040600026813781613039F0633029F0918780876C
:104070003387228708953187208793878287089521
:10408000BF92CF92DF92EF92FF920F931F93CF9345
:10409000DF93EC01411551056105710521F440E004
:1040A00052E16AE770E04C8F5D8F6E8F7F8F88A141
:1040B00087FD07C061E00E94D42461E088A10E94CE
:1040C000882461E089A10E94D42460E089A10E9433
:1040D00088248BA187FD16C061E08CA10E94D424A6
:1040E00060E08CA10E94882461E08BA10E94D4240E
:1040F00061E08BA10E9488248DA187FD03C060E050
:104100000E94D4248BA187FF33C01FB7F8948091FD
:104110008F03811127C0ECE7F8E28491EEE5F8E225
:104120009491E82FF0E0EE0FFF1FEA5CF74DA591A8
:10413000B491EC91E92321F461E08AE00E948824A3
:1041400061E08AE00E94D4248CB580618CBD8CB57E
:1041500080648CBD61E08DE00E94D42461E08BE03E
:104160000E94D42480918F038F5F80938F031FBFA1
:104170008AA187FD21C061E00E94D42461E08AA168
:104180000E94882464E670E080E090E00E941025A0
:1041900060E08AA10E94882464E670E080E090E0FC
:1041A0000E94102561E08AA10E94882468EC70E0DA
:1041B00080E090E00E941025E881F9810284F38577
:1041C000E02DCE01099507EC17E27801EFEFEE1A2A
:1041D000FE0AF8016491662321F1CE010E94C21EFD
:1041E0000E5F1F4FF701E490FE2DFF77BF2E680191
:1041F000FF2EFA948FEFF81649F0F6016491CE0184
:104200000E94B11DFFEFCF1ADF0AF3CF0B0D111D76
:10421000E7FEDBCF68E770E080E090E00E941025C9
:10422000D4CFE881F9810688F789E02DCE01099580
:1042300080EF90E09987888780E491E09B878A8768
:10424000DF91CF911F910F91FF90EF90DF90CF9072
:10425000BF900895FC0183A187FF1EC0448D558D3A
:10426000668D778D20E080E092E1AAE7B0E0481704
:1042700059076A077B0740F4B695A79597958795E8
:104280002F5F2630A1F727E091E09227892F806ADF
:10429000869591708CBD9DBD93A906A4F7A5E02DD0
:1042A0008081282F30E0892F90E08095909582239F
:1042B000932380830895AF92BF92CF92EF92FF92A3
:1042C0000F931F93CF93DF93EC01262F888D998D49
:1042D000009709F040C06A3059F41D861C862C896D
:1042E0008E859F8538E0239F800D911D112441C04C
:1042F0006D3009F4AAC08E898823C1F03C898C8571
:104300009D8546E0349F800D911D11244885598577
:10431000481759075CF41D861C868E859F8548E0EA
:10432000349F800D911D11249F878E87EA88FB881A
:10433000088919894E855F856C857D85CC88CE017D
:104340000E9451192C898C859D8536E0239F800D14
:10435000911D112442C06A3079F41D861C862C8977
:10436000FC013696E4918E859F852E9F800D911DD0
:1043700011249F878E8769C06D3009F466C0FC01E7
:1043800034963491631708F460C03196E491E617CF
:1043900008F45BC0FC013296A590B490462F50E023
:1043A000431B510937E0349FB001359F700D112434
:1043B000A60EB71EF501329634913196E49133235F
:1043C00011F0E1110DC0F5013496E4912C898C8532
:1043D0009D85E29F800D911D11249D878C8735C09E
:1043E000F501359644915E89552311F16C89E32FCF
:1043F000F0E0E40FF11D47FDFA956E9FD0016F9F2D
:10440000B00D11244C855D854A0F5B1FE885F98549
:10441000E417F5076CF41D861C86FC013696E491C2
:104420008E859F856E9F800D911D11249F878E879D
:10443000EA88FB88088919894E855F856C857D85AA
:10444000CC88CE010E945119BECF81E090E0DF916F
:10445000CF911F910F91FF90EF90CF90BF90AF90B1
:1044600008953FB7F8948091950390919603A09199
:104470009703B091980326B5A89B05C02F3F19F06C
:104480000196A11DB11D3FBFBA2FA92F982F8827D4
:10449000820F911DA11DB11DBC01CD0142E0660F2F
:1044A000771F881F991F4A95D1F708951F920F9281
:1044B0000FB60F9211242F933F938F939F93AF9337
:1044C000BF938091910390919203A0919303B09137
:1044D00094033091900323E0230F2D3720F40196AD
:1044E000A11DB11D05C026E8230F0296A11DB11D17
:1044F000209390038093910390939203A09393034E
:10450000B09394038091950390919603A0919703A3
:10451000B09198030196A11DB11D809395039093CE
:104520009603A0939703B0939803BF91AF919F9187
:104530008F913F912F910F900FBE0F901F90189564
:10454000CF92DF92EF92FF920F931F93CF93DF935F
:104550006C017A018B01C0E0D0E0CE15DF0589F057
:10456000D8016D918D01D601ED91FC910190F08102
:10457000E02DC6010995892B11F47E0102C0219618
:10458000ECCFC701DF91CF911F910F91FF90EF907A
:10459000DF90CF900895FC01538D448D252F30E09E
:1045A000842F90E0821B930B541710F0CF96089540
:1045B00001970895FC01918D828D981761F0828D8D
:1045C000DF01A80FB11D5D968C91928D9F5F9F7347
:1045D000928F90E008958FEF9FEF0895FC01918DE9
:1045E000828D981731F0828DE80FF11D858D90E056
:1045F00008958FEF9FEF0895FC01918D228D892FF3
:1046000090E0805C9F4F821B91098F7399270895DA
:10461000FC01848DDF01A80FB11DA35ABF4F2C915F
:10462000848D90E001968F739927848FA689B7892E
:104630002C93A089B1898C9180648C93938D848D07
:10464000981306C00288F389E02D80818F7D8083D6
:104650000895EF92FF920F931F93CF93DF93EC0196
:1046600081E0888F9B8D8C8D981305C0E889F9892E
:10467000808185FD24C0F62E0B8D10E00F5F1F4F4B
:104680000F731127E02E8C8DE8120CC00FB607FCBB
:10469000FACFE889F989808185FFF5CFCE010E94A4
:1046A0000823F1CF8B8DFE01E80FF11DE35AFF4F78
:1046B000F0820B8FEA89FB898081806207C0EE89D6
:1046C000FF896083E889F98980818064808381E043
:1046D00090E0DF91CF911F910F91FF90EF9008959F
:1046E000CF93DF93EC01888D8823C9F0EA89FB8999
:1046F000808185FD05C0A889B9898C9186FD0FC090
:104700000FB607FCF5CF808185FFF2CFA889B98964
:104710008C9185FFEDCFCE010E940823E7CFDF917A
:10472000CF9108950E94502B9F92AF92BF92CF924B
:10473000DF92EF92FF920F931F93CF93DF936C0161
:104740005A018B01E12CF12CC0E0D0E0CE01877042
:104750009927892B11F0990C0BC0FE0183E0F59588
:10476000E7958A95E1F7EE0DFF1DEA0DFB1D94908C
:1047700097FE0AC020E030E0A801BE016C0D7D1D4F
:1047800080EC94E00E944A1D2196C331D105F1F6D8
:104790000F5F1F4F83E0E80EF11C89E3E816F10478
:1047A00099F6DF91CF911F910F91FF90EF90DF90DD
:1047B000CF90BF90AF909F900895009769F0FC0153
:1047C00001900020E9F73197AF01481B590BBC015C
:1047D00083E194E00C94A02280E090E008958F9211
:1047E0009F92AF92BF920F931F93CF93DF93CDB75A
:1047F000DEB7A1970FB6F894DEBF0FBECDBF19A2EA
:10480000423008F44AE08E010F5D1F4F842E912C38
:10481000A12CB12CA50194010E94E22AE62FB90136
:10482000CA0101501109EA3014F4E05D01C0E95CED
:10483000D801EC93232B242B252B61F7C8010E9470
:10484000DD23A1960FB6F894DEBF0FBECDBFDF917A
:10485000CF911F910F91BF90AF909F908F9008952F
:104860001F920F920FB60F9211242F933F934F93E5
:104870005F936F937F938F939F93AF93BF93EF93C8
:10488000FF9383E194E00E940823FF91EF91BF9191
:10489000AF919F918F917F916F915F914F913F91D8
:1048A0002F910F900FBE0F901F9018951F920F928F
:1048B0000FB60F9211242F938F939F93EF93FF9333
:1048C000E0912304F09124048081E0912904F09187
:1048D0002A0482FD12C0908180912C048F5F8F7317
:1048E00020912D04821751F0E0912C04F0E0ED5E50
:1048F000FB4F958F80932C0401C08081FF91EF9135
:104900009F918F912F910F900FBE0F901F90189530
:1049100090E0FC01E05CF74D3491FC01EC5AF74D5E
:104920002491FC01EE58F74DE491EE2309F43BC0CD
:10493000332339F1333091F038F43130A9F032308B
:1049400001F584B58F7D12C0373091F03830A1F079
:104950003430B9F4809180008F7D03C08091800055
:104960008F77809380000DC084B58F7784BD09C098
:104970008091B0008F7703C08091B0008F7D8093CD
:10498000B000F0E0EE0FFF1FE859F74DA591B4918C
:104990008FB7F894EC91611103C020952E2301C0CC
:1049A0002E2B2C938FBF0895CF93DF9390E0FC01C3
:1049B000EC5AF74D2491FC01EE58F74D8491882371
:1049C00061F190E0880F991FFC01EA5CF74DC591F9
:1049D000D491FC01E859F74DA591B491611109C03A
:1049E0009FB7F8948881209582238883EC912E23A9
:1049F0000BC0623061F49FB7F8943881822F8095A4
:104A000083238883EC912E2B2C939FBF06C08FB7F6
:104A1000F894E8812E2B28838FBFDF91CF910895E2
:104A20008F929F92AF92BF92CF92DF92EF92FF92BE
:104A30006B017C010E9431224B015C01C114D10445
:104A4000E104F104F1F00E943122DC01CB0188196C
:104A50009909AA09BB09883E9340A105B10570F3E5
:104A600021E0C21AD108E108F10888EE880E83E03F
:104A7000981EA11CB11CC114D104E104F10419F762
:104A8000DDCFFF90EF90DF90CF90BF90AF909F90E1
:104A90008F900895CF93C82F81E08093040482E51E
:104AA0008093FB04109203041092020480EB94E0C4
:104AB0000E94A4176C2F80EB94E00E94A4178091B1
:104AC0000204813208F045C09091E1039111FCCFBE
:104AD00092E09093E10391E09093E0039FEF909335
:104AE000DF031092DE038093DD03A2EEB3E02DEB33
:104AF00033E0F9019E2F921B981718F49D91919322
:104B0000F9CF1092BC038091BC03846A8093BC03EC
:104B10008091BB03813061F41092BB038091BC0390
:104B20008093BB008091BC0083FDF8CF85EC01C071
:104B300085EE8093BC008091E1038230E1F38091A7
:104B4000DF038F3F31F08091DF03803211F08091DD
:104B5000DF031092030410920204109204046AE02E
:104B600070E080E090E0CF910C941025EF92FF92DE
:104B70001F93CF93DF93CDB7DEB72C970FB6F89482
:104B8000DEBF0FBECDBF8091E1038111FCCF81E07C
:104B90008093E1038093E0039FEF9093DF031092F3
:104BA000DE0395E09093DD038093BC038091BC030A
:104BB000846A8093BC038091BB03813061F41092BE
:104BC000BB038091BC038093BB008091BC0083FD3C
:104BD000F8CF85EC01C085EE8093BC008091E103A5
:104BE0008130E1F38091DE03863018F41091DE030A
:104BF00001C016E0ADEBB3E02BE933E0F9018E2FF5
:104C0000821B811718F48D918193F9CF10929A032A
:104C100010939903CE0101967C0180919A03181795
:104C200049F080EB94E00E945817F701819391932B
:104C30007F01F3CF89819A819093060480930504C4
:104C40008B819C8190930804809307048B859C85BD
:104C50009C013595279535952795A90143705527D2
:104C60002D813E81220F331F220F331F242B352B22
:104C700030930A04209309049C0174E0359527952C
:104C80007A95E1F7A901437055272F813885220FC6
:104C9000331F220F331F242B352B30930C0420930A
:104CA0000B049C01F6E035952795FA95E1F7A901EB
:104CB0004370552729853A85220F331F220F331F52
:104CC000242B352B30930E0420930D049C0121706E
:104CD0003327F1E02F273093100420930F0421E0B5
:104CE00030E081FF02C020E030E0309312042093D6
:104CF000110460E080E02C960FB6F894DEBF0FBE82
:104D0000CDBFDF91CF911F91FF90EF900C944A257A
:104D1000CF93DF93CDB7DEB7C259D1090FB6F89460
:104D2000DEBF0FBECDBF789484B5826084BD84B5EC
:104D3000816084BD85B5826085BD85B5816085BD96
:104D400080916E00816080936E001092810080914E
:104D500081008260809381008091810081608093D6
:104D60008100809180008160809380008091B100FB
:104D700084608093B1008091B00081608093B00026
:104D800080917A00846080937A0080917A008260BA
:104D900080937A0080917A00816080937A0080917C
:104DA0007A00806880937A001092C10010929A0372
:104DB0001092990310920304109202041092E103DE
:104DC00081E08093E0031092BB0361E082E10E94E6
:104DD000882461E083E10E9488248091B9008E7F5D
:104DE0008093B9008091B9008D7F8093B90088E4E9
:104DF0008093B80085E48093BC0060EF85E50E9455
:104E00004A256BEF80E00E944A250E94B62540E0CB
:104E100050E0BA0180EC94E00E94402061E080EC18
:104E200094E00E94B51FE0912304F091240482E0F5
:104E30008083E0911F04F09120041082E09121040E
:104E4000F09122048FEC808310922B04E0912704D0
:104E5000F091280486E08083E0912504F0912604F7
:104E6000808180618083E0912504F0912604808117
:104E700088608083E0912504F09126048081806819
:104E80008083E0912504F091260480818F7D8083CA
:104E900060E070E080EC94E00E9444158AEBE82E1C
:104EA00086EDF82E00EF10E021E131E048E650E019
:104EB00060E070E080E090E00E941C1880E4809345
:104EC0007C0080917A00806480937A0080917A00DF
:104ED00086FDFCCF809178002091790090E0922BA4
:104EE0000E94A52AC12CD12C0AE4A02EB12C4E017F
:104EF00025E9820E911C0E94A02AB5010E94132B65
:104F0000FE013196219131912817390721F0E815DA
:104F1000F905C1F7A8C121E0C21AD1083FEFC31AB1
:104F2000D30A83E3C816D10434F342E950E060E3C6
:104F300070E0CE0101960E94552B6FE170E086E192
:104F400090E00E94A518F0EECF2EF2E0DF2EF601E1
:104F5000019111916F014801012E000CAA08BB08B4
:104F6000B7FE14C0E0911304F09114040190F08195
:104F7000E02D6DE283E194E0099566277727CB0168
:104F8000681979098A099B094AE003C04AE0C5010A
:104F9000B4010E94EF2380ED92E00E94DD23000F18
:104FA000111F000F111F0C5F1E4FF80160817181EE
:104FB00080E090E04AE00E94EF2383ED92E00E94BF
:104FC000DD23F8016281738180E090E04AE00E9475
:104FD000EF2380ED92E00E94DD23F6E4CF16F3E0AC
:104FE000DF0609F0B4CF52E0C52ED12C01E010E06D
:104FF00063E0A62EB12C74E0872E912C0E94B6257A
:1050000080910504909106042091DA023091DB0230
:105010002817390761F44091D8025091D9022091A4
:105020000704309108044217530709F405C1209181
:10503000D6023091D702232B09F0FEC09093DB02F9
:105040008093DA0220910704309108043093D9024A
:105050002093D802893C9105CCF1E090BE04F090F9
:10506000BF04C70145969093470380934603609021
:10507000BC047090BD04709245036092440346974F
:10508000833D9105F0F40E94D7170197D1F40E9457
:10509000F6170197B1F4B301C7010E941A19609184
:1050A000BC047091BD0480914603909147030E9417
:1050B000A51880914603909147039093BF04809375
:1050C000BE049092DD028092DC02B2C08897CCF5DB
:1050D000E090BE04F090BF04C7014597909347034A
:1050E000809346036090BC047090BD0470924503A9
:1050F000609244034697833D9105F0F40E94D717D0
:105100000197D1F40E94F6170197B1F4B301C701DA
:105110000E941A196091BC047091BD0480914603ED
:10512000909147030E94A5188091460390914703F0
:105130009093BF048093BE04B092DD02A092DC0283
:1051400077C0293C3105CCF1E090BE04F090BF045B
:10515000F0924703E09246036090BC047090BD0457
:10516000C301459790934503809344034F97893A31
:105170009105F0F40E94D7170197D1F40E94F61719
:105180000197B1F4B301C7010E941A196091440359
:10519000709145038091BE049091BF040E94A518B0
:1051A00080914403909145039093BD048093BC0487
:1051B0001093DD020093DC023BC028323105E4F598
:1051C000E090BE04F090BF04F0924703E0924603E3
:1051D0006090BC047090BD04C30145969093450354
:1051E000809344034F97893A9105F0F40E94D717B2
:1051F0000197D1F40E94F6170197B1F4B301C701EA
:105200000E941A1960914403709145038091BE0475
:105210009091BF040E94A51880914403909145038A
:105220009093BD048093BC04D092DD02C092DC0256
:105230001093D7020093D602809105049091060442
:1052400085569109879708F0D9CE809107049091EF
:1052500008048F569109879708F0D0CE1092D70294
:105260001092D602CBCEF601EE0FFF1FE052FD4F9B
:1052700091838083FC01EE0FFF1F21E030E02C0FB3
:105280003D1FE20FF31F91838083FC01EE0FFF1F90
:10529000EE0FFF1FEC5FFE4FA081B1816281738131
:1052A0008934910509F43ACE12E2E12E12EBF12E87
:1052B00003E110E023E130E048E351E2CD010E9438
:1052C0001C182CCEE3E1F4E01382128288EE93E006
:1052D000A0E0B0E084839583A683B7832CE732E017
:1052E0003183208325EC30E03587248724EC30E0BF
:1052F0003787268720EC30E0318B208B21EC30E0A3
:10530000338B228B22EC30E0358B248B26EC30E083
:10531000378B268B118E128E138E148EE0EBF4E0F9
:105320001382128284839583A683B7838EE892E0EA
:1053300091838083A0ECB4E013961C921E92129786
:1053400020EF30E015963C932E93149780E491E083
:1053500017969C938E93169719963C932E931897B5
:105360001B969C938E931A9755961C9255971D9653
:105370001C921E921C971F961C921E921E9781E0F3
:1053800054968C9354972FEF3FEF53963C932E9364
:10539000529751963C932E93509756968C935697CE
:1053A00057961C92579759961C921E925897D596CD
:1053B0001C92D597D6961C92D697D8961C921E9280
:1053C000D797DA961C921E92D9978AE090968C9382
:1053D000909789E091968C9391978FEF92968C930A
:1053E00092972CEF34E05B963C932E935A979396CA
:1053F0008C93939794968C93949795968C9395977A
:105400005C961D921D921D921C925F979B961C921A
:105410001E929A97D2961C92D29797961C921E92A1
:105420009697D0961C92D09799961C921E92989718
:10543000D1961C92D197EBE7F8E2E491F0E0EE0F01
:10544000FF1FE859F74D859194919D969C938E93FB
:105450009C97EDE5F8E2E491D496EC93D497ECE7D1
:10546000F8E2E491F0E0EE0FFF1FE859F74D859167
:1054700094919F969C938E939E97EEE5F8E2E4912B
:10548000D396EC93D39780EA92E08D939C9386E138
:1054900090E09093BF048093BE048FE190E09093DE
:1054A000BD048093BC0408958F929F92AF92BF92E7
:1054B000CF92DF92EF92FF92CF93DF93EC0168815E
:1054C00079818A819B81611571058105910521F49E
:1054D00064E279ED8BE597E02DE133EF41E050E0B8
:1054E0000E94B02A49015A019B01AC01A7EAB1E42C
:1054F0000E94CF2A6B017C01ACEEB4EFA5019401B0
:105500000E94DD2ADC01CB018C0D9D1DAE1DBF1D4F
:10551000B7FF03C00197A109B04888839983AA8384
:10552000BB839F77DF91CF91FF90EF90DF90CF907B
:10553000BF90AF909F908F9008950E94542A089535
:1055400080E091E00E94542A0895A0E0B0E08093AA
:10555000000190930101A0930201B093030108950B
:10556000052E97FB1EF400940E94C72A57FD07D012
:105570000E94E22A07FC03D04EF40C94C72A5095EF
:105580004095309521953F4F4F4F5F4F089590952F
:105590008095709561957F4F8F4F9F4F08950E9422
:1055A000042BA59F900DB49F900DA49F800D911D7D
:1055B00011240895B7FF0C94CF2A0E94CF2A821B92
:1055C000930B0895A1E21A2EAA1BBB1BFD010DC06F
:1055D000AA1FBB1FEE1FFF1FA217B307E407F507A3
:1055E00020F0A21BB30BE40BF50B661F771F881F7F
:1055F000991F1A9469F760957095809590959B0115
:10560000AC01BD01CF010895A29FB001B39FC001BD
:10561000A39F700D811D1124911DB29F700D811DDE
:105620001124911D089597FB072E16F4009407D0BE
:1056300077FD09D00E94362B07FC05D03EF49095EB
:1056400081959F4F0895709561957F4F08950E94B1
:10565000042B332312F48A1B9B0B0C94312B0E94D6
:10566000042BB7FF0895821B930B0895AA1BBB1B45
:1056700051E107C0AA1FBB1FA617B70710F0A61B52
:10568000B70B881F991F5A95A9F780959095BC0173
:10569000CD010895EE0FFF1F0590F491E02D0994C0
:1056A00081E090E0F8940C945C2BDC0101C06D93D8
:0C56B00041505040E0F70895F894FFCFFF
:1056BC00010000001600490016005E001600730081
:1056CC001600880016009D001600B2001600C700D8
:1056DC002B0049002B0073002B009D002B00C700F2
:1056EC0040001F00400034004000490040005E00B4
:1056FC00400073004000880040009D004000B20054
:10570C004000C70055001F005500490055007300AC
:10571C0055009D005500C7006A001F006A00340048
:10572C006A0049006A005E006A0073006A00880023
:10573C006A009D006A00B2006A00C7007F001F006B
:10574C007F0049007F0073007F009D007F00C70031
:10575C0094001F00940034009400490094005E00F3
:10576C00940073009400880094009D009400B20093
:10577C009400C700A9001F00A9004900A9007300EC
:10578C00A9009D00A900C700BE001F00BE00340088
:10579C00BE004900BE005E00BE007300BE00880063
:1057AC00BE009D00BE00B200BE00C700D3001F00AB
:1057BC00D3004900D3007300D3009D00E8001F0004
:1057CC00E8003400E8004900E8005E00E8007300DF
:1057DC00E8008800E8009D002B00340055003400E0
:1057EC007F003400A9003400D30034002B005E008D
:1057FC0055005E007F005E00A9005E00D3005E00D5
:10580C002B008800550088007F008800A9008800C4
:10581C00D30088002B00B2005500B2007F00B2000C
:10582C00A900B200D300B200000000002923A0227E
:10583C00CB227023FC22DA22EE2200000000A417F7
:10584C007417D41748176C17581749170000000025
:10585C005B21A022D417D3174A1D2A217F1EED1DD0
:10586C00941D811D6C16A81DB51F8F1F0F1DD41CF8
:10587C00951C4415CD146E144020DE1E1F0016001E
:06588C000D0A002C0000D3
:107E0000112484B714BE81FFF0D085E080938100F7
:107E100082E08093C00088E18093C10086E0809377
:107E2000C20080E18093C4008EE0C9D0259A86E02C
:107E300020E33CEF91E0309385002093840096BBD3
:107E4000B09BFECF1D9AA8958150A9F7CC24DD24C4
:107E500088248394B5E0AB2EA1E19A2EF3E0BF2EE7
:107E6000A2D0813461F49FD0082FAFD0023811F036
:107E7000013811F484E001C083E08DD089C08234E0
:107E800011F484E103C0853419F485E0A6D080C0E4
:107E9000853579F488D0E82EFF2485D0082F10E0AE
:107EA000102F00270E291F29000F111F8ED06801E7
:107EB0006FC0863521F484E090D080E0DECF843638
:107EC00009F040C070D06FD0082F6DD080E0C81688
:107ED00080E7D80618F4F601B7BEE895C0E0D1E017
:107EE00062D089930C17E1F7F0E0CF16F0E7DF06D8
:107EF00018F0F601B7BEE89568D007B600FCFDCFD4
:107F0000A601A0E0B1E02C9130E011968C91119780
:107F100090E0982F8827822B932B1296FA010C0160
:107F200087BEE89511244E5F5F4FF1E0A038BF0790
:107F300051F7F601A7BEE89507B600FCFDCF97BE46
:107F4000E89526C08437B1F42ED02DD0F82E2BD052
:107F50003CD0F601EF2C8F010F5F1F4F84911BD097
:107F6000EA94F801C1F70894C11CD11CFA94CF0C13
:107F7000D11C0EC0853739F428D08EE10CD085E9AC
:107F80000AD08FE07ACF813511F488E018D01DD067
:107F900080E101D065CF982F8091C00085FFFCCF94
:107FA0009093C60008958091C00087FFFCCF809118
:107FB000C00084FD01C0A8958091C6000895E0E648
:107FC000F0E098E1908380830895EDDF803219F02E
:107FD00088E0F5DFFFCF84E1DECF1F93182FE3DFCA
:107FE0001150E9F7F2DF1F91089580E0E8DFEE27F6
:047FF000FF270994CA
:027FFE00040479
:0400000300007E007B
:00000001FF