:100000000C9499130C94C1130C94C1130C94C11348
:100010000C94C1130C94C1130C94C1130C94C11310
:100020000C94C1130C94C1130C94C1130C94C11300
:100030000C94C1130C94C1130C94C1130C94C113F0
:100040000C94BE1F0C94C1130C94C1130C94C113D7
:100050000C94C1130C94C1130C94C1130C94C113D0
:100060000C94C1130C94C1130000000000000000A8
:100070000000000000000000000000000000000080
:100080000000000000000000000000000000000070
:100090000000000000000000000000000000000060
:1000A0000000000000000000000000000000000050
:1000B0000000000000000000000000000000000040
:1000C0000000000000000000000000000000000030
:1000D0000000000000000000000000000000000020
:1000E0000000000000000000000000000000000010
:1000F0000000000000000000000000000000000000
:1001000000000000000000000000000000000000EF
:1001100000000000000000000000000000000000DF
:1001200000000000000000000000000000000000CF
:1001300000000000000000000000000000000000BF
:1001400000000000000000000000000000000000AF
:10015000000000000000000000000000000000009F
:10016000000000000000000000000000000000008F
:10017000000000000000000000000000000000007F
:10018000000000000000000000000000000000006F
:10019000000000000000000000000000000000005F
:1001A000000000000000000000000000000000004F
:1001B000000000000000000000000000000000003F
:1001C0000000000000007FFFF3FFFF9FFFFCFFFF28
:1001D000E7FFFF3FFFF9FFFFCFFFFE7FFFF3FFFFCA
:1001E0009FFFFCFFFFE7FFFF007FFFF3FFFF9FFF85
:1001F000FCFFFFE7FFFF3FFFF9FFFFCFFFFE7FFFA1
:10020000F3FFFF9FFFFCFFFFE7FFFF007FFFF3FF10
:10021000FF9FFFFCFFFFE7FFFF3FFFF9FFFFCFFF5F
:10022000FE7FFFF3FFFF9FFFFCFFFFE7FFFF007F65
:10023000FFF3FFFF9FFFFCFFFFE7FFFF3FFFF9FF1B
:10024000FFCFFFFE7FFFF3FFFF9FFFFCFFFFE7FFF6
:10025000FF007FFFF3FFFF9FFFFCFFFFE7FFFF3F74
:10026000FFF9FFFFCFFFFE7FFFF3FFFF9FFFFCFFC4
:10027000FFE7FFFF007FFFF3FFFF9FFFFCFFFFE7AC
:10028000FFFF3FFFF9FFFFCFFFFE7FFFF3FFFF9F61
:10029000FFFCFFFFE7FFFF007FFFF3FFFF9FFFFC77
:1002A000FFFFE7FFFF3FFFF9FFFFCFFFFE7FFFF3F9
:1002B000FFFF9FFFFCFFFFE7FFFF007FFFF3FFFF54
:1002C0009FFFFCFFFFE7FFFF3FFFF9FFFFCFFFFEB0
:1002D0007FFFF3FFFF9FFFFCFFFFE7FFFF007FFFB4
:1002E000F3FFFF9FFFFCFFFFE7FFFF3FFFF9FFFF6B
:1002F000CFFFFE7FFFF3FFFF9FFFFCFFFFE7FFFF46
:10030000007FFFF3FFFF9FFFFCFFFFE7FFFF3FFFC3
:10031000F9FFFFCFFFFE7FFFF3FFFF9FFFFCFFFF13
:10032000E7FFFF007FFFF3FFFF9FFFFCFFFFE7FFFB
:10033000FF3FFFF9FFFFCFFFFE7FFFF3FFFF9FFFB0
:10034000FCFFFFE7FFFF007FFFF3FFFF9FFFFCFFC6
:10035000FFE7FFFF3FFFF9FFFFCFFFFE7FFFF3FF48
:10036000FF9FFFFCFFFFE7FFFF007FFFF3FFFF9F03
:10037000FFFCFFFFE7FFFF3FFFF9FFFFCFFFFE7F1F
:10038000FFF3FFFF9FFFFCFFFFE7FFFF007FFFF38F
:10039000FFFF9FFFFCFFFFE7FFFF3FFFF9FFFFCFDE
:1003A000FFFE7FFFF3FFFF9FFFFCFFFFE7FFFF0064
:1003B0007FFFF3FFFF9FFFFCFFFFE7FFFF3FFFF91A
:1003C000FFFFCFFFFE7FFFF3FFFF9FFFFCFFFFE775
:1003D000FFFF007FFFF3FFFF9FFFFCFFFFE7FFFF33
:1003E0003FFFF9FFFFCFFFFE7FFFF3FFFF9FFFFC03
:1003F000FFFFE7FFFF007FFFF3FFFF9FFFFCFFFF13
:10040000E7FFFF3FFFF9FFFFCFFFFE7FFFF3FFFF97
:100410009FFFFCFFFFE7FFFF007FFFF3FFFF9FFF52
:10042000FCFFFFE7FFFF3FFFF9FFFFCFFFFE7FFF6E
:10043000F3FFFF9FFFFCFFFFE7FFFF007FFFF3FFDE
:10044000FF9FFFFCFFFFE7FFFF3FFFF9FFFFCFFF2D
:10045000FE7FFFF3FFFF9FFFFCFFFFE7FFFF0000B2
:10046000000000000000000000000000000000008C
:10047000000000000000000000000000000000007C
:10048000000000000000000000000000000000006C
:10049000000000000000000000000000000000005C
:1004A00000000000007FFFF00000000000000000DE
:1004B000000000000000000000000000000000003C
:1004C0000000000007FFFF007FFFF00000000000B9
:1004D000000000000000000000000000000000001C
:1004E0000000000000000007FFFF007FFFF0000099
:1004F00000000000000000000000000000000000FC
:100500000000000000000000000007FFFF007FFF68
:10051000F0000000000000000000000000000000EB
:100520000000000000000000000000000007FFFFC6
:10053000007FFFF00000000000000000000000004D
:1005400000000000000000000000000000000000AB
:1005500007FFFF007FFFF000000000000000000028
:10056000000000000000000000000000000000008B
:1005700000000007FFFF007FFFF000000000000008
:10058000000000000000000000000000000000006B
:1005900000000000000007FFFF007FFFF0000000E8
:1005A000000000000000000000000000000000004B
:1005B00000000000000000000007FFFF007FFFF0C8
:1005C000000000000000000000000000000000002B
:1005D00000000000000000000000000007FFFF0016
:1005E0007FFFF0000000000000000000000000009D
:1005F00000000000000000000000000000000007F4
:10060000FFFF007FFFF0000000000000000000007E
:1006100000000000000000000000000000000000DA
:10062000000007FFFF007FFFF00000000000000057
:1006300000000000000000000000000000000000BA
:10064000000000000007FFFF007FFFF00000000037
:10065000000000000000000000000000000000009A
:10066000000000000000000007FFFF007FFFF00017
:10067000000000000000000000000000000000007A
:10068000000000000000000000000007FFFF007FE6
:10069000FFF000000000000000000000000000006B
:1006A000000000000000000000000000000007FF44
:1006B000FF007FFFF00000000000000000000000CD
:1006C000000000000000000000000000000000002A
:1006D0000007FFFF007FFFF00000000000000000A7
:1006E000000000000000000000000000000000000A
:1006F0000000000007FFFF007FFFF0000000000087
:1007000000000000000000000000000000000000E9
:100710000000000000000007FFFF007FFFF0000066
:1007200000000000000000000000000000000000C9
:100730000000000000000000000007FFFF000000B4
:1007400000000000000000000000000000000000A9
:100750000000000000000000000000000000000099
:100760000000000000000000000000000000000089
:100770000000000000000000000000000000000079
:10078000000000007FFFF000001FFFFC000007FFDB
:10079000FF000001FFFFC000007FFFF000001FFF0F
:1007A000FC000007FFFF007FFFF000001FFFFC00C0
:1007B0000007FFFF000001FFFFC000007FFFF00007
:1007C000001FFFFC000007FFFF007FFFF000001F7D
:1007D000FFFC000007FFFF000001FFFFC000007FDB
:1007E000FFF000001FFFFC000007FFFF007FFFF08D
:1007F00000001FFFFC000007FFFF000001FFFFC01B
:1008000000007FFFF000001FFFFC000007FFFF005B
:100810007FFFF000001FFFFC000007FFFF0000014A
:10082000FFFFC000007FFFF000001FFFFC0000077B
:10083000FFFF007FFFF000001FFFFC000007FFFF2D
:10084000000001FFFFC000007FFFF000001FFFFC61
:10085000000007FFFF007FFFF000001FFFFC00000B
:1008600007FFFF000001FFFFC000007FFFF0000056
:100870001FFFFC000007FFFF007FFFF000001FFFCD
:10088000FC000007FFFF000001FFFFC000007FFF2A
:10089000F000001FFFFC000007FFFF007FFFF000DB
:1008A000001FFFFC000007FFFF000001FFFFC0006A
:1008B000007FFFF000001FFFFC000007FFFF007F2C
:1008C000FFF000001FFFFC000007FFFF000001FF1A
:1008D000FFC000007FFFF000001FFFFC000007FFCB
:1008E000FF007FFFF000001FFFFC000007FFFF007C
:1008F0000001FFFFC000007FFFF000001FFFFC00B1
:100900000007FFFF007FFFF000001FFFFC00000753
:10091000FFFF000001FFFFC000007FFFF000001F8D
:10092000FFFC000007FFFF007FFFF000001FFFFC3F
:10093000000007FFFF000001FFFFC000007FFFF085
:1009400000001FFFFC000007FFFF007FFFF000001A
:100950001FFFFC000007FFFF000001FFFFC00000B9
:100960007FFFF000001FFFFC000007FFFF007FFF7C
:10097000F000001FFFFC000007FFFF000001FFFF69
:10098000C000007FFFF000001FFFFC000007FFFF1A
:10099000007FFFF000001FFFFC000007FFFF0000CA
:1009A00001FFFFC000007FFFF000001FFFFC000000
:1009B00007FFFF007FFFF000001FFFFC000007FFA4
:1009C000FF000001FFFFC000007FFFF000001FFFDD
:1009D000FC000007FFFF007FFFF000001FFFFC008E
:1009E0000007FFFF000001FFFFC000007FFFF000D5
:1009F000001FFFFC000007FFFF007FFFF000001F4B
:100A0000FFFC000007FFFF000001FFFFC000007FA8
:100A1000FFF000001FFFFC000007FFFF00000000C8
:100A200000000000000000000000000000000000C6
:100A300000000000000000000000000000000000B6
:100A400000000000000000000000000000000000A6
:100A50000000000000000000000000000000000096
:100A60000000007FFFF00000000000000000000018
:100A70000000000000000000000000000000000076
:100A8000000007FFFF007FFFF000000000000000F3
:100A90000000000000000000000000000000000056
:100AA000000000000007FFFF007FFFF000000000D3
:100AB0000000000000000000000000000000000036
:100AC000000000000000000007FFFF007FFFF000B3
:100AD0000000000000000000000000000000000016
:100AE000000000000000000000000007FFFF007F82
:100AF000FFF0000000000000000000000000000007
:100B0000000000000000000000000000000007FFDF
:100B1000FF007FFFF0000000000000000000000068
:100B200000000000000000000000000000000000C5
:100B30000007FFFF007FFFF0000000000000000042
:100B400000000000000000000000000000000000A5
:100B50000000000007FFFF007FFFF0000000000022
:100B60000000000000000000000000000000000085
:100B70000000000000000007FFFF007FFFF0000002
:100B80000000000000000000000000000000000065
:100B90000000000000000000000007FFFF007FFFD2
:100BA000F000000000000000000000000000000055
:100BB0000000000000000000000000000007FFFF30
:100BC000007FFFF0000000000000000000000000B7
:100BD0000000000000000000000000000000000015
:100BE00007FFFF007FFFF000000000000000000092
:100BF00000000000000000000000000000000000F5
:100C000000000007FFFF007FFFF000000000000071
:100C100000000000000000000000000000000000D4
:100C200000000000000007FFFF007FFFF000000051
:100C300000000000000000000000000000000000B4
:100C400000000000000000000007FFFF007FFFF031
:100C50000000000000000000000000000000000094
:100C600000000000000000000000000007FFFF007F
:100C70007FFFF00000000000000000000000000006
:100C8000000000000000000000000000000000075D
:100C9000FFFF007FFFF000000000000000000000E8
:100CA0000000000000000000000000000000000044
:100CB000000007FFFF007FFFF000000000000000C1
:100CC0000000000000000000000000000000000024
:100CD000000000000007FFFF007FFFF000000000A1
:100CE0000000000000000000000000000000000004
:100CF000000000000000000007FFFF0000000000EF
:100D000000000000000000000000000000000000E3
:100D100000000000000000000000000000000000D3
:100D200000000000000000000000000000000000C3
:100D300000000000000000000000000000000000B3
:100D400000007FFFF000001FFFFC000007FFFF0016
:100D50000001FFFFC000007FFFF000001FFFFC004C
:100D60000007FFFF007FFFF000001FFFFC000007EF
:100D7000FFFF000001FFFFC000007FFFF000001F29
:100D8000FFFC000007FFFF007FFFF000001FFFFCDB
:100D9000000007FFFF000001FFFFC000007FFFF021
:100DA00000001FFFFC000007FFFF007FFFF00000B6
:100DB0001FFFFC000007FFFF000001FFFFC0000055
:100DC0007FFFF000001FFFFC000007FFFF007FFF18
:100DD000F000001FFFFC000007FFFF000001FFFF05
:100DE000C000007FFFF000001FFFFC000007FFFFB6
:100DF000007FFFF000001FFFFC000007FFFF000066
:100E000001FFFFC000007FFFF000001FFFFC00009B
:100E100007FFFF007FFFF000001FFFFC000007FF3F
:100E2000FF000001FFFFC000007FFFF000001FFF78
:100E3000FC000007FFFF007FFFF000001FFFFC0029
:100E40000007FFFF000001FFFFC000007FFFF00070
:100E5000001FFFFC000007FFFF007FFFF000001FE6
:100E6000FFFC000007FFFF000001FFFFC000007F44
:100E7000FFF000001FFFFC000007FFFF007FFFF0F6
:100E800000001FFFFC000007FFFF000001FFFFC084
:100E900000007FFFF000001FFFFC000007FFFF00C5
:100EA0007FFFF000001FFFFC000007FFFF000001B4
:100EB000FFFFC000007FFFF000001FFFFC000007E5
:100EC000FFFF007FFFF000001FFFFC000007FFFF97
:100ED000000001FFFFC000007FFFF000001FFFFCCB
:100EE000000007FFFF007FFFF000001FFFFC000075
:100EF00007FFFF000001FFFFC000007FFFF00000C0
:100F00001FFFFC000007FFFF007FFFF000001FFF36
:100F1000FC000007FFFF000001FFFFC000007FFF93
:100F2000F000001FFFFC000007FFFF007FFFF00044
:100F3000001FFFFC000007FFFF000001FFFFC000D3
:100F4000007FFFF000001FFFFC000007FFFF007F95
:100F5000FFF000001FFFFC000007FFFF000001FF83
:100F6000FFC000007FFFF000001FFFFC000007FF34
:100F7000FF007FFFF000001FFFFC000007FFFF00E5
:100F80000001FFFFC000007FFFF000001FFFFC001A
:100F90000007FFFF007FFFF000001FFFFC000007BD
:100FA000FFFF000001FFFFC000007FFFF000001FF7
:100FB000FFFC000007FFFF007FFFF000001FFFFCA9
:100FC000000007FFFF000001FFFFC000007FFFF0EF
:100FD00000001FFFFC000007FFFF000000000000F2
:100FE0000000000000000000000000000000000001
:100FF00000000000000000000000000000000000F1
:1010000000000000000000000000000000000000E0
:1010100000000000000000000000000000000000D0
:10102000007FFFF000000000000000000000000052
:1010300000000000000000000000000000000000B0
:1010400007FFFF007FFFF00000000000000000002D
:101050000000000000000000000000000000000090
:1010600000000007FFFF007FFFF00000000000000D
:101070000000000000000000000000000000000070
:1010800000000000000007FFFF007FFFF0000000ED
:101090000000000000000000000000000000000050
:1010A00000000000000000000007FFFF007FFFF0CD
:1010B0000000000000000000000000000000000030
:1010C00000000000000000000000000007FFFF001B
:1010D0007FFFF000000000000000000000000000A2
:1010E00000000000000000000000000000000007F9
:1010F000FFFF007FFFF00000000000000000000084
:1011000000000000000000000000000000000000DF
:10111000000007FFFF007FFFF0000000000000005C
:1011200000000000000000000000000000000000BF
:10113000000000000007FFFF007FFFF0000000003C
:10114000000000000000000000000000000000009F
:10115000000000000000000007FFFF007FFFF0001C
:10116000000000000000000000000000000000007F
:10117000000000000000000000000007FFFF007FEB
:10118000FFF0000000000000000000000000000070
:10119000000000000000000000000000000007FF49
:1011A000FF007FFFF00000000000000000000000D2
:1011B000000000000000000000000000000000002F
:1011C0000007FFFF007FFFF00000000000000000AC
:1011D000000000000000000000000000000000000F
:1011E0000000000007FFFF007FFFF000000000008C
:1011F00000000000000000000000000000000000EF
:101200000000000000000007FFFF007FFFF000006B
:1012100000000000000000000000000000000000CE
:101220000000000000000000000007FFFF007FFF3B
:10123000F0000000000000000000000000000000BE
:101240000000000000000000000000000007FFFF99
:10125000007FFFF000000000000000000000000020
:10126000000000000000000000000000000000007E
:1012700007FFFF007FFFF0000000000000000000FB
:10128000000000000000000000000000000000005E
:1012900000000007FFFF007FFFF0000000000000DB
:1012A000000000000000000000000000000000003E
:1012B00000000000000007FFFF0000000000000029
:1012C000000000000000000000000000000000001E
:1012D000000000000000000000000000000000000E
:1012E00000000000000000000000000000000000FE
:1012F00000000000000000000000000000000000EE
:101300007FFFF000001FFFFC000007FFFF0000014F
:10131000FFFFC000007FFFF000001FFFFC00000780
:10132000FFFF007FFFF000001FFFFC000007FFFF32
:10133000000001FFFFC000007FFFF000001FFFFC66
:10134000000007FFFF007FFFF000001FFFFC000010
:1013500007FFFF000001FFFFC000007FFFF000005B
:101360001FFFFC000007FFFF007FFFF000001FFFD2
:10137000FC000007FFFF000001FFFFC000007FFF2F
:10138000F000001FFFFC000007FFFF007FFFF000E0
:10139000001FFFFC000007FFFF000001FFFFC0006F
:1013A000007FFFF000001FFFFC000007FFFF007F31
:1013B000FFF000001FFFFC000007FFFF000001FF1F
:1013C000FFC000007FFFF000001FFFFC000007FFD0
:1013D000FF007FFFF000001FFFFC000007FFFF0081
:1013E0000001FFFFC000007FFFF000001FFFFC00B6
:1013F0000007FFFF007FFFF000001FFFFC00000759
:10140000FFFF000001FFFFC000007FFFF000001F92
:10141000FFFC000007FFFF007FFFF000001FFFFC44
:10142000000007FFFF000001FFFFC000007FFFF08A
:1014300000001FFFFC000007FFFF007FFFF000001F
:101440001FFFFC000007FFFF000001FFFFC00000BE
:101450007FFFF000001FFFFC000007FFFF007FFF81
:10146000F000001FFFFC000007FFFF000001FFFF6E
:10147000C000007FFFF000001FFFFC000007FFFF1F
:10148000007FFFF000001FFFFC000007FFFF0000CF
:1014900001FFFFC000007FFFF000001FFFFC000005
:1014A00007FFFF007FFFF000001FFFFC000007FFA9
:1014B000FF000001FFFFC000007FFFF000001FFFE2
:1014C000FC000007FFFF007FFFF000001FFFFC0093
:1014D0000007FFFF000001FFFFC000007FFFF000DA
:1014E000001FFFFC000007FFFF007FFFF000001F50
:1014F000FFFC000007FFFF000001FFFFC000007FAE
:10150000FFF000001FFFFC000007FFFF007FFFF05F
:1015100000001FFFFC000007FFFF000001FFFFC0ED
:1015200000007FFFF000001FFFFC000007FFFF002E
:101530007FFFF000001FFFFC000007FFFF0000011D
:10154000FFFFC000007FFFF000001FFFFC0000074E
:10155000FFFF007FFFF000001FFFFC000007FFFF00
:10156000000001FFFFC000007FFFF000001FFFFC34
:10157000000007FFFF007FFFF000001FFFFC0000DE
:1015800007FFFF000001FFFFC000007FFFF0000029
:101590001FFFFC000007FFFF00000000000000002C
:1015A000000000000000000000000000000000003B
:1015B000000000000000000000000000000000002B
:1015C000000000000000000000000000000000001B
:1015D0000000000000000000000000000000007F8C
:1015E000FFF000000000000000000000000000000C
:1015F000000000000000000000000000000007FFE5
:10160000FF007FFFF000000000000000000000006D
:1016100000000000000000000000000000000000CA
:101620000007FFFF007FFFF0000000000000000047
:1016300000000000000000000000000000000000AA
:101640000000000007FFFF007FFFF0000000000027
:10165000000000000000000000000000000000008A
:101660000000000000000007FFFF007FFFF0000007
:10167000000000000000000000000000000000006A
:101680000000000000000000000007FFFF007FFFD7
:10169000F00000000000000000000000000000005A
:1016A0000000000000000000000000000007FFFF35
:1016B000007FFFF0000000000000000000000000BC
:1016C000000000000000000000000000000000001A
:1016D00007FFFF007FFFF000000000000000000097
:1016E00000000000000000000000000000000000FA
:1016F00000000007FFFF007FFFF000000000000077
:1017000000000000000000000000000000000000D9
:1017100000000000000007FFFF007FFFF000000056
:1017200000000000000000000000000000000000B9
:1017300000000000000000000007FFFF007FFFF036
:101740000000000000000000000000000000000099
:1017500000000000000000000000000007FFFF0084
:101760007FFFF0000000000000000000000000000B
:101770000000000000000000000000000000000762
:10178000FFFF007FFFF000000000000000000000ED
:101790000000000000000000000000000000000049
:1017A000000007FFFF007FFFF000000000000000C6
:1017B0000000000000000000000000000000000029
:1017C000000000000007FFFF007FFFF000000000A6
:1017D0000000000000000000000000000000000009
:1017E000000000000000000007FFFF007FFFF00086
:1017F00000000000000000000000000000000000E9
:10180000000000000000000000000007FFFF007F54
:10181000FFF00000000000000000000000000000D9
:10182000000000000000000000000000000007FFB2
:10183000FF007FFFF000000000000000000000003B
:101840000000000000000000000000000000000098
:101850000007FFFF007FFFF0000000000000000015
:101860000000000000000000000000000000000078
:101870000000000007FFFF00000000000000000063
:101880000000000000000000000000000000000058
:101890000000000000000000000000000000000048
:1018A0000000000000000000000000000000000038
:1018B00000000000000000000000000000007FFFAA
:1018C000F000001FFFFC000007FFFF000001FFFF0A
:1018D000C000007FFFF000001FFFFC000007FFFFBB
:1018E000007FFFF000001FFFFC000007FFFF00006B
:1018F00001FFFFC000007FFFF000001FFFFC0000A1
:1019000007FFFF007FFFF000001FFFFC000007FF44
:10191000FF000001FFFFC000007FFFF000001FFF7D
:10192000FC000007FFFF007FFFF000001FFFFC002E
:101930000007FFFF000001FFFFC000007FFFF00075
:10194000001FFFFC000007FFFF007FFFF000001FEB
:10195000FFFC000007FFFF000001FFFFC000007F49
:10196000FFF000001FFFFC000007FFFF007FFFF0FB
:1019700000001FFFFC000007FFFF000001FFFFC089
:1019800000007FFFF000001FFFFC000007FFFF00CA
:101990007FFFF000001FFFFC000007FFFF000001B9
:1019A000FFFFC000007FFFF000001FFFFC000007EA
:1019B000FFFF007FFFF000001FFFFC000007FFFF9C
:1019C000000001FFFFC000007FFFF000001FFFFCD0
:1019D000000007FFFF007FFFF000001FFFFC00007A
:1019E00007FFFF000001FFFFC000007FFFF00000C5
:1019F0001FFFFC000007FFFF007FFFF000001FFF3C
:101A0000FC000007FFFF000001FFFFC000007FFF98
:101A1000F000001FFFFC000007FFFF007FFFF00049
:101A2000001FFFFC000007FFFF000001FFFFC000D8
:101A3000007FFFF000001FFFFC000007FFFF007F9A
:101A4000FFF000001FFFFC000007FFFF000001FF88
:101A5000FFC000007FFFF000001FFFFC000007FF39
:101A6000FF007FFFF000001FFFFC000007FFFF00EA
:101A70000001FFFFC000007FFFF000001FFFFC001F
:101A80000007FFFF007FFFF000001FFFFC000007C2
:101A9000FFFF000001FFFFC000007FFFF000001FFC
:101AA000FFFC000007FFFF007FFFF000001FFFFCAE
:101AB000000007FFFF000001FFFFC000007FFFF0F4
:101AC00000001FFFFC000007FFFF007FFFF0000089
:101AD0001FFFFC000007FFFF000001FFFFC0000028
:101AE0007FFFF000001FFFFC000007FFFF007FFFEB
:101AF000F000001FFFFC000007FFFF000001FFFFD8
:101B0000C000007FFFF000001FFFFC000007FFFF88
:101B1000007FFFF000001FFFFC000007FFFF000038
:101B200001FFFFC000007FFFF000001FFFFC00006E
:101B300007FFFF007FFFF000001FFFFC000007FF12
:101B4000FF000001FFFFC000007FFFF000001FFF4B
:101B5000FC000007FFFF0000000000000000000084
:101B60000000000000000000000000000000000075
:101B70000000000000000000000000000000000065
:101B80000000000000000000000000000000000055
:101B9000000000000000000000000000007FFFF0D7
:101BA0000000000000000000000000000000000035
:101BB00000000000000000000000000007FFFF0020
:101BC0007FFFF000000000000000000000000000A7
:101BD00000000000000000000000000000000007FE
:101BE000FFFF007FFFF00000000000000000000089
:101BF00000000000000000000000000000000000E5
:101C0000000007FFFF007FFFF00000000000000061
:101C100000000000000000000000000000000000C4
:101C2000000000000007FFFF007FFFF00000000041
:101C300000000000000000000000000000000000A4
:101C4000000000000000000007FFFF007FFFF00021
:101C50000000000000000000000000000000000084
:101C6000000000000000000000000007FFFF007FF0
:101C7000FFF0000000000000000000000000000075
:101C8000000000000000000000000000000007FF4E
:101C9000FF007FFFF00000000000000000000000D7
:101CA0000000000000000000000000000000000034
:101CB0000007FFFF007FFFF00000000000000000B1
:101CC0000000000000000000000000000000000014
:101CD0000000000007FFFF007FFFF0000000000091
:101CE00000000000000000000000000000000000F4
:101CF0000000000000000007FFFF007FFFF0000071
:101D000000000000000000000000000000000000D3
:101D10000000000000000000000007FFFF007FFF40
:101D2000F0000000000000000000000000000000C3
:101D30000000000000000000000000000007FFFF9E
:101D4000007FFFF000000000000000000000000025
:101D50000000000000000000000000000000000083
:101D600007FFFF007FFFF000000000000000000000
:101D70000000000000000000000000000000000063
:101D800000000007FFFF007FFFF0000000000000E0
:101D90000000000000000000000000000000000043
:101DA00000000000000007FFFF007FFFF0000000C0
:101DB0000000000000000000000000000000000023
:101DC00000000000000000000007FFFF007FFFF0A0
:101DD0000000000000000000000000000000000003
:101DE00000000000000000000000000007FFFF00EE
:101DF0007FFFF00000000000000000000000000075
:101E000000000000000000000000000000000007CB
:101E1000FFFF007FFFF00000000000000000000056
:101E200000000000000000000000000000000000B2
:101E3000000007FFFF00000000000000000000009D
:101E40000000000000000000000000000000000092
:101E50000000000000000000000000000000000082
:101E60000000000000000000000000000000000072
:101E70000000000000000000000000007FFFF3FFF2
:101E8000FF9FFFFCFFFFE7FFFF3FFFF9FFFFCFFFD3
:101E9000FE7FFFF3FFFF9FFFFCFFFFE7FFFF007FD9
:101EA000FFF3FFFF9FFFFCFFFFE7FFFF3FFFF9FF8F
:101EB000FFCFFFFE7FFFF3FFFF9FFFFCFFFFE7FF6A
:101EC000FF007FFFF3FFFF9FFFFCFFFFE7FFFF3FE8
:101ED000FFF9FFFFCFFFFE7FFFF3FFFF9FFFFCFF38
:101EE000FFE7FFFF007FFFF3FFFF9FFFFCFFFFE720
:101EF000FFFF3FFFF9FFFFCFFFFE7FFFF3FFFF9FD5
:101F0000FFFCFFFFE7FFFF007FFFF3FFFF9FFFFCEA
:101F1000FFFFE7FFFF3FFFF9FFFFCFFFFE7FFFF36C
:101F2000FFFF9FFFFCFFFFE7FFFF007FFFF3FFFFC7
:101F30009FFFFCFFFFE7FFFF3FFFF9FFFFCFFFFE23
:101F40007FFFF3FFFF9FFFFCFFFFE7FFFF007FFF27
:101F5000F3FFFF9FFFFCFFFFE7FFFF3FFFF9FFFFDE
:101F6000CFFFFE7FFFF3FFFF9FFFFCFFFFE7FFFFB9
:101F7000007FFFF3FFFF9FFFFCFFFFE7FFFF3FFF37
:101F8000F9FFFFCFFFFE7FFFF3FFFF9FFFFCFFFF87
:101F9000E7FFFF007FFFF3FFFF9FFFFCFFFFE7FF6F
:101FA000FF3FFFF9FFFFCFFFFE7FFFF3FFFF9FFF24
:101FB000FCFFFFE7FFFF007FFFF3FFFF9FFFFCFF3A
:101FC000FFE7FFFF3FFFF9FFFFCFFFFE7FFFF3FFBC
:101FD000FF9FFFFCFFFFE7FFFF007FFFF3FFFF9F77
:101FE000FFFCFFFFE7FFFF3FFFF9FFFFCFFFFE7F93
:101FF000FFF3FFFF9FFFFCFFFFE7FFFF007FFFF303
:10200000FFFF9FFFFCFFFFE7FFFF3FFFF9FFFFCF51
:10201000FFFE7FFFF3FFFF9FFFFCFFFFE7FFFF00D7
:102020007FFFF3FFFF9FFFFCFFFFE7FFFF3FFFF98D
:10203000FFFFCFFFFE7FFFF3FFFF9FFFFCFFFFE7E8
:10204000FFFF007FFFF3FFFF9FFFFCFFFFE7FFFFA6
:102050003FFFF9FFFFCFFFFE7FFFF3FFFF9FFFFC76
:10206000FFFFE7FFFF007FFFF3FFFF9FFFFCFFFF86
:10207000E7FFFF3FFFF9FFFFCFFFFE7FFFF3FFFF0B
:102080009FFFFCFFFFE7FFFF007FFFF3FFFF9FFFC6
:10209000FCFFFFE7FFFF3FFFF9FFFFCFFFFE7FFFE2
:1020A000F3FFFF9FFFFCFFFFE7FFFF007FFFF3FF52
:1020B000FF9FFFFCFFFFE7FFFF3FFFF9FFFFCFFFA1
:1020C000FE7FFFF3FFFF9FFFFCFFFFE7FFFF007FA7
:1020D000FFF3FFFF9FFFFCFFFFE7FFFF3FFFF9FF5D
:1020E000FFCFFFFE7FFFF3FFFF9FFFFCFFFFE7FF38
:1020F000FF007FFFF3FFFF9FFFFCFFFFE7FFFF3FB6
:10210000FFF9FFFFCFFFFE7FFFF3FFFF9FFFFCFF05
:10211000FFE7FFFF000000000000000000000000DB
:1021200000000000000000000000000000000000AF
:102130000000000000000000FFF9E0FFF9E0FFF9F7
:10214000E0FFF9E0FFF9E0000000000000F3FFE02D
:10215000F3FFE0F3FFE0F3FFE0F3FFE00000000037
:102160000000FFE7E0FFE7E0FFE7E0FFE7E0FFE771
:10217000E000000000003E5B4F5B3E3E6B4F6B3E5D
:102180001C3E7C3E1C183C7E3C181C577D571C1C7A
:102190005E7F5E1C00183C1800FFE7C3E7FF0018D5
:1021A000241800FFE7DBE7FF30483A060E262979BE
:1021B0002926407F050507407F05253F5A3CE73C1F
:1021C0005A7F3E1C1C08081C1C3E7F14227F2214D0
:1021D0005F5F005F5F06097F017F006689956A6027
:1021E0006060606094A2FFA29408047E040810203E
:1021F0007E201008082A1C08081C2A08081E101037
:1022000010100C1E0C1E0C30383E3830060E3E0EE0
:1022100006000000000000005F000000070007004B
:10222000147F147F14242A7F2A1223130864623631
:10223000495620500008070300001C2241000041BD
:10224000221C002A1C7F1C2A08083E0808008070F7
:10225000300008080808080000606000201008042A
:10226000023E5149453E00427F400072494949467D
:102270002141494D331814127F1027454545393CFB
:102280004A494931412111090736494949364649E8
:1022900049291E000014000000403400000008140A
:1022A0002241141414141400412214080201590983
:1022B000063E415D594E7C1211127C7F49494936D8
:1022C0003E414141227F4141413E7F494949417F51
:1022D000090909013E414151737F0808087F004107
:1022E0007F41002040413F017F081422417F404050
:1022F00040407F021C027F7F0408107F3E41414125
:102300003E7F090909063E4151215E7F0919294690
:10231000264949493203017F01033F4040403F1FA6
:102320002040201F3F4038403F63140814630304DB
:102330007804036159494D43007F4141410204083B
:102340001020004141417F0402010204404040400E
:1023500040000307080020545478407F2844443844
:102360003844444428384444287F3854545418008E
:10237000087E090218A4A49C787F0804047800440D
:102380007D40002040403D007F1028440000417FF8
:1023900040007C047804787C080404783844444481
:1023A00038FC1824241818242418FC7C0804040879
:1023B000485454542404043F44243C4040207C1C92
:1023C0002040201C3C4030403C44281028444C9085
:1023D00090907C4464544C440008364100000077DF
:1023E0000000004136080002010204023C262326B8
:1023F0003C1EA1A161123A4040207A3854545559EC
:102400002155557941225454784221555478402021
:10241000545579400C1E527212395555555939543C
:1024200054545939555454580000457C41000245D4
:102430007D420001457C407D1211127DF028252847
:10244000F07C545545002054547C547C0A097F4943
:1024500032494949323A4444443A324A4848303A87
:102460004141217A3A42402078009DA0A07D3D4222
:1024700042423D3D4040403D3C24FF2424487E49AB
:1024800043662B2FFC2F2BFF0929F620C0887E09DD
:102490000320545479410000447D413048484A3279
:1024A000384040227A007A0A0A727D0D19317D2661
:1024B00029292F28262929292630484D4020380847
:1024C00008080808080808382F10C8ACBA2F1028C8
:1024D00034FA00007B000008142A142222142A1463
:1024E000085500550055AA55AA55AAFF55FF55FF96
:1024F000000000FF00101010FF00141414FF001063
:1025000010FF00FF1010F010F0141414FC0014144D
:10251000F700FF0000FF00FF1414F404FC1414176C
:10252000101F10101F101F1414141F00101010F093
:10253000000000001F101010101F10101010F010DD
:10254000000000FF101010101010101010FF1000ED
:102550000000FF140000FF00FF00001F1017000024
:10256000FC04F414141710171414F404F40000FFFE
:1025700000F714141414141414F700F71414141797
:102580001410101F101F141414F4141010F010F075
:1025900000001F101F0000001F14000000FC1400AA
:1025A00000F010F01010FF10FF141414FF1410109E
:1025B000101F00000000F010FFFFFFFFFFF0F0F021
:1025C000F0F0FFFFFF0000000000FFFF0F0F0F0FF4
:1025D0000F3844443844FC4A4A4A347E0202060614
:1025E000027E027E0263554941633844443C044004
:1025F0007E201E2006027E020299A5E7A5991C2ACC
:10260000492A1C4C7201724C304A4D4D303048788A
:102610004830BC625A463D3E494949007E010101AD
:102620007E2A2A2A2A2A44445F444440514A44408C
:1026300040444A51400000FF0103E080FF000008D1
:10264000086B6B083612362436060F090F06000099
:1026500018180000001010003040FF0101001F0199
:10266000011E00191D1712003C3C3C3C00000000FC
:1026700000EF03038002CF0300C130ED04640312B6
:1026800081E803850078CB05392C003402F701205E
:10269000EA020000C00123C10110C5023E28C701A3
:1026A000863601483701003A0155B1020018B603D9
:1026B000088227F20100260101E00F0F312B0C0EDA
:1026C000084EF1370710030E0900E10F000E140346
:1026D000110731C148080F0C31360F1180298000D5
:1026E00000000000240027002A0000000000250050
:1026F00028002B000404040404040404020202025F
:1027000002020303030303030102040810204080B4
:102710000102040810200102040810200000000833
:102720000002010000030407000000000000000098
:10273000082011241FBECFEFD8E0DEBFCDBF12E0CE
:10274000A0E0B1E0EAE0F5E402C005900D92A83502
:10275000B107D9F722E0A8E5B2E001C01D92AB397C
:10276000B207E1F713E1C9E9D3E104C02197FE0103
:102770000E947122C839D107C9F70E94B0200C9479
:1027800083220C940000CF92DF92EF92FF920F937E
:102790001F93CF93DF936C017A018B01C0E0D0E0EF
:1027A000CE15DF0589F0D8016D918D01D601ED912F
:1027B000FC910190F081E02DC6010995892B11F45F
:1027C0007E0102C02196ECCFC701DF91CF911F910E
:1027D0000F91FF90EF90DF90CF90089590E0FC0173
:1027E000E45EF84D3491FC01E85FF84D2491FC0162
:1027F000EC50F94DE491EE2309F43BC0332339F159
:10280000333091F038F43130A9F0323001F584B52D
:102810008F7D12C0373091F03830A1F03430B9F4E8
:10282000809180008F7D03C0809180008F7780939E
:1028300080000DC084B58F7784BD09C08091B00041
:102840008F7703C08091B0008F7D8093B000F0E05F
:10285000EE0FFF1FE651F94DA591B4918FB7F89493
:10286000EC91611103C020952E2301C02E2B2C93D7
:102870008FBF0895CF93DF9390E0FC01E85FF84DA0
:102880002491FC01EC50F94D8491882361F190E092
:10289000880F991FFC01E052F94DC591D491FC01BC
:1028A000E651F94DA591B491611109C09FB7F89413
:1028B0008881209582238883EC912E230BC062307F
:1028C00061F49FB7F8943881822F809583238883A1
:1028D000EC912E2B2C939FBF06C08FB7F894E88104
:1028E0002E2B28838FBFDF91CF9108953FB7F894A7
:1028F0008091970290919802A0919902B0919A02CA
:1029000026B5A89B05C02F3F19F00196A11DB11D4A
:102910003FBFBA2FA92F982F8827820F911DA11D85
:10292000B11DBC01CD0142E0660F771F881F991FC2
:102930004A95D1F708958F929F92AF92BF92CF920E
:10294000DF92EF92FF926B017C010E9476144B01A3
:102950005C01C114D104E104F104F1F00E94761489
:10296000DC01CB0188199909AA09BB09883E93406B
:10297000A105B10570F321E0C21AD108E108F10800
:1029800088EE880E83E0981EA11CB11CC114D104EE
:10299000E104F10419F7DDCFFF90EF90DF90CF90C5
:1029A000BF90AF909F908F900895CF92DF92EF925B
:1029B000FF920F931F93CF93DF9300D000D000D0EE
:1029C000CDB7DEB76C01DC01ED91FC910284F3859B
:1029D000E02D2D833E834B835C8369837A83099545
:1029E000D601ED91FC910684F785E02D2D813E8185
:1029F0004B815C8169817A81C6010995D601ED918F
:102A0000FC910688F789E02DC60126960FB6F8944A
:102A1000DEBF0FBECDBFDF91CF911F910F91FF9011
:102A2000EF90DF90CF900994EF92FF920F931F9356
:102A3000CF93DF9300D000D000D0CDB7DEB77C01BC
:102A4000DC01ED91FC910284F385E02D2D833E8322
:102A50004B835C8369837A830995D701ED91FC915F
:102A60000288F389E02D2D813E814B815C81698153
:102A70007A81C7010995D701ED91FC910688F78904
:102A8000E02DC70126960FB6F894DEBF0FBECDBF6E
:102A9000DF91CF911F910F91FF90EF900994EF92EA
:102AA000FF920F931F93CF93DF9300D000D000D0FD
:102AB000CDB7DEB77C01DC01ED91FC910284F3859A
:102AC000E02D2D833E834B835C8369837A83099554
:102AD000D701ED91FC910088F189E02D2D813E8197
:102AE0004B815C8169817A81C7010995D701ED919C
:102AF000FC910688F789E02DC70126960FB6F89459
:102B0000DEBF0FBECDBFDF91CF911F910F91FF9020
:102B1000EF9009940F931F93CF93DF9300D000D0D1
:102B200000D0CDB7DEB78C01DC01ED91FC910284C1
:102B3000F385E02D2D833E834B835C8369837A8309
:102B40000995D801ED91FC910484F585E02D2D8146
:102B50003E814B815C8169817A81C8010995D801E8
:102B6000ED91FC910688F789E02DC80126960FB6F5
:102B7000F894DEBF0FBECDBFDF91CF911F910F91B3
:102B80000994EF92FF920F931F93DC01ED91FC915A
:102B90000684F785E02D780101E010E009951F918A
:102BA0000F91FF90EF900895EF92FF920F931F9374
:102BB000DC01ED91FC910684F785E02D7801890117
:102BC00021E030E009951F910F91FF90EF9008955B
:102BD000FC0191A904A4F5A5E02D8081892B8083B7
:102BE0000895CF93DF93FC0181A187FF05C06EBDDF
:102BF0000DB407FEFDCF2EC028E030E040E8A4A1D0
:102C0000B5A1842F862321F086A59C91892B0AC02B
:102C100096A58C91C82FD0E0892F90E08095909553
:102C20008C239D238C9390A9C0A5D1A58881A82F22
:102C3000B0E0892F90E0809590958A239B2388832C
:102C400080A9A0A5B1A59C91892B8C934695215074
:102C50003109A9F6DF91CF9108954F925F926F925B
:102C60007F928F929F92AF92BF92CF92DF92EF921C
:102C7000FF920F931F93CF93DF93EC016B015901E8
:102C8000480128853985621773070CF067C08A856B
:102C90009B85481759070CF061C08B010A0D1B1D5D
:102CA000F8013197DA01A80DB91DBD016150710914
:102CB000F7FD54C077FD52C0D7FE03C05801C12CA8
:102CC000D12C57FF03C04D0140E050E0E217F3075D
:102CD0001CF05901AC18BD08681779071CF04C01AD
:102CE000841A950A9501D4010E944E223B01582E68
:102CF000492EE881F98102A4F3A5E02D8401B601F3
:102D0000CE0109954301A52CB42C89A187FF13C0DE
:102D100081149104A104B10409F1FEBC0DB407FEB5
:102D2000FDCFEEBC0DB407FEFDCF81E0881A9108FF
:102D3000A108B108EDCF81149104A104B10471F090
:102D40006F2DCE010E94F1156E2DCE010E94F1155E
:102D500081E0881A9108A108B108EDCFDF91CF91E9
:102D60001F910F91FF90EF90DF90CF90BF90AF90A9
:102D70009F908F907F906F905F904F900895EF920B
:102D8000FF920F931F93CF93DF93EC0177FD33C036
:102D9000888599856817790774F557FD2CC08A8551
:102DA0009B85481759073CF5E32EF22EE881F981FF
:102DB00002A4F3A5E02D01E010E021E030E0CE0117
:102DC000099589A187FF09C0EEBC0DB407FEFDCFB0
:102DD000FEBC0DB407FEFDCF0EC06E2DCE010E94CD
:102DE000F1156F2DCE01DF91CF911F910F91FF90C3
:102DF000EF900C94F115DF91CF911F910F91FF90FF
:102E0000EF900895CF93DF93EC019AA9EAA5FBA573
:102E10002081422F50E0292F30E020953095242347
:102E200035232083CE010E94F1158AA9EAA5FBA5CE
:102E30009081892B8083DF91CF9108958F929F920B
:102E4000AF92BF92CF92DF92EF92FF920F931F93B8
:102E5000CF93DF93EC01490181E0881A9108860E37
:102E6000971EC401A0E0B0E04B01A12CB12C54018D
:102E700099248824882A992AAA2ABB2A680181E0F1
:102E8000C81AD108C40ED51EC601A0E0B0E06A0180
:102E9000E12CF12C7601DD24CC24C82AD92AEA2A97
:102EA000FB2A6AE2CE010E94021729A16B2D772727
:102EB0008827992727FF18C06EBD0DB407FEFDCFE8
:102EC000C501AA27BB278EBD0DB407FEFDCFBB27CA
:102ED000AB2D9A2D892D8EBD0DB407FEFDCF8EBC76
:102EE0000DB407FEFDCF14C0CE010E94F115B5014F
:102EF00088279927CE010E94F11599278B2D7A2DCD
:102F0000692DCE010E94F115682DCE010E94F115A8
:102F10006BE2CE010E94021729A16F2D7727882727
:102F2000992727FF18C06EBD0DB407FEFDCFC7015E
:102F3000AA27BB278EBD0DB407FEFDCFBB27AF2D43
:102F40009E2D8D2D8EBD0DB407FEFDCFCEBC0DB4D4
:102F500007FEFDCF14C0CE010E94F115B7018827EE
:102F60009927CE010E94F11599278F2D7E2D6D2D69
:102F7000CE010E94F1156C2DCE010E94F1156CE27C
:102F8000CE01DF91CF911F910F91FF90EF90DF90D5
:102F9000CF90BF90AF909F908F900C9402170F939B
:102FA0001F93CF93DF931F92CDB7DEB78C01DC0167
:102FB000ED91FC910284F385E02D69830995698187
:102FC000611102C060E201C061E2C8010E94021703
:102FD000D801ED91FC910688F789E02DC8010F908A
:102FE000DF91CF911F910F9109941F93CF93DF939E
:102FF000EC0163706D8B6230C1F0633001F16130C0
:1030000051F080EF90E09987888780E491E09B877A
:103010008A8718E41DC080E491E09987888780EF53
:1030200090E09B878A8718E213C080EF90E0998731
:10303000888780E491E09B878A8718E809C080E44C
:1030400091E09987888780EF90E09B878A8718EEC8
:10305000E881F9810284F385E02DCE01099566E3CC
:10306000CE010E940217612FCE010E94F115E88166
:10307000F9810688F789E02DCE01DF91CF911F916C
:103080000994BF92CF92DF92EF92FF920F931F931A
:10309000CF93DF93EC01411551056105710521F4D2
:1030A00040E052E16AE770E04A8F5B8F6C8F7D8F62
:1030B0008E8D87FD07C061E00E943A1461E08E8D1D
:1030C0000E94EE1361E08F8D0E943A1460E08F8DB4
:1030D0000E94EE1389A187FD16C061E08AA10E94BB
:1030E0003A1460E08AA10E94EE1361E089A10E9477
:1030F0003A1461E089A10E94EE138BA187FD03C001
:1031000060E00E943A1489A187FF33C01FB7F8948A
:1031100080919102811127C0EEEFF6E28491E2E105
:10312000F7E29491E82FF0E0EE0FFF1FE052F94D27
:10313000A591B491EC91E92321F461E08AE00E9429
:10314000EE1361E08AE00E943A148CB580618CBD78
:103150008CB580648CBD61E08DE00E943A1461E022
:103160008BE00E943A14809191028F5F80939102CC
:103170001FBF88A187FD21C061E00E943A1461E071
:1031800088A10E94EE1364E670E080E090E00E9467
:103190009B1460E088A10E94EE1364E670E080E07A
:1031A00090E00E949B1461E088A10E94EE1368ECFD
:1031B00070E080E090E00E949B14E881F981028435
:1031C000F385E02DCE01099501E716E27801EFEFD6
:1031D000EE1AFE0AF8016491662321F1CE010E94E5
:1031E00002170E5F1F4FF701E490FE2DFF77BF2EF1
:1031F0006801FF2EFA948FEFF81649F0F6016491FA
:10320000CE010E94F115FFEFCF1ADF0AF3CF0B0DAD
:10321000111DE7FEDBCF68E770E080E090E00E94E0
:103220009B14D4CFE881F9810688F789E02DCE017F
:10323000099580EF90E09987888780E491E09B87EB
:103240008A87DF91CF911F910F91FF90EF90DF90D0
:10325000CF90BF9008950F931F93CF93DF931F924A
:10326000CDB7DEB78C01DC01ED91FC910284F385D2
:10327000E02D698309956981662319F0F80163A936
:1032800003C0D801D4966C91C8010E940217D801DE
:10329000ED91FC910688F789E02DC8010F90DF9130
:1032A000CF911F910F9109940895FC016370658B74
:1032B0008481958126813781613039F0633029F02E
:1032C0009187808733872287089531872087938766
:1032D000828708952F923F924F925F926F927F92D2
:1032E0008F929F92AF92BF92CF92DF92EF92FF9216
:1032F0000F931F93CF93DF93CDB7DEB76C970FB6C5
:10330000F894DEBF0FBECDBF9C8F8B8F5B011A017F
:103310001F830E833701C982DC0158964D915C9161
:1033200059974115510509F0E5C018968D919C916A
:103330001997681779070CF0CAC11A968D919C915C
:103340001B97281639060CF0C2C18C2C912CFB015E
:1033500036E0C39EE00DF11D1124FB87EA871E169F
:103360001F060CF0B4C1C40133E0880F991F3A95D1
:10337000E1F79D878C87820D931D181619060CF0B6
:10338000A6C157968C91811103C0203B08F02F5F96
:10339000AB8DBC8DED91FC9111970284F385E02DEE
:1033A000CD012A8F09952A8DB5E02B9F900111241C
:1033B000F5013596FF87EE87BB82AA822501A90118
:1033C0004A195B09598B488BC10108969B8B8A8BE4
:1033D000E889F989E40DF51DEF58FE4D9491988721
:1033E00061013D822C82A885A0FF13C0AB8DBC8DEE
:1033F000ED91FC91B981B13031F40484F585E02D73
:103400002E813F8116C00684F785E02DEE80FF8077
:103410001AC0EE81FF816E167F06F1F0AB8DBC8D78
:10342000ED91FC91B981B13051F40484F585E02D22
:103430009301A601B2018B8D9C8D09950DC0068468
:10344000F785E02D7301840194014C815D816A81CF
:103450007B818B8D9C8D0995E885E695E887FFEF4C
:10346000CF1ADF0A2C813D81280D391D3D832C8325
:103470004A895B89C416D50609F0B5CF5FEF451AB6
:10348000550A8A819B81880D991D9B838A83AE850D
:10349000BF854A165B0609F09BCFEE81FF816E1651
:1034A0007F0609F4F2C0EB8DFC8DA081B181F9811A
:1034B000F13079F4B5016B5F7F4F5096ED91FC913F
:1034C0005197830128E030E0A1018B8D9C8D0995F7
:1034D000DCC06A857B85681979091E96ED91FC919F
:1034E0001F9773010C851D859401A1018B8D9C8D07
:1034F0000995CBC0FA0134969491329765917491F5
:10350000291BCB01B7E02B9F800D911D1124FA01DF
:10351000259134913B8B2A8BFC01459154915B831F
:103520004A83FC013296C490319654915E8732965C
:1035300014913196D4908981823058F0612E012EF9
:10354000000C7708AD2D0D2C000CBB0BB987A8879C
:1035500004C019861886612C712CAB8DBC8DED9141
:10356000FC9111970284F385E02DCD010995B98175
:103570008B2E912C689CC001699C900D789C900DBD
:103580001124FC01EA0DFB1DFD87EC871C82712CC8
:10359000612CE12F110FFF0B95012E0F3F1F3B8771
:1035A0002A87AC0CB11CA5014E0F5F1F5F8B4E8BA1
:1035B000C1018D0D911DD7FC9A95998F888F4E85ED
:1035C000641608F062C0862D90E048855985480F42
:1035D000591F489D9001499D300D589D300D112473
:1035E000D901A20DB31DB98BA88BAA84BB844C84CE
:1035F0005D84DC80BA85DB1AE88DF98DE80FF91F50
:10360000FD8BEC8B8D2D8A0D2E893F89A216B3067A
:10361000B9F1877061F48A819B810196EA89FB89FF
:10362000AA81BB81EA0FFB1F74909B838A8377FE7C
:1036300020C0AB8DBC8DED91FC91B981B13061F4AE
:103640000484F585E02D2E813F814C895D89B5018B
:103650008B8D9C8D09950DC00684F785E02DEE803D
:10366000FF808401940148895989B2018B8D9C8D1A
:103670000995770CEFEFAE1ABE0A480C591CC2CF61
:103680003C813C0D3C8363949ACFAB8DBC8DED9116
:10369000FC9111970688F789E02DCD016C960FB645
:1036A000F894DEBF0FBECDBFDF91CF911F910F9178
:1036B000FF90EF90DF90CF90BF90AF909F908F9052
:1036C0007F906F905F904F903F902F9009946C96F1
:1036D0000FB6F894DEBF0FBECDBFDF91CF911F9123
:1036E0000F91FF90EF90DF90CF90BF90AF909F90A1
:1036F0008F907F906F905F904F903F902F900895A4
:10370000AF92BF92CF92EF92FF920F931F93CF93FE
:10371000DF93EC01262F888D998D009709F040C02A
:103720006A3059F41D861C862C898E859F8538E069
:10373000239F800D911D112441C06D3009F4AAC052
:103740008E898823C1F03C898C859D8546E0349F15
:10375000800D911D112448855985481759075CF43F
:103760001D861C868E859F8548E0349F800D911DA7
:1037700011249F878E87EA88FB88088919894E85DE
:103780005F856C857D85CC88CE010E946A192C8965
:103790008C859D8536E0239F800D911D112442C0AC
:1037A0006A3079F41D861C862C89FC013696E491DA
:1037B0008E859F852E9F800D911D11249F878E875A
:1037C00069C06D3009F466C0FC013496349163170A
:1037D00008F460C03196E491E61708F45BC0FC0180
:1037E0003296A590B490462F50E0431B510937E024
:1037F000349FB001359F700D1124A60EB71EF50140
:10380000329634913196E491332311F0E1110DC0D9
:10381000F5013496E4912C898C859D85E29F800D7D
:10382000911D11249D878C8735C0F50135964491F3
:103830005E89552311F16C89E32FF0E0E40FF11D4F
:1038400047FDFA956E9FD0016F9FB00D11244C85F6
:103850005D854A0F5B1FE885F985E417F5076CF471
:103860001D861C86FC013696E4918E859F856E9F91
:10387000800D911D11249F878E87EA88FB88088917
:1038800019894E855F856C857D85CC88CE010E9427
:103890006A19BECF81E090E0DF91CF911F910F9127
:1038A000FF90EF90CF90BF90AF9008956F927F926E
:1038B0008F929F92AF92BF92CF92DF92EF92FF9240
:1038C0000F931F93CF93DF93EC014B015A016901D2
:1038D0003801E881F9810284F385E02D0995E881BA
:1038E000F9810288F389E02D87019601A501B401D1
:1038F000CE010995E881F981A501460D571D41507A
:1039000051090288F389E02D9601B401CE01099591
:10391000E881F9810088F189E02D9301A501B401C6
:10392000CE010995E881F981C80CD91CB601615016
:1039300071090088F189E02D9301A501CE01099557
:10394000E881F9810688F789E02DCE01DF91CF91DA
:103950001F910F91FF90EF90DF90CF90BF90AF90AD
:103960009F908F907F906F900994CF92DF92EF920B
:10397000FF920F931F93CF93DF9300D000D000D01E
:10398000CDB7DEB76C01DC01ED91FC9162177307D6
:1039900089F4041715072CF4942F852FA801092FFB
:1039A000182F041B150B98012F5F3F4F048CF58DCA
:1039B000E02D12C04017510709F5261737072CF4E0
:1039C000962F872FB901292F382F261B370B2F5FF2
:1039D0003F4F068CF78DE02D8701C601099526968D
:1039E0000FB6F894DEBF0FBECDBFDF91CF911F9110
:1039F0000F91FF90EF90DF90CF9008950284F385B0
:103A0000E02D2D833E834B835C8369837A83099504
:103A1000D601ED91FC910488F589E02D2D813E8140
:103A20004B815C8169817A81C6010995D601ED914E
:103A3000FC910688F789E02DC60126960FB6F8940A
:103A4000DEBF0FBECDBFDF91CF911F910F91FF90D1
:103A5000EF90DF90CF900994EF92FF920F931F9316
:103A6000DC01ED91FC9111971A960D911C911B9719
:103A700018962D913C91199700A0F1A1E02D7B01A2
:103A800040E050E060E070E009951F910F91FF90D9
:103A9000EF9008954F925F926F927F928F929F92D4
:103AA000AF92BF92CF92DF92EF92FF920F931F934C
:103AB000CF93DF9300D0CDB7DEB76C015A01390147
:103AC0004801DC01ED91FC910284F385E02D6983CE
:103AD0007A8309956981462E7A81572E640C751C6C
:103AE000D601ED91FC91461457046CF40088F189DD
:103AF000E02D87019401A501B201C6010995BFEF30
:103B00004B1A5B0AEDCF0688F789E02DC6010F90AE
:103B10000F90DF91CF911F910F91FF90EF90DF9069
:103B2000CF90BF90AF909F908F907F906F905F905D
:103B30004F900994AF92BF92CF92DF92EF92FF9293
:103B40000F931F93CF93DF9300D000D0CDB7DEB794
:103B50005C016901DC01ED91FC910284F385E02DAB
:103B60004B835C8369837A830995D501ED91FC9140
:103B700069817A819B012C0D3D1D215031090488FA
:103B8000F589E02D78014B815C818A01C501099599
:103B9000D501ED91FC910688F789E02DC5010F90C4
:103BA0000F900F900F90DF91CF911F910F91FF9089
:103BB000EF90DF90CF90BF90AF900994AF92BF92FB
:103BC000CF92DF92EF92FF920F931F93CF93DF93E9
:103BD00000D000D0CDB7DEB75C016901DC01ED910A
:103BE000FC910284F385E02D4B835C8369837A83A7
:103BF0000995D501ED91FC914B815C81C40ED51ED8
:103C0000B1E0CB1AD1080488F589E02D780186014E
:103C100069817A819B01C5010995D501ED91FC91DE
:103C20000688F789E02DC5010F900F900F900F9037
:103C3000DF91CF911F910F91FF90EF90DF90CF9088
:103C4000BF90AF9009940895EF92FF920F931F9346
:103C5000DC01ED91FC9100A0F1A1E02D09951F91EF
:103C60000F91FF90EF9008950F931F93DC01ED915A
:103C7000FC91068CF78DE02D09951F910F91089509
:103C80000F931F93DC01ED91FC91048CF58DE02DD9
:103C900009951F910F910895DC01ED91FC9100842D
:103CA000F185E02D099408952F923F924F925F92F3
:103CB0006F927F928F929F92AF92BF92CF92DF923C
:103CC000EF92FF920F931F93CF93DF9300D01F9239
:103CD000CDB7DEB74C017B836A836A0159011701B6
:103CE0009801241B350B37FF03C03195219531090D
:103CF000C5014A815B81841B950B97FF03C0919599
:103D00008195910951E059838217930714F0198224
:103D10000BC09A2D8B2D5801092F182F9A818B815A
:103D2000DB82CA82C92ED82E8A819B81A816B90649
:103D30005CF49C2D8D2D6801092F182F9A818B81A1
:103D4000BB82AA82A92EB82E2501AA81BB814A1A5C
:103D50005B0A38016C187D0877FE03C0719461948A
:103D60007108720157FE03C0BFEFEB1AFB0AF5940E
:103D7000E794C016D1061CF00FEF1FEF1FC001E043
:103D800010E01CC0D401ED91FC91B9810484F5854B
:103D9000E02D9101BB23C1F04A815B81B601C401D2
:103DA0000995E618F708F7FE04C0C00ED11EE40C12
:103DB000F51CEA81FB813196FB83EA834A815B81B2
:103DC000A416B506FCF604C0A6016A817B81E7CF84
:103DD0000F900F900F90DF91CF911F910F91FF9057
:103DE000EF90DF90CF90BF90AF909F908F907F909B
:103DF0006F905F904F903F902F900895089580E0CE
:103E000090E008952F923F924F925F927F928F920F
:103E10009F92AF92BF92CF92DF92EF92FF920F9359
:103E20001F93CF93DF93CDB7DEB728970FB6F894E3
:103E3000DEBF0FBECDBF1C012B014A0159011C83FF
:103E40000B83C901079697FD07969C0193E0359572
:103E500027959A95E1F73A832983C12CD12C00E06C
:103E600010E0EB81FC810E171F070CF03CC0188698
:103E70001F82F801E40DF51DFE83ED832F81388547
:103E80002A153B054CF58F81988587709927892BDA
:103E900011F0770C0EC0EF81F885F7FD379683E0BF
:103EA000F595E7958A95E1F7EC0DFD1DE80DF91DF7
:103EB000749077FE0BC097014D815E816F8178858C
:103EC000620D731D88E592E00E948A158F819885A6
:103ED000019698878F83D2CF0F5F1F4F89819A8178
:103EE000C80ED91EBECF28960FB6F894DEBF0FBEFF
:103EF000CDBFDF91CF911F910F91FF90EF90DF9099
:103F0000CF90BF90AF909F908F907F905F904F9099
:103F10003F902F9008950E947722FC0181A187FF96
:103F20001EC0428D538D648D758D20E080E092E13E
:103F3000AAE7B0E0481759076A077B0740F4B6952F
:103F4000A795979587952F5F2630A1F727E091E0F9
:103F50009227892F806A869591708CBD9DBD91A90D
:103F600004A4F5A5E02D8081282F30E0892F90E072
:103F70008095909582239323808308951F920F92BA
:103F80000FB60F9211242F933F938F939F93AF936C
:103F9000BF938091930290919402A0919502B09169
:103FA00096023091920223E0230F2D3720F40196E0
:103FB000A11DB11D05C026E8230F0296A11DB11D4C
:103FC000209392028093930290939402A09395027F
:103FD000B09396028091970290919802A0919902D5
:103FE000B0919A020196A11DB11D80939702909302
:103FF0009802A0939902B0939A02BF91AF919F91BA
:104000008F913F912F910F900FBE0F901F90189599
:10401000A8E5B2E013961C921E92129720EF30E0B2
:1040200015963C932E93149780E491E017969C93F9
:104030008E93169719963C932E9318971B969C93E4
:104040008E931A9755961C9255971D961C921E9208
:104050001C971F961C921E921E9781E054968C937B
:1040600054972FEF3FEF53963C932E9352975196D0
:104070003C932E93509756968C93569757961C9236
:10408000579759961C921E925897D3961C92D39785
:10409000D4961C92D497D6961C921E92D597D896F9
:1040A0001C921E92D7978AE05E968C935E9789E069
:1040B0005F968C935F978FEF90968C9390979196E5
:1040C0008C93919792968C93929793968C939397C7
:1040D0005A961D921D921D921C925D9799961C9264
:1040E0001E929897D0961C92D09795961C921E92ED
:1040F00094979E961C929E9797961C921E929697C6
:104100009F961C929F97EDEFF6E2E491F0E0EE0FA0
:10411000FF1FE651F94D859194919B969C938E9348
:104120009A97E1E1F7E2E491D296EC93D297EEEF21
:10413000F6E2E491F0E0EE0FFF1FE651F94D8591B4
:1041400094919D969C938E939C97E2E1F7E2E49183
:10415000D196EC93D1978CE292E08D939C93089545
:10416000CF93DF93CDB7DEB7C259D1090FB6F8941C
:10417000DEBF0FBECDBF789484B5826084BD84B5A8
:10418000816084BD85B5826085BD85B5816085BD52
:1041900080916E00816080936E001092810080910A
:1041A0008100826080938100809181008160809392
:1041B0008100809180008160809380008091B100B7
:1041C00084608093B1008091B00081608093B000E2
:1041D00080917A00846080937A0080917A00826076
:1041E00080937A0080917A00816080937A00809138
:1041F0007A00806880937A001092C10040E050E01D
:10420000BA0188E592E00E94411861E088E592E0F9
:104210000E94F5176AE4A62EB12C4E0125E9820E04
:10422000911C60E070E088E592E00E942C1D5AEB42
:10423000E52E56EDF52E00EF10E021E131E048E6E5
:1042400050E060E070E080E090E00E94021FC12C2E
:10425000D12C0E94C721B5010E943A22FE0131965D
:10426000219131912817390721F0E815F905C1F797
:1042700019C021E0C21AD1083FEFC31AD30A83E361
:10428000C816D10434F342E950E060E370E0CE0197
:1042900001960E947C2260E177E280E090E00E943B
:1042A0009B14BFCFFC01EE0FFF1F21E030E02C0F6D
:1042B0003D1FE20FF31F91838083880F991F880FA2
:1042C000991FFC01EC5FFE4F8081918162817381B7
:1042D0008631910588F26F31710570F242E2E42E69
:1042E00042EBF42E03E110E023E130E048E351E239
:1042F0000E94021FC1CF8F929F92AF92BF92CF9226
:10430000DF92EF92FF92CF93DF93EC016881798186
:104310008A819B81611571058105910521F464E213
:1043200079ED8BE597E02DE133EF41E050E00E941D
:10433000D72149015A019B01AC01A7EAB1E40E94CF
:10434000F6216B017C01ACEEB4EFA50194010E9453
:104350000422DC01CB018C0D9D1DAE1DBF1DB7FFDE
:1043600003C00197A109B04888839983AA83BB83BE
:104370009F77DF91CF91FF90EF90DF90CF90BF902C
:10438000AF909F908F9008950E947B21089580E0C8
:1043900091E00E947B210895A0E0B0E080930001AD
:1043A00090930101A0930201B09303010895052E9B
:1043B00097FB1EF400940E94EE2157FD07D00E9447
:1043C000092207FC03D04EF40C94EE215095409541
:1043D000309521953F4F4F4F5F4F089590958095B1
:1043E000709561957F4F8F4F9F4F08950E942B22AC
:1043F000A59F900DB49F900DA49F800D911D112439
:104400000895B7FF0C94F6210E94F621821B930BAE
:104410000895A1E21A2EAA1BBB1BFD010DC0AA1F05
:10442000BB1FEE1FFF1FA217B307E407F50720F01D
:10443000A21BB30BE40BF50B661F771F881F991F98
:104440001A9469F760957095809590959B01AC01E1
:10445000BD01CF010895A29FB001B39FC001A39FEA
:10446000700D811D1124911DB29F700D811D1124AD
:10447000911D089597FB072E16F4009407D077FD41
:1044800009D00E945D2207FC05D03EF490958195ED
:104490009F4F0895709561957F4F08950E942B223C
:1044A000332312F48A1B9B0B0C9458220E942B225C
:1044B000B7FF0895821B930B0895AA1BBB1B51E104
:1044C00007C0AA1FBB1FA617B70710F0A61BB70B84
:1044D000881F991F5A95A9F780959095BC01CD0129
:1044E0000895EE0FFF1F0590F491E02D099481E0EF
:1044F00090E0F8940C948322DC0101C06D9341504C
:0A4500005040E0F70895F894FFCF53
:10450A00010000001600490016005E001600730044
:10451A001600880016009D001600B2001600C7009B
:10452A002B0049002B0073002B009D002B00C700B5
:10453A0040001F00400034004000490040005E0077
:10454A00400073004000880040009D004000B20017
:10455A004000C70055001F00550049005500730070
:10456A0055009D005500C7006A001F006A0034000C
:10457A006A0049006A005E006A0073006A008800E7
:10458A006A009D006A00B2006A00C7007F001F002F
:10459A007F0049007F0073007F009D007F00C700F5
:1045AA0094001F00940034009400490094005E00B7
:1045BA00940073009400880094009D009400B20057
:1045CA009400C700A9001F00A9004900A9007300B0
:1045DA00A9009D00A900C700BE001F00BE0034004C
:1045EA00BE004900BE005E00BE007300BE00880027
:1045FA00BE009D00BE00B200BE00C700D3001F006F
:10460A00D3004900D3007300D3009D00E8001F00C7
:10461A00E8003400E8004900E8005E00E8007300A2
:10462A00E8008800E8009D0000000000801BC3131A
:10463A00FF1EFE1E8A158D1FBF162D16D415C11515
:10464A00541EE815F517CF174F151415D5142C1D40
:08465A00B51C561C41181E1787
:00000001FF
