:100000000C9428150C9450150C9450150C94501504
:100010000C9450150C9450150C9450150C945015CC
:100020000C9450150C9450150C9450150C945015BC
:100030000C9450150C94FF1B0C9450150C945015F7
:100040000C94CC260C9450150C9406290C94E028A2
:100050000C9450150C9450150C9450150C9450158C
:100060000C94D11A0C9450150030000163000D6EF1
:10007000000CF700076E0006EC000E4E006F4C00FF
:10008000793C00093E007E0F403E07400E03802C65
:1000900003803C03000E030006060003FC00000082
:1000A00000000000000000000000010800009000B7
:1000B00001100001B00000B00006C00006C0000141
:1000C000F00001D80001CC0003C4000384000184C7
:1000D0000001C80000000000000000000000000057
:1000E0000000000000000000000000000000000010
:1000F00000000000000000000000000020000030B0
:100100000000380000780000780000300000000097
:10011000000000FFF9E0FFF9E0FFF9E0FFF9E0FF80
:10012000F9E0000000000000F3FFE0F3FFE0F3FF60
:10013000E0F3FFE0F3FFE0000000000000FFE7E075
:10014000FFE7E0FFE7E0FFE7E0FFE7E0480000301F
:100150000000780000000000000000000000000027
:10016000000000000000000000000000000000008F
:10017000000000000000000000000000000000007F
:10018000000000000000000000000000000000006F
:100190000000000002FC0002FE000DFF0003FF80D3
:1001A0000FFF800FFF800FFF800FFF800FFF800782
:1001B000FF0003FE0001FC00000000000000000042
:1001C000003000003000003000003BFC001D020049
:1001D0000D01001200801C00401000401000401073
:1001E000004010004010004008008004010002029E
:1001F0000001FC0000000000000000003E5B4F5BBF
:100200003E3E6B4F6B3E1C3E7C3E1C183C7E3C18B9
:100210001C577D571C1C5E7F5E1C00183C1800FF9D
:10022000E7C3E7FF0018241800FFE7DBE7FF3048CB
:100230003A060E2629792926407F050507407F05C5
:10024000253F5A3CE73C5A7F3E1C1C08081C1C3EBC
:100250007F14227F22145F5F005F5F06097F017FAA
:10026000006689956A606060606094A2FFA294084D
:10027000047E040810207E201008082A1C08081C90
:100280002A08081E101010100C1E0C1E0C30383ED0
:100290003830060E3E0E06000000000000005F0031
:1002A000000007000700147F147F14242A7F2A12FD
:1002B00023130864623649562050000807030000E3
:1002C0001C2241000041221C002A1C7F1C2A080815
:1002D0003E08080080703000080808080800006028
:1002E000600020100804023E5149453E00427F4014
:1002F0000072494949462141494D331814127F1073
:1003000027454545393C4A494931412111090736BC
:1003100049494936464949291E0000140000004059
:100320003400000008142241141414141400412253
:10033000140802015909063E415D594E7C12111202
:100340007C7F494949363E414141227F4141413EFE
:100350007F494949417F090909013E414151737F64
:100360000808087F00417F41002040413F017F088D
:100370001422417F404040407F021C027F7F0408DE
:10038000107F3E4141413E7F090909063E4151210E
:100390005E7F09192946264949493203017F010335
:1003A0003F4040403F1F2040201F3F4038403F63B8
:1003B0001408146303047804036159494D43007F12
:1003C0004141410204081020004141417F040201E3
:1003D0000204404040404000030708002054547885
:1003E000407F284444383844444428384444287FD3
:1003F000385454541800087E090218A4A49C787F2D
:100400000804047800447D40002040403D007F10F7
:1004100028440000417F40007C047804787C080474
:1004200004783844444438FC182424181824241828
:10043000FC7C08040408485454542404043F442415
:100440003C4040207C1C2040201C3C4030403C4430
:10045000281028444C9090907C4464544C440008EC
:10046000364100000077000000413608000201021A
:1004700004023C2623263C1EA1A161123A404020E2
:100480007A3854545559215555794122545478425B
:10049000215554784020545579400C1E527212391F
:1004A00055555559395454545939555454580000D8
:1004B000457C410002457D420001457C407D121192
:1004C000127DF0282528F07C545545002054547C9A
:1004D000547C0A097F4932494949323A4444443AF2
:1004E000324A4848303A4141217A3A424020780025
:1004F0009DA0A07D3D4242423D3D4040403D3C24C8
:10050000FF2424487E4943662B2FFC2F2BFF09290B
:10051000F620C0887E090320545479410000447DB0
:10052000413048484A32384040227A007A0A0A72FA
:100530007D0D19317D2629292F28262929292630A4
:10054000484D4020380808080808080808382F10C7
:10055000C8ACBA2F102834FA00007B000008142A17
:10056000142222142A14085500550055AA55AA55DC
:10057000AAFF55FF55FF000000FF00101010FF00FC
:10058000141414FF001010FF00FF1010F010F014EE
:100590001414FC001414F700FF0000FF00FF1414F3
:1005A000F404FC141417101F10101F101F1414143F
:1005B0001F00101010F0000000001F101010101F7E
:1005C00010101010F010000000FF1010101010108C
:1005D000101010FF10000000FF140000FF00FF00CB
:1005E000001F10170000FC04F41414171017141443
:1005F000F404F40000FF00F714141414141414F796
:1006000000F7141414171410101F101F141414F4EE
:10061000141010F010F000001F101F0000001F1435
:10062000000000FC140000F010F01010FF10FF1488
:100630001414FF141010101F00000000F010FFFF32
:10064000FFFFFFF0F0F0F0F0FFFFFF000000000000
:10065000FFFF0F0F0F0F0F3844443844FC4A4A4A3B
:10066000347E02020606027E027E02635549416321
:100670003844443C04407E201E2006027E0202993B
:10068000A5E7A5991C2A492A1C4C7201724C304AD4
:100690004D4D303048784830BC625A463D3E49495D
:1006A00049007E0101017E2A2A2A2A2A44445F4405
:1006B0004440514A444040444A51400000FF010335
:1006C000E080FF000008086B6B08361236243606FF
:1006D0000F090F060000181800000010100030402D
:1006E000FF0101001F01011E00191D1712003C3CF3
:1006F0003C3C000000000000000000000000000082
:1007000000000000000000000000000000000000E9
:1007100000000000000000000000000000000000D9
:1007200000000000000000000000000000000000C9
:1007300000000000000000000000000000000000B9
:1007400000000000000000000000000000000000A9
:100750000000000000000000000000000000000099
:100760000000000000000000000000000000000089
:100770000000000000000000000000000000000079
:100780000000000000000000000000000000000069
:100790000000000000000000000000000000000059
:1007A0000000000000000000000000000000000049
:1007B0000000000000000000000000000000000039
:1007C0000000000000000000000000000000000029
:1007D0000000000000000000000000000000000019
:1007E0000000000000000000000000000000000009
:1007F00000000000000000000000000000000000F9
:1008000000000000000000000000000000000000E8
:1008100000000000000000000000000000000000D8
:1008200000000000000000000000000000000000C8
:1008300000000000000000000000000000000000B8
:1008400000000000000000000000000000000000A8
:1008500000000000007FFFF3FFFF9FFFFCFFFFE7AA
:10086000FFFF3FFFF9FFFFCFFFFE7FFFF3FFFF9F7B
:10087000FFFCFFFFE7FFFF007FFFF3FFFF9FFFFC91
:10088000FFFFE7FFFF3FFFF9FFFFCFFFFE7FFFF313
:10089000FFFF9FFFFCFFFFE7FFFF007FFFF3FFFF6E
:1008A0009FFFFCFFFFE7FFFF3FFFF9FFFFCFFFFECA
:1008B0007FFFF3FFFF9FFFFCFFFFE7FFFF007FFFCE
:1008C000F3FFFF9FFFFCFFFFE7FFFF3FFFF9FFFF85
:1008D000CFFFFE7FFFF3FFFF9FFFFCFFFFE7FFFF60
:1008E000007FFFF3FFFF9FFFFCFFFFE7FFFF3FFFDE
:1008F000F9FFFFCFFFFE7FFFF3FFFF9FFFFCFFFF2E
:10090000E7FFFF007FFFF3FFFF9FFFFCFFFFE7FF15
:10091000FF3FFFF9FFFFCFFFFE7FFFF3FFFF9FFFCA
:10092000FCFFFFE7FFFF007FFFF3FFFF9FFFFCFFE0
:10093000FFE7FFFF3FFFF9FFFFCFFFFE7FFFF3FF62
:10094000FF9FFFFCFFFFE7FFFF007FFFF3FFFF9F1D
:10095000FFFCFFFFE7FFFF3FFFF9FFFFCFFFFE7F39
:10096000FFF3FFFF9FFFFCFFFFE7FFFF007FFFF3A9
:10097000FFFF9FFFFCFFFFE7FFFF3FFFF9FFFFCFF8
:10098000FFFE7FFFF3FFFF9FFFFCFFFFE7FFFF007E
:100990007FFFF3FFFF9FFFFCFFFFE7FFFF3FFFF934
:1009A000FFFFCFFFFE7FFFF3FFFF9FFFFCFFFFE78F
:1009B000FFFF007FFFF3FFFF9FFFFCFFFFE7FFFF4D
:1009C0003FFFF9FFFFCFFFFE7FFFF3FFFF9FFFFC1D
:1009D000FFFFE7FFFF007FFFF3FFFF9FFFFCFFFF2D
:1009E000E7FFFF3FFFF9FFFFCFFFFE7FFFF3FFFFB2
:1009F0009FFFFCFFFFE7FFFF007FFFF3FFFF9FFF6D
:100A0000FCFFFFE7FFFF3FFFF9FFFFCFFFFE7FFF88
:100A1000F3FFFF9FFFFCFFFFE7FFFF007FFFF3FFF8
:100A2000FF9FFFFCFFFFE7FFFF3FFFF9FFFFCFFF47
:100A3000FE7FFFF3FFFF9FFFFCFFFFE7FFFF007F4D
:100A4000FFF3FFFF9FFFFCFFFFE7FFFF3FFFF9FF03
:100A5000FFCFFFFE7FFFF3FFFF9FFFFCFFFFE7FFDE
:100A6000FF007FFFF3FFFF9FFFFCFFFFE7FFFF3F5C
:100A7000FFF9FFFFCFFFFE7FFFF3FFFF9FFFFCFFAC
:100A8000FFE7FFFF007FFFF3FFFF9FFFFCFFFFE794
:100A9000FFFF3FFFF9FFFFCFFFFE7FFFF3FFFF9F49
:100AA000FFFCFFFFE7FFFF007FFFF3FFFF9FFFFC5F
:100AB000FFFFE7FFFF3FFFF9FFFFCFFFFE7FFFF3E1
:100AC000FFFF9FFFFCFFFFE7FFFF007FFFF3FFFF3C
:100AD0009FFFFCFFFFE7FFFF3FFFF9FFFFCFFFFE98
:100AE0007FFFF3FFFF9FFFFCFFFFE7FFFF0000001A
:100AF00000000000000000000000000000000000F6
:100B000000000000000000000000000000000000E5
:100B100000000000000000000000000000000000D5
:100B200000000000000000000000000000000000C5
:100B3000000000007FFFF000000000000000000047
:100B400000000000000000000000000000000000A5
:100B500000000007FFFF007FFFF000000000000022
:100B60000000000000000000000000000000000085
:100B700000000000000007FFFF007FFFF000000002
:100B80000000000000000000000000000000000065
:100B900000000000000000000007FFFF007FFFF0E2
:100BA0000000000000000000000000000000000045
:100BB00000000000000000000000000007FFFF0030
:100BC0007FFFF000000000000000000000000000B7
:100BD000000000000000000000000000000000070E
:100BE000FFFF007FFFF00000000000000000000099
:100BF00000000000000000000000000000000000F5
:100C0000000007FFFF007FFFF00000000000000071
:100C100000000000000000000000000000000000D4
:100C2000000000000007FFFF007FFFF00000000051
:100C300000000000000000000000000000000000B4
:100C4000000000000000000007FFFF007FFFF00031
:100C50000000000000000000000000000000000094
:100C6000000000000000000000000007FFFF007F00
:100C7000FFF0000000000000000000000000000085
:100C8000000000000000000000000000000007FF5E
:100C9000FF007FFFF00000000000000000000000E7
:100CA0000000000000000000000000000000000044
:100CB0000007FFFF007FFFF00000000000000000C1
:100CC0000000000000000000000000000000000024
:100CD0000000000007FFFF007FFFF00000000000A1
:100CE0000000000000000000000000000000000004
:100CF0000000000000000007FFFF007FFFF0000081
:100D000000000000000000000000000000000000E3
:100D10000000000000000000000007FFFF007FFF50
:100D2000F0000000000000000000000000000000D3
:100D30000000000000000000000000000007FFFFAE
:100D4000007FFFF000000000000000000000000035
:100D50000000000000000000000000000000000093
:100D600007FFFF007FFFF000000000000000000010
:100D70000000000000000000000000000000000073
:100D800000000007FFFF007FFFF0000000000000F0
:100D90000000000000000000000000000000000053
:100DA00000000000000007FFFF007FFFF0000000D0
:100DB0000000000000000000000000000000000033
:100DC00000000000000000000007FFFF000000001E
:100DD0000000000000000000000000000000000013
:100DE0000000000000000000000000000000000003
:100DF00000000000000000000000000000000000F3
:100E000000000000000000000000000000000000E2
:100E10000000007FFFF000001FFFFC000007FFFF45
:100E2000000001FFFFC000007FFFF000001FFFFC7B
:100E3000000007FFFF007FFFF000001FFFFC000025
:100E400007FFFF000001FFFFC000007FFFF0000070
:100E50001FFFFC000007FFFF007FFFF000001FFFE7
:100E6000FC000007FFFF000001FFFFC000007FFF44
:100E7000F000001FFFFC000007FFFF007FFFF000F5
:100E8000001FFFFC000007FFFF000001FFFFC00084
:100E9000007FFFF000001FFFFC000007FFFF007F46
:100EA000FFF000001FFFFC000007FFFF000001FF34
:100EB000FFC000007FFFF000001FFFFC000007FFE5
:100EC000FF007FFFF000001FFFFC000007FFFF0096
:100ED0000001FFFFC000007FFFF000001FFFFC00CB
:100EE0000007FFFF007FFFF000001FFFFC0000076E
:100EF000FFFF000001FFFFC000007FFFF000001FA8
:100F0000FFFC000007FFFF007FFFF000001FFFFC59
:100F1000000007FFFF000001FFFFC000007FFFF09F
:100F200000001FFFFC000007FFFF007FFFF0000034
:100F30001FFFFC000007FFFF000001FFFFC00000D3
:100F40007FFFF000001FFFFC000007FFFF007FFF96
:100F5000F000001FFFFC000007FFFF000001FFFF83
:100F6000C000007FFFF000001FFFFC000007FFFF34
:100F7000007FFFF000001FFFFC000007FFFF0000E4
:100F800001FFFFC000007FFFF000001FFFFC00001A
:100F900007FFFF007FFFF000001FFFFC000007FFBE
:100FA000FF000001FFFFC000007FFFF000001FFFF7
:100FB000FC000007FFFF007FFFF000001FFFFC00A8
:100FC0000007FFFF000001FFFFC000007FFFF000EF
:100FD000001FFFFC000007FFFF007FFFF000001F65
:100FE000FFFC000007FFFF000001FFFFC000007FC3
:100FF000FFF000001FFFFC000007FFFF007FFFF075
:1010000000001FFFFC000007FFFF000001FFFFC002
:1010100000007FFFF000001FFFFC000007FFFF0043
:101020007FFFF000001FFFFC000007FFFF00000132
:10103000FFFFC000007FFFF000001FFFFC00000763
:10104000FFFF007FFFF000001FFFFC000007FFFF15
:10105000000001FFFFC000007FFFF000001FFFFC49
:10106000000007FFFF007FFFF000001FFFFC0000F3
:1010700007FFFF000001FFFFC000007FFFF000003E
:101080001FFFFC000007FFFF007FFFF000001FFFB5
:10109000FC000007FFFF000001FFFFC000007FFF12
:1010A000F000001FFFFC000007FFFF000000000031
:1010B0000000000000000000000000000000000030
:1010C0000000000000000000000000000000000020
:1010D0000000000000000000000000000000000010
:1010E0000000000000000000000000000000000000
:1010F00000007FFFF0000000000000000000000082
:1011000000000000000000000000000000000000DF
:101110000007FFFF007FFFF000000000000000005C
:1011200000000000000000000000000000000000BF
:101130000000000007FFFF007FFFF000000000003C
:10114000000000000000000000000000000000009F
:101150000000000000000007FFFF007FFFF000001C
:10116000000000000000000000000000000000007F
:101170000000000000000000000007FFFF007FFFEC
:10118000F00000000000000000000000000000006F
:101190000000000000000000000000000007FFFF4A
:1011A000007FFFF0000000000000000000000000D1
:1011B000000000000000000000000000000000002F
:1011C00007FFFF007FFFF0000000000000000000AC
:1011D000000000000000000000000000000000000F
:1011E00000000007FFFF007FFFF00000000000008C
:1011F00000000000000000000000000000000000EF
:1012000000000000000007FFFF007FFFF00000006B
:1012100000000000000000000000000000000000CE
:1012200000000000000000000007FFFF007FFFF04B
:1012300000000000000000000000000000000000AE
:1012400000000000000000000000000007FFFF0099
:101250007FFFF00000000000000000000000000020
:101260000000000000000000000000000000000777
:10127000FFFF007FFFF00000000000000000000002
:10128000000000000000000000000000000000005E
:10129000000007FFFF007FFFF000000000000000DB
:1012A000000000000000000000000000000000003E
:1012B000000000000007FFFF007FFFF000000000BB
:1012C000000000000000000000000000000000001E
:1012D000000000000000000007FFFF007FFFF0009B
:1012E00000000000000000000000000000000000FE
:1012F000000000000000000000000007FFFF007F6A
:10130000FFF00000000000000000000000000000EE
:10131000000000000000000000000000000007FFC7
:10132000FF007FFFF0000000000000000000000050
:1013300000000000000000000000000000000000AD
:101340000007FFFF007FFFF000000000000000002A
:10135000000000000000000000000000000000008D
:101360000000000007FFFF007FFFF000000000000A
:10137000000000000000000000000000000000006D
:101380000000000000000007FFFF00000000000058
:10139000000000000000000000000000000000004D
:1013A000000000000000000000000000000000003D
:1013B000000000000000000000000000000000002D
:1013C000000000000000000000000000000000001D
:1013D000007FFFF000001FFFFC000007FFFF000080
:1013E00001FFFFC000007FFFF000001FFFFC0000B6
:1013F00007FFFF007FFFF000001FFFFC000007FF5A
:10140000FF000001FFFFC000007FFFF000001FFF92
:10141000FC000007FFFF007FFFF000001FFFFC0043
:101420000007FFFF000001FFFFC000007FFFF0008A
:10143000001FFFFC000007FFFF007FFFF000001F00
:10144000FFFC000007FFFF000001FFFFC000007F5E
:10145000FFF000001FFFFC000007FFFF007FFFF010
:1014600000001FFFFC000007FFFF000001FFFFC09E
:1014700000007FFFF000001FFFFC000007FFFF00DF
:101480007FFFF000001FFFFC000007FFFF000001CE
:10149000FFFFC000007FFFF000001FFFFC000007FF
:1014A000FFFF007FFFF000001FFFFC000007FFFFB1
:1014B000000001FFFFC000007FFFF000001FFFFCE5
:1014C000000007FFFF007FFFF000001FFFFC00008F
:1014D00007FFFF000001FFFFC000007FFFF00000DA
:1014E0001FFFFC000007FFFF007FFFF000001FFF51
:1014F000FC000007FFFF000001FFFFC000007FFFAE
:10150000F000001FFFFC000007FFFF007FFFF0005E
:10151000001FFFFC000007FFFF000001FFFFC000ED
:10152000007FFFF000001FFFFC000007FFFF007FAF
:10153000FFF000001FFFFC000007FFFF000001FF9D
:10154000FFC000007FFFF000001FFFFC000007FF4E
:10155000FF007FFFF000001FFFFC000007FFFF00FF
:101560000001FFFFC000007FFFF000001FFFFC0034
:101570000007FFFF007FFFF000001FFFFC000007D7
:10158000FFFF000001FFFFC000007FFFF000001F11
:10159000FFFC000007FFFF007FFFF000001FFFFCC3
:1015A000000007FFFF000001FFFFC000007FFFF009
:1015B00000001FFFFC000007FFFF007FFFF000009E
:1015C0001FFFFC000007FFFF000001FFFFC000003D
:1015D0007FFFF000001FFFFC000007FFFF007FFF00
:1015E000F000001FFFFC000007FFFF000001FFFFED
:1015F000C000007FFFF000001FFFFC000007FFFF9E
:10160000007FFFF000001FFFFC000007FFFF00004D
:1016100001FFFFC000007FFFF000001FFFFC000083
:1016200007FFFF007FFFF000001FFFFC000007FF27
:10163000FF000001FFFFC000007FFFF000001FFF60
:10164000FC000007FFFF007FFFF000001FFFFC0011
:101650000007FFFF000001FFFFC000007FFFF00058
:10166000001FFFFC000007FFFF000000000000005B
:10167000000000000000000000000000000000006A
:10168000000000000000000000000000000000005A
:10169000000000000000000000000000000000004A
:1016A000000000000000000000000000000000003A
:1016B0007FFFF000000000000000000000000000BC
:1016C0000000000000000000000000000000000713
:1016D000FFFF007FFFF0000000000000000000009E
:1016E00000000000000000000000000000000000FA
:1016F000000007FFFF007FFFF00000000000000077
:1017000000000000000000000000000000000000D9
:10171000000000000007FFFF007FFFF00000000056
:1017200000000000000000000000000000000000B9
:10173000000000000000000007FFFF007FFFF00036
:101740000000000000000000000000000000000099
:10175000000000000000000000000007FFFF007F05
:10176000FFF000000000000000000000000000008A
:10177000000000000000000000000000000007FF63
:10178000FF007FFFF00000000000000000000000EC
:101790000000000000000000000000000000000049
:1017A0000007FFFF007FFFF00000000000000000C6
:1017B0000000000000000000000000000000000029
:1017C0000000000007FFFF007FFFF00000000000A6
:1017D0000000000000000000000000000000000009
:1017E0000000000000000007FFFF007FFFF0000086
:1017F00000000000000000000000000000000000E9
:101800000000000000000000000007FFFF007FFF55
:10181000F0000000000000000000000000000000D8
:101820000000000000000000000000000007FFFFB3
:10183000007FFFF00000000000000000000000003A
:101840000000000000000000000000000000000098
:1018500007FFFF007FFFF000000000000000000015
:101860000000000000000000000000000000000078
:1018700000000007FFFF007FFFF0000000000000F5
:101880000000000000000000000000000000000058
:1018900000000000000007FFFF007FFFF0000000D5
:1018A0000000000000000000000000000000000038
:1018B00000000000000000000007FFFF007FFFF0B5
:1018C0000000000000000000000000000000000018
:1018D00000000000000000000000000007FFFF0003
:1018E0007FFFF0000000000000000000000000008A
:1018F00000000000000000000000000000000007E1
:10190000FFFF007FFFF0000000000000000000006B
:1019100000000000000000000000000000000000C7
:10192000000007FFFF007FFFF00000000000000044
:1019300000000000000000000000000000000000A7
:10194000000000000007FFFF000000000000000092
:101950000000000000000000000000000000000087
:101960000000000000000000000000000000000077
:101970000000000000000000000000000000000067
:101980000000000000000000000000000000007FD8
:10199000FFF000001FFFFC000007FFFF000001FF39
:1019A000FFC000007FFFF000001FFFFC000007FFEA
:1019B000FF007FFFF000001FFFFC000007FFFF009B
:1019C0000001FFFFC000007FFFF000001FFFFC00D0
:1019D0000007FFFF007FFFF000001FFFFC00000773
:1019E000FFFF000001FFFFC000007FFFF000001FAD
:1019F000FFFC000007FFFF007FFFF000001FFFFC5F
:101A0000000007FFFF000001FFFFC000007FFFF0A4
:101A100000001FFFFC000007FFFF007FFFF0000039
:101A20001FFFFC000007FFFF000001FFFFC00000D8
:101A30007FFFF000001FFFFC000007FFFF007FFF9B
:101A4000F000001FFFFC000007FFFF000001FFFF88
:101A5000C000007FFFF000001FFFFC000007FFFF39
:101A6000007FFFF000001FFFFC000007FFFF0000E9
:101A700001FFFFC000007FFFF000001FFFFC00001F
:101A800007FFFF007FFFF000001FFFFC000007FFC3
:101A9000FF000001FFFFC000007FFFF000001FFFFC
:101AA000FC000007FFFF007FFFF000001FFFFC00AD
:101AB0000007FFFF000001FFFFC000007FFFF000F4
:101AC000001FFFFC000007FFFF007FFFF000001F6A
:101AD000FFFC000007FFFF000001FFFFC000007FC8
:101AE000FFF000001FFFFC000007FFFF007FFFF07A
:101AF00000001FFFFC000007FFFF000001FFFFC008
:101B000000007FFFF000001FFFFC000007FFFF0048
:101B10007FFFF000001FFFFC000007FFFF00000137
:101B2000FFFFC000007FFFF000001FFFFC00000768
:101B3000FFFF007FFFF000001FFFFC000007FFFF1A
:101B4000000001FFFFC000007FFFF000001FFFFC4E
:101B5000000007FFFF007FFFF000001FFFFC0000F8
:101B600007FFFF000001FFFFC000007FFFF0000043
:101B70001FFFFC000007FFFF007FFFF000001FFFBA
:101B8000FC000007FFFF000001FFFFC000007FFF17
:101B9000F000001FFFFC000007FFFF007FFFF000C8
:101BA000001FFFFC000007FFFF000001FFFFC00057
:101BB000007FFFF000001FFFFC000007FFFF007F19
:101BC000FFF000001FFFFC000007FFFF000001FF07
:101BD000FFC000007FFFF000001FFFFC000007FFB8
:101BE000FF007FFFF000001FFFFC000007FFFF0069
:101BF0000001FFFFC000007FFFF000001FFFFC009E
:101C00000007FFFF007FFFF000001FFFFC00000740
:101C1000FFFF000001FFFFC000007FFFF000001F7A
:101C2000FFFC000007FFFF000000000000000000B4
:101C300000000000000000000000000000000000A4
:101C40000000000000000000000000000000000094
:101C50000000000000000000000000000000000084
:101C600000000000000000000000000000007FFFF6
:101C7000F000000000000000000000000000000074
:101C80000000000000000000000000000007FFFF4F
:101C9000007FFFF0000000000000000000000000D6
:101CA0000000000000000000000000000000000034
:101CB00007FFFF007FFFF0000000000000000000B1
:101CC0000000000000000000000000000000000014
:101CD00000000007FFFF007FFFF000000000000091
:101CE00000000000000000000000000000000000F4
:101CF00000000000000007FFFF007FFFF000000071
:101D000000000000000000000000000000000000D3
:101D100000000000000000000007FFFF007FFFF050
:101D200000000000000000000000000000000000B3
:101D300000000000000000000000000007FFFF009E
:101D40007FFFF00000000000000000000000000025
:101D5000000000000000000000000000000000077C
:101D6000FFFF007FFFF00000000000000000000007
:101D70000000000000000000000000000000000063
:101D8000000007FFFF007FFFF000000000000000E0
:101D90000000000000000000000000000000000043
:101DA000000000000007FFFF007FFFF000000000C0
:101DB0000000000000000000000000000000000023
:101DC000000000000000000007FFFF007FFFF000A0
:101DD0000000000000000000000000000000000003
:101DE000000000000000000000000007FFFF007F6F
:101DF000FFF00000000000000000000000000000F4
:101E0000000000000000000000000000000007FFCC
:101E1000FF007FFFF0000000000000000000000055
:101E200000000000000000000000000000000000B2
:101E30000007FFFF007FFFF000000000000000002F
:101E40000000000000000000000000000000000092
:101E50000000000007FFFF007FFFF000000000000F
:101E60000000000000000000000000000000000072
:101E70000000000000000007FFFF007FFFF00000EF
:101E80000000000000000000000000000000000052
:101E90000000000000000000000007FFFF007FFFBF
:101EA000F000000000000000000000000000000042
:101EB0000000000000000000000000000007FFFF1D
:101EC000007FFFF0000000000000000000000000A4
:101ED0000000000000000000000000000000000002
:101EE00007FFFF007FFFF00000000000000000007F
:101EF00000000000000000000000000000000000E2
:101F000000000007FFFF00000000000000000000CC
:101F100000000000000000000000000000000000C1
:101F200000000000000000000000000000000000B1
:101F300000000000000000000000000000000000A1
:101F4000000000000000000000000000007FFFF023
:101F500000001FFFFC000007FFFF000001FFFFC0A3
:101F600000007FFFF000001FFFFC000007FFFF00E4
:101F70007FFFF000001FFFFC000007FFFF000001D3
:101F8000FFFFC000007FFFF000001FFFFC00000704
:101F9000FFFF007FFFF000001FFFFC000007FFFFB6
:101FA000000001FFFFC000007FFFF000001FFFFCEA
:101FB000000007FFFF007FFFF000001FFFFC000094
:101FC00007FFFF000001FFFFC000007FFFF00000DF
:101FD0001FFFFC000007FFFF007FFFF000001FFF56
:101FE000FC000007FFFF000001FFFFC000007FFFB3
:101FF000F000001FFFFC000007FFFF007FFFF00064
:10200000001FFFFC000007FFFF000001FFFFC000F2
:10201000007FFFF000001FFFFC000007FFFF007FB4
:10202000FFF000001FFFFC000007FFFF000001FFA2
:10203000FFC000007FFFF000001FFFFC000007FF53
:10204000FF007FFFF000001FFFFC000007FFFF0004
:102050000001FFFFC000007FFFF000001FFFFC0039
:102060000007FFFF007FFFF000001FFFFC000007DC
:10207000FFFF000001FFFFC000007FFFF000001F16
:10208000FFFC000007FFFF007FFFF000001FFFFCC8
:10209000000007FFFF000001FFFFC000007FFFF00E
:1020A00000001FFFFC000007FFFF007FFFF00000A3
:1020B0001FFFFC000007FFFF000001FFFFC0000042
:1020C0007FFFF000001FFFFC000007FFFF007FFF05
:1020D000F000001FFFFC000007FFFF000001FFFFF2
:1020E000C000007FFFF000001FFFFC000007FFFFA3
:1020F000007FFFF000001FFFFC000007FFFF000053
:1021000001FFFFC000007FFFF000001FFFFC000088
:1021100007FFFF007FFFF000001FFFFC000007FF2C
:10212000FF000001FFFFC000007FFFF000001FFF65
:10213000FC000007FFFF007FFFF000001FFFFC0016
:102140000007FFFF000001FFFFC000007FFFF0005D
:10215000001FFFFC000007FFFF007FFFF000001FD3
:10216000FFFC000007FFFF000001FFFFC000007F31
:10217000FFF000001FFFFC000007FFFF007FFFF0E3
:1021800000001FFFFC000007FFFF000001FFFFC071
:1021900000007FFFF000001FFFFC000007FFFF00B2
:1021A0007FFFF000001FFFFC000007FFFF000001A1
:1021B000FFFFC000007FFFF000001FFFFC000007D2
:1021C000FFFF007FFFF000001FFFFC000007FFFF84
:1021D000000001FFFFC000007FFFF000001FFFFCB8
:1021E000000007FFFF0000000000000000000000EA
:1021F00000000000000000000000000000000000DF
:1022000000000000000000000000000000000000CE
:1022100000000000000000000000000000000000BE
:102220000000000000000000000000007FFFF00040
:10223000000000000000000000000000000000009E
:10224000000000000000000000000007FFFF007F0A
:10225000FFF000000000000000000000000000008F
:10226000000000000000000000000000000007FF68
:10227000FF007FFFF00000000000000000000000F1
:10228000000000000000000000000000000000004E
:102290000007FFFF007FFFF00000000000000000CB
:1022A000000000000000000000000000000000002E
:1022B0000000000007FFFF007FFFF00000000000AB
:1022C000000000000000000000000000000000000E
:1022D0000000000000000007FFFF007FFFF000008B
:1022E00000000000000000000000000000000000EE
:1022F0000000000000000000000007FFFF007FFF5B
:10230000F0000000000000000000000000000000DD
:102310000000000000000000000000000007FFFFB8
:10232000007FFFF00000000000000000000000003F
:10233000000000000000000000000000000000009D
:1023400007FFFF007FFFF00000000000000000001A
:10235000000000000000000000000000000000007D
:1023600000000007FFFF007FFFF0000000000000FA
:10237000000000000000000000000000000000005D
:1023800000000000000007FFFF007FFFF0000000DA
:10239000000000000000000000000000000000003D
:1023A00000000000000000000007FFFF007FFFF0BA
:1023B000000000000000000000000000000000001D
:1023C00000000000000000000000000007FFFF0008
:1023D0007FFFF0000000000000000000000000008F
:1023E00000000000000000000000000000000007E6
:1023F000FFFF007FFFF00000000000000000000071
:1024000000000000000000000000000000000000CC
:10241000000007FFFF007FFFF00000000000000049
:1024200000000000000000000000000000000000AC
:10243000000000000007FFFF007FFFF00000000029
:10244000000000000000000000000000000000008C
:10245000000000000000000007FFFF007FFFF00009
:10246000000000000000000000000000000000006C
:10247000000000000000000000000007FFFF007FD8
:10248000FFF000000000000000000000000000005D
:10249000000000000000000000000000000007FF36
:1024A000FF007FFFF00000000000000000000000BF
:1024B000000000000000000000000000000000001C
:1024C0000007FFFF00000000000000000000000007
:1024D00000000000000000000000000000000000FC
:1024E00000000000000000000000000000000000EC
:1024F00000000000000000000000000000000000DC
:1025000000000000000000000000007FFFF3FFFF5C
:102510009FFFFCFFFFE7FFFF3FFFF9FFFFCFFFFE3D
:102520007FFFF3FFFF9FFFFCFFFFE7FFFF007FFF41
:10253000F3FFFF9FFFFCFFFFE7FFFF3FFFF9FFFFF8
:10254000CFFFFE7FFFF3FFFF9FFFFCFFFFE7FFFFD3
:10255000007FFFF3FFFF9FFFFCFFFFE7FFFF3FFF51
:10256000F9FFFFCFFFFE7FFFF3FFFF9FFFFCFFFFA1
:10257000E7FFFF007FFFF3FFFF9FFFFCFFFFE7FF89
:10258000FF3FFFF9FFFFCFFFFE7FFFF3FFFF9FFF3E
:10259000FCFFFFE7FFFF007FFFF3FFFF9FFFFCFF54
:1025A000FFE7FFFF3FFFF9FFFFCFFFFE7FFFF3FFD6
:1025B000FF9FFFFCFFFFE7FFFF007FFFF3FFFF9F91
:1025C000FFFCFFFFE7FFFF3FFFF9FFFFCFFFFE7FAD
:1025D000FFF3FFFF9FFFFCFFFFE7FFFF007FFFF31D
:1025E000FFFF9FFFFCFFFFE7FFFF3FFFF9FFFFCF6C
:1025F000FFFE7FFFF3FFFF9FFFFCFFFFE7FFFF00F2
:102600007FFFF3FFFF9FFFFCFFFFE7FFFF3FFFF9A7
:10261000FFFFCFFFFE7FFFF3FFFF9FFFFCFFFFE702
:10262000FFFF007FFFF3FFFF9FFFFCFFFFE7FFFFC0
:102630003FFFF9FFFFCFFFFE7FFFF3FFFF9FFFFC90
:10264000FFFFE7FFFF007FFFF3FFFF9FFFFCFFFFA0
:10265000E7FFFF3FFFF9FFFFCFFFFE7FFFF3FFFF25
:102660009FFFFCFFFFE7FFFF007FFFF3FFFF9FFFE0
:10267000FCFFFFE7FFFF3FFFF9FFFFCFFFFE7FFFFC
:10268000F3FFFF9FFFFCFFFFE7FFFF007FFFF3FF6C
:10269000FF9FFFFCFFFFE7FFFF3FFFF9FFFFCFFFBB
:1026A000FE7FFFF3FFFF9FFFFCFFFFE7FFFF007FC1
:1026B000FFF3FFFF9FFFFCFFFFE7FFFF3FFFF9FF77
:1026C000FFCFFFFE7FFFF3FFFF9FFFFCFFFFE7FF52
:1026D000FF007FFFF3FFFF9FFFFCFFFFE7FFFF3FD0
:1026E000FFF9FFFFCFFFFE7FFFF3FFFF9FFFFCFF20
:1026F000FFE7FFFF007FFFF3FFFF9FFFFCFFFFE708
:10270000FFFF3FFFF9FFFFCFFFFE7FFFF3FFFF9FBC
:10271000FFFCFFFFE7FFFF007FFFF3FFFF9FFFFCD2
:10272000FFFFE7FFFF3FFFF9FFFFCFFFFE7FFFF354
:10273000FFFF9FFFFCFFFFE7FFFF007FFFF3FFFFAF
:102740009FFFFCFFFFE7FFFF3FFFF9FFFFCFFFFE0B
:102750007FFFF3FFFF9FFFFCFFFFE7FFFF007FFF0F
:10276000F3FFFF9FFFFCFFFFE7FFFF3FFFF9FFFFC6
:10277000CFFFFE7FFFF3FFFF9FFFFCFFFFE7FFFFA1
:10278000007FFFF3FFFF9FFFFCFFFFE7FFFF3FFF1F
:10279000F9FFFFCFFFFE7FFFF3FFFF9FFFFCFFFF6F
:1027A000E7FFFF0000000000000000000000000044
:1027B0000000000000000000000000000000000019
:1027C0000000000000000000000000000000000009
:1027D00000000000000000000007070007070007D6
:1027E00007000707000000000000000000000000D4
:1027F00000000000000000000000000000000000D9
:1028000000000000000000000000000000000000C8
:1028100000001C1C001C1C001C1C001C1C000000D8
:1028200000000000000000000000000000000000A8
:102830000000000000000000000000000000000098
:1028400000000000000000000000000000000E0E6C
:10285000000E0E000E0E000E0E0000000000000024
:102860000000000000000000000000000000000068
:102870000000000000000000000000000000000058
:10288000000E0E000E0E000E0E000E0E00000000D8
:102890000000000000000000000000000000000038
:1028A0000000000000000000000000000000000028
:1028B000000000000000000000000E0E001F1F00BE
:1028C0001F1F001F1F001F1F000E0E000000000032
:1028D00000000000000000000000000000000000F8
:1028E0000000000000000000000003F8000FFE00E0
:1028F0001FFF0031F18020E08020E08020E0806038
:10290000E0C071F1C07FFFC07FFFC07FFFC07FFFCD
:10291000C07FFFC079F3C030E180000000000000FC
:10292000000000071C0008A20010410020008040A9
:102930000040400040400040400040200080100126
:102940000008020004040002080001100000A000BA
:102950000040000000000000000000000000000730
:102960001C000FBE001FFF003FFF803FFF803FFFA6
:10297000803FFF801FFF000FFE0007FC0003F800F0
:1029800001F00000E000004000000000000000EF47
:1029900003038002CF0300C130ED0464031281E819
:1029A00003850078CB05392C003402F70120EA02B8
:1029B0000000C00123C10110C5023E28C7018636B0
:1029C00001483701003A0155B1020018B6030882E8
:1029D00027F20100260101E00F0F312B0C0E084EEB
:1029E000F1370710030E0900E10F000E1403110761
:1029F00031C148080F0C31360F11802980000000CA
:102A00000000240027002A00000000080002010046
:102A10000003040700000000000000000102040899
:102A20001020408001020408102001020408102038
:102A300000000000250028002B0004040404040406
:102A400004040202020202020303030303038D2EA5
:102A500011241FBECFEFD8E0DEBFCDBF12E0A0E053
:102A6000B1E0E2E2F1E602C005900D92A83DB107A7
:102A7000D9F725E0A8EDB2E001C01D92A732B20758
:102A8000E1F715E1C8E2D5E104C02197FE010E94FB
:102A90007D30C732D107C9F70E94382B0C948F3094
:102AA0000C9400006F927F928F929F92AF92BF9290
:102AB000CF92DF92EF92FF920F931F93CF93DF930A
:102AC000EC014B015A0169013801E881F981028466
:102AD000F385E02D0995E881F9810288F389E02DDD
:102AE00087019601A501B401CE010995E881F9811C
:102AF000A501460D571D415051090288F389E02D6B
:102B00009601B401CE010995E881F9810088F18927
:102B1000E02D9301A501B401CE010995E881F98169
:102B2000C80CD91CB601615071090088F189E02DEB
:102B30009301A501CE010995E881F9810688F789FD
:102B4000E02DCE01DF91CF911F910F91FF90EF907B
:102B5000DF90CF90BF90AF909F908F907F906F90BD
:102B60000994CF92DF92EF92FF920F931F93CF932E
:102B7000DF9300D000D000D0CDB7DEB76C01DC0110
:102B8000ED91FC916217730789F4041715072CF473
:102B9000942F852FA801092F182F041B150B9801BE
:102BA0002F5F3F4F048CF58DE02D12C04017510769
:102BB00009F5261737072CF4962F872FB901292FEF
:102BC000382F261B370B2F5F3F4F068CF78DE02DDC
:102BD0008701C601099526960FB6F894DEBF0FBE91
:102BE000CDBFDF91CF911F910F91FF90EF90DF90BC
:102BF000CF9008950284F385E02D2D833E834B838F
:102C00005C8369837A830995D601ED91FC910488F0
:102C1000F589E02D2D813E814B815C8169817A812E
:102C2000C6010995D601ED91FC910688F789E02D42
:102C3000C60126960FB6F894DEBF0FBECDBFDF915A
:102C4000CF911F910F91FF90EF90DF90CF9009945B
:102C5000EF92FF920F931F93DC01ED91FC9111977E
:102C60001A960D911C911B9718962D913C911997CE
:102C700000A0F1A1E02D7B0140E050E060E070E0B9
:102C800009951F910F91FF90EF9008954F925F92D9
:102C90006F927F928F929F92AF92BF92CF92DF926C
:102CA000EF92FF920F931F93CF93DF9300D0CDB796
:102CB000DEB76C015A0139014801DC01ED91FC914C
:102CC0000284F385E02D69837A8309956981462E14
:102CD0007A81572E640C751CD601ED91FC91461437
:102CE00057046CF40088F189E02D87019401A50157
:102CF000B201C6010995BFEF4B1A5B0AEDCF0688FA
:102D0000F789E02DC6010F900F90DF91CF911F91B1
:102D10000F91FF90EF90DF90CF90BF90AF909F907A
:102D20008F907F906F905F904F900994AF92BF9279
:102D3000CF92DF92EF92FF920F931F93CF93DF9387
:102D400000D000D0CDB7DEB75C016901DC01ED91A8
:102D5000FC910284F385E02D4B835C8369837A8345
:102D60000995D501ED91FC9169817A819B012C0D2A
:102D70003D1D215031090488F589E02D78014B81F2
:102D80005C818A01C5010995D501ED91FC91068808
:102D9000F789E02DC5010F900F900F900F90DF91F4
:102DA000CF911F910F91FF90EF90DF90CF90BF9048
:102DB000AF900994AF92BF92CF92DF92EF92FF92C1
:102DC0000F931F93CF93DF9300D000D0CDB7DEB722
:102DD0005C016901DC01ED91FC910284F385E02D39
:102DE0004B835C8369837A830995D501ED91FC91CE
:102DF0004B815C81C40ED51EB1E0CB1AD10804888A
:102E0000F589E02D7801860169817A819B01C501F0
:102E10000995D501ED91FC910688F789E02DC50152
:102E20000F900F900F900F90DF91CF911F910F9106
:102E3000FF90EF90DF90CF90BF90AF9009940895EE
:102E4000EF92FF920F931F93DC01ED91FC9100A094
:102E5000F1A1E02D09951F910F91FF90EF9008953A
:102E60000F931F93DC01ED91FC91068CF78DE02D03
:102E700009951F910F9108950F931F93DC01ED9118
:102E8000FC91048CF58DE02D09951F910F9108950B
:102E9000DC01ED91FC910084F185E02D0994089509
:102EA0002F923F924F925F926F927F928F929F925A
:102EB000AF92BF92CF92DF92EF92FF920F931F9348
:102EC000CF93DF9300D01F92CDB7DEB74C017B8349
:102ED0006A836A01590117019801241B350B37FFDA
:102EE00003C0319521953109C5014A815B81841B5D
:102EF000950B97FF03C091958195910951E05983F6
:102F00008217930714F019820BC09A2D8B2D58014C
:102F1000092F182F9A818B81DB82CA82C92ED82E65
:102F20008A819B81A816B9065CF49C2D8D2D6801C1
:102F3000092F182F9A818B81BB82AA82A92EB82EC5
:102F40002501AA81BB814A1A5B0A38016C187D08E9
:102F500077FE03C0719461947108720157FE03C03B
:102F6000BFEFEB1AFB0AF594E794C016D1061CF0EC
:102F70000FEF1FEF1FC001E010E01CC0D401ED9166
:102F8000FC91B9810484F585E02D9101BB23C1F04A
:102F90004A815B81B601C4010995E618F708F7FE7E
:102FA00004C0C00ED11EE40CF51CEA81FB813196F1
:102FB000FB83EA834A815B81A416B506FCF604C054
:102FC000A6016A817B81E7CF0F900F900F90DF9170
:102FD000CF911F910F91FF90EF90DF90CF90BF9016
:102FE000AF909F908F907F906F905F904F903F90A9
:102FF0002F90089585ED8093BC008091BC0084FDE6
:10300000FCCF10920704089540918203262F30E0F0
:10301000240F311D21323105DCF4209107042430C6
:10302000C9F4FC0180E090E0861758F430918203E7
:103030002191DC01A05ABC4FA30FB11D2C93019626
:10304000F3CF80918203680F6093820380E008953C
:1030500081E0089582E008950895E091C003809191
:10306000BF03E81730F4F0E0EF53FC4F808190E0AD
:1030700008958FEF9FEF08959091C0038091BF0353
:10308000981750F4E92FF0E0EF53FC4F208130E027
:103090009F5F9093C00302C02FEF3FEFC9010895D7
:1030A0008091BF0390E02091C003821B9109089595
:1030B000CF92DF92EF92FF920F931F93CF93DF9304
:1030C0007C01262F972F8A0180912A04882391F072
:1030D000C62FD72F6E01C40ED51ECC15DD0571F09D
:1030E0006991D701ED91FC910190F081E02DC7012C
:1030F0000995F3CF642F822F0E940418C801DF9135
:10310000CF911F910F91FF90EF90DF90CF90089596
:10311000CF93DF931F92CDB7DEB7698320912A0446
:103120002223D1F020912804203240F021E030E029
:10313000FC013383228380E090E015C08091290454
:10314000E82FF0E0E85FFB4F998190838F5F8093D9
:1031500029048093280405C061E0CE0101960E94F5
:10316000041881E090E00F90DF91CF9108950895C9
:1031700080E090E008952F923F924F925F926F927D
:103180007F928F929F92AF92BF92CF92DF92EF92F7
:10319000FF920F931F93CF93DF93CDB7DEB76C975A
:1031A0000FB6F894DEBF0FBECDBF9C8F8B8F5B0137
:1031B0001A011F830E833701C982DC0158964D9195
:1031C0005C9159974115510509F0E5C018968D910C
:1031D0009C911997681779070CF0CAC11A968D91BE
:1031E0009C911B97281639060CF0C2C18C2C912C8F
:1031F000FB0136E0C39EE00DF11D1124FB87EA8739
:103200001E161F060CF0B4C1C40133E0880F991FCD
:103210003A95E1F79D878C87820D931D1816190644
:103220000CF0A6C157968C91811103C0203B08F089
:103230002F5FAB8DBC8DED91FC9111970284F385CE
:10324000E02DCD012A8F09952A8DB5E02B9F9001A5
:103250001124F5013596FF87EE87BB82AA822501EE
:10326000A9014A195B09598B488BC10108969B8BB0
:103270008A8BE889F989E40DF51DE950FE4F949198
:10328000988761013D822C82A885A0FF13C0AB8D79
:10329000BC8DED91FC91B981B13031F40484F58598
:1032A000E02D2E813F8116C00684F785E02DEE804B
:1032B000FF801AC0EE81FF816E167F06F1F0AB8DA4
:1032C000BC8DED91FC91B981B13051F40484F58548
:1032D000E02D9301A601B2018B8D9C8D09950DC047
:1032E0000684F785E02D7301840194014C815D8192
:1032F0006A817B818B8D9C8D0995E885E695E887B1
:10330000FFEFCF1ADF0A2C813D81280D391D3D8347
:103310002C834A895B89C416D50609F0B5CF5FEFC7
:10332000451A550A8A819B81880D991D9B838A8342
:10333000AE85BF854A165B0609F09BCFEE81FF8103
:103340006E167F0609F4F2C0EB8DFC8DA081B18171
:10335000F981F13079F4B5016B5F7F4F5096ED91B3
:10336000FC915197830128E030E0A1018B8D9C8D69
:103370000995DCC06A857B85681979091E96ED91EF
:10338000FC911F9773010C851D859401A1018B8D04
:103390009C8D0995CBC0FA01349694913297659132
:1033A0007491291BCB01B7E02B9F800D911D112437
:1033B000FA01259134913B8B2A8BFC014591549164
:1033C0005B834A83FC013296C490319654915E87A8
:1033D000329614913196D4908981823058F0612EC2
:1033E000012E000C7708AD2D0D2C000CBB0BB987FE
:1033F000A88704C019861886612C712CAB8DBC8DF2
:10340000ED91FC9111970284F385E02DCD01099592
:10341000B9818B2E912C689CC001699C900D789C81
:10342000900D1124FC01EA0DFB1DFD87EC871C8229
:10343000712C612CE12F110FFF0B95012E0F3F1FF7
:103440003B872A87AC0CB11CA5014E0F5F1F5F8B19
:103450004E8BC1018D0D911DD7FC9A95998F888F48
:103460004E85641608F062C0862D90E04885598527
:10347000480F591F489D9001499D300D589D300DB2
:103480001124D901A20DB31DB98BA88BAA84BB84CA
:103490004C845D84DC80BA85DB1AE88DF98DE80FF9
:1034A000F91FFD8BEC8B8D2D8A0D2E893F89A2167D
:1034B000B306B9F1877061F48A819B810196EA892C
:1034C000FB89AA81BB81EA0FFB1F74909B838A83CF
:1034D00077FE20C0AB8DBC8DED91FC91B981B130F0
:1034E00061F40484F585E02D2E813F814C895D894E
:1034F000B5018B8D9C8D09950DC00684F785E02D57
:10350000EE80FF808401940148895989B2018B8D36
:103510009C8D0995770CEFEFAE1ABE0A480C591C2A
:10352000C2CF3C813C0D3C8363949ACFAB8DBC8D64
:10353000ED91FC9111970688F789E02DCD016C96ED
:103540000FB6F894DEBF0FBECDBFDF91CF911F91B4
:103550000F91FF90EF90DF90CF90BF90AF909F9032
:103560008F907F906F905F904F903F902F90099435
:103570006C960FB6F894DEBF0FBECDBFDF91CF9132
:103580001F910F91FF90EF90DF90CF90BF90AF9081
:103590009F908F907F906F905F904F903F902F9073
:1035A00008951F920F920FB60F9211242F933F93FD
:1035B0004F935F936F937F938F939F93AF93BF933B
:1035C000EF93FF938091B900887F803609F49CC007
:1035D00068F5883209F45BC090F4803109F454C076
:1035E00038F4882309F4F6C0883009F44DC0F6C0D9
:1035F000883109F44CC0803209F45DC0EFC08034DA
:1036000009F468C048F4803309F455C0883309F0E0
:10361000E5C080930504D8C0803509F44FC08835D3
:1036200009F45DC0883409F0D9C0D6C0883909F4DE
:10363000C7C0A8F4883709F467C038F4883609F49D
:1036400063C0803709F460C0C9C0883809F4B8C0C5
:10365000803909F45FC0803809F0C0C05BC0803B8E
:1036600009F486C038F4803A09F466C0883A09F44F
:103670007FC0B4C0803C09F4A7C0883C09F4A4C052
:10368000883B09F48AC0AAC08091E20310C09091DF
:10369000040480910304981770F5E091040481E01C
:1036A0008E0F80930404F0E0ED51FC4F80818093F5
:1036B000BB0085EC86C0809305048EC0E0910404B5
:1036C00081E08E0F809304048091BB00F0E0ED5107
:1036D000FC4F808390910404809103046EC0E091BC
:1036E000040481E08E0F809304048091BB00F0E01D
:1036F000ED51FC4F80838091060481116DC081E003
:103700008093E10384EA61C083E080930704109210
:10371000A603CFCF8091A603803208F051C0E0917C
:10372000A60381E08E0F8093A6038091BB00F0E09A
:10373000EA57FC4F8083BDCF85EC8093BC0010928C
:1037400007048091A603803230F4E091A603F0E0F4
:10375000EA57FC4F10826091A60370E0E091840369
:10376000F091850386E893E009951092A60336C090
:1037700084E0809307041092830310928203E09107
:103780008003F0918103099580918203811105C026
:1037900081E08093820310926003E091830381E0D3
:1037A0008E0F80938303F0E0E05AFC4F808180937A
:1037B000BB009091830380918203981708F479CF1E
:1037C00085E88093BC000AC085EC8093BC00109211
:1037D000070404C0109205040E94FA17FF91EF91AC
:1037E000BF91AF919F918F917F916F915F914F9119
:1037F0003F912F910F900FBE0F901F9018951F9221
:103800000F920FB60F9211248F929F92AF92BF9298
:10381000CF92DF92EF92FF920F931F932F933F93DC
:103820004F935F936F937F938F939F93AF93BF93C8
:10383000CF93DF93EF93FF9380915E0390915F03AB
:10384000019690935F0380935E0380915A03909159
:103850005B03019709F032C180915C0390915D0395
:103860000196843F21E092072CF490935D038093AE
:103870005C0324C110925D0310925C0310925F03FD
:1038800010925E0360915803709159034EEB51E022
:1038900080915603909157030E941C286091580311
:1038A0007091590345E851E0809156039091570378
:1038B0000E941C2860915803709159034CE451E018
:1038C00080915603909157030E941C286091E20456
:1038D0007091E3048091E4049091E5040E944220F9
:1038E00020915603309157033093430320934203B2
:1038F000809158039091590390934503809344031A
:10390000A9014B5E5F4F509347034093460390934A
:1039100049038093480330934B0320934A03AC013F
:103920004B5E5F4F50934D0340934C03A9014551AB
:10393000510950934F0340934E039093510380934A
:1039400050033093530320935203459790935503AC
:1039500080935403C2E4D3E07E013EEDA32E32E017
:10396000B32EF501019111915F01F70180809180E3
:10397000000F111F000F111F0E5F1E4FF8018081F5
:1039800091818816990679F5F701C280D380F801F4
:1039900082819381C816D90631F5C4014697833DCB
:1039A000910508F5C6014F97893A9105E0F4B601F3
:1039B000C4010E94B41E892BB1F043E151E0B6016D
:1039C000C4010E941C28F801118210821382128205
:1039D0008091DC029091DD0201969093DD0280934C
:1039E000DC020E945A1EF4E4AF16F3E0BF0609F0B1
:1039F000B8CF24E0E20EF11C86E5E81683E0F80675
:103A000009F0ABCFC880D980C6014697833D9105A8
:103A100008F040C0AA80BB80C5014F97893A910544
:103A2000C8F5B501C6010E94B41E892B99F180EE3C
:103A3000E82EFF24FA9403E110E023E130E04AEDA0
:103A400050E0B501C6010E94CB1E6A817B819AE6D7
:103A5000E92E9DEFF92E23E130E041EA50E0888124
:103A600099810E94CB1E6A817B81E12C28EFF22E86
:103A700023E130E048E650E0888199810E94CB1E26
:103A8000288139818091E4049091E5042817390751
:103A900009F461C02496E3E0C635DE0709F0B2CF31
:103AA00081E090E09093DB028093DA021092D902D9
:103AB0001092D80210925B0310925A038091DA029E
:103AC0009091DB02019709F05CC080915E039091B8
:103AD0005F03843F91400CF454C010925F03109236
:103AE0005E03C2E4D3E008811981C8014697833D93
:103AF000910538F5EA80FB80C7014F97893A910517
:103B000000F5B701C8010E94B41E892BD1F04AED1F
:103B100050E0B701C8010E941C286A817B8141EAFC
:103B200050E0888199810E941C286A817B8148E647
:103B300050E0888199810E941C28198218821B827A
:103B40001A82249623E0C635D20769F61092DB026A
:103B50001092DA0216C02A813B818091E204909192
:103B6000E3042817390709F095CF8091000190915F
:103B70000101019790930101809300010E94541F5D
:103B800089CFFF91EF91DF91CF91BF91AF919F913D
:103B90008F917F916F915F914F913F912F911F91E5
:103BA0000F91FF90EF90DF90CF90BF90AF909F90DC
:103BB0008F900F900FBE0F901F9018958091B303B8
:103BC0009091B4032091B1033091B203EAE2F2E0A4
:103BD00042815381608171818617970719F42417F8
:103BE000350741F0349642E0EA37F40789F781E07F
:103BF00090E0089580E090E008958091B303909163
:103C0000B4032091B1033091B203AEEDB2E0ED9177
:103C1000FD91EE0FFF1FEE0FFF1FEE5FFE4F408185
:103C200051818417950729F4428153812417350760
:103C300039F043E0A234B40751F781E090E00895F1
:103C400080E090E008950F931F93CF93DF93EC01F2
:103C50008B0144EE58E20E941C284BEA58E2B8015E
:103C6000CE010E941C288091AF039091B003813057
:103C7000910519F442E758E210C08230910519F419
:103C800049E358E20AC08330910519F440E058E254
:103C900004C0049751F447EC57E2B801CE01DF911C
:103CA000CF911F910F910C941C28DF91CF911F9100
:103CB0000F9108958F929F92BF92CF92DF92EF92D1
:103CC000FF920F931F93CF93DF93E12CF12C0EE023
:103CD00010E026E130E045E550E06DE171E086EE70
:103CE00094E00E940B21C6EED4E08DE1882E992449
:103CF00093949D868C8685E590E09F878E87CC2463
:103D0000CA94DC2CDB8ACA8AD98AC88A22E0B22EFD
:103D1000BC8A1E8A8091DC029091DD020E94652897
:103D200026E130E049E950E06DE171E0CE010E940A
:103D30000B219D868C8689E990E09F878E87DB8AA0
:103D4000CA8AD98AC88ABC8A1E8A80E090E0DF913C
:103D5000CF911F910F91FF90EF90DF90CF90BF9088
:103D60009F908F900C946528EAE2F2E022813381E3
:103D7000408151818417950719F46217730741F048
:103D8000349622E0EA37F20789F781E090E008955F
:103D900080E090E008952F923F924F925F927F9241
:103DA0008F929F92AF92BF92CF92DF92EF92FF924B
:103DB0000F931F93CF93DF93CDB7DEB728970FB63E
:103DC000F894DEBF0FBECDBF1C012B014A01590183
:103DD0001C830B83C901079697FD07969C0193E00E
:103DE000359527959A95E1F73A832983C12CD12CF3
:103DF00000E010E0EB81FC810E171F070CF03CC0C7
:103E000018861F82F801E40DF51DFE83ED832F81D6
:103E100038852A153B054CF58F8198858770992741
:103E2000892B11F0770C0EC0EF81F885F7FD3796DE
:103E300083E0F595E7958A95E1F7EC0DFD1DE80D1A
:103E4000F91D749077FE0BC097014D815E816F81E3
:103E50007885620D731D86EE94E00E94C0218F81EB
:103E60009885019698878F83D2CF0F5F1F4F8981E6
:103E70009A81C80ED91EBECF28960FB6F894DEBF21
:103E80000FBECDBFDF91CF911F910F91FF90EF90AB
:103E9000DF90CF90BF90AF909F908F907F905F907A
:103EA0004F903F902F900895EF92FF920F931F93A2
:103EB0008091000190910101039719F5E12C38EFF1
:103EC000F32E03E110E023E130E046E559E26FE034
:103ED00070E08AE191E00E94CB1E23E130E046E5EC
:103EE00059E263E270E08AE191E00E94CB1E23E197
:103EF00030E046E559E267E370E08AE191E00E9434
:103F0000CB1E8091000190910101029759F5E12C9F
:103F100028EFF22E03E110E023E130E046E559E21C
:103F20006FE070E08AE191E00E94CB1E23E130E077
:103F300046E559E263E270E08AE191E00E94CB1E1F
:103F400046E559E267E370E08AE191E00E941C28AF
:103F500023E130E04DE159E267E370E08AE191E06E
:103F60000E94CB1E8091000190910101019799F56B
:103F7000E12C98EFF92E03E110E023E130E046E573
:103F800059E26FE070E08AE191E00E94CB1E46E5C5
:103F900059E263E270E08AE191E00E941C2823E18B
:103FA00030E04DE159E263E270E08AE191E00E9485
:103FB000CB1E46E559E267E370E08AE191E00E949A
:103FC0001C2823E130E04DE159E267E370E08AE12B
:103FD00091E00E94CB1EE12C88EFF82E03E110E067
:103FE00023E130E046E559E26FEA70E08AE191E0D2
:103FF0000E94CB1E23E130E046E559E263EC70E01D
:104000008AE191E00E94CB1E23E130E046E559E2CF
:1040100067ED70E08AE191E00E94CB1E1F910F9145
:10402000FF90EF900895CF93DF938091DA02909103
:10403000DB02019721F5C2E4D3E02091B303309174
:10404000B4038881998128173907A1F42091B1031D
:104050003091B2038A819B812817390759F48091E6
:10406000000190910101019790930101809300015B
:104070000E94541F249683E0C635D807F1F6DF91DD
:10408000CF910895AF92BF92CF92DF92EF92FF92BD
:104090000F931F93CF93DF936C015B01E12C48EFEB
:1040A000F42E03E110E023E130E044EE58E20E94F8
:1040B000CB1EEE24EA94FE2C23E130E04BEA58E2DA
:1040C000B501C6010E94CB1EC091AD03D091AE03D5
:1040D000C130D10541F43FE1E32EF12C23E130E082
:1040E00042E758E231C0CE018D7F892BA1F42FE148
:1040F000E22EF12C03E110E023E130E049E358E245
:10410000B501C6010E94CB1E82E090E09093B003FF
:104110008093AF0321C0C330D10551F49FE1E92E54
:10412000F12C03E110E023E130E040E058E20CC064
:10413000C430D10589F48FE1E82EF12C03E110E0C1
:1041400023E130E047EC57E2B501C6010E94CB1EE7
:10415000D093B003C093AF03DF91CF911F910F9124
:10416000FF90EF90DF90CF90BF90AF900895EF92C7
:10417000FF920F931F9380915A0390915B030197D5
:1041800009F044C060915803709159038AEBE82EFE
:1041900086EDF82E03E110E023E130E04EEB51E034
:1041A00080915603909157030E94CB1E6091580353
:1041B00070915903E12CF12C23E130E045E851E006
:1041C00080915603909157030E94CB1E6091580333
:1041D000709159039AE6E92E9DEFF92E23E130E024
:1041E0004CE451E080915603909157030E94CB1EFE
:1041F0006091E2047091E3048091E4049091E504FD
:104200001F910F91FF90EF900C9442201F910F91FE
:10421000FF90EF900895CF92DF92EF92FF920F936D
:104220001F93CF93DF9300D000D000D0CDB7DEB77F
:104230006C01DC01ED91FC910284F385E02D2D836E
:104240003E834B835C8369837A830995D601ED9124
:10425000FC910684F785E02D2D813E814B815C81A8
:1042600069817A81C6010995D601ED91FC91068894
:10427000F789E02DC60126960FB6F894DEBF0FBE73
:10428000CDBFDF91CF911F910F91FF90EF90DF9005
:10429000CF900994EF92FF920F931F93CF93DF93E8
:1042A00000D000D000D0CDB7DEB77C01DC01ED91AD
:1042B000FC910284F385E02D2D833E834B835C8348
:1042C00069837A830995D701ED91FC910288F3897E
:1042D000E02D2D813E814B815C8169817A81C7010E
:1042E0000995D701ED91FC910688F789E02DC7016A
:1042F00026960FB6F894DEBF0FBECDBFDF91CF91EB
:104300001F910F91FF90EF900994EF92FF920F93FE
:104310001F93CF93DF9300D000D000D0CDB7DEB78E
:104320007C01DC01ED91FC910284F385E02D2D836D
:104330003E834B835C8369837A830995D701ED9132
:10434000FC910088F189E02D2D813E814B815C81BB
:1043500069817A81C7010995D701ED91FC910688A1
:10436000F789E02DC70126960FB6F894DEBF0FBE81
:10437000CDBFDF91CF911F910F91FF90EF900994E6
:104380000F931F93CF93DF9300D000D000D0CDB711
:10439000DEB78C01DC01ED91FC910284F385E02D08
:1043A0002D833E834B835C8369837A830995D8018F
:1043B000ED91FC910484F585E02D2D813E814B81AA
:1043C0005C8169817A81C8010995D801ED91FC91E0
:1043D0000688F789E02DC80126960FB6F894DEBF4F
:1043E0000FBECDBFDF91CF911F910F910994EF9236
:1043F000FF920F931F93DC01ED91FC910684F785EA
:10440000E02D780101E010E009951F910F91FF90D8
:10441000EF900895EF92FF920F931F93DC01ED91BF
:10442000FC910684F785E02D7801890121E030E0D8
:1044300009951F910F91FF90EF900895FC0193A9AA
:1044400006A4F7A5E02D8081892B80830895CF9362
:10445000DF93FC0183A187FF05C06EBD0DB407FE8D
:10446000FDCF2EC028E030E040E8A6A1B7A1842F00
:10447000862321F080A99C91892B0AC090A98C9158
:10448000C82FD0E0892F90E0809590958C239D23B4
:104490008C9392A9C2A5D3A58881A82FB0E0892FBB
:1044A00090E0809590958A239B23888382A9A2A57A
:1044B000B3A59C91892B8C93469521503109A9F67F
:1044C000DF91CF9108954F925F926F927F928F927A
:1044D0009F92AF92BF92CF92DF92EF92FF920F9393
:1044E0001F93CF93DF93EC016B015901480128859D
:1044F0003985621773070CF067C08A859B8548175A
:1045000059070CF061C08B010A0D1B1DF801319792
:10451000DA01A80DB91DBD0161507109F7FD54C044
:1045200077FD52C0D7FE03C05801C12CD12C57FFD4
:1045300003C04D0140E050E0E217F3071CF05901C1
:10454000AC18BD08681779071CF04C01841A950A4D
:104550009501D4010E945A303B01582E492EE88122
:10456000F98102A4F3A5E02D8401B601CE010995DD
:104570004301A52CB42C8BA187FF13C08114910497
:10458000A104B10409F1FEBC0DB407FEFDCFEEBCE1
:104590000DB407FEFDCF81E0881A9108A108B1088B
:1045A000EDCF81149104A104B10471F06F2DCE01FF
:1045B0000E9427226E2DCE010E94272281E0881AB8
:1045C0009108A108B108EDCFDF91CF911F910F9114
:1045D000FF90EF90DF90CF90BF90AF909F908F9023
:1045E0007F906F905F904F900895EF92FF920F939E
:1045F0001F93CF93DF93EC0177FD33C088859985B6
:104600006817790774F557FD2CC08A859B85481774
:1046100059073CF5E32EF22EE881F98102A4F3A5B7
:10462000E02D01E010E021E030E0CE0109958BA102
:1046300087FF09C0EEBC0DB407FEFDCFFEBC0DB474
:1046400007FEFDCF0EC06E2DCE010E9427226F2DDA
:10465000CE01DF91CF911F910F91FF90EF900C94BD
:104660002722DF91CF911F910F91FF90EF90089536
:10467000CF93DF93EC019CA9ECA5FDA52081422FEF
:1046800050E0292F30E020953095242335232083D6
:10469000CE010E9427228CA9ECA5FDA59081892B33
:1046A0008083DF91CF9108958F929F92AF92BF92B6
:1046B000CF92DF92EF92FF920F931F93CF93DF93EE
:1046C000EC01490181E0881A9108860E971EC40109
:1046D000A0E0B0E04B01A12CB12C54019924882416
:1046E000882A992AAA2ABB2A680181E0C81AD10817
:1046F000C40ED51EC601A0E0B0E06A01E12CF12C89
:104700007601DD24CC24C82AD92AEA2AFB2A6AE2C7
:10471000CE010E9438232BA16B2D7727882799275C
:1047200027FF18C06EBD0DB407FEFDCFC501AA2737
:10473000BB278EBD0DB407FEFDCFBB27AB2D9A2D39
:10474000892D8EBD0DB407FEFDCF8EBC0DB407FEC6
:10475000FDCF14C0CE010E942722B50188279927DA
:10476000CE010E94272299278B2D7A2D692DCE010B
:104770000E942722682DCE010E9427226BE2CE01E3
:104780000E9438232BA16F2D77278827992727FF91
:1047900018C06EBD0DB407FEFDCFC701AA27BB2709
:1047A0008EBD0DB407FEFDCFBB27AF2D9E2D8D2DE9
:1047B0008EBD0DB407FEFDCFCEBC0DB407FEFDCF00
:1047C00014C0CE010E942722B70188279927CE0165
:1047D0000E94272299278F2D7E2D6D2DCE010E94BC
:1047E00027226C2DCE010E9427226CE2CE01DF91A0
:1047F000CF911F910F91FF90EF90DF90CF90BF90DE
:10480000AF909F908F900C9438230F931F93CF936A
:10481000DF931F92CDB7DEB78C01DC01ED91FC91E7
:104820000284F385E02D698309956981611102C0D5
:1048300060E201C061E2C8010E943823D801ED9115
:10484000FC910688F789E02DC8010F90DF91CF9188
:104850001F910F9109941F93CF93DF93EC01637025
:104860006D8B6230C1F0633001F1613051F080EF47
:1048700090E09987888780E491E09B878A8718E495
:104880001DC080E491E09987888780EF90E09B8746
:104890008A8718E213C080EF90E09987888780E4C8
:1048A00091E09B878A8718E809C080E491E09987A6
:1048B000888780EF90E09B878A8718EEE881F981EE
:1048C0000284F385E02DCE01099566E3CE010E94B6
:1048D0003823612FCE010E942722E881F9810688C2
:1048E000F789E02DCE01DF91CF911F9109940F93AD
:1048F0001F93CF93DF931F92CDB7DEB78C01DC01FE
:10490000ED91FC910284F385E02D6983099569811D
:10491000662319F0F80165A903C0D801D6966C91F9
:10492000C8010E943823D801ED91FC910688F789CF
:10493000E02DC8010F90DF91CF911F910F91099445
:104940000895FC016370658B848195812681378190
:10495000613039F0633029F091878087338722876F
:10496000089531872087938782870895BF92CF92D9
:10497000DF92EF92FF920F931F93CF93DF93EC019F
:10498000411551056105710521F440E052E16AE7E6
:1049900070E04C8F5D8F6E8F7F8F88A187FD07C081
:1049A00061E00E94842961E088A10E94382961E0C9
:1049B00089A10E94842960E089A10E9438298BA1E5
:1049C00087FD16C061E08CA10E94842960E08CA163
:1049D0000E94382961E08BA10E94842961E08BA1AB
:1049E0000E9438298DA187FD03C060E00E948429C0
:1049F0008BA187FF33C01FB7F8948091B503811155
:104A000027C0E4E4FAE28491E6E2FAE29491E82F26
:104A1000F0E0EE0FFF1FE250F64DA591B491EC913E
:104A2000E92321F461E08AE00E94382961E08AE00C
:104A30000E9484298CB580618CBD8CB580648CBD4E
:104A400061E08DE00E94842961E08BE00E9484296E
:104A50008091B5038F5F8093B5031FBF8AA187FD47
:104A600021C061E00E94842961E08AA10E94382966
:104A700064E670E080E090E00E94C02960E08AA1D6
:104A80000E94382964E670E080E090E00E94C0292E
:104A900061E08AA10E94382968EC70E080E090E033
:104AA0000E94C029E881F9810284F385E02DCE01BE
:104AB00009950FE819E27801EFEFEE1AFE0AF80106
:104AC0006491662321F1CE010E9438230E5F1F4FAF
:104AD000F701E490FE2DFF77BF2E6801FF2EFA94B8
:104AE0008FEFF81649F0F6016491CE010E9427225B
:104AF000FFEFCF1ADF0AF3CF0B0D111DE7FEDBCF5F
:104B000068E770E080E090E00E94C029D4CFE8819F
:104B1000F9810688F789E02DCE01099580EF90E0B4
:104B20009987888780E491E09B878A87DF91CF917E
:104B30001F910F91FF90EF90DF90CF90BF9008955D
:104B4000FC0183A187FF1EC0448D558D668D778D36
:104B500020E080E092E1AAE7B0E0481759076A0731
:104B60007B0740F4B695A795979587952F5F2630DC
:104B7000A1F727E091E09227892F806A86959170AE
:104B80008CBD9DBD93A906A4F7A5E02D8081282F9B
:104B900030E0892F90E08095909582239323808345
:104BA0000895AF92BF92CF92EF92FF920F931F930F
:104BB000CF93DF93EC01262F888D998D009709F014
:104BC00040C06A3059F41D861C862C898E859F85CD
:104BD00038E0239F800D911D112441C06D3009F4F0
:104BE000AAC08E898823C1F03C898C859D8546E0CA
:104BF000349F800D911D1124488559854817590708
:104C00005CF41D861C868E859F8548E0349F800D50
:104C1000911D11249F878E87EA88FB88088919894E
:104C20004E855F856C857D85CC88CE010E94BB1842
:104C30002C898C859D8536E0239F800D911D112444
:104C400042C06A3079F41D861C862C89FC01369698
:104C5000E4918E859F852E9F800D911D11249F8745
:104C60008E8769C06D3009F466C0FC0134963491BA
:104C7000631708F460C03196E491E61708F45BC04E
:104C8000FC013296A590B490462F50E0431B510989
:104C900037E0349FB001359F700D1124A60EB71E6A
:104CA000F501329634913196E491332311F0E111FC
:104CB0000DC0F5013496E4912C898C859D85E29F89
:104CC000800D911D11249D878C8735C0F501359687
:104CD00044915E89552311F16C89E32FF0E0E40FD4
:104CE000F11D47FDFA956E9FD0016F9FB00D112405
:104CF0004C855D854A0F5B1FE885F985E417F5074C
:104D00006CF41D861C86FC013696E4918E859F8589
:104D10006E9F800D911D11249F878E87EA88FB88E6
:104D2000088919894E855F856C857D85CC88CE0183
:104D30000E94BB18BECF81E090E0DF91CF911F9120
:104D40000F91FF90EF90CF90BF90AF9008953FB735
:104D5000F8948091BB039091BC03A091BD03B091E6
:104D6000BE0326B5A89B05C02F3F19F00196A11DD3
:104D7000B11D3FBFBA2FA92F982F8827820F911DF1
:104D8000A11DB11DBC01CD0142E0660F771F881F38
:104D9000991F4A95D1F708951F920F920FB60F925F
:104DA00011242F933F938F939F93AF93BF93809141
:104DB000B7039091B803A091B903B091BA033091B1
:104DC000B60323E0230F2D3720F40196A11DB11D5A
:104DD00005C026E8230F0296A11DB11D2093B6033E
:104DE0008093B7039093B803A093B903B093BA0329
:104DF0008091BB039091BC03A091BD03B091BE0311
:104E00000196A11DB11D8093BB039093BC03A09399
:104E1000BD03B093BE03BF91AF919F918F913F911E
:104E20002F910F900FBE0F901F901895CF92DF9289
:104E3000EF92FF920F931F93CF93DF936C017A0150
:104E40008B01C0E0D0E0CE15DF0589F0D8016D916F
:104E50008D01D601ED91FC910190F081E02DC6010C
:104E60000995892B11F47E0102C02196ECCFC70170
:104E7000DF91CF911F910F91FF90EF90DF90CF9036
:104E80000895FC01538D448D252F30E0842F90E050
:104E9000821B930B541710F0CF9608950197089535
:104EA000FC01918D828D981761F0828DDF01A80F32
:104EB000B11D5D968C91928D9F5F9F73928F90E054
:104EC00008958FEF9FEF0895FC01918D828D9817C3
:104ED00031F0828DE80FF11D858D90E008958FEF00
:104EE0009FEF0895FC01918D228D892F90E0805CC9
:104EF0009F4F821B91098F7399270895FC01848D20
:104F0000DF01A80FB11DA35ABF4F2C91848D90E0F3
:104F100001968F739927848FA689B7892C93A089CE
:104F2000B1898C9180648C93938D848D981306C085
:104F30000288F389E02D80818F7D80830895EF9230
:104F4000FF920F931F93CF93DF93EC0181E0888F43
:104F50009B8D8C8D981305C0E889F989808185FD2A
:104F600024C0F62E0B8D10E00F5F1F4F0F7311271B
:104F7000E02E8C8DE8120CC00FB607FCFACFE88942
:104F8000F989808185FFF5CFCE010E947E27F1CF80
:104F90008B8DFE01E80FF11DE35AFF4FF0820B8F5E
:104FA000EA89FB898081806207C0EE89FF8960837E
:104FB000E889F98980818064808381E090E0DF91D5
:104FC000CF911F910F91FF90EF900895CF93DF93B2
:104FD000EC01888D8823C9F0EA89FB89808185FDF1
:104FE00005C0A889B9898C9186FD0FC00FB607FC52
:104FF000F5CF808185FFF2CFA889B9898C9185FF93
:10500000EDCFCE010E947E27E7CFDF91CF910895AB
:105010000E948330009769F0FC0101900020E9F7BD
:105020003197AF01481B590BBC0186EE94E00C94FC
:10503000162780E090E008959F92AF92BF92CF92A2
:10504000DF92EF92FF920F931F93CF93DF936C0148
:105050005A018B01E12CF12CC0E0D0E0CE01877029
:105060009927892B11F0990C0BC0FE0183E0F5956F
:10507000E7958A95E1F7EE0DFF1DEA0DFB1D949073
:1050800097FE0AC020E030E0A801BE016C0D7D1D36
:1050900086EE94E00E94C0212196C331D105F1F63D
:1050A0000F5F1F4F83E0E80EF11C89E3E816F1045F
:1050B00099F6DF91CF911F910F91FF90EF90DF90C4
:1050C000CF90BF90AF909F9008958F929F92AF9294
:1050D000BF92CF92DF92EF92FF920F931F93CF93E5
:1050E000DF93CDB7DEB7A1970FB6F894DEBF0FBE42
:1050F000CDBF6C01990FEE08FF08F7FE31C0E091BB
:10510000E604F091E7040190F081E02D6DE286EE77
:1051100094E009958C0122273327A9012C193D0918
:105120004E095F0919A2CE0181967C019AE0892E71
:10513000912CA12CB12CCA01B901A50194010E94A6
:105140001530605DF70162937F012115310541053E
:10515000510589F7CF010E940A28800F911F1DC0B9
:10516000A701960119A28E010F5D1F4F8AE0C82E7C
:10517000D12CE12CF12CCA01B901A70196010E94A2
:105180001530605DF80162938F01211531054105ED
:10519000510589F7CF010E940A28A1960FB6F8940D
:1051A000DEBF0FBECDBFDF91CF911F910F91FF905A
:1051B000EF90DF90CF90BF90AF909F908F90089529
:1051C0001F920F920FB60F9211242F933F934F937C
:1051D0005F936F937F938F939F93AF93BF93EF935F
:1051E000FF9389E394E00E947E27FF91EF91BF91A6
:1051F000AF919F918F917F916F915F914F913F916F
:105200002F910F900FBE0F901F9018951F920F9225
:105210000FB60F9211242F938F939F93EF93FF93C9
:10522000E0914904F0914A048081E0914F04F091AB
:10523000500482FD12C09081809152048F5F8F7361
:1052400020915304821751F0E0915204F0E0E75CA2
:10525000FB4F958F8093520401C08081FF91EF91A5
:105260009F918F912F910F900FBE0F901F901895C7
:1052700090E0FC01E85FF54D3491FC01E45EF54DF2
:105280002491FC01E65CF54DE491EE2309F43BC06A
:10529000332339F1333091F038F43130A9F0323022
:1052A00001F584B58F7D12C0373091F03830A1F010
:1052B0003430B9F4809180008F7D03C080918000EC
:1052C0008F77809380000DC084B58F7784BD09C02F
:1052D0008091B0008F7703C08091B0008F7D809364
:1052E000B000F0E0EE0FFF1FE05DF54DA591B49129
:1052F0008FB7F894EC91611103C020952E2301C063
:105300002E2B2C938FBF0895CF93DF9390E0FC0159
:10531000E45EF54D2491FC01E65CF54D8491882313
:1053200061F190E0880F991FFC01E250F64DC591A4
:10533000D491FC01E05DF54DA591B491611109C0D6
:105340009FB7F8948881209582238883EC912E233F
:105350000BC0623061F49FB7F8943881822F80953A
:1053600083238883EC912E2B2C939FBF06C08FB78D
:10537000F894E8812E2B28838FBFDF91CF91089579
:105380008F929F92AF92BF92CF92DF92EF92FF9255
:105390006B017C010E94A7264B015C01C114D10462
:1053A000E104F104F1F00E94A726DC01CB01881989
:1053B0009909AA09BB09883E9340A105B10570F37C
:1053C00021E0C21AD108E108F10888EE880E83E0D6
:1053D000981EA11CB11CC114D104E104F10419F7F9
:1053E000DDCFFF90EF90DF90CF90BF90AF909F9078
:1053F0008F900895CF93C82F81E080932A0482E58F
:1054000080932105109229041092280486ED94E0DF
:105410000E9488186C2F86ED94E00E948818809175
:105420002804813208F045C0909107049111FCCF07
:1054300092E09093070491E0909306049FEF90937D
:1054400005041092040480930304A8E0B4E023EE62
:1054500033E0F9019E2F921B981718F49D919193B8
:10546000F9CF1092E2038091E203846A8093E20311
:105470008091E103813061F41092E1038091E203B5
:105480008093BB008091BC0083FDF8CF85EC01C008
:1054900085EE8093BC00809107048230E1F3809117
:1054A00005048F3F31F080910504803211F0809126
:1054B0000504109229041092280410922A046AE02C
:1054C00070E080E090E0CF910C94C029EF92FF92C1
:1054D0001F93CF93DF93CDB7DEB72C970FB6F89419
:1054E000DEBF0FBECDBF809107048111FCCF81E0EC
:1054F00080930704809306049FEF90930504109215
:10550000040495E0909303048093E2038091E20306
:10551000846A8093E2038091E103813061F4109208
:10552000E1038091E2038093BB008091BC0083FD86
:10553000F8CF85EC01C085EE8093BC008091070414
:105540008130E1F380910404863018F41091040452
:1055500001C016E0A3EEB3E021EC33E0F9018E2F99
:10556000821B811718F48D918193F9CF1092C0039B
:105570001093BF03CE0101967C018091C0031817E0
:1055800049F086ED94E00E943C18F70181939193D5
:105590007F01F3CF89819A8190932C0480932B040F
:1055A0008B819C8190932E0480932D048B859C8508
:1055B0009C013595279535952795A9014370552769
:1055C0002D813E81220F331F220F331F242B352BB9
:1055D0003093300420932F049C0174E03595279577
:1055E0007A95E1F7A901437055272F813885220F5D
:1055F000331F220F331F242B352B3093320420937B
:1056000031049C01F6E035952795FA95E1F7A9015B
:105610004370552729853A85220F331F220F331FE8
:10562000242B352B30933404209333049C012170B8
:105630003327F1E02F27309336042093350421E0FF
:1056400030E081FF02C020E030E030933804209346
:10565000370460E080E02C960FB6F894DEBF0FBEF2
:10566000CDBFDF91CF911F91FF90EF900C94FA295D
:10567000CF93DF93CDB7DEB7C259D1090FB6F894F7
:10568000DEBF0FBECDBF789484B5826084BD84B583
:10569000816084BD85B5826085BD85B5816085BD2D
:1056A00080916E00816080936E00109281008091E5
:1056B000810082608093810080918100816080936D
:1056C0008100809180008160809380008091B10092
:1056D00084608093B1008091B00081608093B000BD
:1056E00080917A00846080937A0080917A00826051
:1056F00080937A0080917A00816080937A00809113
:105700007A00806880937A001092C1001092C003E2
:105710001092BF03109229041092280410920704DB
:1057200011E0109306041092E10361E082E10E940F
:10573000382961E083E10E9438298091B9008E7F89
:105740008093B9008091B9008D7F8093B90088E47F
:105750008093B80085E48093BC0060EF85E50E94EB
:10576000FA296BEF80E00E94FA290E94662A40E045
:1057700050E0BA0186EE94E00E94B62461E086EE25
:1057800094E00E942B2410928000109281001093CC
:105790006F008091810081608093810080916F0013
:1057A000816080936F001092850010928400E091D8
:1057B0004904F0914A0482E08083E0914504F0912D
:1057C00046041082E0914704F09148048FEC8083F6
:1057D00010925104E0914D04F0914E0486E08083D4
:1057E000E0914B04F0914C04808180618083E091D2
:1057F0004B04F0914C04808188608083E0914B04DD
:10580000F0914C04808180688083E0914B04F0919A
:105810004C0480818F7D808360E070E086EE94E0B0
:105820000E9428162AEBE22E26EDF22E00EF10E061
:1058300021E131E047EF56E060E070E080E090E089
:105840000E94CB1E80E480937C0080917A0080646B
:1058500080937A0080917A0086FDFCCF8091780059
:105860002091790090E0922B0E94D82FC12CD12C4E
:105870009AE4A92EB12C4E0125E9820E911C0E94BA
:10588000D32FB5010E944630FE013196219131910E
:105890002817390721F0E815F905C1F70FC231E0E3
:1058A000C31AD1083FEFC31AD30A83E3C816D10441
:1058B00034F342E950E060E370E0CE0101960E94CB
:1058C00088300E945A1E6FE170E086E190E00E94ED
:1058D00042200E94541FFDE1CF2EDD24D394D092AC
:1058E000F304C092F2048BE690E09093F504809369
:1058F000F40480E098EF9093F9048093F804909377
:10590000F7048093F60412E01093FA041092FC045A
:1059100082ED92E00E940A28D092F304C092F20431
:1059200082E890E09093F5048093F4048FE190E096
:105930009093F9048093F8049093F7048093F6040D
:105940001093FA041092FC0485ED92E00E940A285C
:10595000A2E04A2E512CCC24C394D12C13E0812EEA
:10596000912C04E0602E712C0E94662A80912B04F9
:1059700090912C042091AB033091AC032817390788
:1059800061F44091A9035091AA0320912D04309114
:105990002E044217530709F40AC12091A70330913E
:1059A000A803232B09F003C19093AC038093AB03AE
:1059B00020912D0430912E043093AA032093A90343
:1059C000893C9105CCF10091E4041091E504C801F3
:1059D00045969093B4038093B303A090E204B090F3
:1059E000E304B092B203A092B1034697833D9105C0
:1059F000F0F40E94DE1D0197D1F40E94FD1D019775
:105A0000B1F4B501C8010E94231E6091E2047091B7
:105A1000E3048091B3039091B4030E9442208091EB
:105A2000B3039091B4039093E5048093E4047092DF
:105A3000AE036092AD03B3C0C297CCF50091E4040D
:105A40001091E504C80145979093B4038093B30384
:105A5000A090E204B090E304B092B203A092B1032C
:105A60004697833D9105F0F40E94DE1D0197D1F425
:105A70000E94FD1D0197B1F4B501C8010E94231ECB
:105A80006091E2047091E3048091B3039091B403B8
:105A90000E9442208091B3039091B4039093E50457
:105AA0008093E4049092AE038092AD0378C0293CC9
:105AB0003105CCF10091E4041091E5041093B40396
:105AC0000093B303A090E204B090E304C5014597AE
:105AD0009093B2038093B1034F97893A9105F0F404
